{
  "_format": "hh-sol-artifact-1",
  "contractName": "MerkleTree",
  "sourceName": "contracts/MerkleTree.sol",
  "abi": [
    {
      "inputs": [],
      "stateMutability": "nonpayable",
      "type": "constructor"
    },
    {
      "inputs": [],
      "name": "merkleRoot",
      "outputs": [
        {
          "internalType": "bytes32",
          "name": "",
          "type": "bytes32"
        }
      ],
      "stateMutability": "view",
      "type": "function"
    },
    {
      "inputs": [
        {
          "internalType": "bytes32",
          "name": "_merkleRoot",
          "type": "bytes32"
        }
      ],
      "name": "setMerkleRoot",
      "outputs": [],
      "stateMutability": "nonpayable",
      "type": "function"
    },
    {
      "inputs": [
        {
          "internalType": "bytes32[]",
          "name": "proof",
          "type": "bytes32[]"
        },
        {
          "internalType": "bytes32",
          "name": "leaf",
          "type": "bytes32"
        }
      ],
      "name": "verify",
      "outputs": [
        {
          "internalType": "bool",
          "name": "",
          "type": "bool"
        }
      ],
      "stateMutability": "view",
      "type": "function"
    }
  ],
  "bytecode": "0x608060405234801561001057600080fd5b50610440806100206000396000f3fe608060405234801561001057600080fd5b50600436106100415760003560e01c80632eb4a7ab146100465780637cb6475914610064578063972a2a6214610080575b600080fd5b61004e6100b0565b60405161005b91906101e1565b60405180910390f35b61007e60048036038101906100799190610232565b6100b6565b005b61009a600480360381019061009591906102c4565b6100c0565b6040516100a7919061033f565b60405180910390f35b60005481565b8060008190555050565b6000610110848480806020026020016040519081016040528093929190818152602001838360200280828437600081840152601f19601f8201169050808301925050505050505060005484610119565b90509392505050565b6000826101268584610130565b1490509392505050565b60008082905060005b845181101561017b57610166828683815181106101595761015861035a565b5b6020026020010151610186565b91508080610173906103c2565b915050610139565b508091505092915050565b600081831061019e5761019982846101b1565b6101a9565b6101a883836101b1565b5b905092915050565b600082600052816020526040600020905092915050565b6000819050919050565b6101db816101c8565b82525050565b60006020820190506101f660008301846101d2565b92915050565b600080fd5b600080fd5b61020f816101c8565b811461021a57600080fd5b50565b60008135905061022c81610206565b92915050565b600060208284031215610248576102476101fc565b5b60006102568482850161021d565b91505092915050565b600080fd5b600080fd5b600080fd5b60008083601f8401126102845761028361025f565b5b8235905067ffffffffffffffff8111156102a1576102a0610264565b5b6020830191508360208202830111156102bd576102bc610269565b5b9250929050565b6000806000604084860312156102dd576102dc6101fc565b5b600084013567ffffffffffffffff8111156102fb576102fa610201565b5b6103078682870161026e565b9350935050602061031a8682870161021d565b9150509250925092565b60008115159050919050565b61033981610324565b82525050565b60006020820190506103546000830184610330565b92915050565b7f4e487b7100000000000000000000000000000000000000000000000000000000600052603260045260246000fd5b7f4e487b7100000000000000000000000000000000000000000000000000000000600052601160045260246000fd5b6000819050919050565b60006103cd826103b8565b91507fffffffffffffffffffffffffffffffffffffffffffffffffffffffffffffffff82036103ff576103fe610389565b5b60018201905091905056fea2646970667358221220530434691beb0d1d20f24b91c9e6bd173ac407b8d45bc27b0b02fcce22d8a00064736f6c63430008140033",
  "linkReferences": {},
  "deployedLinkReferences": {}
}