{"contracts/NFTFCFS.sol":{"NFTFCFS":{"abi":[{"inputs":[{"internalType":"uint256","name":"_wlStartTime","type":"uint256"},{"internalType":"uint256","name":"_fcfsStartTime","type":"uint256"},{"internalType":"uint256","name":"_publicStartTime","type":"uint256"},{"internalType":"address[]","name":"whitelist1Addresses","type":"address[]"},{"internalType":"address[]","name":"whitelist2Addresses","type":"address[]"},{"internalType":"string","name":"_baseURI","type":"string"},{"internalType":"string","name":"_notRevealedURI","type":"string"},{"internalType":"address","name":"royaltyReceiver","type":"address"}],"stateMutability":"nonpayable","type":"constructor"},{"inputs":[],"name":"ApprovalCallerNotOwnerNorApproved","type":"error"},{"inputs":[],"name":"ApprovalQueryForNonexistentToken","type":"error"},{"inputs":[],"name":"BalanceQueryForZeroAddress","type":"error"},{"inputs":[{"internalType":"uint256","name":"numerator","type":"uint256"},{"internalType":"uint256","name":"denominator","type":"uint256"}],"name":"ERC2981InvalidDefaultRoyalty","type":"error"},{"inputs":[{"internalType":"address","name":"receiver","type":"address"}],"name":"ERC2981InvalidDefaultRoyaltyReceiver","type":"error"},{"inputs":[{"internalType":"uint256","name":"tokenId","type":"uint256"},{"internalType":"uint256","name":"numerator","type":"uint256"},{"internalType":"uint256","name":"denominator","type":"uint256"}],"name":"ERC2981InvalidTokenRoyalty","type":"error"},{"inputs":[{"internalType":"uint256","name":"tokenId","type":"uint256"},{"internalType":"address","name":"receiver","type":"address"}],"name":"ERC2981InvalidTokenRoyaltyReceiver","type":"error"},{"inputs":[],"name":"MintERC2309QuantityExceedsLimit","type":"error"},{"inputs":[],"name":"MintToZeroAddress","type":"error"},{"inputs":[],"name":"MintZeroQuantity","type":"error"},{"inputs":[],"name":"NotCompatibleWithSpotMints","type":"error"},{"inputs":[{"internalType":"address","name":"owner","type":"address"}],"name":"OwnableInvalidOwner","type":"error"},{"inputs":[{"internalType":"address","name":"account","type":"address"}],"name":"OwnableUnauthorizedAccount","type":"error"},{"inputs":[],"name":"OwnerQueryForNonexistentToken","type":"error"},{"inputs":[],"name":"OwnershipNotInitializedForExtraData","type":"error"},{"inputs":[],"name":"SequentialMintExceedsLimit","type":"error"},{"inputs":[],"name":"SequentialUpToTooSmall","type":"error"},{"inputs":[],"name":"SpotMintTokenIdTooSmall","type":"error"},{"inputs":[],"name":"TokenAlreadyExists","type":"error"},{"inputs":[],"name":"TransferCallerNotOwnerNorApproved","type":"error"},{"inputs":[],"name":"TransferFromIncorrectOwner","type":"error"},{"inputs":[],"name":"TransferToNonERC721ReceiverImplementer","type":"error"},{"inputs":[],"name":"TransferToZeroAddress","type":"error"},{"inputs":[],"name":"URIQueryForNonexistentToken","type":"error"},{"anonymous":false,"inputs":[{"indexed":true,"internalType":"address","name":"owner","type":"address"},{"indexed":true,"internalType":"address","name":"approved","type":"address"},{"indexed":true,"internalType":"uint256","name":"tokenId","type":"uint256"}],"name":"Approval","type":"event"},{"anonymous":false,"inputs":[{"indexed":true,"internalType":"address","name":"owner","type":"address"},{"indexed":true,"internalType":"address","name":"operator","type":"address"},{"indexed":false,"internalType":"bool","name":"approved","type":"bool"}],"name":"ApprovalForAll","type":"event"},{"anonymous":false,"inputs":[{"indexed":true,"internalType":"uint256","name":"fromTokenId","type":"uint256"},{"indexed":false,"internalType":"uint256","name":"toTokenId","type":"uint256"},{"indexed":true,"internalType":"address","name":"from","type":"address"},{"indexed":true,"internalType":"address","name":"to","type":"address"}],"name":"ConsecutiveTransfer","type":"event"},{"anonymous":false,"inputs":[{"indexed":false,"internalType":"uint256","name":"newPrice","type":"uint256"},{"indexed":false,"internalType":"string","name":"phase","type":"string"}],"name":"MintPriceUpdated","type":"event"},{"anonymous":false,"inputs":[{"indexed":true,"internalType":"address","name":"previousOwner","type":"address"},{"indexed":true,"internalType":"address","name":"newOwner","type":"address"}],"name":"OwnershipTransferred","type":"event"},{"anonymous":false,"inputs":[{"indexed":false,"internalType":"bool","name":"status","type":"bool"}],"name":"Revealed","type":"event"},{"anonymous":false,"inputs":[{"indexed":false,"internalType":"uint256","name":"wlStart","type":"uint256"},{"indexed":false,"internalType":"uint256","name":"fcfsStart","type":"uint256"},{"indexed":false,"internalType":"uint256","name":"publicStart","type":"uint256"}],"name":"TimesUpdated","type":"event"},{"anonymous":false,"inputs":[{"indexed":true,"internalType":"address","name":"from","type":"address"},{"indexed":true,"internalType":"address","name":"to","type":"address"},{"indexed":true,"internalType":"uint256","name":"tokenId","type":"uint256"}],"name":"Transfer","type":"event"},{"anonymous":false,"inputs":[{"indexed":false,"internalType":"string","name":"phase","type":"string"},{"indexed":false,"internalType":"address[]","name":"addresses","type":"address[]"}],"name":"WhitelistUpdated","type":"event"},{"inputs":[{"internalType":"address","name":"to","type":"address"},{"internalType":"uint256","name":"tokenId","type":"uint256"}],"name":"approve","outputs":[],"stateMutability":"payable","type":"function"},{"inputs":[{"internalType":"address","name":"owner","type":"address"}],"name":"balanceOf","outputs":[{"internalType":"uint256","name":"","type":"uint256"}],"stateMutability":"view","type":"function"},{"inputs":[],"name":"baseURI","outputs":[{"internalType":"string","name":"","type":"string"}],"stateMutability":"view","type":"function"},{"inputs":[],"name":"fcfsMintPrice","outputs":[{"internalType":"uint256","name":"","type":"uint256"}],"stateMutability":"view","type":"function"},{"inputs":[],"name":"fcfsStartTime","outputs":[{"internalType":"uint256","name":"","type":"uint256"}],"stateMutability":"view","type":"function"},{"inputs":[{"internalType":"uint256","name":"tokenId","type":"uint256"}],"name":"getApproved","outputs":[{"internalType":"address","name":"","type":"address"}],"stateMutability":"view","type":"function"},{"inputs":[],"name":"getTimes","outputs":[{"internalType":"uint256","name":"","type":"uint256"},{"internalType":"uint256","name":"","type":"uint256"},{"internalType":"uint256","name":"","type":"uint256"},{"internalType":"uint256","name":"","type":"uint256"}],"stateMutability":"view","type":"function"},{"inputs":[{"internalType":"address","name":"","type":"address"}],"name":"hasMintedFCFS","outputs":[{"internalType":"bool","name":"","type":"bool"}],"stateMutability":"view","type":"function"},{"inputs":[{"internalType":"address","name":"","type":"address"}],"name":"hasMintedPublic","outputs":[{"internalType":"bool","name":"","type":"bool"}],"stateMutability":"view","type":"function"},{"inputs":[{"internalType":"address","name":"","type":"address"}],"name":"hasMintedWL","outputs":[{"internalType":"bool","name":"","type":"bool"}],"stateMutability":"view","type":"function"},{"inputs":[{"internalType":"address","name":"owner","type":"address"},{"internalType":"address","name":"operator","type":"address"}],"name":"isApprovedForAll","outputs":[{"internalType":"bool","name":"","type":"bool"}],"stateMutability":"view","type":"function"},{"inputs":[{"internalType":"address","name":"","type":"address"}],"name":"isWhitelist1","outputs":[{"internalType":"bool","name":"","type":"bool"}],"stateMutability":"view","type":"function"},{"inputs":[{"internalType":"address","name":"","type":"address"}],"name":"isWhitelist2","outputs":[{"internalType":"bool","name":"","type":"bool"}],"stateMutability":"view","type":"function"},{"inputs":[],"name":"maxSupply","outputs":[{"internalType":"uint256","name":"","type":"uint256"}],"stateMutability":"view","type":"function"},{"inputs":[],"name":"mintFCFS","outputs":[],"stateMutability":"payable","type":"function"},{"inputs":[],"name":"mintPublic","outputs":[],"stateMutability":"payable","type":"function"},{"inputs":[],"name":"mintWL","outputs":[],"stateMutability":"payable","type":"function"},{"inputs":[],"name":"name","outputs":[{"internalType":"string","name":"","type":"string"}],"stateMutability":"view","type":"function"},{"inputs":[],"name":"notRevealedURI","outputs":[{"internalType":"string","name":"","type":"string"}],"stateMutability":"view","type":"function"},{"inputs":[],"name":"owner","outputs":[{"internalType":"address","name":"","type":"address"}],"stateMutability":"view","type":"function"},{"inputs":[{"internalType":"uint256","name":"tokenId","type":"uint256"}],"name":"ownerOf","outputs":[{"internalType":"address","name":"","type":"address"}],"stateMutability":"view","type":"function"},{"inputs":[],"name":"publicMintPrice","outputs":[{"internalType":"uint256","name":"","type":"uint256"}],"stateMutability":"view","type":"function"},{"inputs":[],"name":"publicStartTime","outputs":[{"internalType":"uint256","name":"","type":"uint256"}],"stateMutability":"view","type":"function"},{"inputs":[],"name":"renounceOwnership","outputs":[],"stateMutability":"nonpayable","type":"function"},{"inputs":[],"name":"reveal","outputs":[],"stateMutability":"nonpayable","type":"function"},{"inputs":[],"name":"revealed","outputs":[{"internalType":"bool","name":"","type":"bool"}],"stateMutability":"view","type":"function"},{"inputs":[{"internalType":"uint256","name":"tokenId","type":"uint256"},{"internalType":"uint256","name":"salePrice","type":"uint256"}],"name":"royaltyInfo","outputs":[{"internalType":"address","name":"receiver","type":"address"},{"internalType":"uint256","name":"amount","type":"uint256"}],"stateMutability":"view","type":"function"},{"inputs":[{"internalType":"address","name":"from","type":"address"},{"internalType":"address","name":"to","type":"address"},{"internalType":"uint256","name":"tokenId","type":"uint256"}],"name":"safeTransferFrom","outputs":[],"stateMutability":"payable","type":"function"},{"inputs":[{"internalType":"address","name":"from","type":"address"},{"internalType":"address","name":"to","type":"address"},{"internalType":"uint256","name":"tokenId","type":"uint256"},{"internalType":"bytes","name":"_data","type":"bytes"}],"name":"safeTransferFrom","outputs":[],"stateMutability":"payable","type":"function"},{"inputs":[{"internalType":"address","name":"operator","type":"address"},{"internalType":"bool","name":"approved","type":"bool"}],"name":"setApprovalForAll","outputs":[],"stateMutability":"nonpayable","type":"function"},{"inputs":[{"internalType":"string","name":"_baseURI","type":"string"}],"name":"setBaseURI","outputs":[],"stateMutability":"nonpayable","type":"function"},{"inputs":[{"internalType":"uint256","name":"_wlPrice","type":"uint256"},{"internalType":"uint256","name":"_fcfsPrice","type":"uint256"},{"internalType":"uint256","name":"_publicPrice","type":"uint256"}],"name":"setMintPrices","outputs":[],"stateMutability":"nonpayable","type":"function"},{"inputs":[{"internalType":"string","name":"_notRevealedURI","type":"string"}],"name":"setNotRevealedURI","outputs":[],"stateMutability":"nonpayable","type":"function"},{"inputs":[{"internalType":"address","name":"receiver","type":"address"},{"internalType":"uint96","name":"feeNumerator","type":"uint96"}],"name":"setRoyalty","outputs":[],"stateMutability":"nonpayable","type":"function"},{"inputs":[{"internalType":"uint256","name":"_wlStart","type":"uint256"},{"internalType":"uint256","name":"_fcfsStart","type":"uint256"},{"internalType":"uint256","name":"_publicStart","type":"uint256"}],"name":"setTimes","outputs":[],"stateMutability":"nonpayable","type":"function"},{"inputs":[{"internalType":"address[]","name":"addresses","type":"address[]"}],"name":"setWhitelist1","outputs":[],"stateMutability":"nonpayable","type":"function"},{"inputs":[{"internalType":"address[]","name":"addresses","type":"address[]"}],"name":"setWhitelist2","outputs":[],"stateMutability":"nonpayable","type":"function"},{"inputs":[{"internalType":"bytes4","name":"interfaceId","type":"bytes4"}],"name":"supportsInterface","outputs":[{"internalType":"bool","name":"","type":"bool"}],"stateMutability":"view","type":"function"},{"inputs":[],"name":"symbol","outputs":[{"internalType":"string","name":"","type":"string"}],"stateMutability":"view","type":"function"},{"inputs":[{"internalType":"uint256","name":"tokenId","type":"uint256"}],"name":"tokenURI","outputs":[{"internalType":"string","name":"","type":"string"}],"stateMutability":"view","type":"function"},{"inputs":[],"name":"totalSupply","outputs":[{"internalType":"uint256","name":"result","type":"uint256"}],"stateMutability":"view","type":"function"},{"inputs":[{"internalType":"address","name":"from","type":"address"},{"internalType":"address","name":"to","type":"address"},{"internalType":"uint256","name":"tokenId","type":"uint256"}],"name":"transferFrom","outputs":[],"stateMutability":"payable","type":"function"},{"inputs":[{"internalType":"address","name":"newOwner","type":"address"}],"name":"transferOwnership","outputs":[],"stateMutability":"nonpayable","type":"function"},{"inputs":[],"name":"withdraw","outputs":[],"stateMutability":"nonpayable","type":"function"},{"inputs":[],"name":"wlMintPrice","outputs":[{"internalType":"uint256","name":"","type":"uint256"}],"stateMutability":"view","type":"function"},{"inputs":[],"name":"wlStartTime","outputs":[{"internalType":"uint256","name":"","type":"uint256"}],"stateMutability":"view","type":"function"}],"evm":{"bytecode":{"linkReferences":{},"object":"60806040526103e8600f55662386f26fc10000601055662386f26fc10000601155662386f26fc100006012556000601560006101000a81548160ff0219169083151502179055503480156200005357600080fd5b506040516200557a3803806200557a83398181016040528101906200007991906200093b565b336040518060400160405280600781526020017f4e465446434653000000000000000000000000000000000000000000000000008152506040518060400160405280600581526020017f4e464346530000000000000000000000000000000000000000000000000000008152508160029081620000f7919062000cc1565b50806003908162000109919062000cc1565b506200011a6200037660201b60201c565b600081905550620001306200037660201b60201c565b620001406200037b60201b60201c565b101562000160576200015f63fed8210f60e01b620003a360201b60201c565b5b5050600073ffffffffffffffffffffffffffffffffffffffff168173ffffffffffffffffffffffffffffffffffffffff1603620001d75760006040517f1e4fbdf7000000000000000000000000000000000000000000000000000000008152600401620001ce919062000db9565b60405180910390fd5b620001e881620003ad60201b60201c565b5087600c8190555086600d8190555085600e8190555082601390816200020f919062000cc1565b50816014908162000221919062000cc1565b5062000236816101f46200047360201b60201c565b60005b8551811015620002ce576001601660008884815181106200025f576200025e62000dd6565b5b602002602001015173ffffffffffffffffffffffffffffffffffffffff1673ffffffffffffffffffffffffffffffffffffffff16815260200190815260200160002060006101000a81548160ff0219169083151502179055508080620002c59062000e34565b91505062000239565b5060005b84518110156200036757600160176000878481518110620002f857620002f762000dd6565b5b602002602001015173ffffffffffffffffffffffffffffffffffffffff1673ffffffffffffffffffffffffffffffffffffffff16815260200190815260200160002060006101000a81548160ff02191690831515021790555080806200035e9062000e34565b915050620002d2565b50505050505050505062000f10565b600090565b60007fffffffffffffffffffffffffffffffffffffffffffffffffffffffffffffffff905090565b8060005260046000fd5b6000600b60009054906101000a900473ffffffffffffffffffffffffffffffffffffffff16905081600b60006101000a81548173ffffffffffffffffffffffffffffffffffffffff021916908373ffffffffffffffffffffffffffffffffffffffff1602179055508173ffffffffffffffffffffffffffffffffffffffff168173ffffffffffffffffffffffffffffffffffffffff167f8be0079c531659141344cd1fd0a4f28419497f9722a3daafe3b4186f6b6457e060405160405180910390a35050565b6000620004856200062360201b60201c565b6bffffffffffffffffffffffff16905080826bffffffffffffffffffffffff161115620004ed5781816040517f6f483d09000000000000000000000000000000000000000000000000000000008152600401620004e492919062000ee3565b60405180910390fd5b600073ffffffffffffffffffffffffffffffffffffffff168373ffffffffffffffffffffffffffffffffffffffff1603620005625760006040517fb6d9900a00000000000000000000000000000000000000000000000000000000815260040162000559919062000db9565b60405180910390fd5b60405180604001604052808473ffffffffffffffffffffffffffffffffffffffff168152602001836bffffffffffffffffffffffff16815250600960008201518160000160006101000a81548173ffffffffffffffffffffffffffffffffffffffff021916908373ffffffffffffffffffffffffffffffffffffffff16021790555060208201518160000160146101000a8154816bffffffffffffffffffffffff02191690836bffffffffffffffffffffffff160217905550905050505050565b6000612710905090565b6000604051905090565b600080fd5b600080fd5b6000819050919050565b620006568162000641565b81146200066257600080fd5b50565b60008151905062000676816200064b565b92915050565b600080fd5b6000601f19601f8301169050919050565b7f4e487b7100000000000000000000000000000000000000000000000000000000600052604160045260246000fd5b620006cc8262000681565b810181811067ffffffffffffffff82111715620006ee57620006ed62000692565b5b80604052505050565b6000620007036200062d565b9050620007118282620006c1565b919050565b600067ffffffffffffffff82111562000734576200073362000692565b5b602082029050602081019050919050565b600080fd5b600073ffffffffffffffffffffffffffffffffffffffff82169050919050565b600062000777826200074a565b9050919050565b62000789816200076a565b81146200079557600080fd5b50565b600081519050620007a9816200077e565b92915050565b6000620007c6620007c08462000716565b620006f7565b90508083825260208201905060208402830185811115620007ec57620007eb62000745565b5b835b8181101562000819578062000804888262000798565b845260208401935050602081019050620007ee565b5050509392505050565b600082601f8301126200083b576200083a6200067c565b5b81516200084d848260208601620007af565b91505092915050565b600080fd5b600067ffffffffffffffff82111562000879576200087862000692565b5b620008848262000681565b9050602081019050919050565b60005b83811015620008b157808201518184015260208101905062000894565b60008484015250505050565b6000620008d4620008ce846200085b565b620006f7565b905082815260208101848484011115620008f357620008f262000856565b5b6200090084828562000891565b509392505050565b600082601f83011262000920576200091f6200067c565b5b815162000932848260208601620008bd565b91505092915050565b600080600080600080600080610100898b0312156200095f576200095e62000637565b5b60006200096f8b828c0162000665565b9850506020620009828b828c0162000665565b9750506040620009958b828c0162000665565b965050606089015167ffffffffffffffff811115620009b957620009b86200063c565b5b620009c78b828c0162000823565b955050608089015167ffffffffffffffff811115620009eb57620009ea6200063c565b5b620009f98b828c0162000823565b94505060a089015167ffffffffffffffff81111562000a1d5762000a1c6200063c565b5b62000a2b8b828c0162000908565b93505060c089015167ffffffffffffffff81111562000a4f5762000a4e6200063c565b5b62000a5d8b828c0162000908565b92505060e062000a708b828c0162000798565b9150509295985092959890939650565b600081519050919050565b7f4e487b7100000000000000000000000000000000000000000000000000000000600052602260045260246000fd5b6000600282049050600182168062000ad357607f821691505b60208210810362000ae95762000ae862000a8b565b5b50919050565b60008190508160005260206000209050919050565b60006020601f8301049050919050565b600082821b905092915050565b60006008830262000b537fffffffffffffffffffffffffffffffffffffffffffffffffffffffffffffffff8262000b14565b62000b5f868362000b14565b95508019841693508086168417925050509392505050565b6000819050919050565b600062000ba262000b9c62000b968462000641565b62000b77565b62000641565b9050919050565b6000819050919050565b62000bbe8362000b81565b62000bd662000bcd8262000ba9565b84845462000b21565b825550505050565b600090565b62000bed62000bde565b62000bfa81848462000bb3565b505050565b5b8181101562000c225762000c1660008262000be3565b60018101905062000c00565b5050565b601f82111562000c715762000c3b8162000aef565b62000c468462000b04565b8101602085101562000c56578190505b62000c6e62000c658562000b04565b83018262000bff565b50505b505050565b600082821c905092915050565b600062000c966000198460080262000c76565b1980831691505092915050565b600062000cb1838362000c83565b9150826002028217905092915050565b62000ccc8262000a80565b67ffffffffffffffff81111562000ce85762000ce762000692565b5b62000cf4825462000aba565b62000d0182828562000c26565b600060209050601f83116001811462000d39576000841562000d24578287015190505b62000d30858262000ca3565b86555062000da0565b601f19841662000d498662000aef565b60005b8281101562000d735784890151825560018201915060208501945060208101905062000d4c565b8683101562000d93578489015162000d8f601f89168262000c83565b8355505b6001600288020188555050505b505050505050565b62000db3816200076a565b82525050565b600060208201905062000dd0600083018462000da8565b92915050565b7f4e487b7100000000000000000000000000000000000000000000000000000000600052603260045260246000fd5b7f4e487b7100000000000000000000000000000000000000000000000000000000600052601160045260246000fd5b600062000e418262000641565b91507fffffffffffffffffffffffffffffffffffffffffffffffffffffffffffffffff820362000e765762000e7562000e05565b5b600182019050919050565b60006bffffffffffffffffffffffff82169050919050565b600062000eba62000eb462000eae8462000e81565b62000b77565b62000641565b9050919050565b62000ecc8162000e99565b82525050565b62000edd8162000641565b82525050565b600060408201905062000efa600083018562000ec1565b62000f09602083018462000ed2565b9392505050565b61465a8062000f206000396000f3fe60806040526004361061027d5760003560e01c8063722503801161014f578063be9feb30116100c1578063e66db9d31161007a578063e66db9d31461093b578063e985e9c514610945578063e9ab77e514610982578063f2c4ce1e146109b0578063f2fde38b146109d9578063ff6fe34514610a025761027d565b8063be9feb3014610848578063c87b56dd14610873578063c989d075146108b0578063cecd6700146108db578063d5abeb01146108e5578063dc53fd92146109105761027d565b80638f704aec116101135780638f704aec1461075b57806395d89b4114610784578063a22cb465146107af578063a475b5dd146107d8578063a490a56e146107ef578063b88d4fde1461082c5761027d565b8063722503801461069557806382cf3ce2146106c05780638c874ebd146106fd5780638da5cb5b146107075780638f2fc60b146107325761027d565b806342842e0e116101f3578063612e9314116101ac578063612e9314146105735780636352211e146105b05780636c0360eb146105ed5780636fb081a41461061857806370a0823114610641578063715018a61461067e5761027d565b806342842e0e1461047257806343fb1ef41461048e57806351830227146104b757806355f804b3146104e257806356070e791461050b5780635fd1bbc4146105485761027d565b80631cfacec4116102455780631cfacec41461036e57806323b872dd146103995780632a55205a146103b55780632c4e9fc6146103f35780633ccfd60b1461041e5780633f5aef12146104355761027d565b806301ffc9a71461028257806306fdde03146102bf578063081812fc146102ea578063095ea7b31461032757806318160ddd14610343575b600080fd5b34801561028e57600080fd5b506102a960048036038101906102a49190612e1b565b610a2b565b6040516102b69190612e63565b60405180910390f35b3480156102cb57600080fd5b506102d4610a3d565b6040516102e19190612f0e565b60405180910390f35b3480156102f657600080fd5b50610311600480360381019061030c9190612f66565b610acf565b60405161031e9190612fd4565b60405180910390f35b610341600480360381019061033c919061301b565b610b2d565b005b34801561034f57600080fd5b50610358610b3d565b604051610365919061306a565b60405180910390f35b34801561037a57600080fd5b50610383610b8a565b604051610390919061306a565b60405180910390f35b6103b360048036038101906103ae9190613085565b610b90565b005b3480156103c157600080fd5b506103dc60048036038101906103d791906130d8565b610e51565b6040516103ea929190613118565b60405180910390f35b3480156103ff57600080fd5b50610408610f81565b604051610415919061306a565b60405180910390f35b34801561042a57600080fd5b50610433610f87565b005b34801561044157600080fd5b5061045c60048036038101906104579190613141565b610fdf565b6040516104699190612e63565b60405180910390f35b61048c60048036038101906104879190613085565b610fff565b005b34801561049a57600080fd5b506104b560048036038101906104b091906132b6565b61101f565b005b3480156104c357600080fd5b506104cc6110f3565b6040516104d99190612e63565b60405180910390f35b3480156104ee57600080fd5b50610509600480360381019061050491906133b4565b611106565b005b34801561051757600080fd5b50610532600480360381019061052d9190613141565b611121565b60405161053f9190612e63565b60405180910390f35b34801561055457600080fd5b5061055d611141565b60405161056a919061306a565b60405180910390f35b34801561057f57600080fd5b5061059a60048036038101906105959190613141565b611147565b6040516105a79190612e63565b60405180910390f35b3480156105bc57600080fd5b506105d760048036038101906105d29190612f66565b611167565b6040516105e49190612fd4565b60405180910390f35b3480156105f957600080fd5b50610602611179565b60405161060f9190612f0e565b60405180910390f35b34801561062457600080fd5b5061063f600480360381019061063a91906133fd565b611207565b005b34801561064d57600080fd5b5061066860048036038101906106639190613141565b6112ce565b604051610675919061306a565b60405180910390f35b34801561068a57600080fd5b50610693611365565b005b3480156106a157600080fd5b506106aa611379565b6040516106b79190612f0e565b60405180910390f35b3480156106cc57600080fd5b506106e760048036038101906106e29190613141565b611407565b6040516106f49190612e63565b60405180910390f35b610705611427565b005b34801561071357600080fd5b5061071c6115ee565b6040516107299190612fd4565b60405180910390f35b34801561073e57600080fd5b5061075960048036038101906107549190613494565b611618565b005b34801561076757600080fd5b50610782600480360381019061077d91906133fd565b61162e565b005b34801561079057600080fd5b506107996116d8565b6040516107a69190612f0e565b60405180910390f35b3480156107bb57600080fd5b506107d660048036038101906107d19190613500565b61176a565b005b3480156107e457600080fd5b506107ed611875565b005b3480156107fb57600080fd5b5061081660048036038101906108119190613141565b6118d2565b6040516108239190612e63565b60405180910390f35b610846600480360381019061084191906135e1565b6118f2565b005b34801561085457600080fd5b5061085d611944565b60405161086a919061306a565b60405180910390f35b34801561087f57600080fd5b5061089a60048036038101906108959190612f66565b61194a565b6040516108a79190612f0e565b60405180910390f35b3480156108bc57600080fd5b506108c5611a6d565b6040516108d2919061306a565b60405180910390f35b6108e3611a73565b005b3480156108f157600080fd5b506108fa611d0a565b604051610907919061306a565b60405180910390f35b34801561091c57600080fd5b50610925611d10565b604051610932919061306a565b60405180910390f35b610943611d16565b005b34801561095157600080fd5b5061096c60048036038101906109679190613664565b611fad565b6040516109799190612e63565b60405180910390f35b34801561098e57600080fd5b50610997612041565b6040516109a794939291906136a4565b60405180910390f35b3480156109bc57600080fd5b506109d760048036038101906109d291906133b4565b61205f565b005b3480156109e557600080fd5b50610a0060048036038101906109fb9190613141565b61207a565b005b348015610a0e57600080fd5b50610a296004803603810190610a2491906132b6565b612100565b005b6000610a36826121d4565b9050919050565b606060028054610a4c90613718565b80601f0160208091040260200160405190810160405280929190818152602001828054610a7890613718565b8015610ac55780601f10610a9a57610100808354040283529160200191610ac5565b820191906000526020600020905b815481529060010190602001808311610aa857829003601f168201915b5050505050905090565b6000610ada8261224e565b610aef57610aee63cf4700e460e01b6122fa565b5b6006600083815260200190815260200160002060000160009054906101000a900473ffffffffffffffffffffffffffffffffffffffff169050919050565b610b3982826001612304565b5050565b6000610b47612433565b600154600054030390507fffffffffffffffffffffffffffffffffffffffffffffffffffffffffffffffff610b7a612438565b14610b8757600854810190505b90565b60115481565b6000610b9b82612460565b905073ffffffffffffffffffffffffffffffffffffffff8473ffffffffffffffffffffffffffffffffffffffff161693508373ffffffffffffffffffffffffffffffffffffffff168173ffffffffffffffffffffffffffffffffffffffff1614610c1057610c0f63a114810060e01b6122fa565b5b600080610c1c84612579565b91509150610c328187610c2d6125a0565b6125a8565b610c5d57610c4786610c426125a0565b611fad565b610c5c57610c5b6359c896be60e01b6122fa565b5b5b610c6a86868660016125ec565b8015610c7557600082555b600560008773ffffffffffffffffffffffffffffffffffffffff1673ffffffffffffffffffffffffffffffffffffffff168152602001908152602001600020600081546001900391905081905550600560008673ffffffffffffffffffffffffffffffffffffffff1673ffffffffffffffffffffffffffffffffffffffff1681526020019081526020016000206000815460010191905081905550610d4385610d1f8888876125f2565b7c02000000000000000000000000000000000000000000000000000000001761261a565b600460008681526020019081526020016000208190555060007c0200000000000000000000000000000000000000000000000000000000841603610dc95760006001850190506000600460008381526020019081526020016000205403610dc7576000548114610dc6578360046000838152602001908152602001600020819055505b5b505b600073ffffffffffffffffffffffffffffffffffffffff8673ffffffffffffffffffffffffffffffffffffffff161690508481887fddf252ad1be2c89b69c2b068fc378daa952ba7f163c4a11628f55a4df523b3ef600080a460008103610e3b57610e3a63ea553b3460e01b6122fa565b5b610e488787876001612645565b50505050505050565b6000806000600a6000868152602001908152602001600020905060008160000160009054906101000a900473ffffffffffffffffffffffffffffffffffffffff16905060008260000160149054906101000a90046bffffffffffffffffffffffff169050600073ffffffffffffffffffffffffffffffffffffffff168273ffffffffffffffffffffffffffffffffffffffff1603610f3257600960000160009054906101000a900473ffffffffffffffffffffffffffffffffffffffff169150600960000160149054906101000a90046bffffffffffffffffffffffff1690505b6000610f3c61264b565b6bffffffffffffffffffffffff16826bffffffffffffffffffffffff1688610f649190613778565b610f6e91906137e9565b9050828195509550505050509250929050565b60105481565b610f8f612655565b610f976115ee565b73ffffffffffffffffffffffffffffffffffffffff166108fc479081150290604051600060405180830381858888f19350505050158015610fdc573d6000803e3d6000fd5b50565b60166020528060005260406000206000915054906101000a900460ff1681565b61101a838383604051806020016040528060008152506118f2565b505050565b611027612655565b60005b81518110156110b85760016016600084848151811061104c5761104b61381a565b5b602002602001015173ffffffffffffffffffffffffffffffffffffffff1673ffffffffffffffffffffffffffffffffffffffff16815260200190815260200160002060006101000a81548160ff02191690831515021790555080806110b090613849565b91505061102a565b507f8e259fe80d79f5ca6d42e35590fd71fc1504c3cd5516dfaba56990d1c9dd66ef816040516110e8919061399b565b60405180910390a150565b601560009054906101000a900460ff1681565b61110e612655565b806013908161111d9190613b7c565b5050565b60176020528060005260406000206000915054906101000a900460ff1681565b600e5481565b601a6020528060005260406000206000915054906101000a900460ff1681565b600061117282612460565b9050919050565b6013805461118690613718565b80601f01602080910402602001604051908101604052809291908181526020018280546111b290613718565b80156111ff5780601f106111d4576101008083540402835291602001916111ff565b820191906000526020600020905b8154815290600101906020018083116111e257829003601f168201915b505050505081565b61120f612655565b8260108190555081601181905550806012819055507fadab82e2607f1adb1193a8ce2a7901fe8bac3f788495c712b56f45ef1b0494f0836040516112539190613c9a565b60405180910390a17fadab82e2607f1adb1193a8ce2a7901fe8bac3f788495c712b56f45ef1b0494f08260405161128a9190613d14565b60405180910390a17fadab82e2607f1adb1193a8ce2a7901fe8bac3f788495c712b56f45ef1b0494f0816040516112c19190613d8e565b60405180910390a1505050565b60008073ffffffffffffffffffffffffffffffffffffffff168273ffffffffffffffffffffffffffffffffffffffff160361131457611313638f4eb60460e01b6122fa565b5b67ffffffffffffffff600560008473ffffffffffffffffffffffffffffffffffffffff1673ffffffffffffffffffffffffffffffffffffffff16815260200190815260200160002054169050919050565b61136d612655565b61137760006126dc565b565b6014805461138690613718565b80601f01602080910402602001604051908101604052809291908181526020018280546113b290613718565b80156113ff5780601f106113d4576101008083540402835291602001916113ff565b820191906000526020600020905b8154815290600101906020018083116113e257829003601f168201915b505050505081565b60196020528060005260406000206000915054906101000a900460ff1681565b600e5442101561146c576040517f08c379a000000000000000000000000000000000000000000000000000000000815260040161146390613e08565b60405180910390fd5b601a60003373ffffffffffffffffffffffffffffffffffffffff1673ffffffffffffffffffffffffffffffffffffffff16815260200190815260200160002060009054906101000a900460ff16156114f9576040517f08c379a00000000000000000000000000000000000000000000000000000000081526004016114f090613e74565b60405180910390fd5b600f54611504610b3d565b10611544576040517f08c379a000000000000000000000000000000000000000000000000000000000815260040161153b90613ee0565b60405180910390fd5b601254341015611589576040517f08c379a000000000000000000000000000000000000000000000000000000000815260040161158090613f4c565b60405180910390fd5b6001601a60003373ffffffffffffffffffffffffffffffffffffffff1673ffffffffffffffffffffffffffffffffffffffff16815260200190815260200160002060006101000a81548160ff0219169083151502179055506115ec3360016127a2565b565b6000600b60009054906101000a900473ffffffffffffffffffffffffffffffffffffffff16905090565b611620612655565b61162a82826127c0565b5050565b611636612655565b818310801561164457508082105b611683576040517f08c379a000000000000000000000000000000000000000000000000000000000815260040161167a90613fb8565b60405180910390fd5b82600c8190555081600d8190555080600e819055507f021b7b308c48de149d4ec3ba2b7cf65c08232f8acfed6fbe415471e2c793524f8383836040516116cb93929190613fd8565b60405180910390a1505050565b6060600380546116e790613718565b80601f016020809104026020016040519081016040528092919081815260200182805461171390613718565b80156117605780601f1061173557610100808354040283529160200191611760565b820191906000526020600020905b81548152906001019060200180831161174357829003601f168201915b5050505050905090565b80600760006117776125a0565b73ffffffffffffffffffffffffffffffffffffffff1673ffffffffffffffffffffffffffffffffffffffff16815260200190815260200160002060008473ffffffffffffffffffffffffffffffffffffffff1673ffffffffffffffffffffffffffffffffffffffff16815260200190815260200160002060006101000a81548160ff0219169083151502179055508173ffffffffffffffffffffffffffffffffffffffff166118246125a0565b73ffffffffffffffffffffffffffffffffffffffff167f17307eab39ab6107e8899845ad3d59bd9653f200f220920489ca2b5937696c31836040516118699190612e63565b60405180910390a35050565b61187d612655565b6001601560006101000a81548160ff0219169083151502179055507f20a5b4e05b29089957b31c76110692167d828e9ecb1be33824e11609370e802160016040516118c89190612e63565b60405180910390a1565b60186020528060005260406000206000915054906101000a900460ff1681565b6118fd848484610b90565b60008373ffffffffffffffffffffffffffffffffffffffff163b1461193e5761192884848484612962565b61193d5761193c63d1a57ed660e01b6122fa565b5b5b50505050565b600c5481565b60606119558261224e565b611994576040517f08c379a000000000000000000000000000000000000000000000000000000000815260040161198b9061405b565b60405180910390fd5b601560009054906101000a900460ff16611a3a57601480546119b590613718565b80601f01602080910402602001604051908101604052809291908181526020018280546119e190613718565b8015611a2e5780601f10611a0357610100808354040283529160200191611a2e565b820191906000526020600020905b815481529060010190602001808311611a1157829003601f168201915b50505050509050611a68565b6013611a4583612a91565b604051602001611a56929190614186565b60405160208183030381529060405290505b919050565b600d5481565b600c54421015611ab8576040517f08c379a0000000000000000000000000000000000000000000000000000000008152600401611aaf90614201565b60405180910390fd5b600d544210611afc576040517f08c379a0000000000000000000000000000000000000000000000000000000008152600401611af39061426d565b60405180910390fd5b601660003373ffffffffffffffffffffffffffffffffffffffff1673ffffffffffffffffffffffffffffffffffffffff16815260200190815260200160002060009054906101000a900460ff16611b88576040517f08c379a0000000000000000000000000000000000000000000000000000000008152600401611b7f906142d9565b60405180910390fd5b601860003373ffffffffffffffffffffffffffffffffffffffff1673ffffffffffffffffffffffffffffffffffffffff16815260200190815260200160002060009054906101000a900460ff1615611c15576040517f08c379a0000000000000000000000000000000000000000000000000000000008152600401611c0c90613e74565b60405180910390fd5b600f54611c20610b3d565b10611c60576040517f08c379a0000000000000000000000000000000000000000000000000000000008152600401611c5790613ee0565b60405180910390fd5b601054341015611ca5576040517f08c379a0000000000000000000000000000000000000000000000000000000008152600401611c9c90613f4c565b60405180910390fd5b6001601860003373ffffffffffffffffffffffffffffffffffffffff1673ffffffffffffffffffffffffffffffffffffffff16815260200190815260200160002060006101000a81548160ff021916908315150217905550611d083360016127a2565b565b600f5481565b60125481565b600d54421015611d5b576040517f08c379a0000000000000000000000000000000000000000000000000000000008152600401611d5290614345565b60405180910390fd5b600e544210611d9f576040517f08c379a0000000000000000000000000000000000000000000000000000000008152600401611d96906143b1565b60405180910390fd5b601760003373ffffffffffffffffffffffffffffffffffffffff1673ffffffffffffffffffffffffffffffffffffffff16815260200190815260200160002060009054906101000a900460ff16611e2b576040517f08c379a0000000000000000000000000000000000000000000000000000000008152600401611e229061441d565b60405180910390fd5b601960003373ffffffffffffffffffffffffffffffffffffffff1673ffffffffffffffffffffffffffffffffffffffff16815260200190815260200160002060009054906101000a900460ff1615611eb8576040517f08c379a0000000000000000000000000000000000000000000000000000000008152600401611eaf90613e74565b60405180910390fd5b600f54611ec3610b3d565b10611f03576040517f08c379a0000000000000000000000000000000000000000000000000000000008152600401611efa90613ee0565b60405180910390fd5b601154341015611f48576040517f08c379a0000000000000000000000000000000000000000000000000000000008152600401611f3f90613f4c565b60405180910390fd5b6001601960003373ffffffffffffffffffffffffffffffffffffffff1673ffffffffffffffffffffffffffffffffffffffff16815260200190815260200160002060006101000a81548160ff021916908315150217905550611fab3360016127a2565b565b6000600760008473ffffffffffffffffffffffffffffffffffffffff1673ffffffffffffffffffffffffffffffffffffffff16815260200190815260200160002060008373ffffffffffffffffffffffffffffffffffffffff1673ffffffffffffffffffffffffffffffffffffffff16815260200190815260200160002060009054906101000a900460ff16905092915050565b60008060008042600c54600d54600e54935093509350935090919293565b612067612655565b80601490816120769190613b7c565b5050565b612082612655565b600073ffffffffffffffffffffffffffffffffffffffff168173ffffffffffffffffffffffffffffffffffffffff16036120f45760006040517f1e4fbdf70000000000000000000000000000000000000000000000000000000081526004016120eb9190612fd4565b60405180910390fd5b6120fd816126dc565b50565b612108612655565b60005b81518110156121995760016017600084848151811061212d5761212c61381a565b5b602002602001015173ffffffffffffffffffffffffffffffffffffffff1673ffffffffffffffffffffffffffffffffffffffff16815260200190815260200160002060006101000a81548160ff021916908315150217905550808061219190613849565b91505061210b565b507f8e259fe80d79f5ca6d42e35590fd71fc1504c3cd5516dfaba56990d1c9dd66ef816040516121c99190614489565b60405180910390a150565b60007f2a55205a000000000000000000000000000000000000000000000000000000007bffffffffffffffffffffffffffffffffffffffffffffffffffffffff1916827bffffffffffffffffffffffffffffffffffffffffffffffffffffffff19161480612247575061224682612ae1565b5b9050919050565b600081612259612433565b116122f457612266612438565b821115612290576122896004600084815260200190815260200160002054612b4b565b90506122f5565b6000548210156122f35760005b60006004600085815260200190815260200160002054915081036122cc57826122c5906144be565b925061229d565b60007c01000000000000000000000000000000000000000000000000000000008216149150505b5b5b919050565b8060005260046000fd5b600061230f83611167565b905081801561235157508073ffffffffffffffffffffffffffffffffffffffff166123386125a0565b73ffffffffffffffffffffffffffffffffffffffff1614155b1561237d57612367816123626125a0565b611fad565b61237c5761237b63cfb3b94260e01b6122fa565b5b5b836006600085815260200190815260200160002060000160006101000a81548173ffffffffffffffffffffffffffffffffffffffff021916908373ffffffffffffffffffffffffffffffffffffffff160217905550828473ffffffffffffffffffffffffffffffffffffffff168273ffffffffffffffffffffffffffffffffffffffff167f8c5be1e5ebec7d5bd14f71427d1e84f3dd0314c0f7b2291e5b200ac8c7c3b92560405160405180910390a450505050565b600090565b60007fffffffffffffffffffffffffffffffffffffffffffffffffffffffffffffffff905090565b60008161246b612433565b11612563576004600083815260200190815260200160002054905061248e612438565b8211156124b35761249e81612b4b565b612574576124b263df2d9b4260e01b6122fa565b5b6000810361253a5760005482106124d5576124d463df2d9b4260e01b6122fa565b5b5b600460008360019003935083815260200190815260200160002054905060008103156125355760007c0100000000000000000000000000000000000000000000000000000000821603156125745761253463df2d9b4260e01b6122fa565b5b6124d6565b60007c010000000000000000000000000000000000000000000000000000000082160315612574575b61257363df2d9b4260e01b6122fa565b5b919050565b60008060006006600085815260200190815260200160002090508092508254915050915091565b600033905090565b600073ffffffffffffffffffffffffffffffffffffffff8316925073ffffffffffffffffffffffffffffffffffffffff821691508382148383141790509392505050565b50505050565b60008060e883901c905060e8612609868684612b8c565b62ffffff16901b9150509392505050565b600073ffffffffffffffffffffffffffffffffffffffff83169250814260a01b178317905092915050565b50505050565b6000612710905090565b61265d612b95565b73ffffffffffffffffffffffffffffffffffffffff1661267b6115ee565b73ffffffffffffffffffffffffffffffffffffffff16146126da5761269e612b95565b6040517f118cdaa70000000000000000000000000000000000000000000000000000000081526004016126d19190612fd4565b60405180910390fd5b565b6000600b60009054906101000a900473ffffffffffffffffffffffffffffffffffffffff16905081600b60006101000a81548173ffffffffffffffffffffffffffffffffffffffff021916908373ffffffffffffffffffffffffffffffffffffffff1602179055508173ffffffffffffffffffffffffffffffffffffffff168173ffffffffffffffffffffffffffffffffffffffff167f8be0079c531659141344cd1fd0a4f28419497f9722a3daafe3b4186f6b6457e060405160405180910390a35050565b6127bc828260405180602001604052806000815250612b9d565b5050565b60006127ca61264b565b6bffffffffffffffffffffffff16905080826bffffffffffffffffffffffff16111561282f5781816040517f6f483d09000000000000000000000000000000000000000000000000000000008152600401612826929190614518565b60405180910390fd5b600073ffffffffffffffffffffffffffffffffffffffff168373ffffffffffffffffffffffffffffffffffffffff16036128a15760006040517fb6d9900a0000000000000000000000000000000000000000000000000000000081526004016128989190612fd4565b60405180910390fd5b60405180604001604052808473ffffffffffffffffffffffffffffffffffffffff168152602001836bffffffffffffffffffffffff16815250600960008201518160000160006101000a81548173ffffffffffffffffffffffffffffffffffffffff021916908373ffffffffffffffffffffffffffffffffffffffff16021790555060208201518160000160146101000a8154816bffffffffffffffffffffffff02191690836bffffffffffffffffffffffff160217905550905050505050565b60008373ffffffffffffffffffffffffffffffffffffffff1663150b7a026129886125a0565b8786866040518563ffffffff1660e01b81526004016129aa9493929190614596565b6020604051808303816000875af19250505080156129e657506040513d601f19601f820116820180604052508101906129e391906145f7565b60015b612a3e573d8060008114612a16576040519150601f19603f3d011682016040523d82523d6000602084013e612a1b565b606091505b506000815103612a3657612a3563d1a57ed660e01b6122fa565b5b805181602001fd5b63150b7a0260e01b7bffffffffffffffffffffffffffffffffffffffffffffffffffffffff1916817bffffffffffffffffffffffffffffffffffffffffffffffffffffffff191614915050949350505050565b606060a060405101806040526020810391506000825281835b600115612acc57600184039350600a81066030018453600a8104905080612aaa575b50828103602084039350808452505050919050565b60007f01ffc9a7000000000000000000000000000000000000000000000000000000007bffffffffffffffffffffffffffffffffffffffffffffffffffffffff1916827bffffffffffffffffffffffffffffffffffffffffffffffffffffffff1916149050919050565b60007c0100000000000000000000000000000000000000000000000000000000821673ffffffffffffffffffffffffffffffffffffffff8316119050919050565b60009392505050565b600033905090565b612ba78383612c19565b60008373ffffffffffffffffffffffffffffffffffffffff163b14612c1457600080549050600083820390505b612be76000868380600101945086612962565b612bfc57612bfb63d1a57ed660e01b6122fa565b5b818110612bd4578160005414612c1157600080fd5b50505b505050565b60008054905060008203612c3857612c3763b562e8dd60e01b6122fa565b5b612c4560008483856125ec565b612c6583612c5660008660006125f2565b612c5f85612d9f565b1761261a565b6004600083815260200190815260200160002081905550600160406001901b178202600560008573ffffffffffffffffffffffffffffffffffffffff1673ffffffffffffffffffffffffffffffffffffffff16815260200190815260200160002060008282540192505081905550600073ffffffffffffffffffffffffffffffffffffffff8473ffffffffffffffffffffffffffffffffffffffff1616905060008103612d1d57612d1c632e07630060e01b6122fa565b5b600083830190506000839050612d31612438565b600183031115612d4c57612d4b6381647e3a60e01b6122fa565b5b5b808360007fddf252ad1be2c89b69c2b068fc378daa952ba7f163c4a11628f55a4df523b3ef600080a4818160010191508103612d4d5781600081905550505050612d9a6000848385612645565b505050565b60006001821460e11b9050919050565b6000604051905090565b600080fd5b600080fd5b60007fffffffff0000000000000000000000000000000000000000000000000000000082169050919050565b612df881612dc3565b8114612e0357600080fd5b50565b600081359050612e1581612def565b92915050565b600060208284031215612e3157612e30612db9565b5b6000612e3f84828501612e06565b91505092915050565b60008115159050919050565b612e5d81612e48565b82525050565b6000602082019050612e786000830184612e54565b92915050565b600081519050919050565b600082825260208201905092915050565b60005b83811015612eb8578082015181840152602081019050612e9d565b60008484015250505050565b6000601f19601f8301169050919050565b6000612ee082612e7e565b612eea8185612e89565b9350612efa818560208601612e9a565b612f0381612ec4565b840191505092915050565b60006020820190508181036000830152612f288184612ed5565b905092915050565b6000819050919050565b612f4381612f30565b8114612f4e57600080fd5b50565b600081359050612f6081612f3a565b92915050565b600060208284031215612f7c57612f7b612db9565b5b6000612f8a84828501612f51565b91505092915050565b600073ffffffffffffffffffffffffffffffffffffffff82169050919050565b6000612fbe82612f93565b9050919050565b612fce81612fb3565b82525050565b6000602082019050612fe96000830184612fc5565b92915050565b612ff881612fb3565b811461300357600080fd5b50565b60008135905061301581612fef565b92915050565b6000806040838503121561303257613031612db9565b5b600061304085828601613006565b925050602061305185828601612f51565b9150509250929050565b61306481612f30565b82525050565b600060208201905061307f600083018461305b565b92915050565b60008060006060848603121561309e5761309d612db9565b5b60006130ac86828701613006565b93505060206130bd86828701613006565b92505060406130ce86828701612f51565b9150509250925092565b600080604083850312156130ef576130ee612db9565b5b60006130fd85828601612f51565b925050602061310e85828601612f51565b9150509250929050565b600060408201905061312d6000830185612fc5565b61313a602083018461305b565b9392505050565b60006020828403121561315757613156612db9565b5b600061316584828501613006565b91505092915050565b600080fd5b7f4e487b7100000000000000000000000000000000000000000000000000000000600052604160045260246000fd5b6131ab82612ec4565b810181811067ffffffffffffffff821117156131ca576131c9613173565b5b80604052505050565b60006131dd612daf565b90506131e982826131a2565b919050565b600067ffffffffffffffff82111561320957613208613173565b5b602082029050602081019050919050565b600080fd5b600061323261322d846131ee565b6131d3565b905080838252602082019050602084028301858111156132555761325461321a565b5b835b8181101561327e578061326a8882613006565b845260208401935050602081019050613257565b5050509392505050565b600082601f83011261329d5761329c61316e565b5b81356132ad84826020860161321f565b91505092915050565b6000602082840312156132cc576132cb612db9565b5b600082013567ffffffffffffffff8111156132ea576132e9612dbe565b5b6132f684828501613288565b91505092915050565b600080fd5b600067ffffffffffffffff82111561331f5761331e613173565b5b61332882612ec4565b9050602081019050919050565b82818337600083830152505050565b600061335761335284613304565b6131d3565b905082815260208101848484011115613373576133726132ff565b5b61337e848285613335565b509392505050565b600082601f83011261339b5761339a61316e565b5b81356133ab848260208601613344565b91505092915050565b6000602082840312156133ca576133c9612db9565b5b600082013567ffffffffffffffff8111156133e8576133e7612dbe565b5b6133f484828501613386565b91505092915050565b60008060006060848603121561341657613415612db9565b5b600061342486828701612f51565b935050602061343586828701612f51565b925050604061344686828701612f51565b9150509250925092565b60006bffffffffffffffffffffffff82169050919050565b61347181613450565b811461347c57600080fd5b50565b60008135905061348e81613468565b92915050565b600080604083850312156134ab576134aa612db9565b5b60006134b985828601613006565b92505060206134ca8582860161347f565b9150509250929050565b6134dd81612e48565b81146134e857600080fd5b50565b6000813590506134fa816134d4565b92915050565b6000806040838503121561351757613516612db9565b5b600061352585828601613006565b9250506020613536858286016134eb565b9150509250929050565b600067ffffffffffffffff82111561355b5761355a613173565b5b61356482612ec4565b9050602081019050919050565b600061358461357f84613540565b6131d3565b9050828152602081018484840111156135a05761359f6132ff565b5b6135ab848285613335565b509392505050565b600082601f8301126135c8576135c761316e565b5b81356135d8848260208601613571565b91505092915050565b600080600080608085870312156135fb576135fa612db9565b5b600061360987828801613006565b945050602061361a87828801613006565b935050604061362b87828801612f51565b925050606085013567ffffffffffffffff81111561364c5761364b612dbe565b5b613658878288016135b3565b91505092959194509250565b6000806040838503121561367b5761367a612db9565b5b600061368985828601613006565b925050602061369a85828601613006565b9150509250929050565b60006080820190506136b9600083018761305b565b6136c6602083018661305b565b6136d3604083018561305b565b6136e0606083018461305b565b95945050505050565b7f4e487b7100000000000000000000000000000000000000000000000000000000600052602260045260246000fd5b6000600282049050600182168061373057607f821691505b602082108103613743576137426136e9565b5b50919050565b7f4e487b7100000000000000000000000000000000000000000000000000000000600052601160045260246000fd5b600061378382612f30565b915061378e83612f30565b925082820261379c81612f30565b915082820484148315176137b3576137b2613749565b5b5092915050565b7f4e487b7100000000000000000000000000000000000000000000000000000000600052601260045260246000fd5b60006137f482612f30565b91506137ff83612f30565b92508261380f5761380e6137ba565b5b828204905092915050565b7f4e487b7100000000000000000000000000000000000000000000000000000000600052603260045260246000fd5b600061385482612f30565b91507fffffffffffffffffffffffffffffffffffffffffffffffffffffffffffffffff820361388657613885613749565b5b600182019050919050565b7f574c310000000000000000000000000000000000000000000000000000000000600082015250565b60006138c7600383612e89565b91506138d282613891565b602082019050919050565b600081519050919050565b600082825260208201905092915050565b6000819050602082019050919050565b61391281612fb3565b82525050565b60006139248383613909565b60208301905092915050565b6000602082019050919050565b6000613948826138dd565b61395281856138e8565b935061395d836138f9565b8060005b8381101561398e5781516139758882613918565b975061398083613930565b925050600181019050613961565b5085935050505092915050565b600060408201905081810360008301526139b4816138ba565b905081810360208301526139c8818461393d565b905092915050565b60008190508160005260206000209050919050565b60006020601f8301049050919050565b600082821b905092915050565b600060088302613a327fffffffffffffffffffffffffffffffffffffffffffffffffffffffffffffffff826139f5565b613a3c86836139f5565b95508019841693508086168417925050509392505050565b6000819050919050565b6000613a79613a74613a6f84612f30565b613a54565b612f30565b9050919050565b6000819050919050565b613a9383613a5e565b613aa7613a9f82613a80565b848454613a02565b825550505050565b600090565b613abc613aaf565b613ac7818484613a8a565b505050565b5b81811015613aeb57613ae0600082613ab4565b600181019050613acd565b5050565b601f821115613b3057613b01816139d0565b613b0a846139e5565b81016020851015613b19578190505b613b2d613b25856139e5565b830182613acc565b50505b505050565b600082821c905092915050565b6000613b5360001984600802613b35565b1980831691505092915050565b6000613b6c8383613b42565b9150826002028217905092915050565b613b8582612e7e565b67ffffffffffffffff811115613b9e57613b9d613173565b5b613ba88254613718565b613bb3828285613aef565b600060209050601f831160018114613be65760008415613bd4578287015190505b613bde8582613b60565b865550613c46565b601f198416613bf4866139d0565b60005b82811015613c1c57848901518255600182019150602085019450602081019050613bf7565b86831015613c395784890151613c35601f891682613b42565b8355505b6001600288020188555050505b505050505050565b7f574c000000000000000000000000000000000000000000000000000000000000600082015250565b6000613c84600283612e89565b9150613c8f82613c4e565b602082019050919050565b6000604082019050613caf600083018461305b565b8181036020830152613cc081613c77565b905092915050565b7f4643465300000000000000000000000000000000000000000000000000000000600082015250565b6000613cfe600483612e89565b9150613d0982613cc8565b602082019050919050565b6000604082019050613d29600083018461305b565b8181036020830152613d3a81613cf1565b905092915050565b7f5075626c69630000000000000000000000000000000000000000000000000000600082015250565b6000613d78600683612e89565b9150613d8382613d42565b602082019050919050565b6000604082019050613da3600083018461305b565b8181036020830152613db481613d6b565b905092915050565b7f5075626c6963206d696e742068656e757a206261736c616d6164690000000000600082015250565b6000613df2601b83612e89565b9150613dfd82613dbc565b602082019050919050565b60006020820190508181036000830152613e2181613de5565b9050919050565b7f5a6174656e206d696e74206564696c6469000000000000000000000000000000600082015250565b6000613e5e601183612e89565b9150613e6982613e28565b602082019050919050565b60006020820190508181036000830152613e8d81613e51565b9050919050565b7f4d617820737570706c79206173696c6469000000000000000000000000000000600082015250565b6000613eca601183612e89565b9150613ed582613e94565b602082019050919050565b60006020820190508181036000830152613ef981613ebd565b9050919050565b7f596574657273697a204d4f4e0000000000000000000000000000000000000000600082015250565b6000613f36600c83612e89565b9150613f4182613f00565b602082019050919050565b60006020820190508181036000830152613f6581613f29565b9050919050565b7f4765c3a7657273697a207a616d616e2073c4b172616c616d6173c4b100000000600082015250565b6000613fa2601c83612e89565b9150613fad82613f6c565b602082019050919050565b60006020820190508181036000830152613fd181613f95565b9050919050565b6000606082019050613fed600083018661305b565b613ffa602083018561305b565b614007604083018461305b565b949350505050565b7f55524920717565727920666f72206e6f6e6578697374656e7420746f6b656e00600082015250565b6000614045601f83612e89565b91506140508261400f565b602082019050919050565b6000602082019050818103600083015261407481614038565b9050919050565b600081905092915050565b6000815461409381613718565b61409d818661407b565b945060018216600081146140b857600181146140cd57614100565b60ff1983168652811515820286019350614100565b6140d6856139d0565b60005b838110156140f8578154818901526001820191506020810190506140d9565b838801955050505b50505092915050565b600061411482612e7e565b61411e818561407b565b935061412e818560208601612e9a565b80840191505092915050565b7f2e6a736f6e000000000000000000000000000000000000000000000000000000600082015250565b600061417060058361407b565b915061417b8261413a565b600582019050919050565b60006141928285614086565b915061419e8284614109565b91506141a982614163565b91508190509392505050565b7f574c206d696e742068656e757a206261736c616d616469000000000000000000600082015250565b60006141eb601783612e89565b91506141f6826141b5565b602082019050919050565b6000602082019050818103600083015261421a816141de565b9050919050565b7f574c206d696e7420736f6e612065726469000000000000000000000000000000600082015250565b6000614257601183612e89565b915061426282614221565b602082019050919050565b600060208201905081810360008301526142868161424a565b9050919050565b7f57686974656c697374203127646520796f6b73756e2100000000000000000000600082015250565b60006142c3601683612e89565b91506142ce8261428d565b602082019050919050565b600060208201905081810360008301526142f2816142b6565b9050919050565b7f46434653206d696e742068656e757a206261736c616d61646900000000000000600082015250565b600061432f601983612e89565b915061433a826142f9565b602082019050919050565b6000602082019050818103600083015261435e81614322565b9050919050565b7f46434653206d696e7420736f6e61206572646900000000000000000000000000600082015250565b600061439b601383612e89565b91506143a682614365565b602082019050919050565b600060208201905081810360008301526143ca8161438e565b9050919050565b7f57686974656c697374203227646520796f6b73756e2100000000000000000000600082015250565b6000614407601683612e89565b9150614412826143d1565b602082019050919050565b60006020820190508181036000830152614436816143fa565b9050919050565b7f574c320000000000000000000000000000000000000000000000000000000000600082015250565b6000614473600383612e89565b915061447e8261443d565b602082019050919050565b600060408201905081810360008301526144a281614466565b905081810360208301526144b6818461393d565b905092915050565b60006144c982612f30565b9150600082036144dc576144db613749565b5b600182039050919050565b60006145026144fd6144f884613450565b613a54565b612f30565b9050919050565b614512816144e7565b82525050565b600060408201905061452d6000830185614509565b61453a602083018461305b565b9392505050565b600081519050919050565b600082825260208201905092915050565b600061456882614541565b614572818561454c565b9350614582818560208601612e9a565b61458b81612ec4565b840191505092915050565b60006080820190506145ab6000830187612fc5565b6145b86020830186612fc5565b6145c5604083018561305b565b81810360608301526145d7818461455d565b905095945050505050565b6000815190506145f181612def565b92915050565b60006020828403121561460d5761460c612db9565b5b600061461b848285016145e2565b9150509291505056fea2646970667358221220511efcd359a7f0c24793e118ba5941e7be8b52f17df600bf94051beb2a4718cc64736f6c63430008140033","opcodes":"PUSH1 0x80 PUSH1 0x40 MSTORE PUSH2 0x3E8 PUSH1 0xF SSTORE PUSH7 0x2386F26FC10000 PUSH1 0x10 SSTORE PUSH7 0x2386F26FC10000 PUSH1 0x11 SSTORE PUSH7 0x2386F26FC10000 PUSH1 0x12 SSTORE PUSH1 0x0 PUSH1 0x15 PUSH1 0x0 PUSH2 0x100 EXP DUP2 SLOAD DUP2 PUSH1 0xFF MUL NOT AND SWAP1 DUP4 ISZERO ISZERO MUL OR SWAP1 SSTORE POP CALLVALUE DUP1 ISZERO PUSH3 0x53 JUMPI PUSH1 0x0 DUP1 REVERT JUMPDEST POP PUSH1 0x40 MLOAD PUSH3 0x557A CODESIZE SUB DUP1 PUSH3 0x557A DUP4 CODECOPY DUP2 DUP2 ADD PUSH1 0x40 MSTORE DUP2 ADD SWAP1 PUSH3 0x79 SWAP2 SWAP1 PUSH3 0x93B JUMP JUMPDEST CALLER PUSH1 0x40 MLOAD DUP1 PUSH1 0x40 ADD PUSH1 0x40 MSTORE DUP1 PUSH1 0x7 DUP2 MSTORE PUSH1 0x20 ADD PUSH32 0x4E46544643465300000000000000000000000000000000000000000000000000 DUP2 MSTORE POP PUSH1 0x40 MLOAD DUP1 PUSH1 0x40 ADD PUSH1 0x40 MSTORE DUP1 PUSH1 0x5 DUP2 MSTORE PUSH1 0x20 ADD PUSH32 0x4E46434653000000000000000000000000000000000000000000000000000000 DUP2 MSTORE POP DUP2 PUSH1 0x2 SWAP1 DUP2 PUSH3 0xF7 SWAP2 SWAP1 PUSH3 0xCC1 JUMP JUMPDEST POP DUP1 PUSH1 0x3 SWAP1 DUP2 PUSH3 0x109 SWAP2 SWAP1 PUSH3 0xCC1 JUMP JUMPDEST POP PUSH3 0x11A PUSH3 0x376 PUSH1 0x20 SHL PUSH1 0x20 SHR JUMP JUMPDEST PUSH1 0x0 DUP2 SWAP1 SSTORE POP PUSH3 0x130 PUSH3 0x376 PUSH1 0x20 SHL PUSH1 0x20 SHR JUMP JUMPDEST PUSH3 0x140 PUSH3 0x37B PUSH1 0x20 SHL PUSH1 0x20 SHR JUMP JUMPDEST LT ISZERO PUSH3 0x160 JUMPI PUSH3 0x15F PUSH4 0xFED8210F PUSH1 0xE0 SHL PUSH3 0x3A3 PUSH1 0x20 SHL PUSH1 0x20 SHR JUMP JUMPDEST JUMPDEST POP POP PUSH1 0x0 PUSH20 0xFFFFFFFFFFFFFFFFFFFFFFFFFFFFFFFFFFFFFFFF AND DUP2 PUSH20 0xFFFFFFFFFFFFFFFFFFFFFFFFFFFFFFFFFFFFFFFF AND SUB PUSH3 0x1D7 JUMPI PUSH1 0x0 PUSH1 0x40 MLOAD PUSH32 0x1E4FBDF700000000000000000000000000000000000000000000000000000000 DUP2 MSTORE PUSH1 0x4 ADD PUSH3 0x1CE SWAP2 SWAP1 PUSH3 0xDB9 JUMP JUMPDEST PUSH1 0x40 MLOAD DUP1 SWAP2 SUB SWAP1 REVERT JUMPDEST PUSH3 0x1E8 DUP2 PUSH3 0x3AD PUSH1 0x20 SHL PUSH1 0x20 SHR JUMP JUMPDEST POP DUP8 PUSH1 0xC DUP2 SWAP1 SSTORE POP DUP7 PUSH1 0xD DUP2 SWAP1 SSTORE POP DUP6 PUSH1 0xE DUP2 SWAP1 SSTORE POP DUP3 PUSH1 0x13 SWAP1 DUP2 PUSH3 0x20F SWAP2 SWAP1 PUSH3 0xCC1 JUMP JUMPDEST POP DUP2 PUSH1 0x14 SWAP1 DUP2 PUSH3 0x221 SWAP2 SWAP1 PUSH3 0xCC1 JUMP JUMPDEST POP PUSH3 0x236 DUP2 PUSH2 0x1F4 PUSH3 0x473 PUSH1 0x20 SHL PUSH1 0x20 SHR JUMP JUMPDEST PUSH1 0x0 JUMPDEST DUP6 MLOAD DUP2 LT ISZERO PUSH3 0x2CE JUMPI PUSH1 0x1 PUSH1 0x16 PUSH1 0x0 DUP9 DUP5 DUP2 MLOAD DUP2 LT PUSH3 0x25F JUMPI PUSH3 0x25E PUSH3 0xDD6 JUMP JUMPDEST JUMPDEST PUSH1 0x20 MUL PUSH1 0x20 ADD ADD MLOAD PUSH20 0xFFFFFFFFFFFFFFFFFFFFFFFFFFFFFFFFFFFFFFFF AND PUSH20 0xFFFFFFFFFFFFFFFFFFFFFFFFFFFFFFFFFFFFFFFF AND DUP2 MSTORE PUSH1 0x20 ADD SWAP1 DUP2 MSTORE PUSH1 0x20 ADD PUSH1 0x0 KECCAK256 PUSH1 0x0 PUSH2 0x100 EXP DUP2 SLOAD DUP2 PUSH1 0xFF MUL NOT AND SWAP1 DUP4 ISZERO ISZERO MUL OR SWAP1 SSTORE POP DUP1 DUP1 PUSH3 0x2C5 SWAP1 PUSH3 0xE34 JUMP JUMPDEST SWAP2 POP POP PUSH3 0x239 JUMP JUMPDEST POP PUSH1 0x0 JUMPDEST DUP5 MLOAD DUP2 LT ISZERO PUSH3 0x367 JUMPI PUSH1 0x1 PUSH1 0x17 PUSH1 0x0 DUP8 DUP5 DUP2 MLOAD DUP2 LT PUSH3 0x2F8 JUMPI PUSH3 0x2F7 PUSH3 0xDD6 JUMP JUMPDEST JUMPDEST PUSH1 0x20 MUL PUSH1 0x20 ADD ADD MLOAD PUSH20 0xFFFFFFFFFFFFFFFFFFFFFFFFFFFFFFFFFFFFFFFF AND PUSH20 0xFFFFFFFFFFFFFFFFFFFFFFFFFFFFFFFFFFFFFFFF AND DUP2 MSTORE PUSH1 0x20 ADD SWAP1 DUP2 MSTORE PUSH1 0x20 ADD PUSH1 0x0 KECCAK256 PUSH1 0x0 PUSH2 0x100 EXP DUP2 SLOAD DUP2 PUSH1 0xFF MUL NOT AND SWAP1 DUP4 ISZERO ISZERO MUL OR SWAP1 SSTORE POP DUP1 DUP1 PUSH3 0x35E SWAP1 PUSH3 0xE34 JUMP JUMPDEST SWAP2 POP POP PUSH3 0x2D2 JUMP JUMPDEST POP POP POP POP POP POP POP POP POP PUSH3 0xF10 JUMP JUMPDEST PUSH1 0x0 SWAP1 JUMP JUMPDEST PUSH1 0x0 PUSH32 0xFFFFFFFFFFFFFFFFFFFFFFFFFFFFFFFFFFFFFFFFFFFFFFFFFFFFFFFFFFFFFFFF SWAP1 POP SWAP1 JUMP JUMPDEST DUP1 PUSH1 0x0 MSTORE PUSH1 0x4 PUSH1 0x0 REVERT JUMPDEST PUSH1 0x0 PUSH1 0xB PUSH1 0x0 SWAP1 SLOAD SWAP1 PUSH2 0x100 EXP SWAP1 DIV PUSH20 0xFFFFFFFFFFFFFFFFFFFFFFFFFFFFFFFFFFFFFFFF AND SWAP1 POP DUP2 PUSH1 0xB PUSH1 0x0 PUSH2 0x100 EXP DUP2 SLOAD DUP2 PUSH20 0xFFFFFFFFFFFFFFFFFFFFFFFFFFFFFFFFFFFFFFFF MUL NOT AND SWAP1 DUP4 PUSH20 0xFFFFFFFFFFFFFFFFFFFFFFFFFFFFFFFFFFFFFFFF AND MUL OR SWAP1 SSTORE POP DUP2 PUSH20 0xFFFFFFFFFFFFFFFFFFFFFFFFFFFFFFFFFFFFFFFF AND DUP2 PUSH20 0xFFFFFFFFFFFFFFFFFFFFFFFFFFFFFFFFFFFFFFFF AND PUSH32 0x8BE0079C531659141344CD1FD0A4F28419497F9722A3DAAFE3B4186F6B6457E0 PUSH1 0x40 MLOAD PUSH1 0x40 MLOAD DUP1 SWAP2 SUB SWAP1 LOG3 POP POP JUMP JUMPDEST PUSH1 0x0 PUSH3 0x485 PUSH3 0x623 PUSH1 0x20 SHL PUSH1 0x20 SHR JUMP JUMPDEST PUSH12 0xFFFFFFFFFFFFFFFFFFFFFFFF AND SWAP1 POP DUP1 DUP3 PUSH12 0xFFFFFFFFFFFFFFFFFFFFFFFF AND GT ISZERO PUSH3 0x4ED JUMPI DUP2 DUP2 PUSH1 0x40 MLOAD PUSH32 0x6F483D0900000000000000000000000000000000000000000000000000000000 DUP2 MSTORE PUSH1 0x4 ADD PUSH3 0x4E4 SWAP3 SWAP2 SWAP1 PUSH3 0xEE3 JUMP JUMPDEST PUSH1 0x40 MLOAD DUP1 SWAP2 SUB SWAP1 REVERT JUMPDEST PUSH1 0x0 PUSH20 0xFFFFFFFFFFFFFFFFFFFFFFFFFFFFFFFFFFFFFFFF AND DUP4 PUSH20 0xFFFFFFFFFFFFFFFFFFFFFFFFFFFFFFFFFFFFFFFF AND SUB PUSH3 0x562 JUMPI PUSH1 0x0 PUSH1 0x40 MLOAD PUSH32 0xB6D9900A00000000000000000000000000000000000000000000000000000000 DUP2 MSTORE PUSH1 0x4 ADD PUSH3 0x559 SWAP2 SWAP1 PUSH3 0xDB9 JUMP JUMPDEST PUSH1 0x40 MLOAD DUP1 SWAP2 SUB SWAP1 REVERT JUMPDEST PUSH1 0x40 MLOAD DUP1 PUSH1 0x40 ADD PUSH1 0x40 MSTORE DUP1 DUP5 PUSH20 0xFFFFFFFFFFFFFFFFFFFFFFFFFFFFFFFFFFFFFFFF AND DUP2 MSTORE PUSH1 0x20 ADD DUP4 PUSH12 0xFFFFFFFFFFFFFFFFFFFFFFFF AND DUP2 MSTORE POP PUSH1 0x9 PUSH1 0x0 DUP3 ADD MLOAD DUP2 PUSH1 0x0 ADD PUSH1 0x0 PUSH2 0x100 EXP DUP2 SLOAD DUP2 PUSH20 0xFFFFFFFFFFFFFFFFFFFFFFFFFFFFFFFFFFFFFFFF MUL NOT AND SWAP1 DUP4 PUSH20 0xFFFFFFFFFFFFFFFFFFFFFFFFFFFFFFFFFFFFFFFF AND MUL OR SWAP1 SSTORE POP PUSH1 0x20 DUP3 ADD MLOAD DUP2 PUSH1 0x0 ADD PUSH1 0x14 PUSH2 0x100 EXP DUP2 SLOAD DUP2 PUSH12 0xFFFFFFFFFFFFFFFFFFFFFFFF MUL NOT AND SWAP1 DUP4 PUSH12 0xFFFFFFFFFFFFFFFFFFFFFFFF AND MUL OR SWAP1 SSTORE POP SWAP1 POP POP POP POP POP JUMP JUMPDEST PUSH1 0x0 PUSH2 0x2710 SWAP1 POP SWAP1 JUMP JUMPDEST PUSH1 0x0 PUSH1 0x40 MLOAD SWAP1 POP SWAP1 JUMP JUMPDEST PUSH1 0x0 DUP1 REVERT JUMPDEST PUSH1 0x0 DUP1 REVERT JUMPDEST PUSH1 0x0 DUP2 SWAP1 POP SWAP2 SWAP1 POP JUMP JUMPDEST PUSH3 0x656 DUP2 PUSH3 0x641 JUMP JUMPDEST DUP2 EQ PUSH3 0x662 JUMPI PUSH1 0x0 DUP1 REVERT JUMPDEST POP JUMP JUMPDEST PUSH1 0x0 DUP2 MLOAD SWAP1 POP PUSH3 0x676 DUP2 PUSH3 0x64B JUMP JUMPDEST SWAP3 SWAP2 POP POP JUMP JUMPDEST PUSH1 0x0 DUP1 REVERT JUMPDEST PUSH1 0x0 PUSH1 0x1F NOT PUSH1 0x1F DUP4 ADD AND SWAP1 POP SWAP2 SWAP1 POP JUMP JUMPDEST PUSH32 0x4E487B7100000000000000000000000000000000000000000000000000000000 PUSH1 0x0 MSTORE PUSH1 0x41 PUSH1 0x4 MSTORE PUSH1 0x24 PUSH1 0x0 REVERT JUMPDEST PUSH3 0x6CC DUP3 PUSH3 0x681 JUMP JUMPDEST DUP2 ADD DUP2 DUP2 LT PUSH8 0xFFFFFFFFFFFFFFFF DUP3 GT OR ISZERO PUSH3 0x6EE JUMPI PUSH3 0x6ED PUSH3 0x692 JUMP JUMPDEST JUMPDEST DUP1 PUSH1 0x40 MSTORE POP POP POP JUMP JUMPDEST PUSH1 0x0 PUSH3 0x703 PUSH3 0x62D JUMP JUMPDEST SWAP1 POP PUSH3 0x711 DUP3 DUP3 PUSH3 0x6C1 JUMP JUMPDEST SWAP2 SWAP1 POP JUMP JUMPDEST PUSH1 0x0 PUSH8 0xFFFFFFFFFFFFFFFF DUP3 GT ISZERO PUSH3 0x734 JUMPI PUSH3 0x733 PUSH3 0x692 JUMP JUMPDEST JUMPDEST PUSH1 0x20 DUP3 MUL SWAP1 POP PUSH1 0x20 DUP2 ADD SWAP1 POP SWAP2 SWAP1 POP JUMP JUMPDEST PUSH1 0x0 DUP1 REVERT JUMPDEST PUSH1 0x0 PUSH20 0xFFFFFFFFFFFFFFFFFFFFFFFFFFFFFFFFFFFFFFFF DUP3 AND SWAP1 POP SWAP2 SWAP1 POP JUMP JUMPDEST PUSH1 0x0 PUSH3 0x777 DUP3 PUSH3 0x74A JUMP JUMPDEST SWAP1 POP SWAP2 SWAP1 POP JUMP JUMPDEST PUSH3 0x789 DUP2 PUSH3 0x76A JUMP JUMPDEST DUP2 EQ PUSH3 0x795 JUMPI PUSH1 0x0 DUP1 REVERT JUMPDEST POP JUMP JUMPDEST PUSH1 0x0 DUP2 MLOAD SWAP1 POP PUSH3 0x7A9 DUP2 PUSH3 0x77E JUMP JUMPDEST SWAP3 SWAP2 POP POP JUMP JUMPDEST PUSH1 0x0 PUSH3 0x7C6 PUSH3 0x7C0 DUP5 PUSH3 0x716 JUMP JUMPDEST PUSH3 0x6F7 JUMP JUMPDEST SWAP1 POP DUP1 DUP4 DUP3 MSTORE PUSH1 0x20 DUP3 ADD SWAP1 POP PUSH1 0x20 DUP5 MUL DUP4 ADD DUP6 DUP2 GT ISZERO PUSH3 0x7EC JUMPI PUSH3 0x7EB PUSH3 0x745 JUMP JUMPDEST JUMPDEST DUP4 JUMPDEST DUP2 DUP2 LT ISZERO PUSH3 0x819 JUMPI DUP1 PUSH3 0x804 DUP9 DUP3 PUSH3 0x798 JUMP JUMPDEST DUP5 MSTORE PUSH1 0x20 DUP5 ADD SWAP4 POP POP PUSH1 0x20 DUP2 ADD SWAP1 POP PUSH3 0x7EE JUMP JUMPDEST POP POP POP SWAP4 SWAP3 POP POP POP JUMP JUMPDEST PUSH1 0x0 DUP3 PUSH1 0x1F DUP4 ADD SLT PUSH3 0x83B JUMPI PUSH3 0x83A PUSH3 0x67C JUMP JUMPDEST JUMPDEST DUP2 MLOAD PUSH3 0x84D DUP5 DUP3 PUSH1 0x20 DUP7 ADD PUSH3 0x7AF JUMP JUMPDEST SWAP2 POP POP SWAP3 SWAP2 POP POP JUMP JUMPDEST PUSH1 0x0 DUP1 REVERT JUMPDEST PUSH1 0x0 PUSH8 0xFFFFFFFFFFFFFFFF DUP3 GT ISZERO PUSH3 0x879 JUMPI PUSH3 0x878 PUSH3 0x692 JUMP JUMPDEST JUMPDEST PUSH3 0x884 DUP3 PUSH3 0x681 JUMP JUMPDEST SWAP1 POP PUSH1 0x20 DUP2 ADD SWAP1 POP SWAP2 SWAP1 POP JUMP JUMPDEST PUSH1 0x0 JUMPDEST DUP4 DUP2 LT ISZERO PUSH3 0x8B1 JUMPI DUP1 DUP3 ADD MLOAD DUP2 DUP5 ADD MSTORE PUSH1 0x20 DUP2 ADD SWAP1 POP PUSH3 0x894 JUMP JUMPDEST PUSH1 0x0 DUP5 DUP5 ADD MSTORE POP POP POP POP JUMP JUMPDEST PUSH1 0x0 PUSH3 0x8D4 PUSH3 0x8CE DUP5 PUSH3 0x85B JUMP JUMPDEST PUSH3 0x6F7 JUMP JUMPDEST SWAP1 POP DUP3 DUP2 MSTORE PUSH1 0x20 DUP2 ADD DUP5 DUP5 DUP5 ADD GT ISZERO PUSH3 0x8F3 JUMPI PUSH3 0x8F2 PUSH3 0x856 JUMP JUMPDEST JUMPDEST PUSH3 0x900 DUP5 DUP3 DUP6 PUSH3 0x891 JUMP JUMPDEST POP SWAP4 SWAP3 POP POP POP JUMP JUMPDEST PUSH1 0x0 DUP3 PUSH1 0x1F DUP4 ADD SLT PUSH3 0x920 JUMPI PUSH3 0x91F PUSH3 0x67C JUMP JUMPDEST JUMPDEST DUP2 MLOAD PUSH3 0x932 DUP5 DUP3 PUSH1 0x20 DUP7 ADD PUSH3 0x8BD JUMP JUMPDEST SWAP2 POP POP SWAP3 SWAP2 POP POP JUMP JUMPDEST PUSH1 0x0 DUP1 PUSH1 0x0 DUP1 PUSH1 0x0 DUP1 PUSH1 0x0 DUP1 PUSH2 0x100 DUP10 DUP12 SUB SLT ISZERO PUSH3 0x95F JUMPI PUSH3 0x95E PUSH3 0x637 JUMP JUMPDEST JUMPDEST PUSH1 0x0 PUSH3 0x96F DUP12 DUP3 DUP13 ADD PUSH3 0x665 JUMP JUMPDEST SWAP9 POP POP PUSH1 0x20 PUSH3 0x982 DUP12 DUP3 DUP13 ADD PUSH3 0x665 JUMP JUMPDEST SWAP8 POP POP PUSH1 0x40 PUSH3 0x995 DUP12 DUP3 DUP13 ADD PUSH3 0x665 JUMP JUMPDEST SWAP7 POP POP PUSH1 0x60 DUP10 ADD MLOAD PUSH8 0xFFFFFFFFFFFFFFFF DUP2 GT ISZERO PUSH3 0x9B9 JUMPI PUSH3 0x9B8 PUSH3 0x63C JUMP JUMPDEST JUMPDEST PUSH3 0x9C7 DUP12 DUP3 DUP13 ADD PUSH3 0x823 JUMP JUMPDEST SWAP6 POP POP PUSH1 0x80 DUP10 ADD MLOAD PUSH8 0xFFFFFFFFFFFFFFFF DUP2 GT ISZERO PUSH3 0x9EB JUMPI PUSH3 0x9EA PUSH3 0x63C JUMP JUMPDEST JUMPDEST PUSH3 0x9F9 DUP12 DUP3 DUP13 ADD PUSH3 0x823 JUMP JUMPDEST SWAP5 POP POP PUSH1 0xA0 DUP10 ADD MLOAD PUSH8 0xFFFFFFFFFFFFFFFF DUP2 GT ISZERO PUSH3 0xA1D JUMPI PUSH3 0xA1C PUSH3 0x63C JUMP JUMPDEST JUMPDEST PUSH3 0xA2B DUP12 DUP3 DUP13 ADD PUSH3 0x908 JUMP JUMPDEST SWAP4 POP POP PUSH1 0xC0 DUP10 ADD MLOAD PUSH8 0xFFFFFFFFFFFFFFFF DUP2 GT ISZERO PUSH3 0xA4F JUMPI PUSH3 0xA4E PUSH3 0x63C JUMP JUMPDEST JUMPDEST PUSH3 0xA5D DUP12 DUP3 DUP13 ADD PUSH3 0x908 JUMP JUMPDEST SWAP3 POP POP PUSH1 0xE0 PUSH3 0xA70 DUP12 DUP3 DUP13 ADD PUSH3 0x798 JUMP JUMPDEST SWAP2 POP POP SWAP3 SWAP6 SWAP9 POP SWAP3 SWAP6 SWAP9 SWAP1 SWAP4 SWAP7 POP JUMP JUMPDEST PUSH1 0x0 DUP2 MLOAD SWAP1 POP SWAP2 SWAP1 POP JUMP JUMPDEST PUSH32 0x4E487B7100000000000000000000000000000000000000000000000000000000 PUSH1 0x0 MSTORE PUSH1 0x22 PUSH1 0x4 MSTORE PUSH1 0x24 PUSH1 0x0 REVERT JUMPDEST PUSH1 0x0 PUSH1 0x2 DUP3 DIV SWAP1 POP PUSH1 0x1 DUP3 AND DUP1 PUSH3 0xAD3 JUMPI PUSH1 0x7F DUP3 AND SWAP2 POP JUMPDEST PUSH1 0x20 DUP3 LT DUP2 SUB PUSH3 0xAE9 JUMPI PUSH3 0xAE8 PUSH3 0xA8B JUMP JUMPDEST JUMPDEST POP SWAP2 SWAP1 POP JUMP JUMPDEST PUSH1 0x0 DUP2 SWAP1 POP DUP2 PUSH1 0x0 MSTORE PUSH1 0x20 PUSH1 0x0 KECCAK256 SWAP1 POP SWAP2 SWAP1 POP JUMP JUMPDEST PUSH1 0x0 PUSH1 0x20 PUSH1 0x1F DUP4 ADD DIV SWAP1 POP SWAP2 SWAP1 POP JUMP JUMPDEST PUSH1 0x0 DUP3 DUP3 SHL SWAP1 POP SWAP3 SWAP2 POP POP JUMP JUMPDEST PUSH1 0x0 PUSH1 0x8 DUP4 MUL PUSH3 0xB53 PUSH32 0xFFFFFFFFFFFFFFFFFFFFFFFFFFFFFFFFFFFFFFFFFFFFFFFFFFFFFFFFFFFFFFFF DUP3 PUSH3 0xB14 JUMP JUMPDEST PUSH3 0xB5F DUP7 DUP4 PUSH3 0xB14 JUMP JUMPDEST SWAP6 POP DUP1 NOT DUP5 AND SWAP4 POP DUP1 DUP7 AND DUP5 OR SWAP3 POP POP POP SWAP4 SWAP3 POP POP POP JUMP JUMPDEST PUSH1 0x0 DUP2 SWAP1 POP SWAP2 SWAP1 POP JUMP JUMPDEST PUSH1 0x0 PUSH3 0xBA2 PUSH3 0xB9C PUSH3 0xB96 DUP5 PUSH3 0x641 JUMP JUMPDEST PUSH3 0xB77 JUMP JUMPDEST PUSH3 0x641 JUMP JUMPDEST SWAP1 POP SWAP2 SWAP1 POP JUMP JUMPDEST PUSH1 0x0 DUP2 SWAP1 POP SWAP2 SWAP1 POP JUMP JUMPDEST PUSH3 0xBBE DUP4 PUSH3 0xB81 JUMP JUMPDEST PUSH3 0xBD6 PUSH3 0xBCD DUP3 PUSH3 0xBA9 JUMP JUMPDEST DUP5 DUP5 SLOAD PUSH3 0xB21 JUMP JUMPDEST DUP3 SSTORE POP POP POP POP JUMP JUMPDEST PUSH1 0x0 SWAP1 JUMP JUMPDEST PUSH3 0xBED PUSH3 0xBDE JUMP JUMPDEST PUSH3 0xBFA DUP2 DUP5 DUP5 PUSH3 0xBB3 JUMP JUMPDEST POP POP POP JUMP JUMPDEST JUMPDEST DUP2 DUP2 LT ISZERO PUSH3 0xC22 JUMPI PUSH3 0xC16 PUSH1 0x0 DUP3 PUSH3 0xBE3 JUMP JUMPDEST PUSH1 0x1 DUP2 ADD SWAP1 POP PUSH3 0xC00 JUMP JUMPDEST POP POP JUMP JUMPDEST PUSH1 0x1F DUP3 GT ISZERO PUSH3 0xC71 JUMPI PUSH3 0xC3B DUP2 PUSH3 0xAEF JUMP JUMPDEST PUSH3 0xC46 DUP5 PUSH3 0xB04 JUMP JUMPDEST DUP2 ADD PUSH1 0x20 DUP6 LT ISZERO PUSH3 0xC56 JUMPI DUP2 SWAP1 POP JUMPDEST PUSH3 0xC6E PUSH3 0xC65 DUP6 PUSH3 0xB04 JUMP JUMPDEST DUP4 ADD DUP3 PUSH3 0xBFF JUMP JUMPDEST POP POP JUMPDEST POP POP POP JUMP JUMPDEST PUSH1 0x0 DUP3 DUP3 SHR SWAP1 POP SWAP3 SWAP2 POP POP JUMP JUMPDEST PUSH1 0x0 PUSH3 0xC96 PUSH1 0x0 NOT DUP5 PUSH1 0x8 MUL PUSH3 0xC76 JUMP JUMPDEST NOT DUP1 DUP4 AND SWAP2 POP POP SWAP3 SWAP2 POP POP JUMP JUMPDEST PUSH1 0x0 PUSH3 0xCB1 DUP4 DUP4 PUSH3 0xC83 JUMP JUMPDEST SWAP2 POP DUP3 PUSH1 0x2 MUL DUP3 OR SWAP1 POP SWAP3 SWAP2 POP POP JUMP JUMPDEST PUSH3 0xCCC DUP3 PUSH3 0xA80 JUMP JUMPDEST PUSH8 0xFFFFFFFFFFFFFFFF DUP2 GT ISZERO PUSH3 0xCE8 JUMPI PUSH3 0xCE7 PUSH3 0x692 JUMP JUMPDEST JUMPDEST PUSH3 0xCF4 DUP3 SLOAD PUSH3 0xABA JUMP JUMPDEST PUSH3 0xD01 DUP3 DUP3 DUP6 PUSH3 0xC26 JUMP JUMPDEST PUSH1 0x0 PUSH1 0x20 SWAP1 POP PUSH1 0x1F DUP4 GT PUSH1 0x1 DUP2 EQ PUSH3 0xD39 JUMPI PUSH1 0x0 DUP5 ISZERO PUSH3 0xD24 JUMPI DUP3 DUP8 ADD MLOAD SWAP1 POP JUMPDEST PUSH3 0xD30 DUP6 DUP3 PUSH3 0xCA3 JUMP JUMPDEST DUP7 SSTORE POP PUSH3 0xDA0 JUMP JUMPDEST PUSH1 0x1F NOT DUP5 AND PUSH3 0xD49 DUP7 PUSH3 0xAEF JUMP JUMPDEST PUSH1 0x0 JUMPDEST DUP3 DUP2 LT ISZERO PUSH3 0xD73 JUMPI DUP5 DUP10 ADD MLOAD DUP3 SSTORE PUSH1 0x1 DUP3 ADD SWAP2 POP PUSH1 0x20 DUP6 ADD SWAP5 POP PUSH1 0x20 DUP2 ADD SWAP1 POP PUSH3 0xD4C JUMP JUMPDEST DUP7 DUP4 LT ISZERO PUSH3 0xD93 JUMPI DUP5 DUP10 ADD MLOAD PUSH3 0xD8F PUSH1 0x1F DUP10 AND DUP3 PUSH3 0xC83 JUMP JUMPDEST DUP4 SSTORE POP JUMPDEST PUSH1 0x1 PUSH1 0x2 DUP9 MUL ADD DUP9 SSTORE POP POP POP JUMPDEST POP POP POP POP POP POP JUMP JUMPDEST PUSH3 0xDB3 DUP2 PUSH3 0x76A JUMP JUMPDEST DUP3 MSTORE POP POP JUMP JUMPDEST PUSH1 0x0 PUSH1 0x20 DUP3 ADD SWAP1 POP PUSH3 0xDD0 PUSH1 0x0 DUP4 ADD DUP5 PUSH3 0xDA8 JUMP JUMPDEST SWAP3 SWAP2 POP POP JUMP JUMPDEST PUSH32 0x4E487B7100000000000000000000000000000000000000000000000000000000 PUSH1 0x0 MSTORE PUSH1 0x32 PUSH1 0x4 MSTORE PUSH1 0x24 PUSH1 0x0 REVERT JUMPDEST PUSH32 0x4E487B7100000000000000000000000000000000000000000000000000000000 PUSH1 0x0 MSTORE PUSH1 0x11 PUSH1 0x4 MSTORE PUSH1 0x24 PUSH1 0x0 REVERT JUMPDEST PUSH1 0x0 PUSH3 0xE41 DUP3 PUSH3 0x641 JUMP JUMPDEST SWAP2 POP PUSH32 0xFFFFFFFFFFFFFFFFFFFFFFFFFFFFFFFFFFFFFFFFFFFFFFFFFFFFFFFFFFFFFFFF DUP3 SUB PUSH3 0xE76 JUMPI PUSH3 0xE75 PUSH3 0xE05 JUMP JUMPDEST JUMPDEST PUSH1 0x1 DUP3 ADD SWAP1 POP SWAP2 SWAP1 POP JUMP JUMPDEST PUSH1 0x0 PUSH12 0xFFFFFFFFFFFFFFFFFFFFFFFF DUP3 AND SWAP1 POP SWAP2 SWAP1 POP JUMP JUMPDEST PUSH1 0x0 PUSH3 0xEBA PUSH3 0xEB4 PUSH3 0xEAE DUP5 PUSH3 0xE81 JUMP JUMPDEST PUSH3 0xB77 JUMP JUMPDEST PUSH3 0x641 JUMP JUMPDEST SWAP1 POP SWAP2 SWAP1 POP JUMP JUMPDEST PUSH3 0xECC DUP2 PUSH3 0xE99 JUMP JUMPDEST DUP3 MSTORE POP POP JUMP JUMPDEST PUSH3 0xEDD DUP2 PUSH3 0x641 JUMP JUMPDEST DUP3 MSTORE POP POP JUMP JUMPDEST PUSH1 0x0 PUSH1 0x40 DUP3 ADD SWAP1 POP PUSH3 0xEFA PUSH1 0x0 DUP4 ADD DUP6 PUSH3 0xEC1 JUMP JUMPDEST PUSH3 0xF09 PUSH1 0x20 DUP4 ADD DUP5 PUSH3 0xED2 JUMP JUMPDEST SWAP4 SWAP3 POP POP POP JUMP JUMPDEST PUSH2 0x465A DUP1 PUSH3 0xF20 PUSH1 0x0 CODECOPY PUSH1 0x0 RETURN INVALID PUSH1 0x80 PUSH1 0x40 MSTORE PUSH1 0x4 CALLDATASIZE LT PUSH2 0x27D JUMPI PUSH1 0x0 CALLDATALOAD PUSH1 0xE0 SHR DUP1 PUSH4 0x72250380 GT PUSH2 0x14F JUMPI DUP1 PUSH4 0xBE9FEB30 GT PUSH2 0xC1 JUMPI DUP1 PUSH4 0xE66DB9D3 GT PUSH2 0x7A JUMPI DUP1 PUSH4 0xE66DB9D3 EQ PUSH2 0x93B JUMPI DUP1 PUSH4 0xE985E9C5 EQ PUSH2 0x945 JUMPI DUP1 PUSH4 0xE9AB77E5 EQ PUSH2 0x982 JUMPI DUP1 PUSH4 0xF2C4CE1E EQ PUSH2 0x9B0 JUMPI DUP1 PUSH4 0xF2FDE38B EQ PUSH2 0x9D9 JUMPI DUP1 PUSH4 0xFF6FE345 EQ PUSH2 0xA02 JUMPI PUSH2 0x27D JUMP JUMPDEST DUP1 PUSH4 0xBE9FEB30 EQ PUSH2 0x848 JUMPI DUP1 PUSH4 0xC87B56DD EQ PUSH2 0x873 JUMPI DUP1 PUSH4 0xC989D075 EQ PUSH2 0x8B0 JUMPI DUP1 PUSH4 0xCECD6700 EQ PUSH2 0x8DB JUMPI DUP1 PUSH4 0xD5ABEB01 EQ PUSH2 0x8E5 JUMPI DUP1 PUSH4 0xDC53FD92 EQ PUSH2 0x910 JUMPI PUSH2 0x27D JUMP JUMPDEST DUP1 PUSH4 0x8F704AEC GT PUSH2 0x113 JUMPI DUP1 PUSH4 0x8F704AEC EQ PUSH2 0x75B JUMPI DUP1 PUSH4 0x95D89B41 EQ PUSH2 0x784 JUMPI DUP1 PUSH4 0xA22CB465 EQ PUSH2 0x7AF JUMPI DUP1 PUSH4 0xA475B5DD EQ PUSH2 0x7D8 JUMPI DUP1 PUSH4 0xA490A56E EQ PUSH2 0x7EF JUMPI DUP1 PUSH4 0xB88D4FDE EQ PUSH2 0x82C JUMPI PUSH2 0x27D JUMP JUMPDEST DUP1 PUSH4 0x72250380 EQ PUSH2 0x695 JUMPI DUP1 PUSH4 0x82CF3CE2 EQ PUSH2 0x6C0 JUMPI DUP1 PUSH4 0x8C874EBD EQ PUSH2 0x6FD JUMPI DUP1 PUSH4 0x8DA5CB5B EQ PUSH2 0x707 JUMPI DUP1 PUSH4 0x8F2FC60B EQ PUSH2 0x732 JUMPI PUSH2 0x27D JUMP JUMPDEST DUP1 PUSH4 0x42842E0E GT PUSH2 0x1F3 JUMPI DUP1 PUSH4 0x612E9314 GT PUSH2 0x1AC JUMPI DUP1 PUSH4 0x612E9314 EQ PUSH2 0x573 JUMPI DUP1 PUSH4 0x6352211E EQ PUSH2 0x5B0 JUMPI DUP1 PUSH4 0x6C0360EB EQ PUSH2 0x5ED JUMPI DUP1 PUSH4 0x6FB081A4 EQ PUSH2 0x618 JUMPI DUP1 PUSH4 0x70A08231 EQ PUSH2 0x641 JUMPI DUP1 PUSH4 0x715018A6 EQ PUSH2 0x67E JUMPI PUSH2 0x27D JUMP JUMPDEST DUP1 PUSH4 0x42842E0E EQ PUSH2 0x472 JUMPI DUP1 PUSH4 0x43FB1EF4 EQ PUSH2 0x48E JUMPI DUP1 PUSH4 0x51830227 EQ PUSH2 0x4B7 JUMPI DUP1 PUSH4 0x55F804B3 EQ PUSH2 0x4E2 JUMPI DUP1 PUSH4 0x56070E79 EQ PUSH2 0x50B JUMPI DUP1 PUSH4 0x5FD1BBC4 EQ PUSH2 0x548 JUMPI PUSH2 0x27D JUMP JUMPDEST DUP1 PUSH4 0x1CFACEC4 GT PUSH2 0x245 JUMPI DUP1 PUSH4 0x1CFACEC4 EQ PUSH2 0x36E JUMPI DUP1 PUSH4 0x23B872DD EQ PUSH2 0x399 JUMPI DUP1 PUSH4 0x2A55205A EQ PUSH2 0x3B5 JUMPI DUP1 PUSH4 0x2C4E9FC6 EQ PUSH2 0x3F3 JUMPI DUP1 PUSH4 0x3CCFD60B EQ PUSH2 0x41E JUMPI DUP1 PUSH4 0x3F5AEF12 EQ PUSH2 0x435 JUMPI PUSH2 0x27D JUMP JUMPDEST DUP1 PUSH4 0x1FFC9A7 EQ PUSH2 0x282 JUMPI DUP1 PUSH4 0x6FDDE03 EQ PUSH2 0x2BF JUMPI DUP1 PUSH4 0x81812FC EQ PUSH2 0x2EA JUMPI DUP1 PUSH4 0x95EA7B3 EQ PUSH2 0x327 JUMPI DUP1 PUSH4 0x18160DDD EQ PUSH2 0x343 JUMPI JUMPDEST PUSH1 0x0 DUP1 REVERT JUMPDEST CALLVALUE DUP1 ISZERO PUSH2 0x28E JUMPI PUSH1 0x0 DUP1 REVERT JUMPDEST POP PUSH2 0x2A9 PUSH1 0x4 DUP1 CALLDATASIZE SUB DUP2 ADD SWAP1 PUSH2 0x2A4 SWAP2 SWAP1 PUSH2 0x2E1B JUMP JUMPDEST PUSH2 0xA2B JUMP JUMPDEST PUSH1 0x40 MLOAD PUSH2 0x2B6 SWAP2 SWAP1 PUSH2 0x2E63 JUMP JUMPDEST PUSH1 0x40 MLOAD DUP1 SWAP2 SUB SWAP1 RETURN JUMPDEST CALLVALUE DUP1 ISZERO PUSH2 0x2CB JUMPI PUSH1 0x0 DUP1 REVERT JUMPDEST POP PUSH2 0x2D4 PUSH2 0xA3D JUMP JUMPDEST PUSH1 0x40 MLOAD PUSH2 0x2E1 SWAP2 SWAP1 PUSH2 0x2F0E JUMP JUMPDEST PUSH1 0x40 MLOAD DUP1 SWAP2 SUB SWAP1 RETURN JUMPDEST CALLVALUE DUP1 ISZERO PUSH2 0x2F6 JUMPI PUSH1 0x0 DUP1 REVERT JUMPDEST POP PUSH2 0x311 PUSH1 0x4 DUP1 CALLDATASIZE SUB DUP2 ADD SWAP1 PUSH2 0x30C SWAP2 SWAP1 PUSH2 0x2F66 JUMP JUMPDEST PUSH2 0xACF JUMP JUMPDEST PUSH1 0x40 MLOAD PUSH2 0x31E SWAP2 SWAP1 PUSH2 0x2FD4 JUMP JUMPDEST PUSH1 0x40 MLOAD DUP1 SWAP2 SUB SWAP1 RETURN JUMPDEST PUSH2 0x341 PUSH1 0x4 DUP1 CALLDATASIZE SUB DUP2 ADD SWAP1 PUSH2 0x33C SWAP2 SWAP1 PUSH2 0x301B JUMP JUMPDEST PUSH2 0xB2D JUMP JUMPDEST STOP JUMPDEST CALLVALUE DUP1 ISZERO PUSH2 0x34F JUMPI PUSH1 0x0 DUP1 REVERT JUMPDEST POP PUSH2 0x358 PUSH2 0xB3D JUMP JUMPDEST PUSH1 0x40 MLOAD PUSH2 0x365 SWAP2 SWAP1 PUSH2 0x306A JUMP JUMPDEST PUSH1 0x40 MLOAD DUP1 SWAP2 SUB SWAP1 RETURN JUMPDEST CALLVALUE DUP1 ISZERO PUSH2 0x37A JUMPI PUSH1 0x0 DUP1 REVERT JUMPDEST POP PUSH2 0x383 PUSH2 0xB8A JUMP JUMPDEST PUSH1 0x40 MLOAD PUSH2 0x390 SWAP2 SWAP1 PUSH2 0x306A JUMP JUMPDEST PUSH1 0x40 MLOAD DUP1 SWAP2 SUB SWAP1 RETURN JUMPDEST PUSH2 0x3B3 PUSH1 0x4 DUP1 CALLDATASIZE SUB DUP2 ADD SWAP1 PUSH2 0x3AE SWAP2 SWAP1 PUSH2 0x3085 JUMP JUMPDEST PUSH2 0xB90 JUMP JUMPDEST STOP JUMPDEST CALLVALUE DUP1 ISZERO PUSH2 0x3C1 JUMPI PUSH1 0x0 DUP1 REVERT JUMPDEST POP PUSH2 0x3DC PUSH1 0x4 DUP1 CALLDATASIZE SUB DUP2 ADD SWAP1 PUSH2 0x3D7 SWAP2 SWAP1 PUSH2 0x30D8 JUMP JUMPDEST PUSH2 0xE51 JUMP JUMPDEST PUSH1 0x40 MLOAD PUSH2 0x3EA SWAP3 SWAP2 SWAP1 PUSH2 0x3118 JUMP JUMPDEST PUSH1 0x40 MLOAD DUP1 SWAP2 SUB SWAP1 RETURN JUMPDEST CALLVALUE DUP1 ISZERO PUSH2 0x3FF JUMPI PUSH1 0x0 DUP1 REVERT JUMPDEST POP PUSH2 0x408 PUSH2 0xF81 JUMP JUMPDEST PUSH1 0x40 MLOAD PUSH2 0x415 SWAP2 SWAP1 PUSH2 0x306A JUMP JUMPDEST PUSH1 0x40 MLOAD DUP1 SWAP2 SUB SWAP1 RETURN JUMPDEST CALLVALUE DUP1 ISZERO PUSH2 0x42A JUMPI PUSH1 0x0 DUP1 REVERT JUMPDEST POP PUSH2 0x433 PUSH2 0xF87 JUMP JUMPDEST STOP JUMPDEST CALLVALUE DUP1 ISZERO PUSH2 0x441 JUMPI PUSH1 0x0 DUP1 REVERT JUMPDEST POP PUSH2 0x45C PUSH1 0x4 DUP1 CALLDATASIZE SUB DUP2 ADD SWAP1 PUSH2 0x457 SWAP2 SWAP1 PUSH2 0x3141 JUMP JUMPDEST PUSH2 0xFDF JUMP JUMPDEST PUSH1 0x40 MLOAD PUSH2 0x469 SWAP2 SWAP1 PUSH2 0x2E63 JUMP JUMPDEST PUSH1 0x40 MLOAD DUP1 SWAP2 SUB SWAP1 RETURN JUMPDEST PUSH2 0x48C PUSH1 0x4 DUP1 CALLDATASIZE SUB DUP2 ADD SWAP1 PUSH2 0x487 SWAP2 SWAP1 PUSH2 0x3085 JUMP JUMPDEST PUSH2 0xFFF JUMP JUMPDEST STOP JUMPDEST CALLVALUE DUP1 ISZERO PUSH2 0x49A JUMPI PUSH1 0x0 DUP1 REVERT JUMPDEST POP PUSH2 0x4B5 PUSH1 0x4 DUP1 CALLDATASIZE SUB DUP2 ADD SWAP1 PUSH2 0x4B0 SWAP2 SWAP1 PUSH2 0x32B6 JUMP JUMPDEST PUSH2 0x101F JUMP JUMPDEST STOP JUMPDEST CALLVALUE DUP1 ISZERO PUSH2 0x4C3 JUMPI PUSH1 0x0 DUP1 REVERT JUMPDEST POP PUSH2 0x4CC PUSH2 0x10F3 JUMP JUMPDEST PUSH1 0x40 MLOAD PUSH2 0x4D9 SWAP2 SWAP1 PUSH2 0x2E63 JUMP JUMPDEST PUSH1 0x40 MLOAD DUP1 SWAP2 SUB SWAP1 RETURN JUMPDEST CALLVALUE DUP1 ISZERO PUSH2 0x4EE JUMPI PUSH1 0x0 DUP1 REVERT JUMPDEST POP PUSH2 0x509 PUSH1 0x4 DUP1 CALLDATASIZE SUB DUP2 ADD SWAP1 PUSH2 0x504 SWAP2 SWAP1 PUSH2 0x33B4 JUMP JUMPDEST PUSH2 0x1106 JUMP JUMPDEST STOP JUMPDEST CALLVALUE DUP1 ISZERO PUSH2 0x517 JUMPI PUSH1 0x0 DUP1 REVERT JUMPDEST POP PUSH2 0x532 PUSH1 0x4 DUP1 CALLDATASIZE SUB DUP2 ADD SWAP1 PUSH2 0x52D SWAP2 SWAP1 PUSH2 0x3141 JUMP JUMPDEST PUSH2 0x1121 JUMP JUMPDEST PUSH1 0x40 MLOAD PUSH2 0x53F SWAP2 SWAP1 PUSH2 0x2E63 JUMP JUMPDEST PUSH1 0x40 MLOAD DUP1 SWAP2 SUB SWAP1 RETURN JUMPDEST CALLVALUE DUP1 ISZERO PUSH2 0x554 JUMPI PUSH1 0x0 DUP1 REVERT JUMPDEST POP PUSH2 0x55D PUSH2 0x1141 JUMP JUMPDEST PUSH1 0x40 MLOAD PUSH2 0x56A SWAP2 SWAP1 PUSH2 0x306A JUMP JUMPDEST PUSH1 0x40 MLOAD DUP1 SWAP2 SUB SWAP1 RETURN JUMPDEST CALLVALUE DUP1 ISZERO PUSH2 0x57F JUMPI PUSH1 0x0 DUP1 REVERT JUMPDEST POP PUSH2 0x59A PUSH1 0x4 DUP1 CALLDATASIZE SUB DUP2 ADD SWAP1 PUSH2 0x595 SWAP2 SWAP1 PUSH2 0x3141 JUMP JUMPDEST PUSH2 0x1147 JUMP JUMPDEST PUSH1 0x40 MLOAD PUSH2 0x5A7 SWAP2 SWAP1 PUSH2 0x2E63 JUMP JUMPDEST PUSH1 0x40 MLOAD DUP1 SWAP2 SUB SWAP1 RETURN JUMPDEST CALLVALUE DUP1 ISZERO PUSH2 0x5BC JUMPI PUSH1 0x0 DUP1 REVERT JUMPDEST POP PUSH2 0x5D7 PUSH1 0x4 DUP1 CALLDATASIZE SUB DUP2 ADD SWAP1 PUSH2 0x5D2 SWAP2 SWAP1 PUSH2 0x2F66 JUMP JUMPDEST PUSH2 0x1167 JUMP JUMPDEST PUSH1 0x40 MLOAD PUSH2 0x5E4 SWAP2 SWAP1 PUSH2 0x2FD4 JUMP JUMPDEST PUSH1 0x40 MLOAD DUP1 SWAP2 SUB SWAP1 RETURN JUMPDEST CALLVALUE DUP1 ISZERO PUSH2 0x5F9 JUMPI PUSH1 0x0 DUP1 REVERT JUMPDEST POP PUSH2 0x602 PUSH2 0x1179 JUMP JUMPDEST PUSH1 0x40 MLOAD PUSH2 0x60F SWAP2 SWAP1 PUSH2 0x2F0E JUMP JUMPDEST PUSH1 0x40 MLOAD DUP1 SWAP2 SUB SWAP1 RETURN JUMPDEST CALLVALUE DUP1 ISZERO PUSH2 0x624 JUMPI PUSH1 0x0 DUP1 REVERT JUMPDEST POP PUSH2 0x63F PUSH1 0x4 DUP1 CALLDATASIZE SUB DUP2 ADD SWAP1 PUSH2 0x63A SWAP2 SWAP1 PUSH2 0x33FD JUMP JUMPDEST PUSH2 0x1207 JUMP JUMPDEST STOP JUMPDEST CALLVALUE DUP1 ISZERO PUSH2 0x64D JUMPI PUSH1 0x0 DUP1 REVERT JUMPDEST POP PUSH2 0x668 PUSH1 0x4 DUP1 CALLDATASIZE SUB DUP2 ADD SWAP1 PUSH2 0x663 SWAP2 SWAP1 PUSH2 0x3141 JUMP JUMPDEST PUSH2 0x12CE JUMP JUMPDEST PUSH1 0x40 MLOAD PUSH2 0x675 SWAP2 SWAP1 PUSH2 0x306A JUMP JUMPDEST PUSH1 0x40 MLOAD DUP1 SWAP2 SUB SWAP1 RETURN JUMPDEST CALLVALUE DUP1 ISZERO PUSH2 0x68A JUMPI PUSH1 0x0 DUP1 REVERT JUMPDEST POP PUSH2 0x693 PUSH2 0x1365 JUMP JUMPDEST STOP JUMPDEST CALLVALUE DUP1 ISZERO PUSH2 0x6A1 JUMPI PUSH1 0x0 DUP1 REVERT JUMPDEST POP PUSH2 0x6AA PUSH2 0x1379 JUMP JUMPDEST PUSH1 0x40 MLOAD PUSH2 0x6B7 SWAP2 SWAP1 PUSH2 0x2F0E JUMP JUMPDEST PUSH1 0x40 MLOAD DUP1 SWAP2 SUB SWAP1 RETURN JUMPDEST CALLVALUE DUP1 ISZERO PUSH2 0x6CC JUMPI PUSH1 0x0 DUP1 REVERT JUMPDEST POP PUSH2 0x6E7 PUSH1 0x4 DUP1 CALLDATASIZE SUB DUP2 ADD SWAP1 PUSH2 0x6E2 SWAP2 SWAP1 PUSH2 0x3141 JUMP JUMPDEST PUSH2 0x1407 JUMP JUMPDEST PUSH1 0x40 MLOAD PUSH2 0x6F4 SWAP2 SWAP1 PUSH2 0x2E63 JUMP JUMPDEST PUSH1 0x40 MLOAD DUP1 SWAP2 SUB SWAP1 RETURN JUMPDEST PUSH2 0x705 PUSH2 0x1427 JUMP JUMPDEST STOP JUMPDEST CALLVALUE DUP1 ISZERO PUSH2 0x713 JUMPI PUSH1 0x0 DUP1 REVERT JUMPDEST POP PUSH2 0x71C PUSH2 0x15EE JUMP JUMPDEST PUSH1 0x40 MLOAD PUSH2 0x729 SWAP2 SWAP1 PUSH2 0x2FD4 JUMP JUMPDEST PUSH1 0x40 MLOAD DUP1 SWAP2 SUB SWAP1 RETURN JUMPDEST CALLVALUE DUP1 ISZERO PUSH2 0x73E JUMPI PUSH1 0x0 DUP1 REVERT JUMPDEST POP PUSH2 0x759 PUSH1 0x4 DUP1 CALLDATASIZE SUB DUP2 ADD SWAP1 PUSH2 0x754 SWAP2 SWAP1 PUSH2 0x3494 JUMP JUMPDEST PUSH2 0x1618 JUMP JUMPDEST STOP JUMPDEST CALLVALUE DUP1 ISZERO PUSH2 0x767 JUMPI PUSH1 0x0 DUP1 REVERT JUMPDEST POP PUSH2 0x782 PUSH1 0x4 DUP1 CALLDATASIZE SUB DUP2 ADD SWAP1 PUSH2 0x77D SWAP2 SWAP1 PUSH2 0x33FD JUMP JUMPDEST PUSH2 0x162E JUMP JUMPDEST STOP JUMPDEST CALLVALUE DUP1 ISZERO PUSH2 0x790 JUMPI PUSH1 0x0 DUP1 REVERT JUMPDEST POP PUSH2 0x799 PUSH2 0x16D8 JUMP JUMPDEST PUSH1 0x40 MLOAD PUSH2 0x7A6 SWAP2 SWAP1 PUSH2 0x2F0E JUMP JUMPDEST PUSH1 0x40 MLOAD DUP1 SWAP2 SUB SWAP1 RETURN JUMPDEST CALLVALUE DUP1 ISZERO PUSH2 0x7BB JUMPI PUSH1 0x0 DUP1 REVERT JUMPDEST POP PUSH2 0x7D6 PUSH1 0x4 DUP1 CALLDATASIZE SUB DUP2 ADD SWAP1 PUSH2 0x7D1 SWAP2 SWAP1 PUSH2 0x3500 JUMP JUMPDEST PUSH2 0x176A JUMP JUMPDEST STOP JUMPDEST CALLVALUE DUP1 ISZERO PUSH2 0x7E4 JUMPI PUSH1 0x0 DUP1 REVERT JUMPDEST POP PUSH2 0x7ED PUSH2 0x1875 JUMP JUMPDEST STOP JUMPDEST CALLVALUE DUP1 ISZERO PUSH2 0x7FB JUMPI PUSH1 0x0 DUP1 REVERT JUMPDEST POP PUSH2 0x816 PUSH1 0x4 DUP1 CALLDATASIZE SUB DUP2 ADD SWAP1 PUSH2 0x811 SWAP2 SWAP1 PUSH2 0x3141 JUMP JUMPDEST PUSH2 0x18D2 JUMP JUMPDEST PUSH1 0x40 MLOAD PUSH2 0x823 SWAP2 SWAP1 PUSH2 0x2E63 JUMP JUMPDEST PUSH1 0x40 MLOAD DUP1 SWAP2 SUB SWAP1 RETURN JUMPDEST PUSH2 0x846 PUSH1 0x4 DUP1 CALLDATASIZE SUB DUP2 ADD SWAP1 PUSH2 0x841 SWAP2 SWAP1 PUSH2 0x35E1 JUMP JUMPDEST PUSH2 0x18F2 JUMP JUMPDEST STOP JUMPDEST CALLVALUE DUP1 ISZERO PUSH2 0x854 JUMPI PUSH1 0x0 DUP1 REVERT JUMPDEST POP PUSH2 0x85D PUSH2 0x1944 JUMP JUMPDEST PUSH1 0x40 MLOAD PUSH2 0x86A SWAP2 SWAP1 PUSH2 0x306A JUMP JUMPDEST PUSH1 0x40 MLOAD DUP1 SWAP2 SUB SWAP1 RETURN JUMPDEST CALLVALUE DUP1 ISZERO PUSH2 0x87F JUMPI PUSH1 0x0 DUP1 REVERT JUMPDEST POP PUSH2 0x89A PUSH1 0x4 DUP1 CALLDATASIZE SUB DUP2 ADD SWAP1 PUSH2 0x895 SWAP2 SWAP1 PUSH2 0x2F66 JUMP JUMPDEST PUSH2 0x194A JUMP JUMPDEST PUSH1 0x40 MLOAD PUSH2 0x8A7 SWAP2 SWAP1 PUSH2 0x2F0E JUMP JUMPDEST PUSH1 0x40 MLOAD DUP1 SWAP2 SUB SWAP1 RETURN JUMPDEST CALLVALUE DUP1 ISZERO PUSH2 0x8BC JUMPI PUSH1 0x0 DUP1 REVERT JUMPDEST POP PUSH2 0x8C5 PUSH2 0x1A6D JUMP JUMPDEST PUSH1 0x40 MLOAD PUSH2 0x8D2 SWAP2 SWAP1 PUSH2 0x306A JUMP JUMPDEST PUSH1 0x40 MLOAD DUP1 SWAP2 SUB SWAP1 RETURN JUMPDEST PUSH2 0x8E3 PUSH2 0x1A73 JUMP JUMPDEST STOP JUMPDEST CALLVALUE DUP1 ISZERO PUSH2 0x8F1 JUMPI PUSH1 0x0 DUP1 REVERT JUMPDEST POP PUSH2 0x8FA PUSH2 0x1D0A JUMP JUMPDEST PUSH1 0x40 MLOAD PUSH2 0x907 SWAP2 SWAP1 PUSH2 0x306A JUMP JUMPDEST PUSH1 0x40 MLOAD DUP1 SWAP2 SUB SWAP1 RETURN JUMPDEST CALLVALUE DUP1 ISZERO PUSH2 0x91C JUMPI PUSH1 0x0 DUP1 REVERT JUMPDEST POP PUSH2 0x925 PUSH2 0x1D10 JUMP JUMPDEST PUSH1 0x40 MLOAD PUSH2 0x932 SWAP2 SWAP1 PUSH2 0x306A JUMP JUMPDEST PUSH1 0x40 MLOAD DUP1 SWAP2 SUB SWAP1 RETURN JUMPDEST PUSH2 0x943 PUSH2 0x1D16 JUMP JUMPDEST STOP JUMPDEST CALLVALUE DUP1 ISZERO PUSH2 0x951 JUMPI PUSH1 0x0 DUP1 REVERT JUMPDEST POP PUSH2 0x96C PUSH1 0x4 DUP1 CALLDATASIZE SUB DUP2 ADD SWAP1 PUSH2 0x967 SWAP2 SWAP1 PUSH2 0x3664 JUMP JUMPDEST PUSH2 0x1FAD JUMP JUMPDEST PUSH1 0x40 MLOAD PUSH2 0x979 SWAP2 SWAP1 PUSH2 0x2E63 JUMP JUMPDEST PUSH1 0x40 MLOAD DUP1 SWAP2 SUB SWAP1 RETURN JUMPDEST CALLVALUE DUP1 ISZERO PUSH2 0x98E JUMPI PUSH1 0x0 DUP1 REVERT JUMPDEST POP PUSH2 0x997 PUSH2 0x2041 JUMP JUMPDEST PUSH1 0x40 MLOAD PUSH2 0x9A7 SWAP5 SWAP4 SWAP3 SWAP2 SWAP1 PUSH2 0x36A4 JUMP JUMPDEST PUSH1 0x40 MLOAD DUP1 SWAP2 SUB SWAP1 RETURN JUMPDEST CALLVALUE DUP1 ISZERO PUSH2 0x9BC JUMPI PUSH1 0x0 DUP1 REVERT JUMPDEST POP PUSH2 0x9D7 PUSH1 0x4 DUP1 CALLDATASIZE SUB DUP2 ADD SWAP1 PUSH2 0x9D2 SWAP2 SWAP1 PUSH2 0x33B4 JUMP JUMPDEST PUSH2 0x205F JUMP JUMPDEST STOP JUMPDEST CALLVALUE DUP1 ISZERO PUSH2 0x9E5 JUMPI PUSH1 0x0 DUP1 REVERT JUMPDEST POP PUSH2 0xA00 PUSH1 0x4 DUP1 CALLDATASIZE SUB DUP2 ADD SWAP1 PUSH2 0x9FB SWAP2 SWAP1 PUSH2 0x3141 JUMP JUMPDEST PUSH2 0x207A JUMP JUMPDEST STOP JUMPDEST CALLVALUE DUP1 ISZERO PUSH2 0xA0E JUMPI PUSH1 0x0 DUP1 REVERT JUMPDEST POP PUSH2 0xA29 PUSH1 0x4 DUP1 CALLDATASIZE SUB DUP2 ADD SWAP1 PUSH2 0xA24 SWAP2 SWAP1 PUSH2 0x32B6 JUMP JUMPDEST PUSH2 0x2100 JUMP JUMPDEST STOP JUMPDEST PUSH1 0x0 PUSH2 0xA36 DUP3 PUSH2 0x21D4 JUMP JUMPDEST SWAP1 POP SWAP2 SWAP1 POP JUMP JUMPDEST PUSH1 0x60 PUSH1 0x2 DUP1 SLOAD PUSH2 0xA4C SWAP1 PUSH2 0x3718 JUMP JUMPDEST DUP1 PUSH1 0x1F ADD PUSH1 0x20 DUP1 SWAP2 DIV MUL PUSH1 0x20 ADD PUSH1 0x40 MLOAD SWAP1 DUP2 ADD PUSH1 0x40 MSTORE DUP1 SWAP3 SWAP2 SWAP1 DUP2 DUP2 MSTORE PUSH1 0x20 ADD DUP3 DUP1 SLOAD PUSH2 0xA78 SWAP1 PUSH2 0x3718 JUMP JUMPDEST DUP1 ISZERO PUSH2 0xAC5 JUMPI DUP1 PUSH1 0x1F LT PUSH2 0xA9A JUMPI PUSH2 0x100 DUP1 DUP4 SLOAD DIV MUL DUP4 MSTORE SWAP2 PUSH1 0x20 ADD SWAP2 PUSH2 0xAC5 JUMP JUMPDEST DUP3 ADD SWAP2 SWAP1 PUSH1 0x0 MSTORE PUSH1 0x20 PUSH1 0x0 KECCAK256 SWAP1 JUMPDEST DUP2 SLOAD DUP2 MSTORE SWAP1 PUSH1 0x1 ADD SWAP1 PUSH1 0x20 ADD DUP1 DUP4 GT PUSH2 0xAA8 JUMPI DUP3 SWAP1 SUB PUSH1 0x1F AND DUP3 ADD SWAP2 JUMPDEST POP POP POP POP POP SWAP1 POP SWAP1 JUMP JUMPDEST PUSH1 0x0 PUSH2 0xADA DUP3 PUSH2 0x224E JUMP JUMPDEST PUSH2 0xAEF JUMPI PUSH2 0xAEE PUSH4 0xCF4700E4 PUSH1 0xE0 SHL PUSH2 0x22FA JUMP JUMPDEST JUMPDEST PUSH1 0x6 PUSH1 0x0 DUP4 DUP2 MSTORE PUSH1 0x20 ADD SWAP1 DUP2 MSTORE PUSH1 0x20 ADD PUSH1 0x0 KECCAK256 PUSH1 0x0 ADD PUSH1 0x0 SWAP1 SLOAD SWAP1 PUSH2 0x100 EXP SWAP1 DIV PUSH20 0xFFFFFFFFFFFFFFFFFFFFFFFFFFFFFFFFFFFFFFFF AND SWAP1 POP SWAP2 SWAP1 POP JUMP JUMPDEST PUSH2 0xB39 DUP3 DUP3 PUSH1 0x1 PUSH2 0x2304 JUMP JUMPDEST POP POP JUMP JUMPDEST PUSH1 0x0 PUSH2 0xB47 PUSH2 0x2433 JUMP JUMPDEST PUSH1 0x1 SLOAD PUSH1 0x0 SLOAD SUB SUB SWAP1 POP PUSH32 0xFFFFFFFFFFFFFFFFFFFFFFFFFFFFFFFFFFFFFFFFFFFFFFFFFFFFFFFFFFFFFFFF PUSH2 0xB7A PUSH2 0x2438 JUMP JUMPDEST EQ PUSH2 0xB87 JUMPI PUSH1 0x8 SLOAD DUP2 ADD SWAP1 POP JUMPDEST SWAP1 JUMP JUMPDEST PUSH1 0x11 SLOAD DUP2 JUMP JUMPDEST PUSH1 0x0 PUSH2 0xB9B DUP3 PUSH2 0x2460 JUMP JUMPDEST SWAP1 POP PUSH20 0xFFFFFFFFFFFFFFFFFFFFFFFFFFFFFFFFFFFFFFFF DUP5 PUSH20 0xFFFFFFFFFFFFFFFFFFFFFFFFFFFFFFFFFFFFFFFF AND AND SWAP4 POP DUP4 PUSH20 0xFFFFFFFFFFFFFFFFFFFFFFFFFFFFFFFFFFFFFFFF AND DUP2 PUSH20 0xFFFFFFFFFFFFFFFFFFFFFFFFFFFFFFFFFFFFFFFF AND EQ PUSH2 0xC10 JUMPI PUSH2 0xC0F PUSH4 0xA1148100 PUSH1 0xE0 SHL PUSH2 0x22FA JUMP JUMPDEST JUMPDEST PUSH1 0x0 DUP1 PUSH2 0xC1C DUP5 PUSH2 0x2579 JUMP JUMPDEST SWAP2 POP SWAP2 POP PUSH2 0xC32 DUP2 DUP8 PUSH2 0xC2D PUSH2 0x25A0 JUMP JUMPDEST PUSH2 0x25A8 JUMP JUMPDEST PUSH2 0xC5D JUMPI PUSH2 0xC47 DUP7 PUSH2 0xC42 PUSH2 0x25A0 JUMP JUMPDEST PUSH2 0x1FAD JUMP JUMPDEST PUSH2 0xC5C JUMPI PUSH2 0xC5B PUSH4 0x59C896BE PUSH1 0xE0 SHL PUSH2 0x22FA JUMP JUMPDEST JUMPDEST JUMPDEST PUSH2 0xC6A DUP7 DUP7 DUP7 PUSH1 0x1 PUSH2 0x25EC JUMP JUMPDEST DUP1 ISZERO PUSH2 0xC75 JUMPI PUSH1 0x0 DUP3 SSTORE JUMPDEST PUSH1 0x5 PUSH1 0x0 DUP8 PUSH20 0xFFFFFFFFFFFFFFFFFFFFFFFFFFFFFFFFFFFFFFFF AND PUSH20 0xFFFFFFFFFFFFFFFFFFFFFFFFFFFFFFFFFFFFFFFF AND DUP2 MSTORE PUSH1 0x20 ADD SWAP1 DUP2 MSTORE PUSH1 0x20 ADD PUSH1 0x0 KECCAK256 PUSH1 0x0 DUP2 SLOAD PUSH1 0x1 SWAP1 SUB SWAP2 SWAP1 POP DUP2 SWAP1 SSTORE POP PUSH1 0x5 PUSH1 0x0 DUP7 PUSH20 0xFFFFFFFFFFFFFFFFFFFFFFFFFFFFFFFFFFFFFFFF AND PUSH20 0xFFFFFFFFFFFFFFFFFFFFFFFFFFFFFFFFFFFFFFFF AND DUP2 MSTORE PUSH1 0x20 ADD SWAP1 DUP2 MSTORE PUSH1 0x20 ADD PUSH1 0x0 KECCAK256 PUSH1 0x0 DUP2 SLOAD PUSH1 0x1 ADD SWAP2 SWAP1 POP DUP2 SWAP1 SSTORE POP PUSH2 0xD43 DUP6 PUSH2 0xD1F DUP9 DUP9 DUP8 PUSH2 0x25F2 JUMP JUMPDEST PUSH29 0x200000000000000000000000000000000000000000000000000000000 OR PUSH2 0x261A JUMP JUMPDEST PUSH1 0x4 PUSH1 0x0 DUP7 DUP2 MSTORE PUSH1 0x20 ADD SWAP1 DUP2 MSTORE PUSH1 0x20 ADD PUSH1 0x0 KECCAK256 DUP2 SWAP1 SSTORE POP PUSH1 0x0 PUSH29 0x200000000000000000000000000000000000000000000000000000000 DUP5 AND SUB PUSH2 0xDC9 JUMPI PUSH1 0x0 PUSH1 0x1 DUP6 ADD SWAP1 POP PUSH1 0x0 PUSH1 0x4 PUSH1 0x0 DUP4 DUP2 MSTORE PUSH1 0x20 ADD SWAP1 DUP2 MSTORE PUSH1 0x20 ADD PUSH1 0x0 KECCAK256 SLOAD SUB PUSH2 0xDC7 JUMPI PUSH1 0x0 SLOAD DUP2 EQ PUSH2 0xDC6 JUMPI DUP4 PUSH1 0x4 PUSH1 0x0 DUP4 DUP2 MSTORE PUSH1 0x20 ADD SWAP1 DUP2 MSTORE PUSH1 0x20 ADD PUSH1 0x0 KECCAK256 DUP2 SWAP1 SSTORE POP JUMPDEST JUMPDEST POP JUMPDEST PUSH1 0x0 PUSH20 0xFFFFFFFFFFFFFFFFFFFFFFFFFFFFFFFFFFFFFFFF DUP7 PUSH20 0xFFFFFFFFFFFFFFFFFFFFFFFFFFFFFFFFFFFFFFFF AND AND SWAP1 POP DUP5 DUP2 DUP9 PUSH32 0xDDF252AD1BE2C89B69C2B068FC378DAA952BA7F163C4A11628F55A4DF523B3EF PUSH1 0x0 DUP1 LOG4 PUSH1 0x0 DUP2 SUB PUSH2 0xE3B JUMPI PUSH2 0xE3A PUSH4 0xEA553B34 PUSH1 0xE0 SHL PUSH2 0x22FA JUMP JUMPDEST JUMPDEST PUSH2 0xE48 DUP8 DUP8 DUP8 PUSH1 0x1 PUSH2 0x2645 JUMP JUMPDEST POP POP POP POP POP POP POP JUMP JUMPDEST PUSH1 0x0 DUP1 PUSH1 0x0 PUSH1 0xA PUSH1 0x0 DUP7 DUP2 MSTORE PUSH1 0x20 ADD SWAP1 DUP2 MSTORE PUSH1 0x20 ADD PUSH1 0x0 KECCAK256 SWAP1 POP PUSH1 0x0 DUP2 PUSH1 0x0 ADD PUSH1 0x0 SWAP1 SLOAD SWAP1 PUSH2 0x100 EXP SWAP1 DIV PUSH20 0xFFFFFFFFFFFFFFFFFFFFFFFFFFFFFFFFFFFFFFFF AND SWAP1 POP PUSH1 0x0 DUP3 PUSH1 0x0 ADD PUSH1 0x14 SWAP1 SLOAD SWAP1 PUSH2 0x100 EXP SWAP1 DIV PUSH12 0xFFFFFFFFFFFFFFFFFFFFFFFF AND SWAP1 POP PUSH1 0x0 PUSH20 0xFFFFFFFFFFFFFFFFFFFFFFFFFFFFFFFFFFFFFFFF AND DUP3 PUSH20 0xFFFFFFFFFFFFFFFFFFFFFFFFFFFFFFFFFFFFFFFF AND SUB PUSH2 0xF32 JUMPI PUSH1 0x9 PUSH1 0x0 ADD PUSH1 0x0 SWAP1 SLOAD SWAP1 PUSH2 0x100 EXP SWAP1 DIV PUSH20 0xFFFFFFFFFFFFFFFFFFFFFFFFFFFFFFFFFFFFFFFF AND SWAP2 POP PUSH1 0x9 PUSH1 0x0 ADD PUSH1 0x14 SWAP1 SLOAD SWAP1 PUSH2 0x100 EXP SWAP1 DIV PUSH12 0xFFFFFFFFFFFFFFFFFFFFFFFF AND SWAP1 POP JUMPDEST PUSH1 0x0 PUSH2 0xF3C PUSH2 0x264B JUMP JUMPDEST PUSH12 0xFFFFFFFFFFFFFFFFFFFFFFFF AND DUP3 PUSH12 0xFFFFFFFFFFFFFFFFFFFFFFFF AND DUP9 PUSH2 0xF64 SWAP2 SWAP1 PUSH2 0x3778 JUMP JUMPDEST PUSH2 0xF6E SWAP2 SWAP1 PUSH2 0x37E9 JUMP JUMPDEST SWAP1 POP DUP3 DUP2 SWAP6 POP SWAP6 POP POP POP POP POP SWAP3 POP SWAP3 SWAP1 POP JUMP JUMPDEST PUSH1 0x10 SLOAD DUP2 JUMP JUMPDEST PUSH2 0xF8F PUSH2 0x2655 JUMP JUMPDEST PUSH2 0xF97 PUSH2 0x15EE JUMP JUMPDEST PUSH20 0xFFFFFFFFFFFFFFFFFFFFFFFFFFFFFFFFFFFFFFFF AND PUSH2 0x8FC SELFBALANCE SWAP1 DUP2 ISZERO MUL SWAP1 PUSH1 0x40 MLOAD PUSH1 0x0 PUSH1 0x40 MLOAD DUP1 DUP4 SUB DUP2 DUP6 DUP9 DUP9 CALL SWAP4 POP POP POP POP ISZERO DUP1 ISZERO PUSH2 0xFDC JUMPI RETURNDATASIZE PUSH1 0x0 DUP1 RETURNDATACOPY RETURNDATASIZE PUSH1 0x0 REVERT JUMPDEST POP JUMP JUMPDEST PUSH1 0x16 PUSH1 0x20 MSTORE DUP1 PUSH1 0x0 MSTORE PUSH1 0x40 PUSH1 0x0 KECCAK256 PUSH1 0x0 SWAP2 POP SLOAD SWAP1 PUSH2 0x100 EXP SWAP1 DIV PUSH1 0xFF AND DUP2 JUMP JUMPDEST PUSH2 0x101A DUP4 DUP4 DUP4 PUSH1 0x40 MLOAD DUP1 PUSH1 0x20 ADD PUSH1 0x40 MSTORE DUP1 PUSH1 0x0 DUP2 MSTORE POP PUSH2 0x18F2 JUMP JUMPDEST POP POP POP JUMP JUMPDEST PUSH2 0x1027 PUSH2 0x2655 JUMP JUMPDEST PUSH1 0x0 JUMPDEST DUP2 MLOAD DUP2 LT ISZERO PUSH2 0x10B8 JUMPI PUSH1 0x1 PUSH1 0x16 PUSH1 0x0 DUP5 DUP5 DUP2 MLOAD DUP2 LT PUSH2 0x104C JUMPI PUSH2 0x104B PUSH2 0x381A JUMP JUMPDEST JUMPDEST PUSH1 0x20 MUL PUSH1 0x20 ADD ADD MLOAD PUSH20 0xFFFFFFFFFFFFFFFFFFFFFFFFFFFFFFFFFFFFFFFF AND PUSH20 0xFFFFFFFFFFFFFFFFFFFFFFFFFFFFFFFFFFFFFFFF AND DUP2 MSTORE PUSH1 0x20 ADD SWAP1 DUP2 MSTORE PUSH1 0x20 ADD PUSH1 0x0 KECCAK256 PUSH1 0x0 PUSH2 0x100 EXP DUP2 SLOAD DUP2 PUSH1 0xFF MUL NOT AND SWAP1 DUP4 ISZERO ISZERO MUL OR SWAP1 SSTORE POP DUP1 DUP1 PUSH2 0x10B0 SWAP1 PUSH2 0x3849 JUMP JUMPDEST SWAP2 POP POP PUSH2 0x102A JUMP JUMPDEST POP PUSH32 0x8E259FE80D79F5CA6D42E35590FD71FC1504C3CD5516DFABA56990D1C9DD66EF DUP2 PUSH1 0x40 MLOAD PUSH2 0x10E8 SWAP2 SWAP1 PUSH2 0x399B JUMP JUMPDEST PUSH1 0x40 MLOAD DUP1 SWAP2 SUB SWAP1 LOG1 POP JUMP JUMPDEST PUSH1 0x15 PUSH1 0x0 SWAP1 SLOAD SWAP1 PUSH2 0x100 EXP SWAP1 DIV PUSH1 0xFF AND DUP2 JUMP JUMPDEST PUSH2 0x110E PUSH2 0x2655 JUMP JUMPDEST DUP1 PUSH1 0x13 SWAP1 DUP2 PUSH2 0x111D SWAP2 SWAP1 PUSH2 0x3B7C JUMP JUMPDEST POP POP JUMP JUMPDEST PUSH1 0x17 PUSH1 0x20 MSTORE DUP1 PUSH1 0x0 MSTORE PUSH1 0x40 PUSH1 0x0 KECCAK256 PUSH1 0x0 SWAP2 POP SLOAD SWAP1 PUSH2 0x100 EXP SWAP1 DIV PUSH1 0xFF AND DUP2 JUMP JUMPDEST PUSH1 0xE SLOAD DUP2 JUMP JUMPDEST PUSH1 0x1A PUSH1 0x20 MSTORE DUP1 PUSH1 0x0 MSTORE PUSH1 0x40 PUSH1 0x0 KECCAK256 PUSH1 0x0 SWAP2 POP SLOAD SWAP1 PUSH2 0x100 EXP SWAP1 DIV PUSH1 0xFF AND DUP2 JUMP JUMPDEST PUSH1 0x0 PUSH2 0x1172 DUP3 PUSH2 0x2460 JUMP JUMPDEST SWAP1 POP SWAP2 SWAP1 POP JUMP JUMPDEST PUSH1 0x13 DUP1 SLOAD PUSH2 0x1186 SWAP1 PUSH2 0x3718 JUMP JUMPDEST DUP1 PUSH1 0x1F ADD PUSH1 0x20 DUP1 SWAP2 DIV MUL PUSH1 0x20 ADD PUSH1 0x40 MLOAD SWAP1 DUP2 ADD PUSH1 0x40 MSTORE DUP1 SWAP3 SWAP2 SWAP1 DUP2 DUP2 MSTORE PUSH1 0x20 ADD DUP3 DUP1 SLOAD PUSH2 0x11B2 SWAP1 PUSH2 0x3718 JUMP JUMPDEST DUP1 ISZERO PUSH2 0x11FF JUMPI DUP1 PUSH1 0x1F LT PUSH2 0x11D4 JUMPI PUSH2 0x100 DUP1 DUP4 SLOAD DIV MUL DUP4 MSTORE SWAP2 PUSH1 0x20 ADD SWAP2 PUSH2 0x11FF JUMP JUMPDEST DUP3 ADD SWAP2 SWAP1 PUSH1 0x0 MSTORE PUSH1 0x20 PUSH1 0x0 KECCAK256 SWAP1 JUMPDEST DUP2 SLOAD DUP2 MSTORE SWAP1 PUSH1 0x1 ADD SWAP1 PUSH1 0x20 ADD DUP1 DUP4 GT PUSH2 0x11E2 JUMPI DUP3 SWAP1 SUB PUSH1 0x1F AND DUP3 ADD SWAP2 JUMPDEST POP POP POP POP POP DUP2 JUMP JUMPDEST PUSH2 0x120F PUSH2 0x2655 JUMP JUMPDEST DUP3 PUSH1 0x10 DUP2 SWAP1 SSTORE POP DUP2 PUSH1 0x11 DUP2 SWAP1 SSTORE POP DUP1 PUSH1 0x12 DUP2 SWAP1 SSTORE POP PUSH32 0xADAB82E2607F1ADB1193A8CE2A7901FE8BAC3F788495C712B56F45EF1B0494F0 DUP4 PUSH1 0x40 MLOAD PUSH2 0x1253 SWAP2 SWAP1 PUSH2 0x3C9A JUMP JUMPDEST PUSH1 0x40 MLOAD DUP1 SWAP2 SUB SWAP1 LOG1 PUSH32 0xADAB82E2607F1ADB1193A8CE2A7901FE8BAC3F788495C712B56F45EF1B0494F0 DUP3 PUSH1 0x40 MLOAD PUSH2 0x128A SWAP2 SWAP1 PUSH2 0x3D14 JUMP JUMPDEST PUSH1 0x40 MLOAD DUP1 SWAP2 SUB SWAP1 LOG1 PUSH32 0xADAB82E2607F1ADB1193A8CE2A7901FE8BAC3F788495C712B56F45EF1B0494F0 DUP2 PUSH1 0x40 MLOAD PUSH2 0x12C1 SWAP2 SWAP1 PUSH2 0x3D8E JUMP JUMPDEST PUSH1 0x40 MLOAD DUP1 SWAP2 SUB SWAP1 LOG1 POP POP POP JUMP JUMPDEST PUSH1 0x0 DUP1 PUSH20 0xFFFFFFFFFFFFFFFFFFFFFFFFFFFFFFFFFFFFFFFF AND DUP3 PUSH20 0xFFFFFFFFFFFFFFFFFFFFFFFFFFFFFFFFFFFFFFFF AND SUB PUSH2 0x1314 JUMPI PUSH2 0x1313 PUSH4 0x8F4EB604 PUSH1 0xE0 SHL PUSH2 0x22FA JUMP JUMPDEST JUMPDEST PUSH8 0xFFFFFFFFFFFFFFFF PUSH1 0x5 PUSH1 0x0 DUP5 PUSH20 0xFFFFFFFFFFFFFFFFFFFFFFFFFFFFFFFFFFFFFFFF AND PUSH20 0xFFFFFFFFFFFFFFFFFFFFFFFFFFFFFFFFFFFFFFFF AND DUP2 MSTORE PUSH1 0x20 ADD SWAP1 DUP2 MSTORE PUSH1 0x20 ADD PUSH1 0x0 KECCAK256 SLOAD AND SWAP1 POP SWAP2 SWAP1 POP JUMP JUMPDEST PUSH2 0x136D PUSH2 0x2655 JUMP JUMPDEST PUSH2 0x1377 PUSH1 0x0 PUSH2 0x26DC JUMP JUMPDEST JUMP JUMPDEST PUSH1 0x14 DUP1 SLOAD PUSH2 0x1386 SWAP1 PUSH2 0x3718 JUMP JUMPDEST DUP1 PUSH1 0x1F ADD PUSH1 0x20 DUP1 SWAP2 DIV MUL PUSH1 0x20 ADD PUSH1 0x40 MLOAD SWAP1 DUP2 ADD PUSH1 0x40 MSTORE DUP1 SWAP3 SWAP2 SWAP1 DUP2 DUP2 MSTORE PUSH1 0x20 ADD DUP3 DUP1 SLOAD PUSH2 0x13B2 SWAP1 PUSH2 0x3718 JUMP JUMPDEST DUP1 ISZERO PUSH2 0x13FF JUMPI DUP1 PUSH1 0x1F LT PUSH2 0x13D4 JUMPI PUSH2 0x100 DUP1 DUP4 SLOAD DIV MUL DUP4 MSTORE SWAP2 PUSH1 0x20 ADD SWAP2 PUSH2 0x13FF JUMP JUMPDEST DUP3 ADD SWAP2 SWAP1 PUSH1 0x0 MSTORE PUSH1 0x20 PUSH1 0x0 KECCAK256 SWAP1 JUMPDEST DUP2 SLOAD DUP2 MSTORE SWAP1 PUSH1 0x1 ADD SWAP1 PUSH1 0x20 ADD DUP1 DUP4 GT PUSH2 0x13E2 JUMPI DUP3 SWAP1 SUB PUSH1 0x1F AND DUP3 ADD SWAP2 JUMPDEST POP POP POP POP POP DUP2 JUMP JUMPDEST PUSH1 0x19 PUSH1 0x20 MSTORE DUP1 PUSH1 0x0 MSTORE PUSH1 0x40 PUSH1 0x0 KECCAK256 PUSH1 0x0 SWAP2 POP SLOAD SWAP1 PUSH2 0x100 EXP SWAP1 DIV PUSH1 0xFF AND DUP2 JUMP JUMPDEST PUSH1 0xE SLOAD TIMESTAMP LT ISZERO PUSH2 0x146C JUMPI PUSH1 0x40 MLOAD PUSH32 0x8C379A000000000000000000000000000000000000000000000000000000000 DUP2 MSTORE PUSH1 0x4 ADD PUSH2 0x1463 SWAP1 PUSH2 0x3E08 JUMP JUMPDEST PUSH1 0x40 MLOAD DUP1 SWAP2 SUB SWAP1 REVERT JUMPDEST PUSH1 0x1A PUSH1 0x0 CALLER PUSH20 0xFFFFFFFFFFFFFFFFFFFFFFFFFFFFFFFFFFFFFFFF AND PUSH20 0xFFFFFFFFFFFFFFFFFFFFFFFFFFFFFFFFFFFFFFFF AND DUP2 MSTORE PUSH1 0x20 ADD SWAP1 DUP2 MSTORE PUSH1 0x20 ADD PUSH1 0x0 KECCAK256 PUSH1 0x0 SWAP1 SLOAD SWAP1 PUSH2 0x100 EXP SWAP1 DIV PUSH1 0xFF AND ISZERO PUSH2 0x14F9 JUMPI PUSH1 0x40 MLOAD PUSH32 0x8C379A000000000000000000000000000000000000000000000000000000000 DUP2 MSTORE PUSH1 0x4 ADD PUSH2 0x14F0 SWAP1 PUSH2 0x3E74 JUMP JUMPDEST PUSH1 0x40 MLOAD DUP1 SWAP2 SUB SWAP1 REVERT JUMPDEST PUSH1 0xF SLOAD PUSH2 0x1504 PUSH2 0xB3D JUMP JUMPDEST LT PUSH2 0x1544 JUMPI PUSH1 0x40 MLOAD PUSH32 0x8C379A000000000000000000000000000000000000000000000000000000000 DUP2 MSTORE PUSH1 0x4 ADD PUSH2 0x153B SWAP1 PUSH2 0x3EE0 JUMP JUMPDEST PUSH1 0x40 MLOAD DUP1 SWAP2 SUB SWAP1 REVERT JUMPDEST PUSH1 0x12 SLOAD CALLVALUE LT ISZERO PUSH2 0x1589 JUMPI PUSH1 0x40 MLOAD PUSH32 0x8C379A000000000000000000000000000000000000000000000000000000000 DUP2 MSTORE PUSH1 0x4 ADD PUSH2 0x1580 SWAP1 PUSH2 0x3F4C JUMP JUMPDEST PUSH1 0x40 MLOAD DUP1 SWAP2 SUB SWAP1 REVERT JUMPDEST PUSH1 0x1 PUSH1 0x1A PUSH1 0x0 CALLER PUSH20 0xFFFFFFFFFFFFFFFFFFFFFFFFFFFFFFFFFFFFFFFF AND PUSH20 0xFFFFFFFFFFFFFFFFFFFFFFFFFFFFFFFFFFFFFFFF AND DUP2 MSTORE PUSH1 0x20 ADD SWAP1 DUP2 MSTORE PUSH1 0x20 ADD PUSH1 0x0 KECCAK256 PUSH1 0x0 PUSH2 0x100 EXP DUP2 SLOAD DUP2 PUSH1 0xFF MUL NOT AND SWAP1 DUP4 ISZERO ISZERO MUL OR SWAP1 SSTORE POP PUSH2 0x15EC CALLER PUSH1 0x1 PUSH2 0x27A2 JUMP JUMPDEST JUMP JUMPDEST PUSH1 0x0 PUSH1 0xB PUSH1 0x0 SWAP1 SLOAD SWAP1 PUSH2 0x100 EXP SWAP1 DIV PUSH20 0xFFFFFFFFFFFFFFFFFFFFFFFFFFFFFFFFFFFFFFFF AND SWAP1 POP SWAP1 JUMP JUMPDEST PUSH2 0x1620 PUSH2 0x2655 JUMP JUMPDEST PUSH2 0x162A DUP3 DUP3 PUSH2 0x27C0 JUMP JUMPDEST POP POP JUMP JUMPDEST PUSH2 0x1636 PUSH2 0x2655 JUMP JUMPDEST DUP2 DUP4 LT DUP1 ISZERO PUSH2 0x1644 JUMPI POP DUP1 DUP3 LT JUMPDEST PUSH2 0x1683 JUMPI PUSH1 0x40 MLOAD PUSH32 0x8C379A000000000000000000000000000000000000000000000000000000000 DUP2 MSTORE PUSH1 0x4 ADD PUSH2 0x167A SWAP1 PUSH2 0x3FB8 JUMP JUMPDEST PUSH1 0x40 MLOAD DUP1 SWAP2 SUB SWAP1 REVERT JUMPDEST DUP3 PUSH1 0xC DUP2 SWAP1 SSTORE POP DUP2 PUSH1 0xD DUP2 SWAP1 SSTORE POP DUP1 PUSH1 0xE DUP2 SWAP1 SSTORE POP PUSH32 0x21B7B308C48DE149D4EC3BA2B7CF65C08232F8ACFED6FBE415471E2C793524F DUP4 DUP4 DUP4 PUSH1 0x40 MLOAD PUSH2 0x16CB SWAP4 SWAP3 SWAP2 SWAP1 PUSH2 0x3FD8 JUMP JUMPDEST PUSH1 0x40 MLOAD DUP1 SWAP2 SUB SWAP1 LOG1 POP POP POP JUMP JUMPDEST PUSH1 0x60 PUSH1 0x3 DUP1 SLOAD PUSH2 0x16E7 SWAP1 PUSH2 0x3718 JUMP JUMPDEST DUP1 PUSH1 0x1F ADD PUSH1 0x20 DUP1 SWAP2 DIV MUL PUSH1 0x20 ADD PUSH1 0x40 MLOAD SWAP1 DUP2 ADD PUSH1 0x40 MSTORE DUP1 SWAP3 SWAP2 SWAP1 DUP2 DUP2 MSTORE PUSH1 0x20 ADD DUP3 DUP1 SLOAD PUSH2 0x1713 SWAP1 PUSH2 0x3718 JUMP JUMPDEST DUP1 ISZERO PUSH2 0x1760 JUMPI DUP1 PUSH1 0x1F LT PUSH2 0x1735 JUMPI PUSH2 0x100 DUP1 DUP4 SLOAD DIV MUL DUP4 MSTORE SWAP2 PUSH1 0x20 ADD SWAP2 PUSH2 0x1760 JUMP JUMPDEST DUP3 ADD SWAP2 SWAP1 PUSH1 0x0 MSTORE PUSH1 0x20 PUSH1 0x0 KECCAK256 SWAP1 JUMPDEST DUP2 SLOAD DUP2 MSTORE SWAP1 PUSH1 0x1 ADD SWAP1 PUSH1 0x20 ADD DUP1 DUP4 GT PUSH2 0x1743 JUMPI DUP3 SWAP1 SUB PUSH1 0x1F AND DUP3 ADD SWAP2 JUMPDEST POP POP POP POP POP SWAP1 POP SWAP1 JUMP JUMPDEST DUP1 PUSH1 0x7 PUSH1 0x0 PUSH2 0x1777 PUSH2 0x25A0 JUMP JUMPDEST PUSH20 0xFFFFFFFFFFFFFFFFFFFFFFFFFFFFFFFFFFFFFFFF AND PUSH20 0xFFFFFFFFFFFFFFFFFFFFFFFFFFFFFFFFFFFFFFFF AND DUP2 MSTORE PUSH1 0x20 ADD SWAP1 DUP2 MSTORE PUSH1 0x20 ADD PUSH1 0x0 KECCAK256 PUSH1 0x0 DUP5 PUSH20 0xFFFFFFFFFFFFFFFFFFFFFFFFFFFFFFFFFFFFFFFF AND PUSH20 0xFFFFFFFFFFFFFFFFFFFFFFFFFFFFFFFFFFFFFFFF AND DUP2 MSTORE PUSH1 0x20 ADD SWAP1 DUP2 MSTORE PUSH1 0x20 ADD PUSH1 0x0 KECCAK256 PUSH1 0x0 PUSH2 0x100 EXP DUP2 SLOAD DUP2 PUSH1 0xFF MUL NOT AND SWAP1 DUP4 ISZERO ISZERO MUL OR SWAP1 SSTORE POP DUP2 PUSH20 0xFFFFFFFFFFFFFFFFFFFFFFFFFFFFFFFFFFFFFFFF AND PUSH2 0x1824 PUSH2 0x25A0 JUMP JUMPDEST PUSH20 0xFFFFFFFFFFFFFFFFFFFFFFFFFFFFFFFFFFFFFFFF AND PUSH32 0x17307EAB39AB6107E8899845AD3D59BD9653F200F220920489CA2B5937696C31 DUP4 PUSH1 0x40 MLOAD PUSH2 0x1869 SWAP2 SWAP1 PUSH2 0x2E63 JUMP JUMPDEST PUSH1 0x40 MLOAD DUP1 SWAP2 SUB SWAP1 LOG3 POP POP JUMP JUMPDEST PUSH2 0x187D PUSH2 0x2655 JUMP JUMPDEST PUSH1 0x1 PUSH1 0x15 PUSH1 0x0 PUSH2 0x100 EXP DUP2 SLOAD DUP2 PUSH1 0xFF MUL NOT AND SWAP1 DUP4 ISZERO ISZERO MUL OR SWAP1 SSTORE POP PUSH32 0x20A5B4E05B29089957B31C76110692167D828E9ECB1BE33824E11609370E8021 PUSH1 0x1 PUSH1 0x40 MLOAD PUSH2 0x18C8 SWAP2 SWAP1 PUSH2 0x2E63 JUMP JUMPDEST PUSH1 0x40 MLOAD DUP1 SWAP2 SUB SWAP1 LOG1 JUMP JUMPDEST PUSH1 0x18 PUSH1 0x20 MSTORE DUP1 PUSH1 0x0 MSTORE PUSH1 0x40 PUSH1 0x0 KECCAK256 PUSH1 0x0 SWAP2 POP SLOAD SWAP1 PUSH2 0x100 EXP SWAP1 DIV PUSH1 0xFF AND DUP2 JUMP JUMPDEST PUSH2 0x18FD DUP5 DUP5 DUP5 PUSH2 0xB90 JUMP JUMPDEST PUSH1 0x0 DUP4 PUSH20 0xFFFFFFFFFFFFFFFFFFFFFFFFFFFFFFFFFFFFFFFF AND EXTCODESIZE EQ PUSH2 0x193E JUMPI PUSH2 0x1928 DUP5 DUP5 DUP5 DUP5 PUSH2 0x2962 JUMP JUMPDEST PUSH2 0x193D JUMPI PUSH2 0x193C PUSH4 0xD1A57ED6 PUSH1 0xE0 SHL PUSH2 0x22FA JUMP JUMPDEST JUMPDEST JUMPDEST POP POP POP POP JUMP JUMPDEST PUSH1 0xC SLOAD DUP2 JUMP JUMPDEST PUSH1 0x60 PUSH2 0x1955 DUP3 PUSH2 0x224E JUMP JUMPDEST PUSH2 0x1994 JUMPI PUSH1 0x40 MLOAD PUSH32 0x8C379A000000000000000000000000000000000000000000000000000000000 DUP2 MSTORE PUSH1 0x4 ADD PUSH2 0x198B SWAP1 PUSH2 0x405B JUMP JUMPDEST PUSH1 0x40 MLOAD DUP1 SWAP2 SUB SWAP1 REVERT JUMPDEST PUSH1 0x15 PUSH1 0x0 SWAP1 SLOAD SWAP1 PUSH2 0x100 EXP SWAP1 DIV PUSH1 0xFF AND PUSH2 0x1A3A JUMPI PUSH1 0x14 DUP1 SLOAD PUSH2 0x19B5 SWAP1 PUSH2 0x3718 JUMP JUMPDEST DUP1 PUSH1 0x1F ADD PUSH1 0x20 DUP1 SWAP2 DIV MUL PUSH1 0x20 ADD PUSH1 0x40 MLOAD SWAP1 DUP2 ADD PUSH1 0x40 MSTORE DUP1 SWAP3 SWAP2 SWAP1 DUP2 DUP2 MSTORE PUSH1 0x20 ADD DUP3 DUP1 SLOAD PUSH2 0x19E1 SWAP1 PUSH2 0x3718 JUMP JUMPDEST DUP1 ISZERO PUSH2 0x1A2E JUMPI DUP1 PUSH1 0x1F LT PUSH2 0x1A03 JUMPI PUSH2 0x100 DUP1 DUP4 SLOAD DIV MUL DUP4 MSTORE SWAP2 PUSH1 0x20 ADD SWAP2 PUSH2 0x1A2E JUMP JUMPDEST DUP3 ADD SWAP2 SWAP1 PUSH1 0x0 MSTORE PUSH1 0x20 PUSH1 0x0 KECCAK256 SWAP1 JUMPDEST DUP2 SLOAD DUP2 MSTORE SWAP1 PUSH1 0x1 ADD SWAP1 PUSH1 0x20 ADD DUP1 DUP4 GT PUSH2 0x1A11 JUMPI DUP3 SWAP1 SUB PUSH1 0x1F AND DUP3 ADD SWAP2 JUMPDEST POP POP POP POP POP SWAP1 POP PUSH2 0x1A68 JUMP JUMPDEST PUSH1 0x13 PUSH2 0x1A45 DUP4 PUSH2 0x2A91 JUMP JUMPDEST PUSH1 0x40 MLOAD PUSH1 0x20 ADD PUSH2 0x1A56 SWAP3 SWAP2 SWAP1 PUSH2 0x4186 JUMP JUMPDEST PUSH1 0x40 MLOAD PUSH1 0x20 DUP2 DUP4 SUB SUB DUP2 MSTORE SWAP1 PUSH1 0x40 MSTORE SWAP1 POP JUMPDEST SWAP2 SWAP1 POP JUMP JUMPDEST PUSH1 0xD SLOAD DUP2 JUMP JUMPDEST PUSH1 0xC SLOAD TIMESTAMP LT ISZERO PUSH2 0x1AB8 JUMPI PUSH1 0x40 MLOAD PUSH32 0x8C379A000000000000000000000000000000000000000000000000000000000 DUP2 MSTORE PUSH1 0x4 ADD PUSH2 0x1AAF SWAP1 PUSH2 0x4201 JUMP JUMPDEST PUSH1 0x40 MLOAD DUP1 SWAP2 SUB SWAP1 REVERT JUMPDEST PUSH1 0xD SLOAD TIMESTAMP LT PUSH2 0x1AFC JUMPI PUSH1 0x40 MLOAD PUSH32 0x8C379A000000000000000000000000000000000000000000000000000000000 DUP2 MSTORE PUSH1 0x4 ADD PUSH2 0x1AF3 SWAP1 PUSH2 0x426D JUMP JUMPDEST PUSH1 0x40 MLOAD DUP1 SWAP2 SUB SWAP1 REVERT JUMPDEST PUSH1 0x16 PUSH1 0x0 CALLER PUSH20 0xFFFFFFFFFFFFFFFFFFFFFFFFFFFFFFFFFFFFFFFF AND PUSH20 0xFFFFFFFFFFFFFFFFFFFFFFFFFFFFFFFFFFFFFFFF AND DUP2 MSTORE PUSH1 0x20 ADD SWAP1 DUP2 MSTORE PUSH1 0x20 ADD PUSH1 0x0 KECCAK256 PUSH1 0x0 SWAP1 SLOAD SWAP1 PUSH2 0x100 EXP SWAP1 DIV PUSH1 0xFF AND PUSH2 0x1B88 JUMPI PUSH1 0x40 MLOAD PUSH32 0x8C379A000000000000000000000000000000000000000000000000000000000 DUP2 MSTORE PUSH1 0x4 ADD PUSH2 0x1B7F SWAP1 PUSH2 0x42D9 JUMP JUMPDEST PUSH1 0x40 MLOAD DUP1 SWAP2 SUB SWAP1 REVERT JUMPDEST PUSH1 0x18 PUSH1 0x0 CALLER PUSH20 0xFFFFFFFFFFFFFFFFFFFFFFFFFFFFFFFFFFFFFFFF AND PUSH20 0xFFFFFFFFFFFFFFFFFFFFFFFFFFFFFFFFFFFFFFFF AND DUP2 MSTORE PUSH1 0x20 ADD SWAP1 DUP2 MSTORE PUSH1 0x20 ADD PUSH1 0x0 KECCAK256 PUSH1 0x0 SWAP1 SLOAD SWAP1 PUSH2 0x100 EXP SWAP1 DIV PUSH1 0xFF AND ISZERO PUSH2 0x1C15 JUMPI PUSH1 0x40 MLOAD PUSH32 0x8C379A000000000000000000000000000000000000000000000000000000000 DUP2 MSTORE PUSH1 0x4 ADD PUSH2 0x1C0C SWAP1 PUSH2 0x3E74 JUMP JUMPDEST PUSH1 0x40 MLOAD DUP1 SWAP2 SUB SWAP1 REVERT JUMPDEST PUSH1 0xF SLOAD PUSH2 0x1C20 PUSH2 0xB3D JUMP JUMPDEST LT PUSH2 0x1C60 JUMPI PUSH1 0x40 MLOAD PUSH32 0x8C379A000000000000000000000000000000000000000000000000000000000 DUP2 MSTORE PUSH1 0x4 ADD PUSH2 0x1C57 SWAP1 PUSH2 0x3EE0 JUMP JUMPDEST PUSH1 0x40 MLOAD DUP1 SWAP2 SUB SWAP1 REVERT JUMPDEST PUSH1 0x10 SLOAD CALLVALUE LT ISZERO PUSH2 0x1CA5 JUMPI PUSH1 0x40 MLOAD PUSH32 0x8C379A000000000000000000000000000000000000000000000000000000000 DUP2 MSTORE PUSH1 0x4 ADD PUSH2 0x1C9C SWAP1 PUSH2 0x3F4C JUMP JUMPDEST PUSH1 0x40 MLOAD DUP1 SWAP2 SUB SWAP1 REVERT JUMPDEST PUSH1 0x1 PUSH1 0x18 PUSH1 0x0 CALLER PUSH20 0xFFFFFFFFFFFFFFFFFFFFFFFFFFFFFFFFFFFFFFFF AND PUSH20 0xFFFFFFFFFFFFFFFFFFFFFFFFFFFFFFFFFFFFFFFF AND DUP2 MSTORE PUSH1 0x20 ADD SWAP1 DUP2 MSTORE PUSH1 0x20 ADD PUSH1 0x0 KECCAK256 PUSH1 0x0 PUSH2 0x100 EXP DUP2 SLOAD DUP2 PUSH1 0xFF MUL NOT AND SWAP1 DUP4 ISZERO ISZERO MUL OR SWAP1 SSTORE POP PUSH2 0x1D08 CALLER PUSH1 0x1 PUSH2 0x27A2 JUMP JUMPDEST JUMP JUMPDEST PUSH1 0xF SLOAD DUP2 JUMP JUMPDEST PUSH1 0x12 SLOAD DUP2 JUMP JUMPDEST PUSH1 0xD SLOAD TIMESTAMP LT ISZERO PUSH2 0x1D5B JUMPI PUSH1 0x40 MLOAD PUSH32 0x8C379A000000000000000000000000000000000000000000000000000000000 DUP2 MSTORE PUSH1 0x4 ADD PUSH2 0x1D52 SWAP1 PUSH2 0x4345 JUMP JUMPDEST PUSH1 0x40 MLOAD DUP1 SWAP2 SUB SWAP1 REVERT JUMPDEST PUSH1 0xE SLOAD TIMESTAMP LT PUSH2 0x1D9F JUMPI PUSH1 0x40 MLOAD PUSH32 0x8C379A000000000000000000000000000000000000000000000000000000000 DUP2 MSTORE PUSH1 0x4 ADD PUSH2 0x1D96 SWAP1 PUSH2 0x43B1 JUMP JUMPDEST PUSH1 0x40 MLOAD DUP1 SWAP2 SUB SWAP1 REVERT JUMPDEST PUSH1 0x17 PUSH1 0x0 CALLER PUSH20 0xFFFFFFFFFFFFFFFFFFFFFFFFFFFFFFFFFFFFFFFF AND PUSH20 0xFFFFFFFFFFFFFFFFFFFFFFFFFFFFFFFFFFFFFFFF AND DUP2 MSTORE PUSH1 0x20 ADD SWAP1 DUP2 MSTORE PUSH1 0x20 ADD PUSH1 0x0 KECCAK256 PUSH1 0x0 SWAP1 SLOAD SWAP1 PUSH2 0x100 EXP SWAP1 DIV PUSH1 0xFF AND PUSH2 0x1E2B JUMPI PUSH1 0x40 MLOAD PUSH32 0x8C379A000000000000000000000000000000000000000000000000000000000 DUP2 MSTORE PUSH1 0x4 ADD PUSH2 0x1E22 SWAP1 PUSH2 0x441D JUMP JUMPDEST PUSH1 0x40 MLOAD DUP1 SWAP2 SUB SWAP1 REVERT JUMPDEST PUSH1 0x19 PUSH1 0x0 CALLER PUSH20 0xFFFFFFFFFFFFFFFFFFFFFFFFFFFFFFFFFFFFFFFF AND PUSH20 0xFFFFFFFFFFFFFFFFFFFFFFFFFFFFFFFFFFFFFFFF AND DUP2 MSTORE PUSH1 0x20 ADD SWAP1 DUP2 MSTORE PUSH1 0x20 ADD PUSH1 0x0 KECCAK256 PUSH1 0x0 SWAP1 SLOAD SWAP1 PUSH2 0x100 EXP SWAP1 DIV PUSH1 0xFF AND ISZERO PUSH2 0x1EB8 JUMPI PUSH1 0x40 MLOAD PUSH32 0x8C379A000000000000000000000000000000000000000000000000000000000 DUP2 MSTORE PUSH1 0x4 ADD PUSH2 0x1EAF SWAP1 PUSH2 0x3E74 JUMP JUMPDEST PUSH1 0x40 MLOAD DUP1 SWAP2 SUB SWAP1 REVERT JUMPDEST PUSH1 0xF SLOAD PUSH2 0x1EC3 PUSH2 0xB3D JUMP JUMPDEST LT PUSH2 0x1F03 JUMPI PUSH1 0x40 MLOAD PUSH32 0x8C379A000000000000000000000000000000000000000000000000000000000 DUP2 MSTORE PUSH1 0x4 ADD PUSH2 0x1EFA SWAP1 PUSH2 0x3EE0 JUMP JUMPDEST PUSH1 0x40 MLOAD DUP1 SWAP2 SUB SWAP1 REVERT JUMPDEST PUSH1 0x11 SLOAD CALLVALUE LT ISZERO PUSH2 0x1F48 JUMPI PUSH1 0x40 MLOAD PUSH32 0x8C379A000000000000000000000000000000000000000000000000000000000 DUP2 MSTORE PUSH1 0x4 ADD PUSH2 0x1F3F SWAP1 PUSH2 0x3F4C JUMP JUMPDEST PUSH1 0x40 MLOAD DUP1 SWAP2 SUB SWAP1 REVERT JUMPDEST PUSH1 0x1 PUSH1 0x19 PUSH1 0x0 CALLER PUSH20 0xFFFFFFFFFFFFFFFFFFFFFFFFFFFFFFFFFFFFFFFF AND PUSH20 0xFFFFFFFFFFFFFFFFFFFFFFFFFFFFFFFFFFFFFFFF AND DUP2 MSTORE PUSH1 0x20 ADD SWAP1 DUP2 MSTORE PUSH1 0x20 ADD PUSH1 0x0 KECCAK256 PUSH1 0x0 PUSH2 0x100 EXP DUP2 SLOAD DUP2 PUSH1 0xFF MUL NOT AND SWAP1 DUP4 ISZERO ISZERO MUL OR SWAP1 SSTORE POP PUSH2 0x1FAB CALLER PUSH1 0x1 PUSH2 0x27A2 JUMP JUMPDEST JUMP JUMPDEST PUSH1 0x0 PUSH1 0x7 PUSH1 0x0 DUP5 PUSH20 0xFFFFFFFFFFFFFFFFFFFFFFFFFFFFFFFFFFFFFFFF AND PUSH20 0xFFFFFFFFFFFFFFFFFFFFFFFFFFFFFFFFFFFFFFFF AND DUP2 MSTORE PUSH1 0x20 ADD SWAP1 DUP2 MSTORE PUSH1 0x20 ADD PUSH1 0x0 KECCAK256 PUSH1 0x0 DUP4 PUSH20 0xFFFFFFFFFFFFFFFFFFFFFFFFFFFFFFFFFFFFFFFF AND PUSH20 0xFFFFFFFFFFFFFFFFFFFFFFFFFFFFFFFFFFFFFFFF AND DUP2 MSTORE PUSH1 0x20 ADD SWAP1 DUP2 MSTORE PUSH1 0x20 ADD PUSH1 0x0 KECCAK256 PUSH1 0x0 SWAP1 SLOAD SWAP1 PUSH2 0x100 EXP SWAP1 DIV PUSH1 0xFF AND SWAP1 POP SWAP3 SWAP2 POP POP JUMP JUMPDEST PUSH1 0x0 DUP1 PUSH1 0x0 DUP1 TIMESTAMP PUSH1 0xC SLOAD PUSH1 0xD SLOAD PUSH1 0xE SLOAD SWAP4 POP SWAP4 POP SWAP4 POP SWAP4 POP SWAP1 SWAP2 SWAP3 SWAP4 JUMP JUMPDEST PUSH2 0x2067 PUSH2 0x2655 JUMP JUMPDEST DUP1 PUSH1 0x14 SWAP1 DUP2 PUSH2 0x2076 SWAP2 SWAP1 PUSH2 0x3B7C JUMP JUMPDEST POP POP JUMP JUMPDEST PUSH2 0x2082 PUSH2 0x2655 JUMP JUMPDEST PUSH1 0x0 PUSH20 0xFFFFFFFFFFFFFFFFFFFFFFFFFFFFFFFFFFFFFFFF AND DUP2 PUSH20 0xFFFFFFFFFFFFFFFFFFFFFFFFFFFFFFFFFFFFFFFF AND SUB PUSH2 0x20F4 JUMPI PUSH1 0x0 PUSH1 0x40 MLOAD PUSH32 0x1E4FBDF700000000000000000000000000000000000000000000000000000000 DUP2 MSTORE PUSH1 0x4 ADD PUSH2 0x20EB SWAP2 SWAP1 PUSH2 0x2FD4 JUMP JUMPDEST PUSH1 0x40 MLOAD DUP1 SWAP2 SUB SWAP1 REVERT JUMPDEST PUSH2 0x20FD DUP2 PUSH2 0x26DC JUMP JUMPDEST POP JUMP JUMPDEST PUSH2 0x2108 PUSH2 0x2655 JUMP JUMPDEST PUSH1 0x0 JUMPDEST DUP2 MLOAD DUP2 LT ISZERO PUSH2 0x2199 JUMPI PUSH1 0x1 PUSH1 0x17 PUSH1 0x0 DUP5 DUP5 DUP2 MLOAD DUP2 LT PUSH2 0x212D JUMPI PUSH2 0x212C PUSH2 0x381A JUMP JUMPDEST JUMPDEST PUSH1 0x20 MUL PUSH1 0x20 ADD ADD MLOAD PUSH20 0xFFFFFFFFFFFFFFFFFFFFFFFFFFFFFFFFFFFFFFFF AND PUSH20 0xFFFFFFFFFFFFFFFFFFFFFFFFFFFFFFFFFFFFFFFF AND DUP2 MSTORE PUSH1 0x20 ADD SWAP1 DUP2 MSTORE PUSH1 0x20 ADD PUSH1 0x0 KECCAK256 PUSH1 0x0 PUSH2 0x100 EXP DUP2 SLOAD DUP2 PUSH1 0xFF MUL NOT AND SWAP1 DUP4 ISZERO ISZERO MUL OR SWAP1 SSTORE POP DUP1 DUP1 PUSH2 0x2191 SWAP1 PUSH2 0x3849 JUMP JUMPDEST SWAP2 POP POP PUSH2 0x210B JUMP JUMPDEST POP PUSH32 0x8E259FE80D79F5CA6D42E35590FD71FC1504C3CD5516DFABA56990D1C9DD66EF DUP2 PUSH1 0x40 MLOAD PUSH2 0x21C9 SWAP2 SWAP1 PUSH2 0x4489 JUMP JUMPDEST PUSH1 0x40 MLOAD DUP1 SWAP2 SUB SWAP1 LOG1 POP JUMP JUMPDEST PUSH1 0x0 PUSH32 0x2A55205A00000000000000000000000000000000000000000000000000000000 PUSH28 0xFFFFFFFFFFFFFFFFFFFFFFFFFFFFFFFFFFFFFFFFFFFFFFFFFFFFFFFF NOT AND DUP3 PUSH28 0xFFFFFFFFFFFFFFFFFFFFFFFFFFFFFFFFFFFFFFFFFFFFFFFFFFFFFFFF NOT AND EQ DUP1 PUSH2 0x2247 JUMPI POP PUSH2 0x2246 DUP3 PUSH2 0x2AE1 JUMP JUMPDEST JUMPDEST SWAP1 POP SWAP2 SWAP1 POP JUMP JUMPDEST PUSH1 0x0 DUP2 PUSH2 0x2259 PUSH2 0x2433 JUMP JUMPDEST GT PUSH2 0x22F4 JUMPI PUSH2 0x2266 PUSH2 0x2438 JUMP JUMPDEST DUP3 GT ISZERO PUSH2 0x2290 JUMPI PUSH2 0x2289 PUSH1 0x4 PUSH1 0x0 DUP5 DUP2 MSTORE PUSH1 0x20 ADD SWAP1 DUP2 MSTORE PUSH1 0x20 ADD PUSH1 0x0 KECCAK256 SLOAD PUSH2 0x2B4B JUMP JUMPDEST SWAP1 POP PUSH2 0x22F5 JUMP JUMPDEST PUSH1 0x0 SLOAD DUP3 LT ISZERO PUSH2 0x22F3 JUMPI PUSH1 0x0 JUMPDEST PUSH1 0x0 PUSH1 0x4 PUSH1 0x0 DUP6 DUP2 MSTORE PUSH1 0x20 ADD SWAP1 DUP2 MSTORE PUSH1 0x20 ADD PUSH1 0x0 KECCAK256 SLOAD SWAP2 POP DUP2 SUB PUSH2 0x22CC JUMPI DUP3 PUSH2 0x22C5 SWAP1 PUSH2 0x44BE JUMP JUMPDEST SWAP3 POP PUSH2 0x229D JUMP JUMPDEST PUSH1 0x0 PUSH29 0x100000000000000000000000000000000000000000000000000000000 DUP3 AND EQ SWAP2 POP POP JUMPDEST JUMPDEST JUMPDEST SWAP2 SWAP1 POP JUMP JUMPDEST DUP1 PUSH1 0x0 MSTORE PUSH1 0x4 PUSH1 0x0 REVERT JUMPDEST PUSH1 0x0 PUSH2 0x230F DUP4 PUSH2 0x1167 JUMP JUMPDEST SWAP1 POP DUP2 DUP1 ISZERO PUSH2 0x2351 JUMPI POP DUP1 PUSH20 0xFFFFFFFFFFFFFFFFFFFFFFFFFFFFFFFFFFFFFFFF AND PUSH2 0x2338 PUSH2 0x25A0 JUMP JUMPDEST PUSH20 0xFFFFFFFFFFFFFFFFFFFFFFFFFFFFFFFFFFFFFFFF AND EQ ISZERO JUMPDEST ISZERO PUSH2 0x237D JUMPI PUSH2 0x2367 DUP2 PUSH2 0x2362 PUSH2 0x25A0 JUMP JUMPDEST PUSH2 0x1FAD JUMP JUMPDEST PUSH2 0x237C JUMPI PUSH2 0x237B PUSH4 0xCFB3B942 PUSH1 0xE0 SHL PUSH2 0x22FA JUMP JUMPDEST JUMPDEST JUMPDEST DUP4 PUSH1 0x6 PUSH1 0x0 DUP6 DUP2 MSTORE PUSH1 0x20 ADD SWAP1 DUP2 MSTORE PUSH1 0x20 ADD PUSH1 0x0 KECCAK256 PUSH1 0x0 ADD PUSH1 0x0 PUSH2 0x100 EXP DUP2 SLOAD DUP2 PUSH20 0xFFFFFFFFFFFFFFFFFFFFFFFFFFFFFFFFFFFFFFFF MUL NOT AND SWAP1 DUP4 PUSH20 0xFFFFFFFFFFFFFFFFFFFFFFFFFFFFFFFFFFFFFFFF AND MUL OR SWAP1 SSTORE POP DUP3 DUP5 PUSH20 0xFFFFFFFFFFFFFFFFFFFFFFFFFFFFFFFFFFFFFFFF AND DUP3 PUSH20 0xFFFFFFFFFFFFFFFFFFFFFFFFFFFFFFFFFFFFFFFF AND PUSH32 0x8C5BE1E5EBEC7D5BD14F71427D1E84F3DD0314C0F7B2291E5B200AC8C7C3B925 PUSH1 0x40 MLOAD PUSH1 0x40 MLOAD DUP1 SWAP2 SUB SWAP1 LOG4 POP POP POP POP JUMP JUMPDEST PUSH1 0x0 SWAP1 JUMP JUMPDEST PUSH1 0x0 PUSH32 0xFFFFFFFFFFFFFFFFFFFFFFFFFFFFFFFFFFFFFFFFFFFFFFFFFFFFFFFFFFFFFFFF SWAP1 POP SWAP1 JUMP JUMPDEST PUSH1 0x0 DUP2 PUSH2 0x246B PUSH2 0x2433 JUMP JUMPDEST GT PUSH2 0x2563 JUMPI PUSH1 0x4 PUSH1 0x0 DUP4 DUP2 MSTORE PUSH1 0x20 ADD SWAP1 DUP2 MSTORE PUSH1 0x20 ADD PUSH1 0x0 KECCAK256 SLOAD SWAP1 POP PUSH2 0x248E PUSH2 0x2438 JUMP JUMPDEST DUP3 GT ISZERO PUSH2 0x24B3 JUMPI PUSH2 0x249E DUP2 PUSH2 0x2B4B JUMP JUMPDEST PUSH2 0x2574 JUMPI PUSH2 0x24B2 PUSH4 0xDF2D9B42 PUSH1 0xE0 SHL PUSH2 0x22FA JUMP JUMPDEST JUMPDEST PUSH1 0x0 DUP2 SUB PUSH2 0x253A JUMPI PUSH1 0x0 SLOAD DUP3 LT PUSH2 0x24D5 JUMPI PUSH2 0x24D4 PUSH4 0xDF2D9B42 PUSH1 0xE0 SHL PUSH2 0x22FA JUMP JUMPDEST JUMPDEST JUMPDEST PUSH1 0x4 PUSH1 0x0 DUP4 PUSH1 0x1 SWAP1 SUB SWAP4 POP DUP4 DUP2 MSTORE PUSH1 0x20 ADD SWAP1 DUP2 MSTORE PUSH1 0x20 ADD PUSH1 0x0 KECCAK256 SLOAD SWAP1 POP PUSH1 0x0 DUP2 SUB ISZERO PUSH2 0x2535 JUMPI PUSH1 0x0 PUSH29 0x100000000000000000000000000000000000000000000000000000000 DUP3 AND SUB ISZERO PUSH2 0x2574 JUMPI PUSH2 0x2534 PUSH4 0xDF2D9B42 PUSH1 0xE0 SHL PUSH2 0x22FA JUMP JUMPDEST JUMPDEST PUSH2 0x24D6 JUMP JUMPDEST PUSH1 0x0 PUSH29 0x100000000000000000000000000000000000000000000000000000000 DUP3 AND SUB ISZERO PUSH2 0x2574 JUMPI JUMPDEST PUSH2 0x2573 PUSH4 0xDF2D9B42 PUSH1 0xE0 SHL PUSH2 0x22FA JUMP JUMPDEST JUMPDEST SWAP2 SWAP1 POP JUMP JUMPDEST PUSH1 0x0 DUP1 PUSH1 0x0 PUSH1 0x6 PUSH1 0x0 DUP6 DUP2 MSTORE PUSH1 0x20 ADD SWAP1 DUP2 MSTORE PUSH1 0x20 ADD PUSH1 0x0 KECCAK256 SWAP1 POP DUP1 SWAP3 POP DUP3 SLOAD SWAP2 POP POP SWAP2 POP SWAP2 JUMP JUMPDEST PUSH1 0x0 CALLER SWAP1 POP SWAP1 JUMP JUMPDEST PUSH1 0x0 PUSH20 0xFFFFFFFFFFFFFFFFFFFFFFFFFFFFFFFFFFFFFFFF DUP4 AND SWAP3 POP PUSH20 0xFFFFFFFFFFFFFFFFFFFFFFFFFFFFFFFFFFFFFFFF DUP3 AND SWAP2 POP DUP4 DUP3 EQ DUP4 DUP4 EQ OR SWAP1 POP SWAP4 SWAP3 POP POP POP JUMP JUMPDEST POP POP POP POP JUMP JUMPDEST PUSH1 0x0 DUP1 PUSH1 0xE8 DUP4 SWAP1 SHR SWAP1 POP PUSH1 0xE8 PUSH2 0x2609 DUP7 DUP7 DUP5 PUSH2 0x2B8C JUMP JUMPDEST PUSH3 0xFFFFFF AND SWAP1 SHL SWAP2 POP POP SWAP4 SWAP3 POP POP POP JUMP JUMPDEST PUSH1 0x0 PUSH20 0xFFFFFFFFFFFFFFFFFFFFFFFFFFFFFFFFFFFFFFFF DUP4 AND SWAP3 POP DUP2 TIMESTAMP PUSH1 0xA0 SHL OR DUP4 OR SWAP1 POP SWAP3 SWAP2 POP POP JUMP JUMPDEST POP POP POP POP JUMP JUMPDEST PUSH1 0x0 PUSH2 0x2710 SWAP1 POP SWAP1 JUMP JUMPDEST PUSH2 0x265D PUSH2 0x2B95 JUMP JUMPDEST PUSH20 0xFFFFFFFFFFFFFFFFFFFFFFFFFFFFFFFFFFFFFFFF AND PUSH2 0x267B PUSH2 0x15EE JUMP JUMPDEST PUSH20 0xFFFFFFFFFFFFFFFFFFFFFFFFFFFFFFFFFFFFFFFF AND EQ PUSH2 0x26DA JUMPI PUSH2 0x269E PUSH2 0x2B95 JUMP JUMPDEST PUSH1 0x40 MLOAD PUSH32 0x118CDAA700000000000000000000000000000000000000000000000000000000 DUP2 MSTORE PUSH1 0x4 ADD PUSH2 0x26D1 SWAP2 SWAP1 PUSH2 0x2FD4 JUMP JUMPDEST PUSH1 0x40 MLOAD DUP1 SWAP2 SUB SWAP1 REVERT JUMPDEST JUMP JUMPDEST PUSH1 0x0 PUSH1 0xB PUSH1 0x0 SWAP1 SLOAD SWAP1 PUSH2 0x100 EXP SWAP1 DIV PUSH20 0xFFFFFFFFFFFFFFFFFFFFFFFFFFFFFFFFFFFFFFFF AND SWAP1 POP DUP2 PUSH1 0xB PUSH1 0x0 PUSH2 0x100 EXP DUP2 SLOAD DUP2 PUSH20 0xFFFFFFFFFFFFFFFFFFFFFFFFFFFFFFFFFFFFFFFF MUL NOT AND SWAP1 DUP4 PUSH20 0xFFFFFFFFFFFFFFFFFFFFFFFFFFFFFFFFFFFFFFFF AND MUL OR SWAP1 SSTORE POP DUP2 PUSH20 0xFFFFFFFFFFFFFFFFFFFFFFFFFFFFFFFFFFFFFFFF AND DUP2 PUSH20 0xFFFFFFFFFFFFFFFFFFFFFFFFFFFFFFFFFFFFFFFF AND PUSH32 0x8BE0079C531659141344CD1FD0A4F28419497F9722A3DAAFE3B4186F6B6457E0 PUSH1 0x40 MLOAD PUSH1 0x40 MLOAD DUP1 SWAP2 SUB SWAP1 LOG3 POP POP JUMP JUMPDEST PUSH2 0x27BC DUP3 DUP3 PUSH1 0x40 MLOAD DUP1 PUSH1 0x20 ADD PUSH1 0x40 MSTORE DUP1 PUSH1 0x0 DUP2 MSTORE POP PUSH2 0x2B9D JUMP JUMPDEST POP POP JUMP JUMPDEST PUSH1 0x0 PUSH2 0x27CA PUSH2 0x264B JUMP JUMPDEST PUSH12 0xFFFFFFFFFFFFFFFFFFFFFFFF AND SWAP1 POP DUP1 DUP3 PUSH12 0xFFFFFFFFFFFFFFFFFFFFFFFF AND GT ISZERO PUSH2 0x282F JUMPI DUP2 DUP2 PUSH1 0x40 MLOAD PUSH32 0x6F483D0900000000000000000000000000000000000000000000000000000000 DUP2 MSTORE PUSH1 0x4 ADD PUSH2 0x2826 SWAP3 SWAP2 SWAP1 PUSH2 0x4518 JUMP JUMPDEST PUSH1 0x40 MLOAD DUP1 SWAP2 SUB SWAP1 REVERT JUMPDEST PUSH1 0x0 PUSH20 0xFFFFFFFFFFFFFFFFFFFFFFFFFFFFFFFFFFFFFFFF AND DUP4 PUSH20 0xFFFFFFFFFFFFFFFFFFFFFFFFFFFFFFFFFFFFFFFF AND SUB PUSH2 0x28A1 JUMPI PUSH1 0x0 PUSH1 0x40 MLOAD PUSH32 0xB6D9900A00000000000000000000000000000000000000000000000000000000 DUP2 MSTORE PUSH1 0x4 ADD PUSH2 0x2898 SWAP2 SWAP1 PUSH2 0x2FD4 JUMP JUMPDEST PUSH1 0x40 MLOAD DUP1 SWAP2 SUB SWAP1 REVERT JUMPDEST PUSH1 0x40 MLOAD DUP1 PUSH1 0x40 ADD PUSH1 0x40 MSTORE DUP1 DUP5 PUSH20 0xFFFFFFFFFFFFFFFFFFFFFFFFFFFFFFFFFFFFFFFF AND DUP2 MSTORE PUSH1 0x20 ADD DUP4 PUSH12 0xFFFFFFFFFFFFFFFFFFFFFFFF AND DUP2 MSTORE POP PUSH1 0x9 PUSH1 0x0 DUP3 ADD MLOAD DUP2 PUSH1 0x0 ADD PUSH1 0x0 PUSH2 0x100 EXP DUP2 SLOAD DUP2 PUSH20 0xFFFFFFFFFFFFFFFFFFFFFFFFFFFFFFFFFFFFFFFF MUL NOT AND SWAP1 DUP4 PUSH20 0xFFFFFFFFFFFFFFFFFFFFFFFFFFFFFFFFFFFFFFFF AND MUL OR SWAP1 SSTORE POP PUSH1 0x20 DUP3 ADD MLOAD DUP2 PUSH1 0x0 ADD PUSH1 0x14 PUSH2 0x100 EXP DUP2 SLOAD DUP2 PUSH12 0xFFFFFFFFFFFFFFFFFFFFFFFF MUL NOT AND SWAP1 DUP4 PUSH12 0xFFFFFFFFFFFFFFFFFFFFFFFF AND MUL OR SWAP1 SSTORE POP SWAP1 POP POP POP POP POP JUMP JUMPDEST PUSH1 0x0 DUP4 PUSH20 0xFFFFFFFFFFFFFFFFFFFFFFFFFFFFFFFFFFFFFFFF AND PUSH4 0x150B7A02 PUSH2 0x2988 PUSH2 0x25A0 JUMP JUMPDEST DUP8 DUP7 DUP7 PUSH1 0x40 MLOAD DUP6 PUSH4 0xFFFFFFFF AND PUSH1 0xE0 SHL DUP2 MSTORE PUSH1 0x4 ADD PUSH2 0x29AA SWAP5 SWAP4 SWAP3 SWAP2 SWAP1 PUSH2 0x4596 JUMP JUMPDEST PUSH1 0x20 PUSH1 0x40 MLOAD DUP1 DUP4 SUB DUP2 PUSH1 0x0 DUP8 GAS CALL SWAP3 POP POP POP DUP1 ISZERO PUSH2 0x29E6 JUMPI POP PUSH1 0x40 MLOAD RETURNDATASIZE PUSH1 0x1F NOT PUSH1 0x1F DUP3 ADD AND DUP3 ADD DUP1 PUSH1 0x40 MSTORE POP DUP2 ADD SWAP1 PUSH2 0x29E3 SWAP2 SWAP1 PUSH2 0x45F7 JUMP JUMPDEST PUSH1 0x1 JUMPDEST PUSH2 0x2A3E JUMPI RETURNDATASIZE DUP1 PUSH1 0x0 DUP2 EQ PUSH2 0x2A16 JUMPI PUSH1 0x40 MLOAD SWAP2 POP PUSH1 0x1F NOT PUSH1 0x3F RETURNDATASIZE ADD AND DUP3 ADD PUSH1 0x40 MSTORE RETURNDATASIZE DUP3 MSTORE RETURNDATASIZE PUSH1 0x0 PUSH1 0x20 DUP5 ADD RETURNDATACOPY PUSH2 0x2A1B JUMP JUMPDEST PUSH1 0x60 SWAP2 POP JUMPDEST POP PUSH1 0x0 DUP2 MLOAD SUB PUSH2 0x2A36 JUMPI PUSH2 0x2A35 PUSH4 0xD1A57ED6 PUSH1 0xE0 SHL PUSH2 0x22FA JUMP JUMPDEST JUMPDEST DUP1 MLOAD DUP2 PUSH1 0x20 ADD REVERT JUMPDEST PUSH4 0x150B7A02 PUSH1 0xE0 SHL PUSH28 0xFFFFFFFFFFFFFFFFFFFFFFFFFFFFFFFFFFFFFFFFFFFFFFFFFFFFFFFF NOT AND DUP2 PUSH28 0xFFFFFFFFFFFFFFFFFFFFFFFFFFFFFFFFFFFFFFFFFFFFFFFFFFFFFFFF NOT AND EQ SWAP2 POP POP SWAP5 SWAP4 POP POP POP POP JUMP JUMPDEST PUSH1 0x60 PUSH1 0xA0 PUSH1 0x40 MLOAD ADD DUP1 PUSH1 0x40 MSTORE PUSH1 0x20 DUP2 SUB SWAP2 POP PUSH1 0x0 DUP3 MSTORE DUP2 DUP4 JUMPDEST PUSH1 0x1 ISZERO PUSH2 0x2ACC JUMPI PUSH1 0x1 DUP5 SUB SWAP4 POP PUSH1 0xA DUP2 MOD PUSH1 0x30 ADD DUP5 MSTORE8 PUSH1 0xA DUP2 DIV SWAP1 POP DUP1 PUSH2 0x2AAA JUMPI JUMPDEST POP DUP3 DUP2 SUB PUSH1 0x20 DUP5 SUB SWAP4 POP DUP1 DUP5 MSTORE POP POP POP SWAP2 SWAP1 POP JUMP JUMPDEST PUSH1 0x0 PUSH32 0x1FFC9A700000000000000000000000000000000000000000000000000000000 PUSH28 0xFFFFFFFFFFFFFFFFFFFFFFFFFFFFFFFFFFFFFFFFFFFFFFFFFFFFFFFF NOT AND DUP3 PUSH28 0xFFFFFFFFFFFFFFFFFFFFFFFFFFFFFFFFFFFFFFFFFFFFFFFFFFFFFFFF NOT AND EQ SWAP1 POP SWAP2 SWAP1 POP JUMP JUMPDEST PUSH1 0x0 PUSH29 0x100000000000000000000000000000000000000000000000000000000 DUP3 AND PUSH20 0xFFFFFFFFFFFFFFFFFFFFFFFFFFFFFFFFFFFFFFFF DUP4 AND GT SWAP1 POP SWAP2 SWAP1 POP JUMP JUMPDEST PUSH1 0x0 SWAP4 SWAP3 POP POP POP JUMP JUMPDEST PUSH1 0x0 CALLER SWAP1 POP SWAP1 JUMP JUMPDEST PUSH2 0x2BA7 DUP4 DUP4 PUSH2 0x2C19 JUMP JUMPDEST PUSH1 0x0 DUP4 PUSH20 0xFFFFFFFFFFFFFFFFFFFFFFFFFFFFFFFFFFFFFFFF AND EXTCODESIZE EQ PUSH2 0x2C14 JUMPI PUSH1 0x0 DUP1 SLOAD SWAP1 POP PUSH1 0x0 DUP4 DUP3 SUB SWAP1 POP JUMPDEST PUSH2 0x2BE7 PUSH1 0x0 DUP7 DUP4 DUP1 PUSH1 0x1 ADD SWAP5 POP DUP7 PUSH2 0x2962 JUMP JUMPDEST PUSH2 0x2BFC JUMPI PUSH2 0x2BFB PUSH4 0xD1A57ED6 PUSH1 0xE0 SHL PUSH2 0x22FA JUMP JUMPDEST JUMPDEST DUP2 DUP2 LT PUSH2 0x2BD4 JUMPI DUP2 PUSH1 0x0 SLOAD EQ PUSH2 0x2C11 JUMPI PUSH1 0x0 DUP1 REVERT JUMPDEST POP POP JUMPDEST POP POP POP JUMP JUMPDEST PUSH1 0x0 DUP1 SLOAD SWAP1 POP PUSH1 0x0 DUP3 SUB PUSH2 0x2C38 JUMPI PUSH2 0x2C37 PUSH4 0xB562E8DD PUSH1 0xE0 SHL PUSH2 0x22FA JUMP JUMPDEST JUMPDEST PUSH2 0x2C45 PUSH1 0x0 DUP5 DUP4 DUP6 PUSH2 0x25EC JUMP JUMPDEST PUSH2 0x2C65 DUP4 PUSH2 0x2C56 PUSH1 0x0 DUP7 PUSH1 0x0 PUSH2 0x25F2 JUMP JUMPDEST PUSH2 0x2C5F DUP6 PUSH2 0x2D9F JUMP JUMPDEST OR PUSH2 0x261A JUMP JUMPDEST PUSH1 0x4 PUSH1 0x0 DUP4 DUP2 MSTORE PUSH1 0x20 ADD SWAP1 DUP2 MSTORE PUSH1 0x20 ADD PUSH1 0x0 KECCAK256 DUP2 SWAP1 SSTORE POP PUSH1 0x1 PUSH1 0x40 PUSH1 0x1 SWAP1 SHL OR DUP3 MUL PUSH1 0x5 PUSH1 0x0 DUP6 PUSH20 0xFFFFFFFFFFFFFFFFFFFFFFFFFFFFFFFFFFFFFFFF AND PUSH20 0xFFFFFFFFFFFFFFFFFFFFFFFFFFFFFFFFFFFFFFFF AND DUP2 MSTORE PUSH1 0x20 ADD SWAP1 DUP2 MSTORE PUSH1 0x20 ADD PUSH1 0x0 KECCAK256 PUSH1 0x0 DUP3 DUP3 SLOAD ADD SWAP3 POP POP DUP2 SWAP1 SSTORE POP PUSH1 0x0 PUSH20 0xFFFFFFFFFFFFFFFFFFFFFFFFFFFFFFFFFFFFFFFF DUP5 PUSH20 0xFFFFFFFFFFFFFFFFFFFFFFFFFFFFFFFFFFFFFFFF AND AND SWAP1 POP PUSH1 0x0 DUP2 SUB PUSH2 0x2D1D JUMPI PUSH2 0x2D1C PUSH4 0x2E076300 PUSH1 0xE0 SHL PUSH2 0x22FA JUMP JUMPDEST JUMPDEST PUSH1 0x0 DUP4 DUP4 ADD SWAP1 POP PUSH1 0x0 DUP4 SWAP1 POP PUSH2 0x2D31 PUSH2 0x2438 JUMP JUMPDEST PUSH1 0x1 DUP4 SUB GT ISZERO PUSH2 0x2D4C JUMPI PUSH2 0x2D4B PUSH4 0x81647E3A PUSH1 0xE0 SHL PUSH2 0x22FA JUMP JUMPDEST JUMPDEST JUMPDEST DUP1 DUP4 PUSH1 0x0 PUSH32 0xDDF252AD1BE2C89B69C2B068FC378DAA952BA7F163C4A11628F55A4DF523B3EF PUSH1 0x0 DUP1 LOG4 DUP2 DUP2 PUSH1 0x1 ADD SWAP2 POP DUP2 SUB PUSH2 0x2D4D JUMPI DUP2 PUSH1 0x0 DUP2 SWAP1 SSTORE POP POP POP POP PUSH2 0x2D9A PUSH1 0x0 DUP5 DUP4 DUP6 PUSH2 0x2645 JUMP JUMPDEST POP POP POP JUMP JUMPDEST PUSH1 0x0 PUSH1 0x1 DUP3 EQ PUSH1 0xE1 SHL SWAP1 POP SWAP2 SWAP1 POP JUMP JUMPDEST PUSH1 0x0 PUSH1 0x40 MLOAD SWAP1 POP SWAP1 JUMP JUMPDEST PUSH1 0x0 DUP1 REVERT JUMPDEST PUSH1 0x0 DUP1 REVERT JUMPDEST PUSH1 0x0 PUSH32 0xFFFFFFFF00000000000000000000000000000000000000000000000000000000 DUP3 AND SWAP1 POP SWAP2 SWAP1 POP JUMP JUMPDEST PUSH2 0x2DF8 DUP2 PUSH2 0x2DC3 JUMP JUMPDEST DUP2 EQ PUSH2 0x2E03 JUMPI PUSH1 0x0 DUP1 REVERT JUMPDEST POP JUMP JUMPDEST PUSH1 0x0 DUP2 CALLDATALOAD SWAP1 POP PUSH2 0x2E15 DUP2 PUSH2 0x2DEF JUMP JUMPDEST SWAP3 SWAP2 POP POP JUMP JUMPDEST PUSH1 0x0 PUSH1 0x20 DUP3 DUP5 SUB SLT ISZERO PUSH2 0x2E31 JUMPI PUSH2 0x2E30 PUSH2 0x2DB9 JUMP JUMPDEST JUMPDEST PUSH1 0x0 PUSH2 0x2E3F DUP5 DUP3 DUP6 ADD PUSH2 0x2E06 JUMP JUMPDEST SWAP2 POP POP SWAP3 SWAP2 POP POP JUMP JUMPDEST PUSH1 0x0 DUP2 ISZERO ISZERO SWAP1 POP SWAP2 SWAP1 POP JUMP JUMPDEST PUSH2 0x2E5D DUP2 PUSH2 0x2E48 JUMP JUMPDEST DUP3 MSTORE POP POP JUMP JUMPDEST PUSH1 0x0 PUSH1 0x20 DUP3 ADD SWAP1 POP PUSH2 0x2E78 PUSH1 0x0 DUP4 ADD DUP5 PUSH2 0x2E54 JUMP JUMPDEST SWAP3 SWAP2 POP POP JUMP JUMPDEST PUSH1 0x0 DUP2 MLOAD SWAP1 POP SWAP2 SWAP1 POP JUMP JUMPDEST PUSH1 0x0 DUP3 DUP3 MSTORE PUSH1 0x20 DUP3 ADD SWAP1 POP SWAP3 SWAP2 POP POP JUMP JUMPDEST PUSH1 0x0 JUMPDEST DUP4 DUP2 LT ISZERO PUSH2 0x2EB8 JUMPI DUP1 DUP3 ADD MLOAD DUP2 DUP5 ADD MSTORE PUSH1 0x20 DUP2 ADD SWAP1 POP PUSH2 0x2E9D JUMP JUMPDEST PUSH1 0x0 DUP5 DUP5 ADD MSTORE POP POP POP POP JUMP JUMPDEST PUSH1 0x0 PUSH1 0x1F NOT PUSH1 0x1F DUP4 ADD AND SWAP1 POP SWAP2 SWAP1 POP JUMP JUMPDEST PUSH1 0x0 PUSH2 0x2EE0 DUP3 PUSH2 0x2E7E JUMP JUMPDEST PUSH2 0x2EEA DUP2 DUP6 PUSH2 0x2E89 JUMP JUMPDEST SWAP4 POP PUSH2 0x2EFA DUP2 DUP6 PUSH1 0x20 DUP7 ADD PUSH2 0x2E9A JUMP JUMPDEST PUSH2 0x2F03 DUP2 PUSH2 0x2EC4 JUMP JUMPDEST DUP5 ADD SWAP2 POP POP SWAP3 SWAP2 POP POP JUMP JUMPDEST PUSH1 0x0 PUSH1 0x20 DUP3 ADD SWAP1 POP DUP2 DUP2 SUB PUSH1 0x0 DUP4 ADD MSTORE PUSH2 0x2F28 DUP2 DUP5 PUSH2 0x2ED5 JUMP JUMPDEST SWAP1 POP SWAP3 SWAP2 POP POP JUMP JUMPDEST PUSH1 0x0 DUP2 SWAP1 POP SWAP2 SWAP1 POP JUMP JUMPDEST PUSH2 0x2F43 DUP2 PUSH2 0x2F30 JUMP JUMPDEST DUP2 EQ PUSH2 0x2F4E JUMPI PUSH1 0x0 DUP1 REVERT JUMPDEST POP JUMP JUMPDEST PUSH1 0x0 DUP2 CALLDATALOAD SWAP1 POP PUSH2 0x2F60 DUP2 PUSH2 0x2F3A JUMP JUMPDEST SWAP3 SWAP2 POP POP JUMP JUMPDEST PUSH1 0x0 PUSH1 0x20 DUP3 DUP5 SUB SLT ISZERO PUSH2 0x2F7C JUMPI PUSH2 0x2F7B PUSH2 0x2DB9 JUMP JUMPDEST JUMPDEST PUSH1 0x0 PUSH2 0x2F8A DUP5 DUP3 DUP6 ADD PUSH2 0x2F51 JUMP JUMPDEST SWAP2 POP POP SWAP3 SWAP2 POP POP JUMP JUMPDEST PUSH1 0x0 PUSH20 0xFFFFFFFFFFFFFFFFFFFFFFFFFFFFFFFFFFFFFFFF DUP3 AND SWAP1 POP SWAP2 SWAP1 POP JUMP JUMPDEST PUSH1 0x0 PUSH2 0x2FBE DUP3 PUSH2 0x2F93 JUMP JUMPDEST SWAP1 POP SWAP2 SWAP1 POP JUMP JUMPDEST PUSH2 0x2FCE DUP2 PUSH2 0x2FB3 JUMP JUMPDEST DUP3 MSTORE POP POP JUMP JUMPDEST PUSH1 0x0 PUSH1 0x20 DUP3 ADD SWAP1 POP PUSH2 0x2FE9 PUSH1 0x0 DUP4 ADD DUP5 PUSH2 0x2FC5 JUMP JUMPDEST SWAP3 SWAP2 POP POP JUMP JUMPDEST PUSH2 0x2FF8 DUP2 PUSH2 0x2FB3 JUMP JUMPDEST DUP2 EQ PUSH2 0x3003 JUMPI PUSH1 0x0 DUP1 REVERT JUMPDEST POP JUMP JUMPDEST PUSH1 0x0 DUP2 CALLDATALOAD SWAP1 POP PUSH2 0x3015 DUP2 PUSH2 0x2FEF JUMP JUMPDEST SWAP3 SWAP2 POP POP JUMP JUMPDEST PUSH1 0x0 DUP1 PUSH1 0x40 DUP4 DUP6 SUB SLT ISZERO PUSH2 0x3032 JUMPI PUSH2 0x3031 PUSH2 0x2DB9 JUMP JUMPDEST JUMPDEST PUSH1 0x0 PUSH2 0x3040 DUP6 DUP3 DUP7 ADD PUSH2 0x3006 JUMP JUMPDEST SWAP3 POP POP PUSH1 0x20 PUSH2 0x3051 DUP6 DUP3 DUP7 ADD PUSH2 0x2F51 JUMP JUMPDEST SWAP2 POP POP SWAP3 POP SWAP3 SWAP1 POP JUMP JUMPDEST PUSH2 0x3064 DUP2 PUSH2 0x2F30 JUMP JUMPDEST DUP3 MSTORE POP POP JUMP JUMPDEST PUSH1 0x0 PUSH1 0x20 DUP3 ADD SWAP1 POP PUSH2 0x307F PUSH1 0x0 DUP4 ADD DUP5 PUSH2 0x305B JUMP JUMPDEST SWAP3 SWAP2 POP POP JUMP JUMPDEST PUSH1 0x0 DUP1 PUSH1 0x0 PUSH1 0x60 DUP5 DUP7 SUB SLT ISZERO PUSH2 0x309E JUMPI PUSH2 0x309D PUSH2 0x2DB9 JUMP JUMPDEST JUMPDEST PUSH1 0x0 PUSH2 0x30AC DUP7 DUP3 DUP8 ADD PUSH2 0x3006 JUMP JUMPDEST SWAP4 POP POP PUSH1 0x20 PUSH2 0x30BD DUP7 DUP3 DUP8 ADD PUSH2 0x3006 JUMP JUMPDEST SWAP3 POP POP PUSH1 0x40 PUSH2 0x30CE DUP7 DUP3 DUP8 ADD PUSH2 0x2F51 JUMP JUMPDEST SWAP2 POP POP SWAP3 POP SWAP3 POP SWAP3 JUMP JUMPDEST PUSH1 0x0 DUP1 PUSH1 0x40 DUP4 DUP6 SUB SLT ISZERO PUSH2 0x30EF JUMPI PUSH2 0x30EE PUSH2 0x2DB9 JUMP JUMPDEST JUMPDEST PUSH1 0x0 PUSH2 0x30FD DUP6 DUP3 DUP7 ADD PUSH2 0x2F51 JUMP JUMPDEST SWAP3 POP POP PUSH1 0x20 PUSH2 0x310E DUP6 DUP3 DUP7 ADD PUSH2 0x2F51 JUMP JUMPDEST SWAP2 POP POP SWAP3 POP SWAP3 SWAP1 POP JUMP JUMPDEST PUSH1 0x0 PUSH1 0x40 DUP3 ADD SWAP1 POP PUSH2 0x312D PUSH1 0x0 DUP4 ADD DUP6 PUSH2 0x2FC5 JUMP JUMPDEST PUSH2 0x313A PUSH1 0x20 DUP4 ADD DUP5 PUSH2 0x305B JUMP JUMPDEST SWAP4 SWAP3 POP POP POP JUMP JUMPDEST PUSH1 0x0 PUSH1 0x20 DUP3 DUP5 SUB SLT ISZERO PUSH2 0x3157 JUMPI PUSH2 0x3156 PUSH2 0x2DB9 JUMP JUMPDEST JUMPDEST PUSH1 0x0 PUSH2 0x3165 DUP5 DUP3 DUP6 ADD PUSH2 0x3006 JUMP JUMPDEST SWAP2 POP POP SWAP3 SWAP2 POP POP JUMP JUMPDEST PUSH1 0x0 DUP1 REVERT JUMPDEST PUSH32 0x4E487B7100000000000000000000000000000000000000000000000000000000 PUSH1 0x0 MSTORE PUSH1 0x41 PUSH1 0x4 MSTORE PUSH1 0x24 PUSH1 0x0 REVERT JUMPDEST PUSH2 0x31AB DUP3 PUSH2 0x2EC4 JUMP JUMPDEST DUP2 ADD DUP2 DUP2 LT PUSH8 0xFFFFFFFFFFFFFFFF DUP3 GT OR ISZERO PUSH2 0x31CA JUMPI PUSH2 0x31C9 PUSH2 0x3173 JUMP JUMPDEST JUMPDEST DUP1 PUSH1 0x40 MSTORE POP POP POP JUMP JUMPDEST PUSH1 0x0 PUSH2 0x31DD PUSH2 0x2DAF JUMP JUMPDEST SWAP1 POP PUSH2 0x31E9 DUP3 DUP3 PUSH2 0x31A2 JUMP JUMPDEST SWAP2 SWAP1 POP JUMP JUMPDEST PUSH1 0x0 PUSH8 0xFFFFFFFFFFFFFFFF DUP3 GT ISZERO PUSH2 0x3209 JUMPI PUSH2 0x3208 PUSH2 0x3173 JUMP JUMPDEST JUMPDEST PUSH1 0x20 DUP3 MUL SWAP1 POP PUSH1 0x20 DUP2 ADD SWAP1 POP SWAP2 SWAP1 POP JUMP JUMPDEST PUSH1 0x0 DUP1 REVERT JUMPDEST PUSH1 0x0 PUSH2 0x3232 PUSH2 0x322D DUP5 PUSH2 0x31EE JUMP JUMPDEST PUSH2 0x31D3 JUMP JUMPDEST SWAP1 POP DUP1 DUP4 DUP3 MSTORE PUSH1 0x20 DUP3 ADD SWAP1 POP PUSH1 0x20 DUP5 MUL DUP4 ADD DUP6 DUP2 GT ISZERO PUSH2 0x3255 JUMPI PUSH2 0x3254 PUSH2 0x321A JUMP JUMPDEST JUMPDEST DUP4 JUMPDEST DUP2 DUP2 LT ISZERO PUSH2 0x327E JUMPI DUP1 PUSH2 0x326A DUP9 DUP3 PUSH2 0x3006 JUMP JUMPDEST DUP5 MSTORE PUSH1 0x20 DUP5 ADD SWAP4 POP POP PUSH1 0x20 DUP2 ADD SWAP1 POP PUSH2 0x3257 JUMP JUMPDEST POP POP POP SWAP4 SWAP3 POP POP POP JUMP JUMPDEST PUSH1 0x0 DUP3 PUSH1 0x1F DUP4 ADD SLT PUSH2 0x329D JUMPI PUSH2 0x329C PUSH2 0x316E JUMP JUMPDEST JUMPDEST DUP2 CALLDATALOAD PUSH2 0x32AD DUP5 DUP3 PUSH1 0x20 DUP7 ADD PUSH2 0x321F JUMP JUMPDEST SWAP2 POP POP SWAP3 SWAP2 POP POP JUMP JUMPDEST PUSH1 0x0 PUSH1 0x20 DUP3 DUP5 SUB SLT ISZERO PUSH2 0x32CC JUMPI PUSH2 0x32CB PUSH2 0x2DB9 JUMP JUMPDEST JUMPDEST PUSH1 0x0 DUP3 ADD CALLDATALOAD PUSH8 0xFFFFFFFFFFFFFFFF DUP2 GT ISZERO PUSH2 0x32EA JUMPI PUSH2 0x32E9 PUSH2 0x2DBE JUMP JUMPDEST JUMPDEST PUSH2 0x32F6 DUP5 DUP3 DUP6 ADD PUSH2 0x3288 JUMP JUMPDEST SWAP2 POP POP SWAP3 SWAP2 POP POP JUMP JUMPDEST PUSH1 0x0 DUP1 REVERT JUMPDEST PUSH1 0x0 PUSH8 0xFFFFFFFFFFFFFFFF DUP3 GT ISZERO PUSH2 0x331F JUMPI PUSH2 0x331E PUSH2 0x3173 JUMP JUMPDEST JUMPDEST PUSH2 0x3328 DUP3 PUSH2 0x2EC4 JUMP JUMPDEST SWAP1 POP PUSH1 0x20 DUP2 ADD SWAP1 POP SWAP2 SWAP1 POP JUMP JUMPDEST DUP3 DUP2 DUP4 CALLDATACOPY PUSH1 0x0 DUP4 DUP4 ADD MSTORE POP POP POP JUMP JUMPDEST PUSH1 0x0 PUSH2 0x3357 PUSH2 0x3352 DUP5 PUSH2 0x3304 JUMP JUMPDEST PUSH2 0x31D3 JUMP JUMPDEST SWAP1 POP DUP3 DUP2 MSTORE PUSH1 0x20 DUP2 ADD DUP5 DUP5 DUP5 ADD GT ISZERO PUSH2 0x3373 JUMPI PUSH2 0x3372 PUSH2 0x32FF JUMP JUMPDEST JUMPDEST PUSH2 0x337E DUP5 DUP3 DUP6 PUSH2 0x3335 JUMP JUMPDEST POP SWAP4 SWAP3 POP POP POP JUMP JUMPDEST PUSH1 0x0 DUP3 PUSH1 0x1F DUP4 ADD SLT PUSH2 0x339B JUMPI PUSH2 0x339A PUSH2 0x316E JUMP JUMPDEST JUMPDEST DUP2 CALLDATALOAD PUSH2 0x33AB DUP5 DUP3 PUSH1 0x20 DUP7 ADD PUSH2 0x3344 JUMP JUMPDEST SWAP2 POP POP SWAP3 SWAP2 POP POP JUMP JUMPDEST PUSH1 0x0 PUSH1 0x20 DUP3 DUP5 SUB SLT ISZERO PUSH2 0x33CA JUMPI PUSH2 0x33C9 PUSH2 0x2DB9 JUMP JUMPDEST JUMPDEST PUSH1 0x0 DUP3 ADD CALLDATALOAD PUSH8 0xFFFFFFFFFFFFFFFF DUP2 GT ISZERO PUSH2 0x33E8 JUMPI PUSH2 0x33E7 PUSH2 0x2DBE JUMP JUMPDEST JUMPDEST PUSH2 0x33F4 DUP5 DUP3 DUP6 ADD PUSH2 0x3386 JUMP JUMPDEST SWAP2 POP POP SWAP3 SWAP2 POP POP JUMP JUMPDEST PUSH1 0x0 DUP1 PUSH1 0x0 PUSH1 0x60 DUP5 DUP7 SUB SLT ISZERO PUSH2 0x3416 JUMPI PUSH2 0x3415 PUSH2 0x2DB9 JUMP JUMPDEST JUMPDEST PUSH1 0x0 PUSH2 0x3424 DUP7 DUP3 DUP8 ADD PUSH2 0x2F51 JUMP JUMPDEST SWAP4 POP POP PUSH1 0x20 PUSH2 0x3435 DUP7 DUP3 DUP8 ADD PUSH2 0x2F51 JUMP JUMPDEST SWAP3 POP POP PUSH1 0x40 PUSH2 0x3446 DUP7 DUP3 DUP8 ADD PUSH2 0x2F51 JUMP JUMPDEST SWAP2 POP POP SWAP3 POP SWAP3 POP SWAP3 JUMP JUMPDEST PUSH1 0x0 PUSH12 0xFFFFFFFFFFFFFFFFFFFFFFFF DUP3 AND SWAP1 POP SWAP2 SWAP1 POP JUMP JUMPDEST PUSH2 0x3471 DUP2 PUSH2 0x3450 JUMP JUMPDEST DUP2 EQ PUSH2 0x347C JUMPI PUSH1 0x0 DUP1 REVERT JUMPDEST POP JUMP JUMPDEST PUSH1 0x0 DUP2 CALLDATALOAD SWAP1 POP PUSH2 0x348E DUP2 PUSH2 0x3468 JUMP JUMPDEST SWAP3 SWAP2 POP POP JUMP JUMPDEST PUSH1 0x0 DUP1 PUSH1 0x40 DUP4 DUP6 SUB SLT ISZERO PUSH2 0x34AB JUMPI PUSH2 0x34AA PUSH2 0x2DB9 JUMP JUMPDEST JUMPDEST PUSH1 0x0 PUSH2 0x34B9 DUP6 DUP3 DUP7 ADD PUSH2 0x3006 JUMP JUMPDEST SWAP3 POP POP PUSH1 0x20 PUSH2 0x34CA DUP6 DUP3 DUP7 ADD PUSH2 0x347F JUMP JUMPDEST SWAP2 POP POP SWAP3 POP SWAP3 SWAP1 POP JUMP JUMPDEST PUSH2 0x34DD DUP2 PUSH2 0x2E48 JUMP JUMPDEST DUP2 EQ PUSH2 0x34E8 JUMPI PUSH1 0x0 DUP1 REVERT JUMPDEST POP JUMP JUMPDEST PUSH1 0x0 DUP2 CALLDATALOAD SWAP1 POP PUSH2 0x34FA DUP2 PUSH2 0x34D4 JUMP JUMPDEST SWAP3 SWAP2 POP POP JUMP JUMPDEST PUSH1 0x0 DUP1 PUSH1 0x40 DUP4 DUP6 SUB SLT ISZERO PUSH2 0x3517 JUMPI PUSH2 0x3516 PUSH2 0x2DB9 JUMP JUMPDEST JUMPDEST PUSH1 0x0 PUSH2 0x3525 DUP6 DUP3 DUP7 ADD PUSH2 0x3006 JUMP JUMPDEST SWAP3 POP POP PUSH1 0x20 PUSH2 0x3536 DUP6 DUP3 DUP7 ADD PUSH2 0x34EB JUMP JUMPDEST SWAP2 POP POP SWAP3 POP SWAP3 SWAP1 POP JUMP JUMPDEST PUSH1 0x0 PUSH8 0xFFFFFFFFFFFFFFFF DUP3 GT ISZERO PUSH2 0x355B JUMPI PUSH2 0x355A PUSH2 0x3173 JUMP JUMPDEST JUMPDEST PUSH2 0x3564 DUP3 PUSH2 0x2EC4 JUMP JUMPDEST SWAP1 POP PUSH1 0x20 DUP2 ADD SWAP1 POP SWAP2 SWAP1 POP JUMP JUMPDEST PUSH1 0x0 PUSH2 0x3584 PUSH2 0x357F DUP5 PUSH2 0x3540 JUMP JUMPDEST PUSH2 0x31D3 JUMP JUMPDEST SWAP1 POP DUP3 DUP2 MSTORE PUSH1 0x20 DUP2 ADD DUP5 DUP5 DUP5 ADD GT ISZERO PUSH2 0x35A0 JUMPI PUSH2 0x359F PUSH2 0x32FF JUMP JUMPDEST JUMPDEST PUSH2 0x35AB DUP5 DUP3 DUP6 PUSH2 0x3335 JUMP JUMPDEST POP SWAP4 SWAP3 POP POP POP JUMP JUMPDEST PUSH1 0x0 DUP3 PUSH1 0x1F DUP4 ADD SLT PUSH2 0x35C8 JUMPI PUSH2 0x35C7 PUSH2 0x316E JUMP JUMPDEST JUMPDEST DUP2 CALLDATALOAD PUSH2 0x35D8 DUP5 DUP3 PUSH1 0x20 DUP7 ADD PUSH2 0x3571 JUMP JUMPDEST SWAP2 POP POP SWAP3 SWAP2 POP POP JUMP JUMPDEST PUSH1 0x0 DUP1 PUSH1 0x0 DUP1 PUSH1 0x80 DUP6 DUP8 SUB SLT ISZERO PUSH2 0x35FB JUMPI PUSH2 0x35FA PUSH2 0x2DB9 JUMP JUMPDEST JUMPDEST PUSH1 0x0 PUSH2 0x3609 DUP8 DUP3 DUP9 ADD PUSH2 0x3006 JUMP JUMPDEST SWAP5 POP POP PUSH1 0x20 PUSH2 0x361A DUP8 DUP3 DUP9 ADD PUSH2 0x3006 JUMP JUMPDEST SWAP4 POP POP PUSH1 0x40 PUSH2 0x362B DUP8 DUP3 DUP9 ADD PUSH2 0x2F51 JUMP JUMPDEST SWAP3 POP POP PUSH1 0x60 DUP6 ADD CALLDATALOAD PUSH8 0xFFFFFFFFFFFFFFFF DUP2 GT ISZERO PUSH2 0x364C JUMPI PUSH2 0x364B PUSH2 0x2DBE JUMP JUMPDEST JUMPDEST PUSH2 0x3658 DUP8 DUP3 DUP9 ADD PUSH2 0x35B3 JUMP JUMPDEST SWAP2 POP POP SWAP3 SWAP6 SWAP2 SWAP5 POP SWAP3 POP JUMP JUMPDEST PUSH1 0x0 DUP1 PUSH1 0x40 DUP4 DUP6 SUB SLT ISZERO PUSH2 0x367B JUMPI PUSH2 0x367A PUSH2 0x2DB9 JUMP JUMPDEST JUMPDEST PUSH1 0x0 PUSH2 0x3689 DUP6 DUP3 DUP7 ADD PUSH2 0x3006 JUMP JUMPDEST SWAP3 POP POP PUSH1 0x20 PUSH2 0x369A DUP6 DUP3 DUP7 ADD PUSH2 0x3006 JUMP JUMPDEST SWAP2 POP POP SWAP3 POP SWAP3 SWAP1 POP JUMP JUMPDEST PUSH1 0x0 PUSH1 0x80 DUP3 ADD SWAP1 POP PUSH2 0x36B9 PUSH1 0x0 DUP4 ADD DUP8 PUSH2 0x305B JUMP JUMPDEST PUSH2 0x36C6 PUSH1 0x20 DUP4 ADD DUP7 PUSH2 0x305B JUMP JUMPDEST PUSH2 0x36D3 PUSH1 0x40 DUP4 ADD DUP6 PUSH2 0x305B JUMP JUMPDEST PUSH2 0x36E0 PUSH1 0x60 DUP4 ADD DUP5 PUSH2 0x305B JUMP JUMPDEST SWAP6 SWAP5 POP POP POP POP POP JUMP JUMPDEST PUSH32 0x4E487B7100000000000000000000000000000000000000000000000000000000 PUSH1 0x0 MSTORE PUSH1 0x22 PUSH1 0x4 MSTORE PUSH1 0x24 PUSH1 0x0 REVERT JUMPDEST PUSH1 0x0 PUSH1 0x2 DUP3 DIV SWAP1 POP PUSH1 0x1 DUP3 AND DUP1 PUSH2 0x3730 JUMPI PUSH1 0x7F DUP3 AND SWAP2 POP JUMPDEST PUSH1 0x20 DUP3 LT DUP2 SUB PUSH2 0x3743 JUMPI PUSH2 0x3742 PUSH2 0x36E9 JUMP JUMPDEST JUMPDEST POP SWAP2 SWAP1 POP JUMP JUMPDEST PUSH32 0x4E487B7100000000000000000000000000000000000000000000000000000000 PUSH1 0x0 MSTORE PUSH1 0x11 PUSH1 0x4 MSTORE PUSH1 0x24 PUSH1 0x0 REVERT JUMPDEST PUSH1 0x0 PUSH2 0x3783 DUP3 PUSH2 0x2F30 JUMP JUMPDEST SWAP2 POP PUSH2 0x378E DUP4 PUSH2 0x2F30 JUMP JUMPDEST SWAP3 POP DUP3 DUP3 MUL PUSH2 0x379C DUP2 PUSH2 0x2F30 JUMP JUMPDEST SWAP2 POP DUP3 DUP3 DIV DUP5 EQ DUP4 ISZERO OR PUSH2 0x37B3 JUMPI PUSH2 0x37B2 PUSH2 0x3749 JUMP JUMPDEST JUMPDEST POP SWAP3 SWAP2 POP POP JUMP JUMPDEST PUSH32 0x4E487B7100000000000000000000000000000000000000000000000000000000 PUSH1 0x0 MSTORE PUSH1 0x12 PUSH1 0x4 MSTORE PUSH1 0x24 PUSH1 0x0 REVERT JUMPDEST PUSH1 0x0 PUSH2 0x37F4 DUP3 PUSH2 0x2F30 JUMP JUMPDEST SWAP2 POP PUSH2 0x37FF DUP4 PUSH2 0x2F30 JUMP JUMPDEST SWAP3 POP DUP3 PUSH2 0x380F JUMPI PUSH2 0x380E PUSH2 0x37BA JUMP JUMPDEST JUMPDEST DUP3 DUP3 DIV SWAP1 POP SWAP3 SWAP2 POP POP JUMP JUMPDEST PUSH32 0x4E487B7100000000000000000000000000000000000000000000000000000000 PUSH1 0x0 MSTORE PUSH1 0x32 PUSH1 0x4 MSTORE PUSH1 0x24 PUSH1 0x0 REVERT JUMPDEST PUSH1 0x0 PUSH2 0x3854 DUP3 PUSH2 0x2F30 JUMP JUMPDEST SWAP2 POP PUSH32 0xFFFFFFFFFFFFFFFFFFFFFFFFFFFFFFFFFFFFFFFFFFFFFFFFFFFFFFFFFFFFFFFF DUP3 SUB PUSH2 0x3886 JUMPI PUSH2 0x3885 PUSH2 0x3749 JUMP JUMPDEST JUMPDEST PUSH1 0x1 DUP3 ADD SWAP1 POP SWAP2 SWAP1 POP JUMP JUMPDEST PUSH32 0x574C310000000000000000000000000000000000000000000000000000000000 PUSH1 0x0 DUP3 ADD MSTORE POP JUMP JUMPDEST PUSH1 0x0 PUSH2 0x38C7 PUSH1 0x3 DUP4 PUSH2 0x2E89 JUMP JUMPDEST SWAP2 POP PUSH2 0x38D2 DUP3 PUSH2 0x3891 JUMP JUMPDEST PUSH1 0x20 DUP3 ADD SWAP1 POP SWAP2 SWAP1 POP JUMP JUMPDEST PUSH1 0x0 DUP2 MLOAD SWAP1 POP SWAP2 SWAP1 POP JUMP JUMPDEST PUSH1 0x0 DUP3 DUP3 MSTORE PUSH1 0x20 DUP3 ADD SWAP1 POP SWAP3 SWAP2 POP POP JUMP JUMPDEST PUSH1 0x0 DUP2 SWAP1 POP PUSH1 0x20 DUP3 ADD SWAP1 POP SWAP2 SWAP1 POP JUMP JUMPDEST PUSH2 0x3912 DUP2 PUSH2 0x2FB3 JUMP JUMPDEST DUP3 MSTORE POP POP JUMP JUMPDEST PUSH1 0x0 PUSH2 0x3924 DUP4 DUP4 PUSH2 0x3909 JUMP JUMPDEST PUSH1 0x20 DUP4 ADD SWAP1 POP SWAP3 SWAP2 POP POP JUMP JUMPDEST PUSH1 0x0 PUSH1 0x20 DUP3 ADD SWAP1 POP SWAP2 SWAP1 POP JUMP JUMPDEST PUSH1 0x0 PUSH2 0x3948 DUP3 PUSH2 0x38DD JUMP JUMPDEST PUSH2 0x3952 DUP2 DUP6 PUSH2 0x38E8 JUMP JUMPDEST SWAP4 POP PUSH2 0x395D DUP4 PUSH2 0x38F9 JUMP JUMPDEST DUP1 PUSH1 0x0 JUMPDEST DUP4 DUP2 LT ISZERO PUSH2 0x398E JUMPI DUP2 MLOAD PUSH2 0x3975 DUP9 DUP3 PUSH2 0x3918 JUMP JUMPDEST SWAP8 POP PUSH2 0x3980 DUP4 PUSH2 0x3930 JUMP JUMPDEST SWAP3 POP POP PUSH1 0x1 DUP2 ADD SWAP1 POP PUSH2 0x3961 JUMP JUMPDEST POP DUP6 SWAP4 POP POP POP POP SWAP3 SWAP2 POP POP JUMP JUMPDEST PUSH1 0x0 PUSH1 0x40 DUP3 ADD SWAP1 POP DUP2 DUP2 SUB PUSH1 0x0 DUP4 ADD MSTORE PUSH2 0x39B4 DUP2 PUSH2 0x38BA JUMP JUMPDEST SWAP1 POP DUP2 DUP2 SUB PUSH1 0x20 DUP4 ADD MSTORE PUSH2 0x39C8 DUP2 DUP5 PUSH2 0x393D JUMP JUMPDEST SWAP1 POP SWAP3 SWAP2 POP POP JUMP JUMPDEST PUSH1 0x0 DUP2 SWAP1 POP DUP2 PUSH1 0x0 MSTORE PUSH1 0x20 PUSH1 0x0 KECCAK256 SWAP1 POP SWAP2 SWAP1 POP JUMP JUMPDEST PUSH1 0x0 PUSH1 0x20 PUSH1 0x1F DUP4 ADD DIV SWAP1 POP SWAP2 SWAP1 POP JUMP JUMPDEST PUSH1 0x0 DUP3 DUP3 SHL SWAP1 POP SWAP3 SWAP2 POP POP JUMP JUMPDEST PUSH1 0x0 PUSH1 0x8 DUP4 MUL PUSH2 0x3A32 PUSH32 0xFFFFFFFFFFFFFFFFFFFFFFFFFFFFFFFFFFFFFFFFFFFFFFFFFFFFFFFFFFFFFFFF DUP3 PUSH2 0x39F5 JUMP JUMPDEST PUSH2 0x3A3C DUP7 DUP4 PUSH2 0x39F5 JUMP JUMPDEST SWAP6 POP DUP1 NOT DUP5 AND SWAP4 POP DUP1 DUP7 AND DUP5 OR SWAP3 POP POP POP SWAP4 SWAP3 POP POP POP JUMP JUMPDEST PUSH1 0x0 DUP2 SWAP1 POP SWAP2 SWAP1 POP JUMP JUMPDEST PUSH1 0x0 PUSH2 0x3A79 PUSH2 0x3A74 PUSH2 0x3A6F DUP5 PUSH2 0x2F30 JUMP JUMPDEST PUSH2 0x3A54 JUMP JUMPDEST PUSH2 0x2F30 JUMP JUMPDEST SWAP1 POP SWAP2 SWAP1 POP JUMP JUMPDEST PUSH1 0x0 DUP2 SWAP1 POP SWAP2 SWAP1 POP JUMP JUMPDEST PUSH2 0x3A93 DUP4 PUSH2 0x3A5E JUMP JUMPDEST PUSH2 0x3AA7 PUSH2 0x3A9F DUP3 PUSH2 0x3A80 JUMP JUMPDEST DUP5 DUP5 SLOAD PUSH2 0x3A02 JUMP JUMPDEST DUP3 SSTORE POP POP POP POP JUMP JUMPDEST PUSH1 0x0 SWAP1 JUMP JUMPDEST PUSH2 0x3ABC PUSH2 0x3AAF JUMP JUMPDEST PUSH2 0x3AC7 DUP2 DUP5 DUP5 PUSH2 0x3A8A JUMP JUMPDEST POP POP POP JUMP JUMPDEST JUMPDEST DUP2 DUP2 LT ISZERO PUSH2 0x3AEB JUMPI PUSH2 0x3AE0 PUSH1 0x0 DUP3 PUSH2 0x3AB4 JUMP JUMPDEST PUSH1 0x1 DUP2 ADD SWAP1 POP PUSH2 0x3ACD JUMP JUMPDEST POP POP JUMP JUMPDEST PUSH1 0x1F DUP3 GT ISZERO PUSH2 0x3B30 JUMPI PUSH2 0x3B01 DUP2 PUSH2 0x39D0 JUMP JUMPDEST PUSH2 0x3B0A DUP5 PUSH2 0x39E5 JUMP JUMPDEST DUP2 ADD PUSH1 0x20 DUP6 LT ISZERO PUSH2 0x3B19 JUMPI DUP2 SWAP1 POP JUMPDEST PUSH2 0x3B2D PUSH2 0x3B25 DUP6 PUSH2 0x39E5 JUMP JUMPDEST DUP4 ADD DUP3 PUSH2 0x3ACC JUMP JUMPDEST POP POP JUMPDEST POP POP POP JUMP JUMPDEST PUSH1 0x0 DUP3 DUP3 SHR SWAP1 POP SWAP3 SWAP2 POP POP JUMP JUMPDEST PUSH1 0x0 PUSH2 0x3B53 PUSH1 0x0 NOT DUP5 PUSH1 0x8 MUL PUSH2 0x3B35 JUMP JUMPDEST NOT DUP1 DUP4 AND SWAP2 POP POP SWAP3 SWAP2 POP POP JUMP JUMPDEST PUSH1 0x0 PUSH2 0x3B6C DUP4 DUP4 PUSH2 0x3B42 JUMP JUMPDEST SWAP2 POP DUP3 PUSH1 0x2 MUL DUP3 OR SWAP1 POP SWAP3 SWAP2 POP POP JUMP JUMPDEST PUSH2 0x3B85 DUP3 PUSH2 0x2E7E JUMP JUMPDEST PUSH8 0xFFFFFFFFFFFFFFFF DUP2 GT ISZERO PUSH2 0x3B9E JUMPI PUSH2 0x3B9D PUSH2 0x3173 JUMP JUMPDEST JUMPDEST PUSH2 0x3BA8 DUP3 SLOAD PUSH2 0x3718 JUMP JUMPDEST PUSH2 0x3BB3 DUP3 DUP3 DUP6 PUSH2 0x3AEF JUMP JUMPDEST PUSH1 0x0 PUSH1 0x20 SWAP1 POP PUSH1 0x1F DUP4 GT PUSH1 0x1 DUP2 EQ PUSH2 0x3BE6 JUMPI PUSH1 0x0 DUP5 ISZERO PUSH2 0x3BD4 JUMPI DUP3 DUP8 ADD MLOAD SWAP1 POP JUMPDEST PUSH2 0x3BDE DUP6 DUP3 PUSH2 0x3B60 JUMP JUMPDEST DUP7 SSTORE POP PUSH2 0x3C46 JUMP JUMPDEST PUSH1 0x1F NOT DUP5 AND PUSH2 0x3BF4 DUP7 PUSH2 0x39D0 JUMP JUMPDEST PUSH1 0x0 JUMPDEST DUP3 DUP2 LT ISZERO PUSH2 0x3C1C JUMPI DUP5 DUP10 ADD MLOAD DUP3 SSTORE PUSH1 0x1 DUP3 ADD SWAP2 POP PUSH1 0x20 DUP6 ADD SWAP5 POP PUSH1 0x20 DUP2 ADD SWAP1 POP PUSH2 0x3BF7 JUMP JUMPDEST DUP7 DUP4 LT ISZERO PUSH2 0x3C39 JUMPI DUP5 DUP10 ADD MLOAD PUSH2 0x3C35 PUSH1 0x1F DUP10 AND DUP3 PUSH2 0x3B42 JUMP JUMPDEST DUP4 SSTORE POP JUMPDEST PUSH1 0x1 PUSH1 0x2 DUP9 MUL ADD DUP9 SSTORE POP POP POP JUMPDEST POP POP POP POP POP POP JUMP JUMPDEST PUSH32 0x574C000000000000000000000000000000000000000000000000000000000000 PUSH1 0x0 DUP3 ADD MSTORE POP JUMP JUMPDEST PUSH1 0x0 PUSH2 0x3C84 PUSH1 0x2 DUP4 PUSH2 0x2E89 JUMP JUMPDEST SWAP2 POP PUSH2 0x3C8F DUP3 PUSH2 0x3C4E JUMP JUMPDEST PUSH1 0x20 DUP3 ADD SWAP1 POP SWAP2 SWAP1 POP JUMP JUMPDEST PUSH1 0x0 PUSH1 0x40 DUP3 ADD SWAP1 POP PUSH2 0x3CAF PUSH1 0x0 DUP4 ADD DUP5 PUSH2 0x305B JUMP JUMPDEST DUP2 DUP2 SUB PUSH1 0x20 DUP4 ADD MSTORE PUSH2 0x3CC0 DUP2 PUSH2 0x3C77 JUMP JUMPDEST SWAP1 POP SWAP3 SWAP2 POP POP JUMP JUMPDEST PUSH32 0x4643465300000000000000000000000000000000000000000000000000000000 PUSH1 0x0 DUP3 ADD MSTORE POP JUMP JUMPDEST PUSH1 0x0 PUSH2 0x3CFE PUSH1 0x4 DUP4 PUSH2 0x2E89 JUMP JUMPDEST SWAP2 POP PUSH2 0x3D09 DUP3 PUSH2 0x3CC8 JUMP JUMPDEST PUSH1 0x20 DUP3 ADD SWAP1 POP SWAP2 SWAP1 POP JUMP JUMPDEST PUSH1 0x0 PUSH1 0x40 DUP3 ADD SWAP1 POP PUSH2 0x3D29 PUSH1 0x0 DUP4 ADD DUP5 PUSH2 0x305B JUMP JUMPDEST DUP2 DUP2 SUB PUSH1 0x20 DUP4 ADD MSTORE PUSH2 0x3D3A DUP2 PUSH2 0x3CF1 JUMP JUMPDEST SWAP1 POP SWAP3 SWAP2 POP POP JUMP JUMPDEST PUSH32 0x5075626C69630000000000000000000000000000000000000000000000000000 PUSH1 0x0 DUP3 ADD MSTORE POP JUMP JUMPDEST PUSH1 0x0 PUSH2 0x3D78 PUSH1 0x6 DUP4 PUSH2 0x2E89 JUMP JUMPDEST SWAP2 POP PUSH2 0x3D83 DUP3 PUSH2 0x3D42 JUMP JUMPDEST PUSH1 0x20 DUP3 ADD SWAP1 POP SWAP2 SWAP1 POP JUMP JUMPDEST PUSH1 0x0 PUSH1 0x40 DUP3 ADD SWAP1 POP PUSH2 0x3DA3 PUSH1 0x0 DUP4 ADD DUP5 PUSH2 0x305B JUMP JUMPDEST DUP2 DUP2 SUB PUSH1 0x20 DUP4 ADD MSTORE PUSH2 0x3DB4 DUP2 PUSH2 0x3D6B JUMP JUMPDEST SWAP1 POP SWAP3 SWAP2 POP POP JUMP JUMPDEST PUSH32 0x5075626C6963206D696E742068656E757A206261736C616D6164690000000000 PUSH1 0x0 DUP3 ADD MSTORE POP JUMP JUMPDEST PUSH1 0x0 PUSH2 0x3DF2 PUSH1 0x1B DUP4 PUSH2 0x2E89 JUMP JUMPDEST SWAP2 POP PUSH2 0x3DFD DUP3 PUSH2 0x3DBC JUMP JUMPDEST PUSH1 0x20 DUP3 ADD SWAP1 POP SWAP2 SWAP1 POP JUMP JUMPDEST PUSH1 0x0 PUSH1 0x20 DUP3 ADD SWAP1 POP DUP2 DUP2 SUB PUSH1 0x0 DUP4 ADD MSTORE PUSH2 0x3E21 DUP2 PUSH2 0x3DE5 JUMP JUMPDEST SWAP1 POP SWAP2 SWAP1 POP JUMP JUMPDEST PUSH32 0x5A6174656E206D696E74206564696C6469000000000000000000000000000000 PUSH1 0x0 DUP3 ADD MSTORE POP JUMP JUMPDEST PUSH1 0x0 PUSH2 0x3E5E PUSH1 0x11 DUP4 PUSH2 0x2E89 JUMP JUMPDEST SWAP2 POP PUSH2 0x3E69 DUP3 PUSH2 0x3E28 JUMP JUMPDEST PUSH1 0x20 DUP3 ADD SWAP1 POP SWAP2 SWAP1 POP JUMP JUMPDEST PUSH1 0x0 PUSH1 0x20 DUP3 ADD SWAP1 POP DUP2 DUP2 SUB PUSH1 0x0 DUP4 ADD MSTORE PUSH2 0x3E8D DUP2 PUSH2 0x3E51 JUMP JUMPDEST SWAP1 POP SWAP2 SWAP1 POP JUMP JUMPDEST PUSH32 0x4D617820737570706C79206173696C6469000000000000000000000000000000 PUSH1 0x0 DUP3 ADD MSTORE POP JUMP JUMPDEST PUSH1 0x0 PUSH2 0x3ECA PUSH1 0x11 DUP4 PUSH2 0x2E89 JUMP JUMPDEST SWAP2 POP PUSH2 0x3ED5 DUP3 PUSH2 0x3E94 JUMP JUMPDEST PUSH1 0x20 DUP3 ADD SWAP1 POP SWAP2 SWAP1 POP JUMP JUMPDEST PUSH1 0x0 PUSH1 0x20 DUP3 ADD SWAP1 POP DUP2 DUP2 SUB PUSH1 0x0 DUP4 ADD MSTORE PUSH2 0x3EF9 DUP2 PUSH2 0x3EBD JUMP JUMPDEST SWAP1 POP SWAP2 SWAP1 POP JUMP JUMPDEST PUSH32 0x596574657273697A204D4F4E0000000000000000000000000000000000000000 PUSH1 0x0 DUP3 ADD MSTORE POP JUMP JUMPDEST PUSH1 0x0 PUSH2 0x3F36 PUSH1 0xC DUP4 PUSH2 0x2E89 JUMP JUMPDEST SWAP2 POP PUSH2 0x3F41 DUP3 PUSH2 0x3F00 JUMP JUMPDEST PUSH1 0x20 DUP3 ADD SWAP1 POP SWAP2 SWAP1 POP JUMP JUMPDEST PUSH1 0x0 PUSH1 0x20 DUP3 ADD SWAP1 POP DUP2 DUP2 SUB PUSH1 0x0 DUP4 ADD MSTORE PUSH2 0x3F65 DUP2 PUSH2 0x3F29 JUMP JUMPDEST SWAP1 POP SWAP2 SWAP1 POP JUMP JUMPDEST PUSH32 0x4765C3A7657273697A207A616D616E2073C4B172616C616D6173C4B100000000 PUSH1 0x0 DUP3 ADD MSTORE POP JUMP JUMPDEST PUSH1 0x0 PUSH2 0x3FA2 PUSH1 0x1C DUP4 PUSH2 0x2E89 JUMP JUMPDEST SWAP2 POP PUSH2 0x3FAD DUP3 PUSH2 0x3F6C JUMP JUMPDEST PUSH1 0x20 DUP3 ADD SWAP1 POP SWAP2 SWAP1 POP JUMP JUMPDEST PUSH1 0x0 PUSH1 0x20 DUP3 ADD SWAP1 POP DUP2 DUP2 SUB PUSH1 0x0 DUP4 ADD MSTORE PUSH2 0x3FD1 DUP2 PUSH2 0x3F95 JUMP JUMPDEST SWAP1 POP SWAP2 SWAP1 POP JUMP JUMPDEST PUSH1 0x0 PUSH1 0x60 DUP3 ADD SWAP1 POP PUSH2 0x3FED PUSH1 0x0 DUP4 ADD DUP7 PUSH2 0x305B JUMP JUMPDEST PUSH2 0x3FFA PUSH1 0x20 DUP4 ADD DUP6 PUSH2 0x305B JUMP JUMPDEST PUSH2 0x4007 PUSH1 0x40 DUP4 ADD DUP5 PUSH2 0x305B JUMP JUMPDEST SWAP5 SWAP4 POP POP POP POP JUMP JUMPDEST PUSH32 0x55524920717565727920666F72206E6F6E6578697374656E7420746F6B656E00 PUSH1 0x0 DUP3 ADD MSTORE POP JUMP JUMPDEST PUSH1 0x0 PUSH2 0x4045 PUSH1 0x1F DUP4 PUSH2 0x2E89 JUMP JUMPDEST SWAP2 POP PUSH2 0x4050 DUP3 PUSH2 0x400F JUMP JUMPDEST PUSH1 0x20 DUP3 ADD SWAP1 POP SWAP2 SWAP1 POP JUMP JUMPDEST PUSH1 0x0 PUSH1 0x20 DUP3 ADD SWAP1 POP DUP2 DUP2 SUB PUSH1 0x0 DUP4 ADD MSTORE PUSH2 0x4074 DUP2 PUSH2 0x4038 JUMP JUMPDEST SWAP1 POP SWAP2 SWAP1 POP JUMP JUMPDEST PUSH1 0x0 DUP2 SWAP1 POP SWAP3 SWAP2 POP POP JUMP JUMPDEST PUSH1 0x0 DUP2 SLOAD PUSH2 0x4093 DUP2 PUSH2 0x3718 JUMP JUMPDEST PUSH2 0x409D DUP2 DUP7 PUSH2 0x407B JUMP JUMPDEST SWAP5 POP PUSH1 0x1 DUP3 AND PUSH1 0x0 DUP2 EQ PUSH2 0x40B8 JUMPI PUSH1 0x1 DUP2 EQ PUSH2 0x40CD JUMPI PUSH2 0x4100 JUMP JUMPDEST PUSH1 0xFF NOT DUP4 AND DUP7 MSTORE DUP2 ISZERO ISZERO DUP3 MUL DUP7 ADD SWAP4 POP PUSH2 0x4100 JUMP JUMPDEST PUSH2 0x40D6 DUP6 PUSH2 0x39D0 JUMP JUMPDEST PUSH1 0x0 JUMPDEST DUP4 DUP2 LT ISZERO PUSH2 0x40F8 JUMPI DUP2 SLOAD DUP2 DUP10 ADD MSTORE PUSH1 0x1 DUP3 ADD SWAP2 POP PUSH1 0x20 DUP2 ADD SWAP1 POP PUSH2 0x40D9 JUMP JUMPDEST DUP4 DUP9 ADD SWAP6 POP POP POP JUMPDEST POP POP POP SWAP3 SWAP2 POP POP JUMP JUMPDEST PUSH1 0x0 PUSH2 0x4114 DUP3 PUSH2 0x2E7E JUMP JUMPDEST PUSH2 0x411E DUP2 DUP6 PUSH2 0x407B JUMP JUMPDEST SWAP4 POP PUSH2 0x412E DUP2 DUP6 PUSH1 0x20 DUP7 ADD PUSH2 0x2E9A JUMP JUMPDEST DUP1 DUP5 ADD SWAP2 POP POP SWAP3 SWAP2 POP POP JUMP JUMPDEST PUSH32 0x2E6A736F6E000000000000000000000000000000000000000000000000000000 PUSH1 0x0 DUP3 ADD MSTORE POP JUMP JUMPDEST PUSH1 0x0 PUSH2 0x4170 PUSH1 0x5 DUP4 PUSH2 0x407B JUMP JUMPDEST SWAP2 POP PUSH2 0x417B DUP3 PUSH2 0x413A JUMP JUMPDEST PUSH1 0x5 DUP3 ADD SWAP1 POP SWAP2 SWAP1 POP JUMP JUMPDEST PUSH1 0x0 PUSH2 0x4192 DUP3 DUP6 PUSH2 0x4086 JUMP JUMPDEST SWAP2 POP PUSH2 0x419E DUP3 DUP5 PUSH2 0x4109 JUMP JUMPDEST SWAP2 POP PUSH2 0x41A9 DUP3 PUSH2 0x4163 JUMP JUMPDEST SWAP2 POP DUP2 SWAP1 POP SWAP4 SWAP3 POP POP POP JUMP JUMPDEST PUSH32 0x574C206D696E742068656E757A206261736C616D616469000000000000000000 PUSH1 0x0 DUP3 ADD MSTORE POP JUMP JUMPDEST PUSH1 0x0 PUSH2 0x41EB PUSH1 0x17 DUP4 PUSH2 0x2E89 JUMP JUMPDEST SWAP2 POP PUSH2 0x41F6 DUP3 PUSH2 0x41B5 JUMP JUMPDEST PUSH1 0x20 DUP3 ADD SWAP1 POP SWAP2 SWAP1 POP JUMP JUMPDEST PUSH1 0x0 PUSH1 0x20 DUP3 ADD SWAP1 POP DUP2 DUP2 SUB PUSH1 0x0 DUP4 ADD MSTORE PUSH2 0x421A DUP2 PUSH2 0x41DE JUMP JUMPDEST SWAP1 POP SWAP2 SWAP1 POP JUMP JUMPDEST PUSH32 0x574C206D696E7420736F6E612065726469000000000000000000000000000000 PUSH1 0x0 DUP3 ADD MSTORE POP JUMP JUMPDEST PUSH1 0x0 PUSH2 0x4257 PUSH1 0x11 DUP4 PUSH2 0x2E89 JUMP JUMPDEST SWAP2 POP PUSH2 0x4262 DUP3 PUSH2 0x4221 JUMP JUMPDEST PUSH1 0x20 DUP3 ADD SWAP1 POP SWAP2 SWAP1 POP JUMP JUMPDEST PUSH1 0x0 PUSH1 0x20 DUP3 ADD SWAP1 POP DUP2 DUP2 SUB PUSH1 0x0 DUP4 ADD MSTORE PUSH2 0x4286 DUP2 PUSH2 0x424A JUMP JUMPDEST SWAP1 POP SWAP2 SWAP1 POP JUMP JUMPDEST PUSH32 0x57686974656C697374203127646520796F6B73756E2100000000000000000000 PUSH1 0x0 DUP3 ADD MSTORE POP JUMP JUMPDEST PUSH1 0x0 PUSH2 0x42C3 PUSH1 0x16 DUP4 PUSH2 0x2E89 JUMP JUMPDEST SWAP2 POP PUSH2 0x42CE DUP3 PUSH2 0x428D JUMP JUMPDEST PUSH1 0x20 DUP3 ADD SWAP1 POP SWAP2 SWAP1 POP JUMP JUMPDEST PUSH1 0x0 PUSH1 0x20 DUP3 ADD SWAP1 POP DUP2 DUP2 SUB PUSH1 0x0 DUP4 ADD MSTORE PUSH2 0x42F2 DUP2 PUSH2 0x42B6 JUMP JUMPDEST SWAP1 POP SWAP2 SWAP1 POP JUMP JUMPDEST PUSH32 0x46434653206D696E742068656E757A206261736C616D61646900000000000000 PUSH1 0x0 DUP3 ADD MSTORE POP JUMP JUMPDEST PUSH1 0x0 PUSH2 0x432F PUSH1 0x19 DUP4 PUSH2 0x2E89 JUMP JUMPDEST SWAP2 POP PUSH2 0x433A DUP3 PUSH2 0x42F9 JUMP JUMPDEST PUSH1 0x20 DUP3 ADD SWAP1 POP SWAP2 SWAP1 POP JUMP JUMPDEST PUSH1 0x0 PUSH1 0x20 DUP3 ADD SWAP1 POP DUP2 DUP2 SUB PUSH1 0x0 DUP4 ADD MSTORE PUSH2 0x435E DUP2 PUSH2 0x4322 JUMP JUMPDEST SWAP1 POP SWAP2 SWAP1 POP JUMP JUMPDEST PUSH32 0x46434653206D696E7420736F6E61206572646900000000000000000000000000 PUSH1 0x0 DUP3 ADD MSTORE POP JUMP JUMPDEST PUSH1 0x0 PUSH2 0x439B PUSH1 0x13 DUP4 PUSH2 0x2E89 JUMP JUMPDEST SWAP2 POP PUSH2 0x43A6 DUP3 PUSH2 0x4365 JUMP JUMPDEST PUSH1 0x20 DUP3 ADD SWAP1 POP SWAP2 SWAP1 POP JUMP JUMPDEST PUSH1 0x0 PUSH1 0x20 DUP3 ADD SWAP1 POP DUP2 DUP2 SUB PUSH1 0x0 DUP4 ADD MSTORE PUSH2 0x43CA DUP2 PUSH2 0x438E JUMP JUMPDEST SWAP1 POP SWAP2 SWAP1 POP JUMP JUMPDEST PUSH32 0x57686974656C697374203227646520796F6B73756E2100000000000000000000 PUSH1 0x0 DUP3 ADD MSTORE POP JUMP JUMPDEST PUSH1 0x0 PUSH2 0x4407 PUSH1 0x16 DUP4 PUSH2 0x2E89 JUMP JUMPDEST SWAP2 POP PUSH2 0x4412 DUP3 PUSH2 0x43D1 JUMP JUMPDEST PUSH1 0x20 DUP3 ADD SWAP1 POP SWAP2 SWAP1 POP JUMP JUMPDEST PUSH1 0x0 PUSH1 0x20 DUP3 ADD SWAP1 POP DUP2 DUP2 SUB PUSH1 0x0 DUP4 ADD MSTORE PUSH2 0x4436 DUP2 PUSH2 0x43FA JUMP JUMPDEST SWAP1 POP SWAP2 SWAP1 POP JUMP JUMPDEST PUSH32 0x574C320000000000000000000000000000000000000000000000000000000000 PUSH1 0x0 DUP3 ADD MSTORE POP JUMP JUMPDEST PUSH1 0x0 PUSH2 0x4473 PUSH1 0x3 DUP4 PUSH2 0x2E89 JUMP JUMPDEST SWAP2 POP PUSH2 0x447E DUP3 PUSH2 0x443D JUMP JUMPDEST PUSH1 0x20 DUP3 ADD SWAP1 POP SWAP2 SWAP1 POP JUMP JUMPDEST PUSH1 0x0 PUSH1 0x40 DUP3 ADD SWAP1 POP DUP2 DUP2 SUB PUSH1 0x0 DUP4 ADD MSTORE PUSH2 0x44A2 DUP2 PUSH2 0x4466 JUMP JUMPDEST SWAP1 POP DUP2 DUP2 SUB PUSH1 0x20 DUP4 ADD MSTORE PUSH2 0x44B6 DUP2 DUP5 PUSH2 0x393D JUMP JUMPDEST SWAP1 POP SWAP3 SWAP2 POP POP JUMP JUMPDEST PUSH1 0x0 PUSH2 0x44C9 DUP3 PUSH2 0x2F30 JUMP JUMPDEST SWAP2 POP PUSH1 0x0 DUP3 SUB PUSH2 0x44DC JUMPI PUSH2 0x44DB PUSH2 0x3749 JUMP JUMPDEST JUMPDEST PUSH1 0x1 DUP3 SUB SWAP1 POP SWAP2 SWAP1 POP JUMP JUMPDEST PUSH1 0x0 PUSH2 0x4502 PUSH2 0x44FD PUSH2 0x44F8 DUP5 PUSH2 0x3450 JUMP JUMPDEST PUSH2 0x3A54 JUMP JUMPDEST PUSH2 0x2F30 JUMP JUMPDEST SWAP1 POP SWAP2 SWAP1 POP JUMP JUMPDEST PUSH2 0x4512 DUP2 PUSH2 0x44E7 JUMP JUMPDEST DUP3 MSTORE POP POP JUMP JUMPDEST PUSH1 0x0 PUSH1 0x40 DUP3 ADD SWAP1 POP PUSH2 0x452D PUSH1 0x0 DUP4 ADD DUP6 PUSH2 0x4509 JUMP JUMPDEST PUSH2 0x453A PUSH1 0x20 DUP4 ADD DUP5 PUSH2 0x305B JUMP JUMPDEST SWAP4 SWAP3 POP POP POP JUMP JUMPDEST PUSH1 0x0 DUP2 MLOAD SWAP1 POP SWAP2 SWAP1 POP JUMP JUMPDEST PUSH1 0x0 DUP3 DUP3 MSTORE PUSH1 0x20 DUP3 ADD SWAP1 POP SWAP3 SWAP2 POP POP JUMP JUMPDEST PUSH1 0x0 PUSH2 0x4568 DUP3 PUSH2 0x4541 JUMP JUMPDEST PUSH2 0x4572 DUP2 DUP6 PUSH2 0x454C JUMP JUMPDEST SWAP4 POP PUSH2 0x4582 DUP2 DUP6 PUSH1 0x20 DUP7 ADD PUSH2 0x2E9A JUMP JUMPDEST PUSH2 0x458B DUP2 PUSH2 0x2EC4 JUMP JUMPDEST DUP5 ADD SWAP2 POP POP SWAP3 SWAP2 POP POP JUMP JUMPDEST PUSH1 0x0 PUSH1 0x80 DUP3 ADD SWAP1 POP PUSH2 0x45AB PUSH1 0x0 DUP4 ADD DUP8 PUSH2 0x2FC5 JUMP JUMPDEST PUSH2 0x45B8 PUSH1 0x20 DUP4 ADD DUP7 PUSH2 0x2FC5 JUMP JUMPDEST PUSH2 0x45C5 PUSH1 0x40 DUP4 ADD DUP6 PUSH2 0x305B JUMP JUMPDEST DUP2 DUP2 SUB PUSH1 0x60 DUP4 ADD MSTORE PUSH2 0x45D7 DUP2 DUP5 PUSH2 0x455D JUMP JUMPDEST SWAP1 POP SWAP6 SWAP5 POP POP POP POP POP JUMP JUMPDEST PUSH1 0x0 DUP2 MLOAD SWAP1 POP PUSH2 0x45F1 DUP2 PUSH2 0x2DEF JUMP JUMPDEST SWAP3 SWAP2 POP POP JUMP JUMPDEST PUSH1 0x0 PUSH1 0x20 DUP3 DUP5 SUB SLT ISZERO PUSH2 0x460D JUMPI PUSH2 0x460C PUSH2 0x2DB9 JUMP JUMPDEST JUMPDEST PUSH1 0x0 PUSH2 0x461B DUP5 DUP3 DUP6 ADD PUSH2 0x45E2 JUMP JUMPDEST SWAP2 POP POP SWAP3 SWAP2 POP POP JUMP INVALID LOG2 PUSH5 0x6970667358 0x22 SLT KECCAK256 MLOAD 0x1E 0xFC 0xD3 MSIZE 0xA7 CREATE 0xC2 SELFBALANCE SWAP4 0xE1 XOR 0xBA MSIZE COINBASE 0xE7 0xBE DUP12 MSTORE CALL PUSH30 0xF600BF94051BEB2A4718CC64736F6C634300081400330000000000000000 "},"methodIdentifiers":{"approve(address,uint256)":"095ea7b3","balanceOf(address)":"70a08231","baseURI()":"6c0360eb","fcfsMintPrice()":"1cfacec4","fcfsStartTime()":"c989d075","getApproved(uint256)":"081812fc","getTimes()":"e9ab77e5","hasMintedFCFS(address)":"82cf3ce2","hasMintedPublic(address)":"612e9314","hasMintedWL(address)":"a490a56e","isApprovedForAll(address,address)":"e985e9c5","isWhitelist1(address)":"3f5aef12","isWhitelist2(address)":"56070e79","maxSupply()":"d5abeb01","mintFCFS()":"e66db9d3","mintPublic()":"8c874ebd","mintWL()":"cecd6700","name()":"06fdde03","notRevealedURI()":"72250380","owner()":"8da5cb5b","ownerOf(uint256)":"6352211e","publicMintPrice()":"dc53fd92","publicStartTime()":"5fd1bbc4","renounceOwnership()":"715018a6","reveal()":"a475b5dd","revealed()":"51830227","royaltyInfo(uint256,uint256)":"2a55205a","safeTransferFrom(address,address,uint256)":"42842e0e","safeTransferFrom(address,address,uint256,bytes)":"b88d4fde","setApprovalForAll(address,bool)":"a22cb465","setBaseURI(string)":"55f804b3","setMintPrices(uint256,uint256,uint256)":"6fb081a4","setNotRevealedURI(string)":"f2c4ce1e","setRoyalty(address,uint96)":"8f2fc60b","setTimes(uint256,uint256,uint256)":"8f704aec","setWhitelist1(address[])":"43fb1ef4","setWhitelist2(address[])":"ff6fe345","supportsInterface(bytes4)":"01ffc9a7","symbol()":"95d89b41","tokenURI(uint256)":"c87b56dd","totalSupply()":"18160ddd","transferFrom(address,address,uint256)":"23b872dd","transferOwnership(address)":"f2fde38b","withdraw()":"3ccfd60b","wlMintPrice()":"2c4e9fc6","wlStartTime()":"be9feb30"}}}}}