{"contracts/NFTFCFS.sol":{"NFTFCFS":{"abi":[{"inputs":[{"internalType":"uint256","name":"_wlStartTime","type":"uint256"},{"internalType":"uint256","name":"_fcfsStartTime","type":"uint256"},{"internalType":"uint256","name":"_publicStartTime","type":"uint256"},{"internalType":"address[]","name":"whitelist1Addresses","type":"address[]"},{"internalType":"address[]","name":"whitelist2Addresses","type":"address[]"},{"internalType":"string","name":"_baseURI","type":"string"},{"internalType":"address","name":"_royaltyReceiver","type":"address"}],"stateMutability":"nonpayable","type":"constructor"},{"inputs":[],"name":"ApprovalCallerNotOwnerNorApproved","type":"error"},{"inputs":[],"name":"ApprovalQueryForNonexistentToken","type":"error"},{"inputs":[],"name":"BalanceQueryForZeroAddress","type":"error"},{"inputs":[{"internalType":"uint256","name":"numerator","type":"uint256"},{"internalType":"uint256","name":"denominator","type":"uint256"}],"name":"ERC2981InvalidDefaultRoyalty","type":"error"},{"inputs":[{"internalType":"address","name":"receiver","type":"address"}],"name":"ERC2981InvalidDefaultRoyaltyReceiver","type":"error"},{"inputs":[{"internalType":"uint256","name":"tokenId","type":"uint256"},{"internalType":"uint256","name":"numerator","type":"uint256"},{"internalType":"uint256","name":"denominator","type":"uint256"}],"name":"ERC2981InvalidTokenRoyalty","type":"error"},{"inputs":[{"internalType":"uint256","name":"tokenId","type":"uint256"},{"internalType":"address","name":"receiver","type":"address"}],"name":"ERC2981InvalidTokenRoyaltyReceiver","type":"error"},{"inputs":[],"name":"MintERC2309QuantityExceedsLimit","type":"error"},{"inputs":[],"name":"MintToZeroAddress","type":"error"},{"inputs":[],"name":"MintZeroQuantity","type":"error"},{"inputs":[],"name":"NotCompatibleWithSpotMints","type":"error"},{"inputs":[{"internalType":"address","name":"owner","type":"address"}],"name":"OwnableInvalidOwner","type":"error"},{"inputs":[{"internalType":"address","name":"account","type":"address"}],"name":"OwnableUnauthorizedAccount","type":"error"},{"inputs":[],"name":"OwnerQueryForNonexistentToken","type":"error"},{"inputs":[],"name":"OwnershipNotInitializedForExtraData","type":"error"},{"inputs":[],"name":"SequentialMintExceedsLimit","type":"error"},{"inputs":[],"name":"SequentialUpToTooSmall","type":"error"},{"inputs":[],"name":"SpotMintTokenIdTooSmall","type":"error"},{"inputs":[],"name":"TokenAlreadyExists","type":"error"},{"inputs":[],"name":"TransferCallerNotOwnerNorApproved","type":"error"},{"inputs":[],"name":"TransferFromIncorrectOwner","type":"error"},{"inputs":[],"name":"TransferToNonERC721ReceiverImplementer","type":"error"},{"inputs":[],"name":"TransferToZeroAddress","type":"error"},{"inputs":[],"name":"URIQueryForNonexistentToken","type":"error"},{"anonymous":false,"inputs":[{"indexed":true,"internalType":"address","name":"owner","type":"address"},{"indexed":true,"internalType":"address","name":"approved","type":"address"},{"indexed":true,"internalType":"uint256","name":"tokenId","type":"uint256"}],"name":"Approval","type":"event"},{"anonymous":false,"inputs":[{"indexed":true,"internalType":"address","name":"owner","type":"address"},{"indexed":true,"internalType":"address","name":"operator","type":"address"},{"indexed":false,"internalType":"bool","name":"approved","type":"bool"}],"name":"ApprovalForAll","type":"event"},{"anonymous":false,"inputs":[{"indexed":false,"internalType":"string","name":"newBaseURI","type":"string"}],"name":"BaseURIUpdated","type":"event"},{"anonymous":false,"inputs":[{"indexed":true,"internalType":"uint256","name":"fromTokenId","type":"uint256"},{"indexed":false,"internalType":"uint256","name":"toTokenId","type":"uint256"},{"indexed":true,"internalType":"address","name":"from","type":"address"},{"indexed":true,"internalType":"address","name":"to","type":"address"}],"name":"ConsecutiveTransfer","type":"event"},{"anonymous":false,"inputs":[{"indexed":false,"internalType":"uint256","name":"newPrice","type":"uint256"},{"indexed":false,"internalType":"string","name":"phase","type":"string"}],"name":"MintPriceUpdated","type":"event"},{"anonymous":false,"inputs":[{"indexed":true,"internalType":"address","name":"previousOwner","type":"address"},{"indexed":true,"internalType":"address","name":"newOwner","type":"address"}],"name":"OwnershipTransferred","type":"event"},{"anonymous":false,"inputs":[{"indexed":false,"internalType":"address","name":"newReceiver","type":"address"}],"name":"RoyaltyReceiverUpdated","type":"event"},{"anonymous":false,"inputs":[{"indexed":false,"internalType":"uint256","name":"wlStart","type":"uint256"},{"indexed":false,"internalType":"uint256","name":"fcfsStart","type":"uint256"},{"indexed":false,"internalType":"uint256","name":"publicStart","type":"uint256"}],"name":"TimesUpdated","type":"event"},{"anonymous":false,"inputs":[{"indexed":true,"internalType":"address","name":"from","type":"address"},{"indexed":true,"internalType":"address","name":"to","type":"address"},{"indexed":true,"internalType":"uint256","name":"tokenId","type":"uint256"}],"name":"Transfer","type":"event"},{"anonymous":false,"inputs":[{"indexed":false,"internalType":"string","name":"phase","type":"string"},{"indexed":false,"internalType":"address[]","name":"addresses","type":"address[]"}],"name":"WhitelistUpdated","type":"event"},{"inputs":[{"internalType":"address","name":"to","type":"address"},{"internalType":"uint256","name":"tokenId","type":"uint256"}],"name":"approve","outputs":[],"stateMutability":"payable","type":"function"},{"inputs":[{"internalType":"address","name":"owner","type":"address"}],"name":"balanceOf","outputs":[{"internalType":"uint256","name":"","type":"uint256"}],"stateMutability":"view","type":"function"},{"inputs":[],"name":"baseURI","outputs":[{"internalType":"string","name":"","type":"string"}],"stateMutability":"view","type":"function"},{"inputs":[],"name":"fcfsMintPrice","outputs":[{"internalType":"uint256","name":"","type":"uint256"}],"stateMutability":"view","type":"function"},{"inputs":[],"name":"fcfsStartTime","outputs":[{"internalType":"uint256","name":"","type":"uint256"}],"stateMutability":"view","type":"function"},{"inputs":[{"internalType":"uint256","name":"tokenId","type":"uint256"}],"name":"getApproved","outputs":[{"internalType":"address","name":"","type":"address"}],"stateMutability":"view","type":"function"},{"inputs":[],"name":"getTimes","outputs":[{"internalType":"uint256","name":"","type":"uint256"},{"internalType":"uint256","name":"","type":"uint256"},{"internalType":"uint256","name":"","type":"uint256"},{"internalType":"uint256","name":"","type":"uint256"}],"stateMutability":"view","type":"function"},{"inputs":[{"internalType":"address","name":"","type":"address"}],"name":"hasMintedFCFS","outputs":[{"internalType":"bool","name":"","type":"bool"}],"stateMutability":"view","type":"function"},{"inputs":[{"internalType":"address","name":"","type":"address"}],"name":"hasMintedPublic","outputs":[{"internalType":"bool","name":"","type":"bool"}],"stateMutability":"view","type":"function"},{"inputs":[{"internalType":"address","name":"","type":"address"}],"name":"hasMintedWL","outputs":[{"internalType":"bool","name":"","type":"bool"}],"stateMutability":"view","type":"function"},{"inputs":[{"internalType":"address","name":"owner","type":"address"},{"internalType":"address","name":"operator","type":"address"}],"name":"isApprovedForAll","outputs":[{"internalType":"bool","name":"","type":"bool"}],"stateMutability":"view","type":"function"},{"inputs":[{"internalType":"address","name":"","type":"address"}],"name":"isWhitelist1","outputs":[{"internalType":"bool","name":"","type":"bool"}],"stateMutability":"view","type":"function"},{"inputs":[{"internalType":"address","name":"","type":"address"}],"name":"isWhitelist2","outputs":[{"internalType":"bool","name":"","type":"bool"}],"stateMutability":"view","type":"function"},{"inputs":[],"name":"maxSupply","outputs":[{"internalType":"uint256","name":"","type":"uint256"}],"stateMutability":"view","type":"function"},{"inputs":[],"name":"mintFCFS","outputs":[],"stateMutability":"payable","type":"function"},{"inputs":[],"name":"mintPublic","outputs":[],"stateMutability":"payable","type":"function"},{"inputs":[],"name":"mintWL","outputs":[],"stateMutability":"payable","type":"function"},{"inputs":[],"name":"name","outputs":[{"internalType":"string","name":"","type":"string"}],"stateMutability":"view","type":"function"},{"inputs":[],"name":"owner","outputs":[{"internalType":"address","name":"","type":"address"}],"stateMutability":"view","type":"function"},{"inputs":[{"internalType":"uint256","name":"tokenId","type":"uint256"}],"name":"ownerOf","outputs":[{"internalType":"address","name":"","type":"address"}],"stateMutability":"view","type":"function"},{"inputs":[],"name":"publicMintPrice","outputs":[{"internalType":"uint256","name":"","type":"uint256"}],"stateMutability":"view","type":"function"},{"inputs":[],"name":"publicStartTime","outputs":[{"internalType":"uint256","name":"","type":"uint256"}],"stateMutability":"view","type":"function"},{"inputs":[{"internalType":"address[]","name":"addresses","type":"address[]"}],"name":"removeFromWhitelist1","outputs":[],"stateMutability":"nonpayable","type":"function"},{"inputs":[{"internalType":"address[]","name":"addresses","type":"address[]"}],"name":"removeFromWhitelist2","outputs":[],"stateMutability":"nonpayable","type":"function"},{"inputs":[],"name":"renounceOwnership","outputs":[],"stateMutability":"nonpayable","type":"function"},{"inputs":[{"internalType":"uint256","name":"tokenId","type":"uint256"},{"internalType":"uint256","name":"salePrice","type":"uint256"}],"name":"royaltyInfo","outputs":[{"internalType":"address","name":"receiver","type":"address"},{"internalType":"uint256","name":"amount","type":"uint256"}],"stateMutability":"view","type":"function"},{"inputs":[],"name":"royaltyReceiver","outputs":[{"internalType":"address","name":"","type":"address"}],"stateMutability":"view","type":"function"},{"inputs":[{"internalType":"address","name":"from","type":"address"},{"internalType":"address","name":"to","type":"address"},{"internalType":"uint256","name":"tokenId","type":"uint256"}],"name":"safeTransferFrom","outputs":[],"stateMutability":"payable","type":"function"},{"inputs":[{"internalType":"address","name":"from","type":"address"},{"internalType":"address","name":"to","type":"address"},{"internalType":"uint256","name":"tokenId","type":"uint256"},{"internalType":"bytes","name":"_data","type":"bytes"}],"name":"safeTransferFrom","outputs":[],"stateMutability":"payable","type":"function"},{"inputs":[{"internalType":"address","name":"operator","type":"address"},{"internalType":"bool","name":"approved","type":"bool"}],"name":"setApprovalForAll","outputs":[],"stateMutability":"nonpayable","type":"function"},{"inputs":[{"internalType":"string","name":"_baseURI","type":"string"}],"name":"setBaseURI","outputs":[],"stateMutability":"nonpayable","type":"function"},{"inputs":[{"internalType":"uint256","name":"_wlPrice","type":"uint256"},{"internalType":"uint256","name":"_fcfsPrice","type":"uint256"},{"internalType":"uint256","name":"_publicPrice","type":"uint256"}],"name":"setMintPrices","outputs":[],"stateMutability":"nonpayable","type":"function"},{"inputs":[{"internalType":"address","name":"receiver","type":"address"},{"internalType":"uint96","name":"feeNumerator","type":"uint96"}],"name":"setRoyalty","outputs":[],"stateMutability":"nonpayable","type":"function"},{"inputs":[{"internalType":"address","name":"newReceiver","type":"address"}],"name":"setRoyaltyReceiver","outputs":[],"stateMutability":"nonpayable","type":"function"},{"inputs":[{"internalType":"uint256","name":"_wlStart","type":"uint256"},{"internalType":"uint256","name":"_fcfsStart","type":"uint256"},{"internalType":"uint256","name":"_publicStart","type":"uint256"}],"name":"setTimes","outputs":[],"stateMutability":"nonpayable","type":"function"},{"inputs":[{"internalType":"address[]","name":"addresses","type":"address[]"}],"name":"setWhitelist1","outputs":[],"stateMutability":"nonpayable","type":"function"},{"inputs":[{"internalType":"address[]","name":"addresses","type":"address[]"}],"name":"setWhitelist2","outputs":[],"stateMutability":"nonpayable","type":"function"},{"inputs":[{"internalType":"bytes4","name":"interfaceId","type":"bytes4"}],"name":"supportsInterface","outputs":[{"internalType":"bool","name":"","type":"bool"}],"stateMutability":"view","type":"function"},{"inputs":[],"name":"symbol","outputs":[{"internalType":"string","name":"","type":"string"}],"stateMutability":"view","type":"function"},{"inputs":[{"internalType":"uint256","name":"tokenId","type":"uint256"}],"name":"tokenURI","outputs":[{"internalType":"string","name":"","type":"string"}],"stateMutability":"view","type":"function"},{"inputs":[],"name":"totalSupply","outputs":[{"internalType":"uint256","name":"result","type":"uint256"}],"stateMutability":"view","type":"function"},{"inputs":[{"internalType":"address","name":"from","type":"address"},{"internalType":"address","name":"to","type":"address"},{"internalType":"uint256","name":"tokenId","type":"uint256"}],"name":"transferFrom","outputs":[],"stateMutability":"payable","type":"function"},{"inputs":[{"internalType":"address","name":"newOwner","type":"address"}],"name":"transferOwnership","outputs":[],"stateMutability":"nonpayable","type":"function"},{"inputs":[],"name":"withdraw","outputs":[],"stateMutability":"nonpayable","type":"function"},{"inputs":[],"name":"wlMintPrice","outputs":[{"internalType":"uint256","name":"","type":"uint256"}],"stateMutability":"view","type":"function"},{"inputs":[],"name":"wlStartTime","outputs":[{"internalType":"uint256","name":"","type":"uint256"}],"stateMutability":"view","type":"function"},{"stateMutability":"payable","type":"receive"}],"evm":{"bytecode":{"linkReferences":{},"object":"608060405261022b600f556509184e72a000601055655af3107a4000601155655af3107a40006012553480156200003557600080fd5b5060405162005e0b38038062005e0b83398181016040528101906200005b919062000dbe565b336040518060400160405280600781526020017f4e465446434653000000000000000000000000000000000000000000000000008152506040518060400160405280600581526020017f4e464346530000000000000000000000000000000000000000000000000000008152508160029081620000d991906200110f565b508060039081620000eb91906200110f565b50620000fc6200039960201b60201c565b600081905550620001126200039960201b60201c565b620001226200039e60201b60201c565b101562000142576200014163fed8210f60e01b620003c660201b60201c565b5b5050600073ffffffffffffffffffffffffffffffffffffffff168173ffffffffffffffffffffffffffffffffffffffff1603620001b95760006040517f1e4fbdf7000000000000000000000000000000000000000000000000000000008152600401620001b0919062001207565b60405180910390fd5b620001ca81620003d060201b60201c565b5086600c8190555085600d8190555084600e819055508160139081620001f191906200110f565b5080601960006101000a81548173ffffffffffffffffffffffffffffffffffffffff021916908373ffffffffffffffffffffffffffffffffffffffff16021790555062000247816101f46200049660201b60201c565b60005b8451811015620002df5760016014600087848151811062000270576200026f62001224565b5b602002602001015173ffffffffffffffffffffffffffffffffffffffff1673ffffffffffffffffffffffffffffffffffffffff16815260200190815260200160002060006101000a81548160ff0219169083151502179055508080620002d69062001282565b9150506200024a565b5060005b8351811015620003785760016015600086848151811062000309576200030862001224565b5b602002602001015173ffffffffffffffffffffffffffffffffffffffff1673ffffffffffffffffffffffffffffffffffffffff16815260200190815260200160002060006101000a81548160ff02191690831515021790555080806200036f9062001282565b915050620002e3565b506200038c8160016200064660201b60201c565b505050505050506200149e565b600090565b60007fffffffffffffffffffffffffffffffffffffffffffffffffffffffffffffffff905090565b8060005260046000fd5b6000600b60009054906101000a900473ffffffffffffffffffffffffffffffffffffffff16905081600b60006101000a81548173ffffffffffffffffffffffffffffffffffffffff021916908373ffffffffffffffffffffffffffffffffffffffff1602179055508173ffffffffffffffffffffffffffffffffffffffff168173ffffffffffffffffffffffffffffffffffffffff167f8be0079c531659141344cd1fd0a4f28419497f9722a3daafe3b4186f6b6457e060405160405180910390a35050565b6000620004a86200066c60201b60201c565b6bffffffffffffffffffffffff16905080826bffffffffffffffffffffffff161115620005105781816040517f6f483d090000000000000000000000000000000000000000000000000000000081526004016200050792919062001331565b60405180910390fd5b600073ffffffffffffffffffffffffffffffffffffffff168373ffffffffffffffffffffffffffffffffffffffff1603620005855760006040517fb6d9900a0000000000000000000000000000000000000000000000000000000081526004016200057c919062001207565b60405180910390fd5b60405180604001604052808473ffffffffffffffffffffffffffffffffffffffff168152602001836bffffffffffffffffffffffff16815250600960008201518160000160006101000a81548173ffffffffffffffffffffffffffffffffffffffff021916908373ffffffffffffffffffffffffffffffffffffffff16021790555060208201518160000160146101000a8154816bffffffffffffffffffffffff02191690836bffffffffffffffffffffffff160217905550905050505050565b620006688282604051806020016040528060008152506200067660201b60201c565b5050565b6000612710905090565b6200068883836200070e60201b60201c565b60008373ffffffffffffffffffffffffffffffffffffffff163b146200070957600080549050600083820390505b620006d16000868380600101945086620008e060201b60201c565b620006ef57620006ee63d1a57ed660e01b620003c660201b60201c565b5b818110620006b65781600054146200070657600080fd5b50505b505050565b6000805490506000820362000736576200073563b562e8dd60e01b620003c660201b60201c565b5b6200074b600084838562000a2860201b60201c565b620007838362000765600086600062000a2e60201b60201c565b620007768562000a5e60201b60201c565b1762000a6e60201b60201c565b6004600083815260200190815260200160002081905550600160406001901b178202600560008573ffffffffffffffffffffffffffffffffffffffff1673ffffffffffffffffffffffffffffffffffffffff16815260200190815260200160002060008282540192505081905550600073ffffffffffffffffffffffffffffffffffffffff8473ffffffffffffffffffffffffffffffffffffffff1616905060008103620008445762000843632e07630060e01b620003c660201b60201c565b5b600083830190506000839050620008606200039e60201b60201c565b6001830311156200088457620008836381647e3a60e01b620003c660201b60201c565b5b5b808360007fddf252ad1be2c89b69c2b068fc378daa952ba7f163c4a11628f55a4df523b3ef600080a4818160010191508103620008855781600081905550505050620008db600084838562000a9960201b60201c565b505050565b60008373ffffffffffffffffffffffffffffffffffffffff1663150b7a026200090e62000a9f60201b60201c565b8786866040518563ffffffff1660e01b8152600401620009329493929190620013bb565b6020604051808303816000875af19250505080156200097157506040513d601f19601f820116820180604052508101906200096e91906200146c565b60015b620009d5573d8060008114620009a4576040519150601f19603f3d011682016040523d82523d6000602084013e620009a9565b606091505b506000815103620009cd57620009cc63d1a57ed660e01b620003c660201b60201c565b5b805181602001fd5b63150b7a0260e01b7bffffffffffffffffffffffffffffffffffffffffffffffffffffffff1916817bffffffffffffffffffffffffffffffffffffffffffffffffffffffff191614915050949350505050565b50505050565b60008060e883901c905060e862000a4d86868462000aa760201b60201c565b62ffffff16901b9150509392505050565b60006001821460e11b9050919050565b600073ffffffffffffffffffffffffffffffffffffffff83169250814260a01b178317905092915050565b50505050565b600033905090565b60009392505050565b6000604051905090565b600080fd5b600080fd5b6000819050919050565b62000ad98162000ac4565b811462000ae557600080fd5b50565b60008151905062000af98162000ace565b92915050565b600080fd5b6000601f19601f8301169050919050565b7f4e487b7100000000000000000000000000000000000000000000000000000000600052604160045260246000fd5b62000b4f8262000b04565b810181811067ffffffffffffffff8211171562000b715762000b7062000b15565b5b80604052505050565b600062000b8662000ab0565b905062000b94828262000b44565b919050565b600067ffffffffffffffff82111562000bb75762000bb662000b15565b5b602082029050602081019050919050565b600080fd5b600073ffffffffffffffffffffffffffffffffffffffff82169050919050565b600062000bfa8262000bcd565b9050919050565b62000c0c8162000bed565b811462000c1857600080fd5b50565b60008151905062000c2c8162000c01565b92915050565b600062000c4962000c438462000b99565b62000b7a565b9050808382526020820190506020840283018581111562000c6f5762000c6e62000bc8565b5b835b8181101562000c9c578062000c87888262000c1b565b84526020840193505060208101905062000c71565b5050509392505050565b600082601f83011262000cbe5762000cbd62000aff565b5b815162000cd084826020860162000c32565b91505092915050565b600080fd5b600067ffffffffffffffff82111562000cfc5762000cfb62000b15565b5b62000d078262000b04565b9050602081019050919050565b60005b8381101562000d3457808201518184015260208101905062000d17565b60008484015250505050565b600062000d5762000d518462000cde565b62000b7a565b90508281526020810184848401111562000d765762000d7562000cd9565b5b62000d8384828562000d14565b509392505050565b600082601f83011262000da35762000da262000aff565b5b815162000db584826020860162000d40565b91505092915050565b600080600080600080600060e0888a03121562000de05762000ddf62000aba565b5b600062000df08a828b0162000ae8565b975050602062000e038a828b0162000ae8565b965050604062000e168a828b0162000ae8565b955050606088015167ffffffffffffffff81111562000e3a5762000e3962000abf565b5b62000e488a828b0162000ca6565b945050608088015167ffffffffffffffff81111562000e6c5762000e6b62000abf565b5b62000e7a8a828b0162000ca6565b93505060a088015167ffffffffffffffff81111562000e9e5762000e9d62000abf565b5b62000eac8a828b0162000d8b565b92505060c062000ebf8a828b0162000c1b565b91505092959891949750929550565b600081519050919050565b7f4e487b7100000000000000000000000000000000000000000000000000000000600052602260045260246000fd5b6000600282049050600182168062000f2157607f821691505b60208210810362000f375762000f3662000ed9565b5b50919050565b60008190508160005260206000209050919050565b60006020601f8301049050919050565b600082821b905092915050565b60006008830262000fa17fffffffffffffffffffffffffffffffffffffffffffffffffffffffffffffffff8262000f62565b62000fad868362000f62565b95508019841693508086168417925050509392505050565b6000819050919050565b600062000ff062000fea62000fe48462000ac4565b62000fc5565b62000ac4565b9050919050565b6000819050919050565b6200100c8362000fcf565b620010246200101b8262000ff7565b84845462000f6f565b825550505050565b600090565b6200103b6200102c565b6200104881848462001001565b505050565b5b8181101562001070576200106460008262001031565b6001810190506200104e565b5050565b601f821115620010bf57620010898162000f3d565b620010948462000f52565b81016020851015620010a4578190505b620010bc620010b38562000f52565b8301826200104d565b50505b505050565b600082821c905092915050565b6000620010e460001984600802620010c4565b1980831691505092915050565b6000620010ff8383620010d1565b9150826002028217905092915050565b6200111a8262000ece565b67ffffffffffffffff81111562001136576200113562000b15565b5b62001142825462000f08565b6200114f82828562001074565b600060209050601f83116001811462001187576000841562001172578287015190505b6200117e8582620010f1565b865550620011ee565b601f198416620011978662000f3d565b60005b82811015620011c1578489015182556001820191506020850194506020810190506200119a565b86831015620011e15784890151620011dd601f891682620010d1565b8355505b6001600288020188555050505b505050505050565b620012018162000bed565b82525050565b60006020820190506200121e6000830184620011f6565b92915050565b7f4e487b7100000000000000000000000000000000000000000000000000000000600052603260045260246000fd5b7f4e487b7100000000000000000000000000000000000000000000000000000000600052601160045260246000fd5b60006200128f8262000ac4565b91507fffffffffffffffffffffffffffffffffffffffffffffffffffffffffffffffff8203620012c457620012c362001253565b5b600182019050919050565b60006bffffffffffffffffffffffff82169050919050565b60006200130862001302620012fc84620012cf565b62000fc5565b62000ac4565b9050919050565b6200131a81620012e7565b82525050565b6200132b8162000ac4565b82525050565b60006040820190506200134860008301856200130f565b62001357602083018462001320565b9392505050565b600081519050919050565b600082825260208201905092915050565b600062001387826200135e565b62001393818562001369565b9350620013a581856020860162000d14565b620013b08162000b04565b840191505092915050565b6000608082019050620013d26000830187620011f6565b620013e16020830186620011f6565b620013f0604083018562001320565b81810360608301526200140481846200137a565b905095945050505050565b60007fffffffff0000000000000000000000000000000000000000000000000000000082169050919050565b62001446816200140f565b81146200145257600080fd5b50565b60008151905062001466816200143b565b92915050565b60006020828403121562001485576200148462000aba565b5b6000620014958482850162001455565b91505092915050565b61495d80620014ae6000396000f3fe6080604052600436106102815760003560e01c806382cf3ce21161014f578063be9feb30116100c1578063dc53fd921161007a578063dc53fd92146109bc578063e66db9d3146109e7578063e985e9c5146109f1578063e9ab77e514610a2e578063f2fde38b14610a5c578063ff6fe34514610a85576102f0565b8063be9feb30146108cb578063c1c5d839146108f6578063c87b56dd1461091f578063c989d0751461095c578063cecd670014610987578063d5abeb0114610991576102f0565b80638f704aec116101135780638f704aec146107ca57806395d89b41146107f35780639fbc87131461081e578063a22cb46514610849578063a490a56e14610872578063b88d4fde146108af576102f0565b806382cf3ce2146107065780638c874ebd146107435780638da5cb5b1461074d5780638dc251e3146107785780638f2fc60b146107a1576102f0565b806342842e0e116101f35780636352211e116101ac5780636352211e146105f857806363da6964146106355780636c0360eb1461065e5780636fb081a41461068957806370a08231146106b2578063715018a6146106ef576102f0565b806342842e0e146104e557806343fb1ef41461050157806355f804b31461052a57806356070e79146105535780635fd1bbc414610590578063612e9314146105bb576102f0565b80631cfacec4116102455780631cfacec4146103e157806323b872dd1461040c5780632a55205a146104285780632c4e9fc6146104665780633ccfd60b146104915780633f5aef12146104a8576102f0565b806301ffc9a7146102f557806306fdde0314610332578063081812fc1461035d578063095ea7b31461039a57806318160ddd146103b6576102f0565b366102f057601960009054906101000a900473ffffffffffffffffffffffffffffffffffffffff1673ffffffffffffffffffffffffffffffffffffffff166108fc349081150290604051600060405180830381858888f193505050501580156102ee573d6000803e3d6000fd5b005b600080fd5b34801561030157600080fd5b5061031c600480360381019061031791906130d5565b610aae565b604051610329919061311d565b60405180910390f35b34801561033e57600080fd5b50610347610ac0565b60405161035491906131c8565b60405180910390f35b34801561036957600080fd5b50610384600480360381019061037f9190613220565b610b52565b604051610391919061328e565b60405180910390f35b6103b460048036038101906103af91906132d5565b610bb0565b005b3480156103c257600080fd5b506103cb610bc0565b6040516103d89190613324565b60405180910390f35b3480156103ed57600080fd5b506103f6610c0d565b6040516104039190613324565b60405180910390f35b6104266004803603810190610421919061333f565b610c13565b005b34801561043457600080fd5b5061044f600480360381019061044a9190613392565b610ed4565b60405161045d9291906133d2565b60405180910390f35b34801561047257600080fd5b5061047b611004565b6040516104889190613324565b60405180910390f35b34801561049d57600080fd5b506104a661100a565b005b3480156104b457600080fd5b506104cf60048036038101906104ca91906133fb565b611062565b6040516104dc919061311d565b60405180910390f35b6104ff60048036038101906104fa919061333f565b611082565b005b34801561050d57600080fd5b5061052860048036038101906105239190613570565b6110a2565b005b34801561053657600080fd5b50610551600480360381019061054c919061366e565b611176565b005b34801561055f57600080fd5b5061057a600480360381019061057591906133fb565b6111c8565b604051610587919061311d565b60405180910390f35b34801561059c57600080fd5b506105a56111e8565b6040516105b29190613324565b60405180910390f35b3480156105c757600080fd5b506105e260048036038101906105dd91906133fb565b6111ee565b6040516105ef919061311d565b60405180910390f35b34801561060457600080fd5b5061061f600480360381019061061a9190613220565b61120e565b60405161062c919061328e565b60405180910390f35b34801561064157600080fd5b5061065c60048036038101906106579190613570565b611220565b005b34801561066a57600080fd5b506106736112bd565b60405161068091906131c8565b60405180910390f35b34801561069557600080fd5b506106b060048036038101906106ab91906136b7565b61134b565b005b3480156106be57600080fd5b506106d960048036038101906106d491906133fb565b611412565b6040516106e69190613324565b60405180910390f35b3480156106fb57600080fd5b506107046114a9565b005b34801561071257600080fd5b5061072d600480360381019061072891906133fb565b6114bd565b60405161073a919061311d565b60405180910390f35b61074b6114dd565b005b34801561075957600080fd5b5061076261171a565b60405161076f919061328e565b60405180910390f35b34801561078457600080fd5b5061079f600480360381019061079a91906133fb565b611744565b005b3480156107ad57600080fd5b506107c860048036038101906107c3919061374e565b611842565b005b3480156107d657600080fd5b506107f160048036038101906107ec91906136b7565b611858565b005b3480156107ff57600080fd5b50610808611902565b60405161081591906131c8565b60405180910390f35b34801561082a57600080fd5b50610833611994565b604051610840919061328e565b60405180910390f35b34801561085557600080fd5b50610870600480360381019061086b91906137ba565b6119ba565b005b34801561087e57600080fd5b50610899600480360381019061089491906133fb565b611ac5565b6040516108a6919061311d565b60405180910390f35b6108c960048036038101906108c4919061389b565b611ae5565b005b3480156108d757600080fd5b506108e0611b37565b6040516108ed9190613324565b60405180910390f35b34801561090257600080fd5b5061091d60048036038101906109189190613570565b611b3d565b005b34801561092b57600080fd5b5061094660048036038101906109419190613220565b611bda565b60405161095391906131c8565b60405180910390f35b34801561096857600080fd5b50610971611c56565b60405161097e9190613324565b60405180910390f35b61098f611c5c565b005b34801561099d57600080fd5b506109a6611f69565b6040516109b39190613324565b60405180910390f35b3480156109c857600080fd5b506109d1611f6f565b6040516109de9190613324565b60405180910390f35b6109ef611f75565b005b3480156109fd57600080fd5b50610a186004803603810190610a13919061391e565b612282565b604051610a25919061311d565b60405180910390f35b348015610a3a57600080fd5b50610a43612316565b604051610a53949392919061395e565b60405180910390f35b348015610a6857600080fd5b50610a836004803603810190610a7e91906133fb565b612334565b005b348015610a9157600080fd5b50610aac6004803603810190610aa79190613570565b6123ba565b005b6000610ab98261248e565b9050919050565b606060028054610acf906139d2565b80601f0160208091040260200160405190810160405280929190818152602001828054610afb906139d2565b8015610b485780601f10610b1d57610100808354040283529160200191610b48565b820191906000526020600020905b815481529060010190602001808311610b2b57829003601f168201915b5050505050905090565b6000610b5d82612508565b610b7257610b7163cf4700e460e01b6125b4565b5b6006600083815260200190815260200160002060000160009054906101000a900473ffffffffffffffffffffffffffffffffffffffff169050919050565b610bbc828260016125be565b5050565b6000610bca6126ed565b600154600054030390507fffffffffffffffffffffffffffffffffffffffffffffffffffffffffffffffff610bfd6126f2565b14610c0a57600854810190505b90565b60115481565b6000610c1e8261271a565b905073ffffffffffffffffffffffffffffffffffffffff8473ffffffffffffffffffffffffffffffffffffffff161693508373ffffffffffffffffffffffffffffffffffffffff168173ffffffffffffffffffffffffffffffffffffffff1614610c9357610c9263a114810060e01b6125b4565b5b600080610c9f84612833565b91509150610cb58187610cb061285a565b612862565b610ce057610cca86610cc561285a565b612282565b610cdf57610cde6359c896be60e01b6125b4565b5b5b610ced86868660016128a6565b8015610cf857600082555b600560008773ffffffffffffffffffffffffffffffffffffffff1673ffffffffffffffffffffffffffffffffffffffff168152602001908152602001600020600081546001900391905081905550600560008673ffffffffffffffffffffffffffffffffffffffff1673ffffffffffffffffffffffffffffffffffffffff1681526020019081526020016000206000815460010191905081905550610dc685610da28888876128ac565b7c0200000000000000000000000000000000000000000000000000000000176128d4565b600460008681526020019081526020016000208190555060007c0200000000000000000000000000000000000000000000000000000000841603610e4c5760006001850190506000600460008381526020019081526020016000205403610e4a576000548114610e49578360046000838152602001908152602001600020819055505b5b505b600073ffffffffffffffffffffffffffffffffffffffff8673ffffffffffffffffffffffffffffffffffffffff161690508481887fddf252ad1be2c89b69c2b068fc378daa952ba7f163c4a11628f55a4df523b3ef600080a460008103610ebe57610ebd63ea553b3460e01b6125b4565b5b610ecb87878760016128ff565b50505050505050565b6000806000600a6000868152602001908152602001600020905060008160000160009054906101000a900473ffffffffffffffffffffffffffffffffffffffff16905060008260000160149054906101000a90046bffffffffffffffffffffffff169050600073ffffffffffffffffffffffffffffffffffffffff168273ffffffffffffffffffffffffffffffffffffffff1603610fb557600960000160009054906101000a900473ffffffffffffffffffffffffffffffffffffffff169150600960000160149054906101000a90046bffffffffffffffffffffffff1690505b6000610fbf612905565b6bffffffffffffffffffffffff16826bffffffffffffffffffffffff1688610fe79190613a32565b610ff19190613aa3565b9050828195509550505050509250929050565b60105481565b61101261290f565b61101a61171a565b73ffffffffffffffffffffffffffffffffffffffff166108fc479081150290604051600060405180830381858888f1935050505015801561105f573d6000803e3d6000fd5b50565b60146020528060005260406000206000915054906101000a900460ff1681565b61109d83838360405180602001604052806000815250611ae5565b505050565b6110aa61290f565b60005b815181101561113b576001601460008484815181106110cf576110ce613ad4565b5b602002602001015173ffffffffffffffffffffffffffffffffffffffff1673ffffffffffffffffffffffffffffffffffffffff16815260200190815260200160002060006101000a81548160ff021916908315150217905550808061113390613b03565b9150506110ad565b507f8e259fe80d79f5ca6d42e35590fd71fc1504c3cd5516dfaba56990d1c9dd66ef8160405161116b9190613c55565b60405180910390a150565b61117e61290f565b806013908161118d9190613e36565b507f6741b2fc379fad678116fe3d4d4b9a1a184ab53ba36b86ad0fa66340b1ab41ad816040516111bd91906131c8565b60405180910390a150565b60156020528060005260406000206000915054906101000a900460ff1681565b600e5481565b60186020528060005260406000206000915054906101000a900460ff1681565b60006112198261271a565b9050919050565b61122861290f565b60005b81518110156112b95760006014600084848151811061124d5761124c613ad4565b5b602002602001015173ffffffffffffffffffffffffffffffffffffffff1673ffffffffffffffffffffffffffffffffffffffff16815260200190815260200160002060006101000a81548160ff02191690831515021790555080806112b190613b03565b91505061122b565b5050565b601380546112ca906139d2565b80601f01602080910402602001604051908101604052809291908181526020018280546112f6906139d2565b80156113435780601f1061131857610100808354040283529160200191611343565b820191906000526020600020905b81548152906001019060200180831161132657829003601f168201915b505050505081565b61135361290f565b8260108190555081601181905550806012819055507fadab82e2607f1adb1193a8ce2a7901fe8bac3f788495c712b56f45ef1b0494f0836040516113979190613f54565b60405180910390a17fadab82e2607f1adb1193a8ce2a7901fe8bac3f788495c712b56f45ef1b0494f0826040516113ce9190613fce565b60405180910390a17fadab82e2607f1adb1193a8ce2a7901fe8bac3f788495c712b56f45ef1b0494f0816040516114059190614048565b60405180910390a1505050565b60008073ffffffffffffffffffffffffffffffffffffffff168273ffffffffffffffffffffffffffffffffffffffff160361145857611457638f4eb60460e01b6125b4565b5b67ffffffffffffffff600560008473ffffffffffffffffffffffffffffffffffffffff1673ffffffffffffffffffffffffffffffffffffffff16815260200190815260200160002054169050919050565b6114b161290f565b6114bb6000612996565b565b60176020528060005260406000206000915054906101000a900460ff1681565b600e54421015611522576040517f08c379a0000000000000000000000000000000000000000000000000000000008152600401611519906140c2565b60405180910390fd5b601860003373ffffffffffffffffffffffffffffffffffffffff1673ffffffffffffffffffffffffffffffffffffffff16815260200190815260200160002060009054906101000a900460ff16156115af576040517f08c379a00000000000000000000000000000000000000000000000000000000081526004016115a69061412e565b60405180910390fd5b600f5460016115bc610bc0565b6115c6919061414e565b1115611607576040517f08c379a00000000000000000000000000000000000000000000000000000000081526004016115fe906141ce565b60405180910390fd5b60125434101561164c576040517f08c379a00000000000000000000000000000000000000000000000000000000081526004016116439061423a565b60405180910390fd5b6001601860003373ffffffffffffffffffffffffffffffffffffffff1673ffffffffffffffffffffffffffffffffffffffff16815260200190815260200160002060006101000a81548160ff0219169083151502179055506116af336001612a5c565b601960009054906101000a900473ffffffffffffffffffffffffffffffffffffffff1673ffffffffffffffffffffffffffffffffffffffff166108fc349081150290604051600060405180830381858888f19350505050158015611717573d6000803e3d6000fd5b50565b6000600b60009054906101000a900473ffffffffffffffffffffffffffffffffffffffff16905090565b61174c61290f565b600073ffffffffffffffffffffffffffffffffffffffff168173ffffffffffffffffffffffffffffffffffffffff16036117bb576040517f08c379a00000000000000000000000000000000000000000000000000000000081526004016117b2906142a6565b60405180910390fd5b80601960006101000a81548173ffffffffffffffffffffffffffffffffffffffff021916908373ffffffffffffffffffffffffffffffffffffffff160217905550611808816101f4612a7a565b7fc3696c23bd17454d95c44cb489c7a0db717d6d809e238813932720cc785ad53581604051611837919061328e565b60405180910390a150565b61184a61290f565b6118548282612a7a565b5050565b61186061290f565b818310801561186e57508082105b6118ad576040517f08c379a00000000000000000000000000000000000000000000000000000000081526004016118a490614312565b60405180910390fd5b82600c8190555081600d8190555080600e819055507f021b7b308c48de149d4ec3ba2b7cf65c08232f8acfed6fbe415471e2c793524f8383836040516118f593929190614332565b60405180910390a1505050565b606060038054611911906139d2565b80601f016020809104026020016040519081016040528092919081815260200182805461193d906139d2565b801561198a5780601f1061195f5761010080835404028352916020019161198a565b820191906000526020600020905b81548152906001019060200180831161196d57829003601f168201915b5050505050905090565b601960009054906101000a900473ffffffffffffffffffffffffffffffffffffffff1681565b80600760006119c761285a565b73ffffffffffffffffffffffffffffffffffffffff1673ffffffffffffffffffffffffffffffffffffffff16815260200190815260200160002060008473ffffffffffffffffffffffffffffffffffffffff1673ffffffffffffffffffffffffffffffffffffffff16815260200190815260200160002060006101000a81548160ff0219169083151502179055508173ffffffffffffffffffffffffffffffffffffffff16611a7461285a565b73ffffffffffffffffffffffffffffffffffffffff167f17307eab39ab6107e8899845ad3d59bd9653f200f220920489ca2b5937696c3183604051611ab9919061311d565b60405180910390a35050565b60166020528060005260406000206000915054906101000a900460ff1681565b611af0848484610c13565b60008373ffffffffffffffffffffffffffffffffffffffff163b14611b3157611b1b84848484612c1c565b611b3057611b2f63d1a57ed660e01b6125b4565b5b5b50505050565b600c5481565b611b4561290f565b60005b8151811015611bd657600060156000848481518110611b6a57611b69613ad4565b5b602002602001015173ffffffffffffffffffffffffffffffffffffffff1673ffffffffffffffffffffffffffffffffffffffff16815260200190815260200160002060006101000a81548160ff0219169083151502179055508080611bce90613b03565b915050611b48565b5050565b6060611be582612508565b611c24576040517f08c379a0000000000000000000000000000000000000000000000000000000008152600401611c1b906143b5565b60405180910390fd5b6013611c2f83612d4b565b604051602001611c40929190614494565b6040516020818303038152906040529050919050565b600d5481565b600c54421015611ca1576040517f08c379a0000000000000000000000000000000000000000000000000000000008152600401611c9890614504565b60405180910390fd5b600d544210611ce5576040517f08c379a0000000000000000000000000000000000000000000000000000000008152600401611cdc90614570565b60405180910390fd5b601460003373ffffffffffffffffffffffffffffffffffffffff1673ffffffffffffffffffffffffffffffffffffffff16815260200190815260200160002060009054906101000a900460ff16611d71576040517f08c379a0000000000000000000000000000000000000000000000000000000008152600401611d68906145dc565b60405180910390fd5b601660003373ffffffffffffffffffffffffffffffffffffffff1673ffffffffffffffffffffffffffffffffffffffff16815260200190815260200160002060009054906101000a900460ff1615611dfe576040517f08c379a0000000000000000000000000000000000000000000000000000000008152600401611df59061412e565b60405180910390fd5b600f546001611e0b610bc0565b611e15919061414e565b1115611e56576040517f08c379a0000000000000000000000000000000000000000000000000000000008152600401611e4d906141ce565b60405180910390fd5b601054341015611e9b576040517f08c379a0000000000000000000000000000000000000000000000000000000008152600401611e929061423a565b60405180910390fd5b6001601660003373ffffffffffffffffffffffffffffffffffffffff1673ffffffffffffffffffffffffffffffffffffffff16815260200190815260200160002060006101000a81548160ff021916908315150217905550611efe336001612a5c565b601960009054906101000a900473ffffffffffffffffffffffffffffffffffffffff1673ffffffffffffffffffffffffffffffffffffffff166108fc349081150290604051600060405180830381858888f19350505050158015611f66573d6000803e3d6000fd5b50565b600f5481565b60125481565b600d54421015611fba576040517f08c379a0000000000000000000000000000000000000000000000000000000008152600401611fb190614648565b60405180910390fd5b600e544210611ffe576040517f08c379a0000000000000000000000000000000000000000000000000000000008152600401611ff5906146b4565b60405180910390fd5b601560003373ffffffffffffffffffffffffffffffffffffffff1673ffffffffffffffffffffffffffffffffffffffff16815260200190815260200160002060009054906101000a900460ff1661208a576040517f08c379a000000000000000000000000000000000000000000000000000000000815260040161208190614720565b60405180910390fd5b601760003373ffffffffffffffffffffffffffffffffffffffff1673ffffffffffffffffffffffffffffffffffffffff16815260200190815260200160002060009054906101000a900460ff1615612117576040517f08c379a000000000000000000000000000000000000000000000000000000000815260040161210e9061412e565b60405180910390fd5b600f546001612124610bc0565b61212e919061414e565b111561216f576040517f08c379a0000000000000000000000000000000000000000000000000000000008152600401612166906141ce565b60405180910390fd5b6011543410156121b4576040517f08c379a00000000000000000000000000000000000000000000000000000000081526004016121ab9061423a565b60405180910390fd5b6001601760003373ffffffffffffffffffffffffffffffffffffffff1673ffffffffffffffffffffffffffffffffffffffff16815260200190815260200160002060006101000a81548160ff021916908315150217905550612217336001612a5c565b601960009054906101000a900473ffffffffffffffffffffffffffffffffffffffff1673ffffffffffffffffffffffffffffffffffffffff166108fc349081150290604051600060405180830381858888f1935050505015801561227f573d6000803e3d6000fd5b50565b6000600760008473ffffffffffffffffffffffffffffffffffffffff1673ffffffffffffffffffffffffffffffffffffffff16815260200190815260200160002060008373ffffffffffffffffffffffffffffffffffffffff1673ffffffffffffffffffffffffffffffffffffffff16815260200190815260200160002060009054906101000a900460ff16905092915050565b60008060008042600c54600d54600e54935093509350935090919293565b61233c61290f565b600073ffffffffffffffffffffffffffffffffffffffff168173ffffffffffffffffffffffffffffffffffffffff16036123ae5760006040517f1e4fbdf70000000000000000000000000000000000000000000000000000000081526004016123a5919061328e565b60405180910390fd5b6123b781612996565b50565b6123c261290f565b60005b8151811015612453576001601560008484815181106123e7576123e6613ad4565b5b602002602001015173ffffffffffffffffffffffffffffffffffffffff1673ffffffffffffffffffffffffffffffffffffffff16815260200190815260200160002060006101000a81548160ff021916908315150217905550808061244b90613b03565b9150506123c5565b507f8e259fe80d79f5ca6d42e35590fd71fc1504c3cd5516dfaba56990d1c9dd66ef81604051612483919061478c565b60405180910390a150565b60007f2a55205a000000000000000000000000000000000000000000000000000000007bffffffffffffffffffffffffffffffffffffffffffffffffffffffff1916827bffffffffffffffffffffffffffffffffffffffffffffffffffffffff19161480612501575061250082612d9b565b5b9050919050565b6000816125136126ed565b116125ae576125206126f2565b82111561254a576125436004600084815260200190815260200160002054612e05565b90506125af565b6000548210156125ad5760005b6000600460008581526020019081526020016000205491508103612586578261257f906147c1565b9250612557565b60007c01000000000000000000000000000000000000000000000000000000008216149150505b5b5b919050565b8060005260046000fd5b60006125c98361120e565b905081801561260b57508073ffffffffffffffffffffffffffffffffffffffff166125f261285a565b73ffffffffffffffffffffffffffffffffffffffff1614155b15612637576126218161261c61285a565b612282565b6126365761263563cfb3b94260e01b6125b4565b5b5b836006600085815260200190815260200160002060000160006101000a81548173ffffffffffffffffffffffffffffffffffffffff021916908373ffffffffffffffffffffffffffffffffffffffff160217905550828473ffffffffffffffffffffffffffffffffffffffff168273ffffffffffffffffffffffffffffffffffffffff167f8c5be1e5ebec7d5bd14f71427d1e84f3dd0314c0f7b2291e5b200ac8c7c3b92560405160405180910390a450505050565b600090565b60007fffffffffffffffffffffffffffffffffffffffffffffffffffffffffffffffff905090565b6000816127256126ed565b1161281d57600460008381526020019081526020016000205490506127486126f2565b82111561276d5761275881612e05565b61282e5761276c63df2d9b4260e01b6125b4565b5b600081036127f457600054821061278f5761278e63df2d9b4260e01b6125b4565b5b5b600460008360019003935083815260200190815260200160002054905060008103156127ef5760007c01000000000000000000000000000000000000000000000000000000008216031561282e576127ee63df2d9b4260e01b6125b4565b5b612790565b60007c01000000000000000000000000000000000000000000000000000000008216031561282e575b61282d63df2d9b4260e01b6125b4565b5b919050565b60008060006006600085815260200190815260200160002090508092508254915050915091565b600033905090565b600073ffffffffffffffffffffffffffffffffffffffff8316925073ffffffffffffffffffffffffffffffffffffffff821691508382148383141790509392505050565b50505050565b60008060e883901c905060e86128c3868684612e46565b62ffffff16901b9150509392505050565b600073ffffffffffffffffffffffffffffffffffffffff83169250814260a01b178317905092915050565b50505050565b6000612710905090565b612917612e4f565b73ffffffffffffffffffffffffffffffffffffffff1661293561171a565b73ffffffffffffffffffffffffffffffffffffffff161461299457612958612e4f565b6040517f118cdaa700000000000000000000000000000000000000000000000000000000815260040161298b919061328e565b60405180910390fd5b565b6000600b60009054906101000a900473ffffffffffffffffffffffffffffffffffffffff16905081600b60006101000a81548173ffffffffffffffffffffffffffffffffffffffff021916908373ffffffffffffffffffffffffffffffffffffffff1602179055508173ffffffffffffffffffffffffffffffffffffffff168173ffffffffffffffffffffffffffffffffffffffff167f8be0079c531659141344cd1fd0a4f28419497f9722a3daafe3b4186f6b6457e060405160405180910390a35050565b612a76828260405180602001604052806000815250612e57565b5050565b6000612a84612905565b6bffffffffffffffffffffffff16905080826bffffffffffffffffffffffff161115612ae95781816040517f6f483d09000000000000000000000000000000000000000000000000000000008152600401612ae092919061481b565b60405180910390fd5b600073ffffffffffffffffffffffffffffffffffffffff168373ffffffffffffffffffffffffffffffffffffffff1603612b5b5760006040517fb6d9900a000000000000000000000000000000000000000000000000000000008152600401612b52919061328e565b60405180910390fd5b60405180604001604052808473ffffffffffffffffffffffffffffffffffffffff168152602001836bffffffffffffffffffffffff16815250600960008201518160000160006101000a81548173ffffffffffffffffffffffffffffffffffffffff021916908373ffffffffffffffffffffffffffffffffffffffff16021790555060208201518160000160146101000a8154816bffffffffffffffffffffffff02191690836bffffffffffffffffffffffff160217905550905050505050565b60008373ffffffffffffffffffffffffffffffffffffffff1663150b7a02612c4261285a565b8786866040518563ffffffff1660e01b8152600401612c649493929190614899565b6020604051808303816000875af1925050508015612ca057506040513d601f19601f82011682018060405250810190612c9d91906148fa565b60015b612cf8573d8060008114612cd0576040519150601f19603f3d011682016040523d82523d6000602084013e612cd5565b606091505b506000815103612cf057612cef63d1a57ed660e01b6125b4565b5b805181602001fd5b63150b7a0260e01b7bffffffffffffffffffffffffffffffffffffffffffffffffffffffff1916817bffffffffffffffffffffffffffffffffffffffffffffffffffffffff191614915050949350505050565b606060a060405101806040526020810391506000825281835b600115612d8657600184039350600a81066030018453600a8104905080612d64575b50828103602084039350808452505050919050565b60007f01ffc9a7000000000000000000000000000000000000000000000000000000007bffffffffffffffffffffffffffffffffffffffffffffffffffffffff1916827bffffffffffffffffffffffffffffffffffffffffffffffffffffffff1916149050919050565b60007c0100000000000000000000000000000000000000000000000000000000821673ffffffffffffffffffffffffffffffffffffffff8316119050919050565b60009392505050565b600033905090565b612e618383612ed3565b60008373ffffffffffffffffffffffffffffffffffffffff163b14612ece57600080549050600083820390505b612ea16000868380600101945086612c1c565b612eb657612eb563d1a57ed660e01b6125b4565b5b818110612e8e578160005414612ecb57600080fd5b50505b505050565b60008054905060008203612ef257612ef163b562e8dd60e01b6125b4565b5b612eff60008483856128a6565b612f1f83612f1060008660006128ac565b612f1985613059565b176128d4565b6004600083815260200190815260200160002081905550600160406001901b178202600560008573ffffffffffffffffffffffffffffffffffffffff1673ffffffffffffffffffffffffffffffffffffffff16815260200190815260200160002060008282540192505081905550600073ffffffffffffffffffffffffffffffffffffffff8473ffffffffffffffffffffffffffffffffffffffff1616905060008103612fd757612fd6632e07630060e01b6125b4565b5b600083830190506000839050612feb6126f2565b600183031115613006576130056381647e3a60e01b6125b4565b5b5b808360007fddf252ad1be2c89b69c2b068fc378daa952ba7f163c4a11628f55a4df523b3ef600080a4818160010191508103613007578160008190555050505061305460008483856128ff565b505050565b60006001821460e11b9050919050565b6000604051905090565b600080fd5b600080fd5b60007fffffffff0000000000000000000000000000000000000000000000000000000082169050919050565b6130b28161307d565b81146130bd57600080fd5b50565b6000813590506130cf816130a9565b92915050565b6000602082840312156130eb576130ea613073565b5b60006130f9848285016130c0565b91505092915050565b60008115159050919050565b61311781613102565b82525050565b6000602082019050613132600083018461310e565b92915050565b600081519050919050565b600082825260208201905092915050565b60005b83811015613172578082015181840152602081019050613157565b60008484015250505050565b6000601f19601f8301169050919050565b600061319a82613138565b6131a48185613143565b93506131b4818560208601613154565b6131bd8161317e565b840191505092915050565b600060208201905081810360008301526131e2818461318f565b905092915050565b6000819050919050565b6131fd816131ea565b811461320857600080fd5b50565b60008135905061321a816131f4565b92915050565b60006020828403121561323657613235613073565b5b60006132448482850161320b565b91505092915050565b600073ffffffffffffffffffffffffffffffffffffffff82169050919050565b60006132788261324d565b9050919050565b6132888161326d565b82525050565b60006020820190506132a3600083018461327f565b92915050565b6132b28161326d565b81146132bd57600080fd5b50565b6000813590506132cf816132a9565b92915050565b600080604083850312156132ec576132eb613073565b5b60006132fa858286016132c0565b925050602061330b8582860161320b565b9150509250929050565b61331e816131ea565b82525050565b60006020820190506133396000830184613315565b92915050565b60008060006060848603121561335857613357613073565b5b6000613366868287016132c0565b9350506020613377868287016132c0565b92505060406133888682870161320b565b9150509250925092565b600080604083850312156133a9576133a8613073565b5b60006133b78582860161320b565b92505060206133c88582860161320b565b9150509250929050565b60006040820190506133e7600083018561327f565b6133f46020830184613315565b9392505050565b60006020828403121561341157613410613073565b5b600061341f848285016132c0565b91505092915050565b600080fd5b7f4e487b7100000000000000000000000000000000000000000000000000000000600052604160045260246000fd5b6134658261317e565b810181811067ffffffffffffffff821117156134845761348361342d565b5b80604052505050565b6000613497613069565b90506134a3828261345c565b919050565b600067ffffffffffffffff8211156134c3576134c261342d565b5b602082029050602081019050919050565b600080fd5b60006134ec6134e7846134a8565b61348d565b9050808382526020820190506020840283018581111561350f5761350e6134d4565b5b835b81811015613538578061352488826132c0565b845260208401935050602081019050613511565b5050509392505050565b600082601f83011261355757613556613428565b5b81356135678482602086016134d9565b91505092915050565b60006020828403121561358657613585613073565b5b600082013567ffffffffffffffff8111156135a4576135a3613078565b5b6135b084828501613542565b91505092915050565b600080fd5b600067ffffffffffffffff8211156135d9576135d861342d565b5b6135e28261317e565b9050602081019050919050565b82818337600083830152505050565b600061361161360c846135be565b61348d565b90508281526020810184848401111561362d5761362c6135b9565b5b6136388482856135ef565b509392505050565b600082601f83011261365557613654613428565b5b81356136658482602086016135fe565b91505092915050565b60006020828403121561368457613683613073565b5b600082013567ffffffffffffffff8111156136a2576136a1613078565b5b6136ae84828501613640565b91505092915050565b6000806000606084860312156136d0576136cf613073565b5b60006136de8682870161320b565b93505060206136ef8682870161320b565b92505060406137008682870161320b565b9150509250925092565b60006bffffffffffffffffffffffff82169050919050565b61372b8161370a565b811461373657600080fd5b50565b60008135905061374881613722565b92915050565b6000806040838503121561376557613764613073565b5b6000613773858286016132c0565b925050602061378485828601613739565b9150509250929050565b61379781613102565b81146137a257600080fd5b50565b6000813590506137b48161378e565b92915050565b600080604083850312156137d1576137d0613073565b5b60006137df858286016132c0565b92505060206137f0858286016137a5565b9150509250929050565b600067ffffffffffffffff8211156138155761381461342d565b5b61381e8261317e565b9050602081019050919050565b600061383e613839846137fa565b61348d565b90508281526020810184848401111561385a576138596135b9565b5b6138658482856135ef565b509392505050565b600082601f83011261388257613881613428565b5b813561389284826020860161382b565b91505092915050565b600080600080608085870312156138b5576138b4613073565b5b60006138c3878288016132c0565b94505060206138d4878288016132c0565b93505060406138e58782880161320b565b925050606085013567ffffffffffffffff81111561390657613905613078565b5b6139128782880161386d565b91505092959194509250565b6000806040838503121561393557613934613073565b5b6000613943858286016132c0565b9250506020613954858286016132c0565b9150509250929050565b60006080820190506139736000830187613315565b6139806020830186613315565b61398d6040830185613315565b61399a6060830184613315565b95945050505050565b7f4e487b7100000000000000000000000000000000000000000000000000000000600052602260045260246000fd5b600060028204905060018216806139ea57607f821691505b6020821081036139fd576139fc6139a3565b5b50919050565b7f4e487b7100000000000000000000000000000000000000000000000000000000600052601160045260246000fd5b6000613a3d826131ea565b9150613a48836131ea565b9250828202613a56816131ea565b91508282048414831517613a6d57613a6c613a03565b5b5092915050565b7f4e487b7100000000000000000000000000000000000000000000000000000000600052601260045260246000fd5b6000613aae826131ea565b9150613ab9836131ea565b925082613ac957613ac8613a74565b5b828204905092915050565b7f4e487b7100000000000000000000000000000000000000000000000000000000600052603260045260246000fd5b6000613b0e826131ea565b91507fffffffffffffffffffffffffffffffffffffffffffffffffffffffffffffffff8203613b4057613b3f613a03565b5b600182019050919050565b7f574c310000000000000000000000000000000000000000000000000000000000600082015250565b6000613b81600383613143565b9150613b8c82613b4b565b602082019050919050565b600081519050919050565b600082825260208201905092915050565b6000819050602082019050919050565b613bcc8161326d565b82525050565b6000613bde8383613bc3565b60208301905092915050565b6000602082019050919050565b6000613c0282613b97565b613c0c8185613ba2565b9350613c1783613bb3565b8060005b83811015613c48578151613c2f8882613bd2565b9750613c3a83613bea565b925050600181019050613c1b565b5085935050505092915050565b60006040820190508181036000830152613c6e81613b74565b90508181036020830152613c828184613bf7565b905092915050565b60008190508160005260206000209050919050565b60006020601f8301049050919050565b600082821b905092915050565b600060088302613cec7fffffffffffffffffffffffffffffffffffffffffffffffffffffffffffffffff82613caf565b613cf68683613caf565b95508019841693508086168417925050509392505050565b6000819050919050565b6000613d33613d2e613d29846131ea565b613d0e565b6131ea565b9050919050565b6000819050919050565b613d4d83613d18565b613d61613d5982613d3a565b848454613cbc565b825550505050565b600090565b613d76613d69565b613d81818484613d44565b505050565b5b81811015613da557613d9a600082613d6e565b600181019050613d87565b5050565b601f821115613dea57613dbb81613c8a565b613dc484613c9f565b81016020851015613dd3578190505b613de7613ddf85613c9f565b830182613d86565b50505b505050565b600082821c905092915050565b6000613e0d60001984600802613def565b1980831691505092915050565b6000613e268383613dfc565b9150826002028217905092915050565b613e3f82613138565b67ffffffffffffffff811115613e5857613e5761342d565b5b613e6282546139d2565b613e6d828285613da9565b600060209050601f831160018114613ea05760008415613e8e578287015190505b613e988582613e1a565b865550613f00565b601f198416613eae86613c8a565b60005b82811015613ed657848901518255600182019150602085019450602081019050613eb1565b86831015613ef35784890151613eef601f891682613dfc565b8355505b6001600288020188555050505b505050505050565b7f574c000000000000000000000000000000000000000000000000000000000000600082015250565b6000613f3e600283613143565b9150613f4982613f08565b602082019050919050565b6000604082019050613f696000830184613315565b8181036020830152613f7a81613f31565b905092915050565b7f4643465300000000000000000000000000000000000000000000000000000000600082015250565b6000613fb8600483613143565b9150613fc382613f82565b602082019050919050565b6000604082019050613fe36000830184613315565b8181036020830152613ff481613fab565b905092915050565b7f5075626c69630000000000000000000000000000000000000000000000000000600082015250565b6000614032600683613143565b915061403d82613ffc565b602082019050919050565b600060408201905061405d6000830184613315565b818103602083015261406e81614025565b905092915050565b7f5075626c6963206d696e742068656e757a206261736c616d6164690000000000600082015250565b60006140ac601b83613143565b91506140b782614076565b602082019050919050565b600060208201905081810360008301526140db8161409f565b9050919050565b7f5a6174656e206d696e74206564696c6469000000000000000000000000000000600082015250565b6000614118601183613143565b9150614123826140e2565b602082019050919050565b600060208201905081810360008301526141478161410b565b9050919050565b6000614159826131ea565b9150614164836131ea565b925082820190508082111561417c5761417b613a03565b5b92915050565b7f4d617820737570706c79206173696c6469000000000000000000000000000000600082015250565b60006141b8601183613143565b91506141c382614182565b602082019050919050565b600060208201905081810360008301526141e7816141ab565b9050919050565b7f596574657273697a204d4f4e0000000000000000000000000000000000000000600082015250565b6000614224600c83613143565b915061422f826141ee565b602082019050919050565b6000602082019050818103600083015261425381614217565b9050919050565b7f476563657273697a206164726573000000000000000000000000000000000000600082015250565b6000614290600e83613143565b915061429b8261425a565b602082019050919050565b600060208201905081810360008301526142bf81614283565b9050919050565b7f4765c3a7657273697a207a616d616e2073c4b172616c616d6173c4b100000000600082015250565b60006142fc601c83613143565b9150614307826142c6565b602082019050919050565b6000602082019050818103600083015261432b816142ef565b9050919050565b60006060820190506143476000830186613315565b6143546020830185613315565b6143616040830184613315565b949350505050565b7f55524920717565727920666f72206e6f6e6578697374656e7420746f6b656e00600082015250565b600061439f601f83613143565b91506143aa82614369565b602082019050919050565b600060208201905081810360008301526143ce81614392565b9050919050565b600081905092915050565b600081546143ed816139d2565b6143f781866143d5565b9450600182166000811461441257600181146144275761445a565b60ff198316865281151582028601935061445a565b61443085613c8a565b60005b8381101561445257815481890152600182019150602081019050614433565b838801955050505b50505092915050565b600061446e82613138565b61447881856143d5565b9350614488818560208601613154565b80840191505092915050565b60006144a082856143e0565b91506144ac8284614463565b91508190509392505050565b7f574c206d696e742068656e757a206261736c616d616469000000000000000000600082015250565b60006144ee601783613143565b91506144f9826144b8565b602082019050919050565b6000602082019050818103600083015261451d816144e1565b9050919050565b7f574c206d696e7420736f6e612065726469000000000000000000000000000000600082015250565b600061455a601183613143565b915061456582614524565b602082019050919050565b600060208201905081810360008301526145898161454d565b9050919050565b7f57686974656c697374203127646520796f6b73756e2100000000000000000000600082015250565b60006145c6601683613143565b91506145d182614590565b602082019050919050565b600060208201905081810360008301526145f5816145b9565b9050919050565b7f46434653206d696e742068656e757a206261736c616d61646900000000000000600082015250565b6000614632601983613143565b915061463d826145fc565b602082019050919050565b6000602082019050818103600083015261466181614625565b9050919050565b7f46434653206d696e7420736f6e61206572646900000000000000000000000000600082015250565b600061469e601383613143565b91506146a982614668565b602082019050919050565b600060208201905081810360008301526146cd81614691565b9050919050565b7f57686974656c697374203227646520796f6b73756e2100000000000000000000600082015250565b600061470a601683613143565b9150614715826146d4565b602082019050919050565b60006020820190508181036000830152614739816146fd565b9050919050565b7f574c320000000000000000000000000000000000000000000000000000000000600082015250565b6000614776600383613143565b915061478182614740565b602082019050919050565b600060408201905081810360008301526147a581614769565b905081810360208301526147b98184613bf7565b905092915050565b60006147cc826131ea565b9150600082036147df576147de613a03565b5b600182039050919050565b60006148056148006147fb8461370a565b613d0e565b6131ea565b9050919050565b614815816147ea565b82525050565b6000604082019050614830600083018561480c565b61483d6020830184613315565b9392505050565b600081519050919050565b600082825260208201905092915050565b600061486b82614844565b614875818561484f565b9350614885818560208601613154565b61488e8161317e565b840191505092915050565b60006080820190506148ae600083018761327f565b6148bb602083018661327f565b6148c86040830185613315565b81810360608301526148da8184614860565b905095945050505050565b6000815190506148f4816130a9565b92915050565b6000602082840312156149105761490f613073565b5b600061491e848285016148e5565b9150509291505056fea264697066735822122067dcb4e5320f53050841484f776c9f562d81b32a73faefa67128e29d10bb2fd864736f6c63430008140033","opcodes":"PUSH1 0x80 PUSH1 0x40 MSTORE PUSH2 0x22B PUSH1 0xF SSTORE PUSH6 0x9184E72A000 PUSH1 0x10 SSTORE PUSH6 0x5AF3107A4000 PUSH1 0x11 SSTORE PUSH6 0x5AF3107A4000 PUSH1 0x12 SSTORE CALLVALUE DUP1 ISZERO PUSH3 0x35 JUMPI PUSH1 0x0 DUP1 REVERT JUMPDEST POP PUSH1 0x40 MLOAD PUSH3 0x5E0B CODESIZE SUB DUP1 PUSH3 0x5E0B DUP4 CODECOPY DUP2 DUP2 ADD PUSH1 0x40 MSTORE DUP2 ADD SWAP1 PUSH3 0x5B SWAP2 SWAP1 PUSH3 0xDBE JUMP JUMPDEST CALLER PUSH1 0x40 MLOAD DUP1 PUSH1 0x40 ADD PUSH1 0x40 MSTORE DUP1 PUSH1 0x7 DUP2 MSTORE PUSH1 0x20 ADD PUSH32 0x4E46544643465300000000000000000000000000000000000000000000000000 DUP2 MSTORE POP PUSH1 0x40 MLOAD DUP1 PUSH1 0x40 ADD PUSH1 0x40 MSTORE DUP1 PUSH1 0x5 DUP2 MSTORE PUSH1 0x20 ADD PUSH32 0x4E46434653000000000000000000000000000000000000000000000000000000 DUP2 MSTORE POP DUP2 PUSH1 0x2 SWAP1 DUP2 PUSH3 0xD9 SWAP2 SWAP1 PUSH3 0x110F JUMP JUMPDEST POP DUP1 PUSH1 0x3 SWAP1 DUP2 PUSH3 0xEB SWAP2 SWAP1 PUSH3 0x110F JUMP JUMPDEST POP PUSH3 0xFC PUSH3 0x399 PUSH1 0x20 SHL PUSH1 0x20 SHR JUMP JUMPDEST PUSH1 0x0 DUP2 SWAP1 SSTORE POP PUSH3 0x112 PUSH3 0x399 PUSH1 0x20 SHL PUSH1 0x20 SHR JUMP JUMPDEST PUSH3 0x122 PUSH3 0x39E PUSH1 0x20 SHL PUSH1 0x20 SHR JUMP JUMPDEST LT ISZERO PUSH3 0x142 JUMPI PUSH3 0x141 PUSH4 0xFED8210F PUSH1 0xE0 SHL PUSH3 0x3C6 PUSH1 0x20 SHL PUSH1 0x20 SHR JUMP JUMPDEST JUMPDEST POP POP PUSH1 0x0 PUSH20 0xFFFFFFFFFFFFFFFFFFFFFFFFFFFFFFFFFFFFFFFF AND DUP2 PUSH20 0xFFFFFFFFFFFFFFFFFFFFFFFFFFFFFFFFFFFFFFFF AND SUB PUSH3 0x1B9 JUMPI PUSH1 0x0 PUSH1 0x40 MLOAD PUSH32 0x1E4FBDF700000000000000000000000000000000000000000000000000000000 DUP2 MSTORE PUSH1 0x4 ADD PUSH3 0x1B0 SWAP2 SWAP1 PUSH3 0x1207 JUMP JUMPDEST PUSH1 0x40 MLOAD DUP1 SWAP2 SUB SWAP1 REVERT JUMPDEST PUSH3 0x1CA DUP2 PUSH3 0x3D0 PUSH1 0x20 SHL PUSH1 0x20 SHR JUMP JUMPDEST POP DUP7 PUSH1 0xC DUP2 SWAP1 SSTORE POP DUP6 PUSH1 0xD DUP2 SWAP1 SSTORE POP DUP5 PUSH1 0xE DUP2 SWAP1 SSTORE POP DUP2 PUSH1 0x13 SWAP1 DUP2 PUSH3 0x1F1 SWAP2 SWAP1 PUSH3 0x110F JUMP JUMPDEST POP DUP1 PUSH1 0x19 PUSH1 0x0 PUSH2 0x100 EXP DUP2 SLOAD DUP2 PUSH20 0xFFFFFFFFFFFFFFFFFFFFFFFFFFFFFFFFFFFFFFFF MUL NOT AND SWAP1 DUP4 PUSH20 0xFFFFFFFFFFFFFFFFFFFFFFFFFFFFFFFFFFFFFFFF AND MUL OR SWAP1 SSTORE POP PUSH3 0x247 DUP2 PUSH2 0x1F4 PUSH3 0x496 PUSH1 0x20 SHL PUSH1 0x20 SHR JUMP JUMPDEST PUSH1 0x0 JUMPDEST DUP5 MLOAD DUP2 LT ISZERO PUSH3 0x2DF JUMPI PUSH1 0x1 PUSH1 0x14 PUSH1 0x0 DUP8 DUP5 DUP2 MLOAD DUP2 LT PUSH3 0x270 JUMPI PUSH3 0x26F PUSH3 0x1224 JUMP JUMPDEST JUMPDEST PUSH1 0x20 MUL PUSH1 0x20 ADD ADD MLOAD PUSH20 0xFFFFFFFFFFFFFFFFFFFFFFFFFFFFFFFFFFFFFFFF AND PUSH20 0xFFFFFFFFFFFFFFFFFFFFFFFFFFFFFFFFFFFFFFFF AND DUP2 MSTORE PUSH1 0x20 ADD SWAP1 DUP2 MSTORE PUSH1 0x20 ADD PUSH1 0x0 KECCAK256 PUSH1 0x0 PUSH2 0x100 EXP DUP2 SLOAD DUP2 PUSH1 0xFF MUL NOT AND SWAP1 DUP4 ISZERO ISZERO MUL OR SWAP1 SSTORE POP DUP1 DUP1 PUSH3 0x2D6 SWAP1 PUSH3 0x1282 JUMP JUMPDEST SWAP2 POP POP PUSH3 0x24A JUMP JUMPDEST POP PUSH1 0x0 JUMPDEST DUP4 MLOAD DUP2 LT ISZERO PUSH3 0x378 JUMPI PUSH1 0x1 PUSH1 0x15 PUSH1 0x0 DUP7 DUP5 DUP2 MLOAD DUP2 LT PUSH3 0x309 JUMPI PUSH3 0x308 PUSH3 0x1224 JUMP JUMPDEST JUMPDEST PUSH1 0x20 MUL PUSH1 0x20 ADD ADD MLOAD PUSH20 0xFFFFFFFFFFFFFFFFFFFFFFFFFFFFFFFFFFFFFFFF AND PUSH20 0xFFFFFFFFFFFFFFFFFFFFFFFFFFFFFFFFFFFFFFFF AND DUP2 MSTORE PUSH1 0x20 ADD SWAP1 DUP2 MSTORE PUSH1 0x20 ADD PUSH1 0x0 KECCAK256 PUSH1 0x0 PUSH2 0x100 EXP DUP2 SLOAD DUP2 PUSH1 0xFF MUL NOT AND SWAP1 DUP4 ISZERO ISZERO MUL OR SWAP1 SSTORE POP DUP1 DUP1 PUSH3 0x36F SWAP1 PUSH3 0x1282 JUMP JUMPDEST SWAP2 POP POP PUSH3 0x2E3 JUMP JUMPDEST POP PUSH3 0x38C DUP2 PUSH1 0x1 PUSH3 0x646 PUSH1 0x20 SHL PUSH1 0x20 SHR JUMP JUMPDEST POP POP POP POP POP POP POP PUSH3 0x149E JUMP JUMPDEST PUSH1 0x0 SWAP1 JUMP JUMPDEST PUSH1 0x0 PUSH32 0xFFFFFFFFFFFFFFFFFFFFFFFFFFFFFFFFFFFFFFFFFFFFFFFFFFFFFFFFFFFFFFFF SWAP1 POP SWAP1 JUMP JUMPDEST DUP1 PUSH1 0x0 MSTORE PUSH1 0x4 PUSH1 0x0 REVERT JUMPDEST PUSH1 0x0 PUSH1 0xB PUSH1 0x0 SWAP1 SLOAD SWAP1 PUSH2 0x100 EXP SWAP1 DIV PUSH20 0xFFFFFFFFFFFFFFFFFFFFFFFFFFFFFFFFFFFFFFFF AND SWAP1 POP DUP2 PUSH1 0xB PUSH1 0x0 PUSH2 0x100 EXP DUP2 SLOAD DUP2 PUSH20 0xFFFFFFFFFFFFFFFFFFFFFFFFFFFFFFFFFFFFFFFF MUL NOT AND SWAP1 DUP4 PUSH20 0xFFFFFFFFFFFFFFFFFFFFFFFFFFFFFFFFFFFFFFFF AND MUL OR SWAP1 SSTORE POP DUP2 PUSH20 0xFFFFFFFFFFFFFFFFFFFFFFFFFFFFFFFFFFFFFFFF AND DUP2 PUSH20 0xFFFFFFFFFFFFFFFFFFFFFFFFFFFFFFFFFFFFFFFF AND PUSH32 0x8BE0079C531659141344CD1FD0A4F28419497F9722A3DAAFE3B4186F6B6457E0 PUSH1 0x40 MLOAD PUSH1 0x40 MLOAD DUP1 SWAP2 SUB SWAP1 LOG3 POP POP JUMP JUMPDEST PUSH1 0x0 PUSH3 0x4A8 PUSH3 0x66C PUSH1 0x20 SHL PUSH1 0x20 SHR JUMP JUMPDEST PUSH12 0xFFFFFFFFFFFFFFFFFFFFFFFF AND SWAP1 POP DUP1 DUP3 PUSH12 0xFFFFFFFFFFFFFFFFFFFFFFFF AND GT ISZERO PUSH3 0x510 JUMPI DUP2 DUP2 PUSH1 0x40 MLOAD PUSH32 0x6F483D0900000000000000000000000000000000000000000000000000000000 DUP2 MSTORE PUSH1 0x4 ADD PUSH3 0x507 SWAP3 SWAP2 SWAP1 PUSH3 0x1331 JUMP JUMPDEST PUSH1 0x40 MLOAD DUP1 SWAP2 SUB SWAP1 REVERT JUMPDEST PUSH1 0x0 PUSH20 0xFFFFFFFFFFFFFFFFFFFFFFFFFFFFFFFFFFFFFFFF AND DUP4 PUSH20 0xFFFFFFFFFFFFFFFFFFFFFFFFFFFFFFFFFFFFFFFF AND SUB PUSH3 0x585 JUMPI PUSH1 0x0 PUSH1 0x40 MLOAD PUSH32 0xB6D9900A00000000000000000000000000000000000000000000000000000000 DUP2 MSTORE PUSH1 0x4 ADD PUSH3 0x57C SWAP2 SWAP1 PUSH3 0x1207 JUMP JUMPDEST PUSH1 0x40 MLOAD DUP1 SWAP2 SUB SWAP1 REVERT JUMPDEST PUSH1 0x40 MLOAD DUP1 PUSH1 0x40 ADD PUSH1 0x40 MSTORE DUP1 DUP5 PUSH20 0xFFFFFFFFFFFFFFFFFFFFFFFFFFFFFFFFFFFFFFFF AND DUP2 MSTORE PUSH1 0x20 ADD DUP4 PUSH12 0xFFFFFFFFFFFFFFFFFFFFFFFF AND DUP2 MSTORE POP PUSH1 0x9 PUSH1 0x0 DUP3 ADD MLOAD DUP2 PUSH1 0x0 ADD PUSH1 0x0 PUSH2 0x100 EXP DUP2 SLOAD DUP2 PUSH20 0xFFFFFFFFFFFFFFFFFFFFFFFFFFFFFFFFFFFFFFFF MUL NOT AND SWAP1 DUP4 PUSH20 0xFFFFFFFFFFFFFFFFFFFFFFFFFFFFFFFFFFFFFFFF AND MUL OR SWAP1 SSTORE POP PUSH1 0x20 DUP3 ADD MLOAD DUP2 PUSH1 0x0 ADD PUSH1 0x14 PUSH2 0x100 EXP DUP2 SLOAD DUP2 PUSH12 0xFFFFFFFFFFFFFFFFFFFFFFFF MUL NOT AND SWAP1 DUP4 PUSH12 0xFFFFFFFFFFFFFFFFFFFFFFFF AND MUL OR SWAP1 SSTORE POP SWAP1 POP POP POP POP POP JUMP JUMPDEST PUSH3 0x668 DUP3 DUP3 PUSH1 0x40 MLOAD DUP1 PUSH1 0x20 ADD PUSH1 0x40 MSTORE DUP1 PUSH1 0x0 DUP2 MSTORE POP PUSH3 0x676 PUSH1 0x20 SHL PUSH1 0x20 SHR JUMP JUMPDEST POP POP JUMP JUMPDEST PUSH1 0x0 PUSH2 0x2710 SWAP1 POP SWAP1 JUMP JUMPDEST PUSH3 0x688 DUP4 DUP4 PUSH3 0x70E PUSH1 0x20 SHL PUSH1 0x20 SHR JUMP JUMPDEST PUSH1 0x0 DUP4 PUSH20 0xFFFFFFFFFFFFFFFFFFFFFFFFFFFFFFFFFFFFFFFF AND EXTCODESIZE EQ PUSH3 0x709 JUMPI PUSH1 0x0 DUP1 SLOAD SWAP1 POP PUSH1 0x0 DUP4 DUP3 SUB SWAP1 POP JUMPDEST PUSH3 0x6D1 PUSH1 0x0 DUP7 DUP4 DUP1 PUSH1 0x1 ADD SWAP5 POP DUP7 PUSH3 0x8E0 PUSH1 0x20 SHL PUSH1 0x20 SHR JUMP JUMPDEST PUSH3 0x6EF JUMPI PUSH3 0x6EE PUSH4 0xD1A57ED6 PUSH1 0xE0 SHL PUSH3 0x3C6 PUSH1 0x20 SHL PUSH1 0x20 SHR JUMP JUMPDEST JUMPDEST DUP2 DUP2 LT PUSH3 0x6B6 JUMPI DUP2 PUSH1 0x0 SLOAD EQ PUSH3 0x706 JUMPI PUSH1 0x0 DUP1 REVERT JUMPDEST POP POP JUMPDEST POP POP POP JUMP JUMPDEST PUSH1 0x0 DUP1 SLOAD SWAP1 POP PUSH1 0x0 DUP3 SUB PUSH3 0x736 JUMPI PUSH3 0x735 PUSH4 0xB562E8DD PUSH1 0xE0 SHL PUSH3 0x3C6 PUSH1 0x20 SHL PUSH1 0x20 SHR JUMP JUMPDEST JUMPDEST PUSH3 0x74B PUSH1 0x0 DUP5 DUP4 DUP6 PUSH3 0xA28 PUSH1 0x20 SHL PUSH1 0x20 SHR JUMP JUMPDEST PUSH3 0x783 DUP4 PUSH3 0x765 PUSH1 0x0 DUP7 PUSH1 0x0 PUSH3 0xA2E PUSH1 0x20 SHL PUSH1 0x20 SHR JUMP JUMPDEST PUSH3 0x776 DUP6 PUSH3 0xA5E PUSH1 0x20 SHL PUSH1 0x20 SHR JUMP JUMPDEST OR PUSH3 0xA6E PUSH1 0x20 SHL PUSH1 0x20 SHR JUMP JUMPDEST PUSH1 0x4 PUSH1 0x0 DUP4 DUP2 MSTORE PUSH1 0x20 ADD SWAP1 DUP2 MSTORE PUSH1 0x20 ADD PUSH1 0x0 KECCAK256 DUP2 SWAP1 SSTORE POP PUSH1 0x1 PUSH1 0x40 PUSH1 0x1 SWAP1 SHL OR DUP3 MUL PUSH1 0x5 PUSH1 0x0 DUP6 PUSH20 0xFFFFFFFFFFFFFFFFFFFFFFFFFFFFFFFFFFFFFFFF AND PUSH20 0xFFFFFFFFFFFFFFFFFFFFFFFFFFFFFFFFFFFFFFFF AND DUP2 MSTORE PUSH1 0x20 ADD SWAP1 DUP2 MSTORE PUSH1 0x20 ADD PUSH1 0x0 KECCAK256 PUSH1 0x0 DUP3 DUP3 SLOAD ADD SWAP3 POP POP DUP2 SWAP1 SSTORE POP PUSH1 0x0 PUSH20 0xFFFFFFFFFFFFFFFFFFFFFFFFFFFFFFFFFFFFFFFF DUP5 PUSH20 0xFFFFFFFFFFFFFFFFFFFFFFFFFFFFFFFFFFFFFFFF AND AND SWAP1 POP PUSH1 0x0 DUP2 SUB PUSH3 0x844 JUMPI PUSH3 0x843 PUSH4 0x2E076300 PUSH1 0xE0 SHL PUSH3 0x3C6 PUSH1 0x20 SHL PUSH1 0x20 SHR JUMP JUMPDEST JUMPDEST PUSH1 0x0 DUP4 DUP4 ADD SWAP1 POP PUSH1 0x0 DUP4 SWAP1 POP PUSH3 0x860 PUSH3 0x39E PUSH1 0x20 SHL PUSH1 0x20 SHR JUMP JUMPDEST PUSH1 0x1 DUP4 SUB GT ISZERO PUSH3 0x884 JUMPI PUSH3 0x883 PUSH4 0x81647E3A PUSH1 0xE0 SHL PUSH3 0x3C6 PUSH1 0x20 SHL PUSH1 0x20 SHR JUMP JUMPDEST JUMPDEST JUMPDEST DUP1 DUP4 PUSH1 0x0 PUSH32 0xDDF252AD1BE2C89B69C2B068FC378DAA952BA7F163C4A11628F55A4DF523B3EF PUSH1 0x0 DUP1 LOG4 DUP2 DUP2 PUSH1 0x1 ADD SWAP2 POP DUP2 SUB PUSH3 0x885 JUMPI DUP2 PUSH1 0x0 DUP2 SWAP1 SSTORE POP POP POP POP PUSH3 0x8DB PUSH1 0x0 DUP5 DUP4 DUP6 PUSH3 0xA99 PUSH1 0x20 SHL PUSH1 0x20 SHR JUMP JUMPDEST POP POP POP JUMP JUMPDEST PUSH1 0x0 DUP4 PUSH20 0xFFFFFFFFFFFFFFFFFFFFFFFFFFFFFFFFFFFFFFFF AND PUSH4 0x150B7A02 PUSH3 0x90E PUSH3 0xA9F PUSH1 0x20 SHL PUSH1 0x20 SHR JUMP JUMPDEST DUP8 DUP7 DUP7 PUSH1 0x40 MLOAD DUP6 PUSH4 0xFFFFFFFF AND PUSH1 0xE0 SHL DUP2 MSTORE PUSH1 0x4 ADD PUSH3 0x932 SWAP5 SWAP4 SWAP3 SWAP2 SWAP1 PUSH3 0x13BB JUMP JUMPDEST PUSH1 0x20 PUSH1 0x40 MLOAD DUP1 DUP4 SUB DUP2 PUSH1 0x0 DUP8 GAS CALL SWAP3 POP POP POP DUP1 ISZERO PUSH3 0x971 JUMPI POP PUSH1 0x40 MLOAD RETURNDATASIZE PUSH1 0x1F NOT PUSH1 0x1F DUP3 ADD AND DUP3 ADD DUP1 PUSH1 0x40 MSTORE POP DUP2 ADD SWAP1 PUSH3 0x96E SWAP2 SWAP1 PUSH3 0x146C JUMP JUMPDEST PUSH1 0x1 JUMPDEST PUSH3 0x9D5 JUMPI RETURNDATASIZE DUP1 PUSH1 0x0 DUP2 EQ PUSH3 0x9A4 JUMPI PUSH1 0x40 MLOAD SWAP2 POP PUSH1 0x1F NOT PUSH1 0x3F RETURNDATASIZE ADD AND DUP3 ADD PUSH1 0x40 MSTORE RETURNDATASIZE DUP3 MSTORE RETURNDATASIZE PUSH1 0x0 PUSH1 0x20 DUP5 ADD RETURNDATACOPY PUSH3 0x9A9 JUMP JUMPDEST PUSH1 0x60 SWAP2 POP JUMPDEST POP PUSH1 0x0 DUP2 MLOAD SUB PUSH3 0x9CD JUMPI PUSH3 0x9CC PUSH4 0xD1A57ED6 PUSH1 0xE0 SHL PUSH3 0x3C6 PUSH1 0x20 SHL PUSH1 0x20 SHR JUMP JUMPDEST JUMPDEST DUP1 MLOAD DUP2 PUSH1 0x20 ADD REVERT JUMPDEST PUSH4 0x150B7A02 PUSH1 0xE0 SHL PUSH28 0xFFFFFFFFFFFFFFFFFFFFFFFFFFFFFFFFFFFFFFFFFFFFFFFFFFFFFFFF NOT AND DUP2 PUSH28 0xFFFFFFFFFFFFFFFFFFFFFFFFFFFFFFFFFFFFFFFFFFFFFFFFFFFFFFFF NOT AND EQ SWAP2 POP POP SWAP5 SWAP4 POP POP POP POP JUMP JUMPDEST POP POP POP POP JUMP JUMPDEST PUSH1 0x0 DUP1 PUSH1 0xE8 DUP4 SWAP1 SHR SWAP1 POP PUSH1 0xE8 PUSH3 0xA4D DUP7 DUP7 DUP5 PUSH3 0xAA7 PUSH1 0x20 SHL PUSH1 0x20 SHR JUMP JUMPDEST PUSH3 0xFFFFFF AND SWAP1 SHL SWAP2 POP POP SWAP4 SWAP3 POP POP POP JUMP JUMPDEST PUSH1 0x0 PUSH1 0x1 DUP3 EQ PUSH1 0xE1 SHL SWAP1 POP SWAP2 SWAP1 POP JUMP JUMPDEST PUSH1 0x0 PUSH20 0xFFFFFFFFFFFFFFFFFFFFFFFFFFFFFFFFFFFFFFFF DUP4 AND SWAP3 POP DUP2 TIMESTAMP PUSH1 0xA0 SHL OR DUP4 OR SWAP1 POP SWAP3 SWAP2 POP POP JUMP JUMPDEST POP POP POP POP JUMP JUMPDEST PUSH1 0x0 CALLER SWAP1 POP SWAP1 JUMP JUMPDEST PUSH1 0x0 SWAP4 SWAP3 POP POP POP JUMP JUMPDEST PUSH1 0x0 PUSH1 0x40 MLOAD SWAP1 POP SWAP1 JUMP JUMPDEST PUSH1 0x0 DUP1 REVERT JUMPDEST PUSH1 0x0 DUP1 REVERT JUMPDEST PUSH1 0x0 DUP2 SWAP1 POP SWAP2 SWAP1 POP JUMP JUMPDEST PUSH3 0xAD9 DUP2 PUSH3 0xAC4 JUMP JUMPDEST DUP2 EQ PUSH3 0xAE5 JUMPI PUSH1 0x0 DUP1 REVERT JUMPDEST POP JUMP JUMPDEST PUSH1 0x0 DUP2 MLOAD SWAP1 POP PUSH3 0xAF9 DUP2 PUSH3 0xACE JUMP JUMPDEST SWAP3 SWAP2 POP POP JUMP JUMPDEST PUSH1 0x0 DUP1 REVERT JUMPDEST PUSH1 0x0 PUSH1 0x1F NOT PUSH1 0x1F DUP4 ADD AND SWAP1 POP SWAP2 SWAP1 POP JUMP JUMPDEST PUSH32 0x4E487B7100000000000000000000000000000000000000000000000000000000 PUSH1 0x0 MSTORE PUSH1 0x41 PUSH1 0x4 MSTORE PUSH1 0x24 PUSH1 0x0 REVERT JUMPDEST PUSH3 0xB4F DUP3 PUSH3 0xB04 JUMP JUMPDEST DUP2 ADD DUP2 DUP2 LT PUSH8 0xFFFFFFFFFFFFFFFF DUP3 GT OR ISZERO PUSH3 0xB71 JUMPI PUSH3 0xB70 PUSH3 0xB15 JUMP JUMPDEST JUMPDEST DUP1 PUSH1 0x40 MSTORE POP POP POP JUMP JUMPDEST PUSH1 0x0 PUSH3 0xB86 PUSH3 0xAB0 JUMP JUMPDEST SWAP1 POP PUSH3 0xB94 DUP3 DUP3 PUSH3 0xB44 JUMP JUMPDEST SWAP2 SWAP1 POP JUMP JUMPDEST PUSH1 0x0 PUSH8 0xFFFFFFFFFFFFFFFF DUP3 GT ISZERO PUSH3 0xBB7 JUMPI PUSH3 0xBB6 PUSH3 0xB15 JUMP JUMPDEST JUMPDEST PUSH1 0x20 DUP3 MUL SWAP1 POP PUSH1 0x20 DUP2 ADD SWAP1 POP SWAP2 SWAP1 POP JUMP JUMPDEST PUSH1 0x0 DUP1 REVERT JUMPDEST PUSH1 0x0 PUSH20 0xFFFFFFFFFFFFFFFFFFFFFFFFFFFFFFFFFFFFFFFF DUP3 AND SWAP1 POP SWAP2 SWAP1 POP JUMP JUMPDEST PUSH1 0x0 PUSH3 0xBFA DUP3 PUSH3 0xBCD JUMP JUMPDEST SWAP1 POP SWAP2 SWAP1 POP JUMP JUMPDEST PUSH3 0xC0C DUP2 PUSH3 0xBED JUMP JUMPDEST DUP2 EQ PUSH3 0xC18 JUMPI PUSH1 0x0 DUP1 REVERT JUMPDEST POP JUMP JUMPDEST PUSH1 0x0 DUP2 MLOAD SWAP1 POP PUSH3 0xC2C DUP2 PUSH3 0xC01 JUMP JUMPDEST SWAP3 SWAP2 POP POP JUMP JUMPDEST PUSH1 0x0 PUSH3 0xC49 PUSH3 0xC43 DUP5 PUSH3 0xB99 JUMP JUMPDEST PUSH3 0xB7A JUMP JUMPDEST SWAP1 POP DUP1 DUP4 DUP3 MSTORE PUSH1 0x20 DUP3 ADD SWAP1 POP PUSH1 0x20 DUP5 MUL DUP4 ADD DUP6 DUP2 GT ISZERO PUSH3 0xC6F JUMPI PUSH3 0xC6E PUSH3 0xBC8 JUMP JUMPDEST JUMPDEST DUP4 JUMPDEST DUP2 DUP2 LT ISZERO PUSH3 0xC9C JUMPI DUP1 PUSH3 0xC87 DUP9 DUP3 PUSH3 0xC1B JUMP JUMPDEST DUP5 MSTORE PUSH1 0x20 DUP5 ADD SWAP4 POP POP PUSH1 0x20 DUP2 ADD SWAP1 POP PUSH3 0xC71 JUMP JUMPDEST POP POP POP SWAP4 SWAP3 POP POP POP JUMP JUMPDEST PUSH1 0x0 DUP3 PUSH1 0x1F DUP4 ADD SLT PUSH3 0xCBE JUMPI PUSH3 0xCBD PUSH3 0xAFF JUMP JUMPDEST JUMPDEST DUP2 MLOAD PUSH3 0xCD0 DUP5 DUP3 PUSH1 0x20 DUP7 ADD PUSH3 0xC32 JUMP JUMPDEST SWAP2 POP POP SWAP3 SWAP2 POP POP JUMP JUMPDEST PUSH1 0x0 DUP1 REVERT JUMPDEST PUSH1 0x0 PUSH8 0xFFFFFFFFFFFFFFFF DUP3 GT ISZERO PUSH3 0xCFC JUMPI PUSH3 0xCFB PUSH3 0xB15 JUMP JUMPDEST JUMPDEST PUSH3 0xD07 DUP3 PUSH3 0xB04 JUMP JUMPDEST SWAP1 POP PUSH1 0x20 DUP2 ADD SWAP1 POP SWAP2 SWAP1 POP JUMP JUMPDEST PUSH1 0x0 JUMPDEST DUP4 DUP2 LT ISZERO PUSH3 0xD34 JUMPI DUP1 DUP3 ADD MLOAD DUP2 DUP5 ADD MSTORE PUSH1 0x20 DUP2 ADD SWAP1 POP PUSH3 0xD17 JUMP JUMPDEST PUSH1 0x0 DUP5 DUP5 ADD MSTORE POP POP POP POP JUMP JUMPDEST PUSH1 0x0 PUSH3 0xD57 PUSH3 0xD51 DUP5 PUSH3 0xCDE JUMP JUMPDEST PUSH3 0xB7A JUMP JUMPDEST SWAP1 POP DUP3 DUP2 MSTORE PUSH1 0x20 DUP2 ADD DUP5 DUP5 DUP5 ADD GT ISZERO PUSH3 0xD76 JUMPI PUSH3 0xD75 PUSH3 0xCD9 JUMP JUMPDEST JUMPDEST PUSH3 0xD83 DUP5 DUP3 DUP6 PUSH3 0xD14 JUMP JUMPDEST POP SWAP4 SWAP3 POP POP POP JUMP JUMPDEST PUSH1 0x0 DUP3 PUSH1 0x1F DUP4 ADD SLT PUSH3 0xDA3 JUMPI PUSH3 0xDA2 PUSH3 0xAFF JUMP JUMPDEST JUMPDEST DUP2 MLOAD PUSH3 0xDB5 DUP5 DUP3 PUSH1 0x20 DUP7 ADD PUSH3 0xD40 JUMP JUMPDEST SWAP2 POP POP SWAP3 SWAP2 POP POP JUMP JUMPDEST PUSH1 0x0 DUP1 PUSH1 0x0 DUP1 PUSH1 0x0 DUP1 PUSH1 0x0 PUSH1 0xE0 DUP9 DUP11 SUB SLT ISZERO PUSH3 0xDE0 JUMPI PUSH3 0xDDF PUSH3 0xABA JUMP JUMPDEST JUMPDEST PUSH1 0x0 PUSH3 0xDF0 DUP11 DUP3 DUP12 ADD PUSH3 0xAE8 JUMP JUMPDEST SWAP8 POP POP PUSH1 0x20 PUSH3 0xE03 DUP11 DUP3 DUP12 ADD PUSH3 0xAE8 JUMP JUMPDEST SWAP7 POP POP PUSH1 0x40 PUSH3 0xE16 DUP11 DUP3 DUP12 ADD PUSH3 0xAE8 JUMP JUMPDEST SWAP6 POP POP PUSH1 0x60 DUP9 ADD MLOAD PUSH8 0xFFFFFFFFFFFFFFFF DUP2 GT ISZERO PUSH3 0xE3A JUMPI PUSH3 0xE39 PUSH3 0xABF JUMP JUMPDEST JUMPDEST PUSH3 0xE48 DUP11 DUP3 DUP12 ADD PUSH3 0xCA6 JUMP JUMPDEST SWAP5 POP POP PUSH1 0x80 DUP9 ADD MLOAD PUSH8 0xFFFFFFFFFFFFFFFF DUP2 GT ISZERO PUSH3 0xE6C JUMPI PUSH3 0xE6B PUSH3 0xABF JUMP JUMPDEST JUMPDEST PUSH3 0xE7A DUP11 DUP3 DUP12 ADD PUSH3 0xCA6 JUMP JUMPDEST SWAP4 POP POP PUSH1 0xA0 DUP9 ADD MLOAD PUSH8 0xFFFFFFFFFFFFFFFF DUP2 GT ISZERO PUSH3 0xE9E JUMPI PUSH3 0xE9D PUSH3 0xABF JUMP JUMPDEST JUMPDEST PUSH3 0xEAC DUP11 DUP3 DUP12 ADD PUSH3 0xD8B JUMP JUMPDEST SWAP3 POP POP PUSH1 0xC0 PUSH3 0xEBF DUP11 DUP3 DUP12 ADD PUSH3 0xC1B JUMP JUMPDEST SWAP2 POP POP SWAP3 SWAP6 SWAP9 SWAP2 SWAP5 SWAP8 POP SWAP3 SWAP6 POP JUMP JUMPDEST PUSH1 0x0 DUP2 MLOAD SWAP1 POP SWAP2 SWAP1 POP JUMP JUMPDEST PUSH32 0x4E487B7100000000000000000000000000000000000000000000000000000000 PUSH1 0x0 MSTORE PUSH1 0x22 PUSH1 0x4 MSTORE PUSH1 0x24 PUSH1 0x0 REVERT JUMPDEST PUSH1 0x0 PUSH1 0x2 DUP3 DIV SWAP1 POP PUSH1 0x1 DUP3 AND DUP1 PUSH3 0xF21 JUMPI PUSH1 0x7F DUP3 AND SWAP2 POP JUMPDEST PUSH1 0x20 DUP3 LT DUP2 SUB PUSH3 0xF37 JUMPI PUSH3 0xF36 PUSH3 0xED9 JUMP JUMPDEST JUMPDEST POP SWAP2 SWAP1 POP JUMP JUMPDEST PUSH1 0x0 DUP2 SWAP1 POP DUP2 PUSH1 0x0 MSTORE PUSH1 0x20 PUSH1 0x0 KECCAK256 SWAP1 POP SWAP2 SWAP1 POP JUMP JUMPDEST PUSH1 0x0 PUSH1 0x20 PUSH1 0x1F DUP4 ADD DIV SWAP1 POP SWAP2 SWAP1 POP JUMP JUMPDEST PUSH1 0x0 DUP3 DUP3 SHL SWAP1 POP SWAP3 SWAP2 POP POP JUMP JUMPDEST PUSH1 0x0 PUSH1 0x8 DUP4 MUL PUSH3 0xFA1 PUSH32 0xFFFFFFFFFFFFFFFFFFFFFFFFFFFFFFFFFFFFFFFFFFFFFFFFFFFFFFFFFFFFFFFF DUP3 PUSH3 0xF62 JUMP JUMPDEST PUSH3 0xFAD DUP7 DUP4 PUSH3 0xF62 JUMP JUMPDEST SWAP6 POP DUP1 NOT DUP5 AND SWAP4 POP DUP1 DUP7 AND DUP5 OR SWAP3 POP POP POP SWAP4 SWAP3 POP POP POP JUMP JUMPDEST PUSH1 0x0 DUP2 SWAP1 POP SWAP2 SWAP1 POP JUMP JUMPDEST PUSH1 0x0 PUSH3 0xFF0 PUSH3 0xFEA PUSH3 0xFE4 DUP5 PUSH3 0xAC4 JUMP JUMPDEST PUSH3 0xFC5 JUMP JUMPDEST PUSH3 0xAC4 JUMP JUMPDEST SWAP1 POP SWAP2 SWAP1 POP JUMP JUMPDEST PUSH1 0x0 DUP2 SWAP1 POP SWAP2 SWAP1 POP JUMP JUMPDEST PUSH3 0x100C DUP4 PUSH3 0xFCF JUMP JUMPDEST PUSH3 0x1024 PUSH3 0x101B DUP3 PUSH3 0xFF7 JUMP JUMPDEST DUP5 DUP5 SLOAD PUSH3 0xF6F JUMP JUMPDEST DUP3 SSTORE POP POP POP POP JUMP JUMPDEST PUSH1 0x0 SWAP1 JUMP JUMPDEST PUSH3 0x103B PUSH3 0x102C JUMP JUMPDEST PUSH3 0x1048 DUP2 DUP5 DUP5 PUSH3 0x1001 JUMP JUMPDEST POP POP POP JUMP JUMPDEST JUMPDEST DUP2 DUP2 LT ISZERO PUSH3 0x1070 JUMPI PUSH3 0x1064 PUSH1 0x0 DUP3 PUSH3 0x1031 JUMP JUMPDEST PUSH1 0x1 DUP2 ADD SWAP1 POP PUSH3 0x104E JUMP JUMPDEST POP POP JUMP JUMPDEST PUSH1 0x1F DUP3 GT ISZERO PUSH3 0x10BF JUMPI PUSH3 0x1089 DUP2 PUSH3 0xF3D JUMP JUMPDEST PUSH3 0x1094 DUP5 PUSH3 0xF52 JUMP JUMPDEST DUP2 ADD PUSH1 0x20 DUP6 LT ISZERO PUSH3 0x10A4 JUMPI DUP2 SWAP1 POP JUMPDEST PUSH3 0x10BC PUSH3 0x10B3 DUP6 PUSH3 0xF52 JUMP JUMPDEST DUP4 ADD DUP3 PUSH3 0x104D JUMP JUMPDEST POP POP JUMPDEST POP POP POP JUMP JUMPDEST PUSH1 0x0 DUP3 DUP3 SHR SWAP1 POP SWAP3 SWAP2 POP POP JUMP JUMPDEST PUSH1 0x0 PUSH3 0x10E4 PUSH1 0x0 NOT DUP5 PUSH1 0x8 MUL PUSH3 0x10C4 JUMP JUMPDEST NOT DUP1 DUP4 AND SWAP2 POP POP SWAP3 SWAP2 POP POP JUMP JUMPDEST PUSH1 0x0 PUSH3 0x10FF DUP4 DUP4 PUSH3 0x10D1 JUMP JUMPDEST SWAP2 POP DUP3 PUSH1 0x2 MUL DUP3 OR SWAP1 POP SWAP3 SWAP2 POP POP JUMP JUMPDEST PUSH3 0x111A DUP3 PUSH3 0xECE JUMP JUMPDEST PUSH8 0xFFFFFFFFFFFFFFFF DUP2 GT ISZERO PUSH3 0x1136 JUMPI PUSH3 0x1135 PUSH3 0xB15 JUMP JUMPDEST JUMPDEST PUSH3 0x1142 DUP3 SLOAD PUSH3 0xF08 JUMP JUMPDEST PUSH3 0x114F DUP3 DUP3 DUP6 PUSH3 0x1074 JUMP JUMPDEST PUSH1 0x0 PUSH1 0x20 SWAP1 POP PUSH1 0x1F DUP4 GT PUSH1 0x1 DUP2 EQ PUSH3 0x1187 JUMPI PUSH1 0x0 DUP5 ISZERO PUSH3 0x1172 JUMPI DUP3 DUP8 ADD MLOAD SWAP1 POP JUMPDEST PUSH3 0x117E DUP6 DUP3 PUSH3 0x10F1 JUMP JUMPDEST DUP7 SSTORE POP PUSH3 0x11EE JUMP JUMPDEST PUSH1 0x1F NOT DUP5 AND PUSH3 0x1197 DUP7 PUSH3 0xF3D JUMP JUMPDEST PUSH1 0x0 JUMPDEST DUP3 DUP2 LT ISZERO PUSH3 0x11C1 JUMPI DUP5 DUP10 ADD MLOAD DUP3 SSTORE PUSH1 0x1 DUP3 ADD SWAP2 POP PUSH1 0x20 DUP6 ADD SWAP5 POP PUSH1 0x20 DUP2 ADD SWAP1 POP PUSH3 0x119A JUMP JUMPDEST DUP7 DUP4 LT ISZERO PUSH3 0x11E1 JUMPI DUP5 DUP10 ADD MLOAD PUSH3 0x11DD PUSH1 0x1F DUP10 AND DUP3 PUSH3 0x10D1 JUMP JUMPDEST DUP4 SSTORE POP JUMPDEST PUSH1 0x1 PUSH1 0x2 DUP9 MUL ADD DUP9 SSTORE POP POP POP JUMPDEST POP POP POP POP POP POP JUMP JUMPDEST PUSH3 0x1201 DUP2 PUSH3 0xBED JUMP JUMPDEST DUP3 MSTORE POP POP JUMP JUMPDEST PUSH1 0x0 PUSH1 0x20 DUP3 ADD SWAP1 POP PUSH3 0x121E PUSH1 0x0 DUP4 ADD DUP5 PUSH3 0x11F6 JUMP JUMPDEST SWAP3 SWAP2 POP POP JUMP JUMPDEST PUSH32 0x4E487B7100000000000000000000000000000000000000000000000000000000 PUSH1 0x0 MSTORE PUSH1 0x32 PUSH1 0x4 MSTORE PUSH1 0x24 PUSH1 0x0 REVERT JUMPDEST PUSH32 0x4E487B7100000000000000000000000000000000000000000000000000000000 PUSH1 0x0 MSTORE PUSH1 0x11 PUSH1 0x4 MSTORE PUSH1 0x24 PUSH1 0x0 REVERT JUMPDEST PUSH1 0x0 PUSH3 0x128F DUP3 PUSH3 0xAC4 JUMP JUMPDEST SWAP2 POP PUSH32 0xFFFFFFFFFFFFFFFFFFFFFFFFFFFFFFFFFFFFFFFFFFFFFFFFFFFFFFFFFFFFFFFF DUP3 SUB PUSH3 0x12C4 JUMPI PUSH3 0x12C3 PUSH3 0x1253 JUMP JUMPDEST JUMPDEST PUSH1 0x1 DUP3 ADD SWAP1 POP SWAP2 SWAP1 POP JUMP JUMPDEST PUSH1 0x0 PUSH12 0xFFFFFFFFFFFFFFFFFFFFFFFF DUP3 AND SWAP1 POP SWAP2 SWAP1 POP JUMP JUMPDEST PUSH1 0x0 PUSH3 0x1308 PUSH3 0x1302 PUSH3 0x12FC DUP5 PUSH3 0x12CF JUMP JUMPDEST PUSH3 0xFC5 JUMP JUMPDEST PUSH3 0xAC4 JUMP JUMPDEST SWAP1 POP SWAP2 SWAP1 POP JUMP JUMPDEST PUSH3 0x131A DUP2 PUSH3 0x12E7 JUMP JUMPDEST DUP3 MSTORE POP POP JUMP JUMPDEST PUSH3 0x132B DUP2 PUSH3 0xAC4 JUMP JUMPDEST DUP3 MSTORE POP POP JUMP JUMPDEST PUSH1 0x0 PUSH1 0x40 DUP3 ADD SWAP1 POP PUSH3 0x1348 PUSH1 0x0 DUP4 ADD DUP6 PUSH3 0x130F JUMP JUMPDEST PUSH3 0x1357 PUSH1 0x20 DUP4 ADD DUP5 PUSH3 0x1320 JUMP JUMPDEST SWAP4 SWAP3 POP POP POP JUMP JUMPDEST PUSH1 0x0 DUP2 MLOAD SWAP1 POP SWAP2 SWAP1 POP JUMP JUMPDEST PUSH1 0x0 DUP3 DUP3 MSTORE PUSH1 0x20 DUP3 ADD SWAP1 POP SWAP3 SWAP2 POP POP JUMP JUMPDEST PUSH1 0x0 PUSH3 0x1387 DUP3 PUSH3 0x135E JUMP JUMPDEST PUSH3 0x1393 DUP2 DUP6 PUSH3 0x1369 JUMP JUMPDEST SWAP4 POP PUSH3 0x13A5 DUP2 DUP6 PUSH1 0x20 DUP7 ADD PUSH3 0xD14 JUMP JUMPDEST PUSH3 0x13B0 DUP2 PUSH3 0xB04 JUMP JUMPDEST DUP5 ADD SWAP2 POP POP SWAP3 SWAP2 POP POP JUMP JUMPDEST PUSH1 0x0 PUSH1 0x80 DUP3 ADD SWAP1 POP PUSH3 0x13D2 PUSH1 0x0 DUP4 ADD DUP8 PUSH3 0x11F6 JUMP JUMPDEST PUSH3 0x13E1 PUSH1 0x20 DUP4 ADD DUP7 PUSH3 0x11F6 JUMP JUMPDEST PUSH3 0x13F0 PUSH1 0x40 DUP4 ADD DUP6 PUSH3 0x1320 JUMP JUMPDEST DUP2 DUP2 SUB PUSH1 0x60 DUP4 ADD MSTORE PUSH3 0x1404 DUP2 DUP5 PUSH3 0x137A JUMP JUMPDEST SWAP1 POP SWAP6 SWAP5 POP POP POP POP POP JUMP JUMPDEST PUSH1 0x0 PUSH32 0xFFFFFFFF00000000000000000000000000000000000000000000000000000000 DUP3 AND SWAP1 POP SWAP2 SWAP1 POP JUMP JUMPDEST PUSH3 0x1446 DUP2 PUSH3 0x140F JUMP JUMPDEST DUP2 EQ PUSH3 0x1452 JUMPI PUSH1 0x0 DUP1 REVERT JUMPDEST POP JUMP JUMPDEST PUSH1 0x0 DUP2 MLOAD SWAP1 POP PUSH3 0x1466 DUP2 PUSH3 0x143B JUMP JUMPDEST SWAP3 SWAP2 POP POP JUMP JUMPDEST PUSH1 0x0 PUSH1 0x20 DUP3 DUP5 SUB SLT ISZERO PUSH3 0x1485 JUMPI PUSH3 0x1484 PUSH3 0xABA JUMP JUMPDEST JUMPDEST PUSH1 0x0 PUSH3 0x1495 DUP5 DUP3 DUP6 ADD PUSH3 0x1455 JUMP JUMPDEST SWAP2 POP POP SWAP3 SWAP2 POP POP JUMP JUMPDEST PUSH2 0x495D DUP1 PUSH3 0x14AE PUSH1 0x0 CODECOPY PUSH1 0x0 RETURN INVALID PUSH1 0x80 PUSH1 0x40 MSTORE PUSH1 0x4 CALLDATASIZE LT PUSH2 0x281 JUMPI PUSH1 0x0 CALLDATALOAD PUSH1 0xE0 SHR DUP1 PUSH4 0x82CF3CE2 GT PUSH2 0x14F JUMPI DUP1 PUSH4 0xBE9FEB30 GT PUSH2 0xC1 JUMPI DUP1 PUSH4 0xDC53FD92 GT PUSH2 0x7A JUMPI DUP1 PUSH4 0xDC53FD92 EQ PUSH2 0x9BC JUMPI DUP1 PUSH4 0xE66DB9D3 EQ PUSH2 0x9E7 JUMPI DUP1 PUSH4 0xE985E9C5 EQ PUSH2 0x9F1 JUMPI DUP1 PUSH4 0xE9AB77E5 EQ PUSH2 0xA2E JUMPI DUP1 PUSH4 0xF2FDE38B EQ PUSH2 0xA5C JUMPI DUP1 PUSH4 0xFF6FE345 EQ PUSH2 0xA85 JUMPI PUSH2 0x2F0 JUMP JUMPDEST DUP1 PUSH4 0xBE9FEB30 EQ PUSH2 0x8CB JUMPI DUP1 PUSH4 0xC1C5D839 EQ PUSH2 0x8F6 JUMPI DUP1 PUSH4 0xC87B56DD EQ PUSH2 0x91F JUMPI DUP1 PUSH4 0xC989D075 EQ PUSH2 0x95C JUMPI DUP1 PUSH4 0xCECD6700 EQ PUSH2 0x987 JUMPI DUP1 PUSH4 0xD5ABEB01 EQ PUSH2 0x991 JUMPI PUSH2 0x2F0 JUMP JUMPDEST DUP1 PUSH4 0x8F704AEC GT PUSH2 0x113 JUMPI DUP1 PUSH4 0x8F704AEC EQ PUSH2 0x7CA JUMPI DUP1 PUSH4 0x95D89B41 EQ PUSH2 0x7F3 JUMPI DUP1 PUSH4 0x9FBC8713 EQ PUSH2 0x81E JUMPI DUP1 PUSH4 0xA22CB465 EQ PUSH2 0x849 JUMPI DUP1 PUSH4 0xA490A56E EQ PUSH2 0x872 JUMPI DUP1 PUSH4 0xB88D4FDE EQ PUSH2 0x8AF JUMPI PUSH2 0x2F0 JUMP JUMPDEST DUP1 PUSH4 0x82CF3CE2 EQ PUSH2 0x706 JUMPI DUP1 PUSH4 0x8C874EBD EQ PUSH2 0x743 JUMPI DUP1 PUSH4 0x8DA5CB5B EQ PUSH2 0x74D JUMPI DUP1 PUSH4 0x8DC251E3 EQ PUSH2 0x778 JUMPI DUP1 PUSH4 0x8F2FC60B EQ PUSH2 0x7A1 JUMPI PUSH2 0x2F0 JUMP JUMPDEST DUP1 PUSH4 0x42842E0E GT PUSH2 0x1F3 JUMPI DUP1 PUSH4 0x6352211E GT PUSH2 0x1AC JUMPI DUP1 PUSH4 0x6352211E EQ PUSH2 0x5F8 JUMPI DUP1 PUSH4 0x63DA6964 EQ PUSH2 0x635 JUMPI DUP1 PUSH4 0x6C0360EB EQ PUSH2 0x65E JUMPI DUP1 PUSH4 0x6FB081A4 EQ PUSH2 0x689 JUMPI DUP1 PUSH4 0x70A08231 EQ PUSH2 0x6B2 JUMPI DUP1 PUSH4 0x715018A6 EQ PUSH2 0x6EF JUMPI PUSH2 0x2F0 JUMP JUMPDEST DUP1 PUSH4 0x42842E0E EQ PUSH2 0x4E5 JUMPI DUP1 PUSH4 0x43FB1EF4 EQ PUSH2 0x501 JUMPI DUP1 PUSH4 0x55F804B3 EQ PUSH2 0x52A JUMPI DUP1 PUSH4 0x56070E79 EQ PUSH2 0x553 JUMPI DUP1 PUSH4 0x5FD1BBC4 EQ PUSH2 0x590 JUMPI DUP1 PUSH4 0x612E9314 EQ PUSH2 0x5BB JUMPI PUSH2 0x2F0 JUMP JUMPDEST DUP1 PUSH4 0x1CFACEC4 GT PUSH2 0x245 JUMPI DUP1 PUSH4 0x1CFACEC4 EQ PUSH2 0x3E1 JUMPI DUP1 PUSH4 0x23B872DD EQ PUSH2 0x40C JUMPI DUP1 PUSH4 0x2A55205A EQ PUSH2 0x428 JUMPI DUP1 PUSH4 0x2C4E9FC6 EQ PUSH2 0x466 JUMPI DUP1 PUSH4 0x3CCFD60B EQ PUSH2 0x491 JUMPI DUP1 PUSH4 0x3F5AEF12 EQ PUSH2 0x4A8 JUMPI PUSH2 0x2F0 JUMP JUMPDEST DUP1 PUSH4 0x1FFC9A7 EQ PUSH2 0x2F5 JUMPI DUP1 PUSH4 0x6FDDE03 EQ PUSH2 0x332 JUMPI DUP1 PUSH4 0x81812FC EQ PUSH2 0x35D JUMPI DUP1 PUSH4 0x95EA7B3 EQ PUSH2 0x39A JUMPI DUP1 PUSH4 0x18160DDD EQ PUSH2 0x3B6 JUMPI PUSH2 0x2F0 JUMP JUMPDEST CALLDATASIZE PUSH2 0x2F0 JUMPI PUSH1 0x19 PUSH1 0x0 SWAP1 SLOAD SWAP1 PUSH2 0x100 EXP SWAP1 DIV PUSH20 0xFFFFFFFFFFFFFFFFFFFFFFFFFFFFFFFFFFFFFFFF AND PUSH20 0xFFFFFFFFFFFFFFFFFFFFFFFFFFFFFFFFFFFFFFFF AND PUSH2 0x8FC CALLVALUE SWAP1 DUP2 ISZERO MUL SWAP1 PUSH1 0x40 MLOAD PUSH1 0x0 PUSH1 0x40 MLOAD DUP1 DUP4 SUB DUP2 DUP6 DUP9 DUP9 CALL SWAP4 POP POP POP POP ISZERO DUP1 ISZERO PUSH2 0x2EE JUMPI RETURNDATASIZE PUSH1 0x0 DUP1 RETURNDATACOPY RETURNDATASIZE PUSH1 0x0 REVERT JUMPDEST STOP JUMPDEST PUSH1 0x0 DUP1 REVERT JUMPDEST CALLVALUE DUP1 ISZERO PUSH2 0x301 JUMPI PUSH1 0x0 DUP1 REVERT JUMPDEST POP PUSH2 0x31C PUSH1 0x4 DUP1 CALLDATASIZE SUB DUP2 ADD SWAP1 PUSH2 0x317 SWAP2 SWAP1 PUSH2 0x30D5 JUMP JUMPDEST PUSH2 0xAAE JUMP JUMPDEST PUSH1 0x40 MLOAD PUSH2 0x329 SWAP2 SWAP1 PUSH2 0x311D JUMP JUMPDEST PUSH1 0x40 MLOAD DUP1 SWAP2 SUB SWAP1 RETURN JUMPDEST CALLVALUE DUP1 ISZERO PUSH2 0x33E JUMPI PUSH1 0x0 DUP1 REVERT JUMPDEST POP PUSH2 0x347 PUSH2 0xAC0 JUMP JUMPDEST PUSH1 0x40 MLOAD PUSH2 0x354 SWAP2 SWAP1 PUSH2 0x31C8 JUMP JUMPDEST PUSH1 0x40 MLOAD DUP1 SWAP2 SUB SWAP1 RETURN JUMPDEST CALLVALUE DUP1 ISZERO PUSH2 0x369 JUMPI PUSH1 0x0 DUP1 REVERT JUMPDEST POP PUSH2 0x384 PUSH1 0x4 DUP1 CALLDATASIZE SUB DUP2 ADD SWAP1 PUSH2 0x37F SWAP2 SWAP1 PUSH2 0x3220 JUMP JUMPDEST PUSH2 0xB52 JUMP JUMPDEST PUSH1 0x40 MLOAD PUSH2 0x391 SWAP2 SWAP1 PUSH2 0x328E JUMP JUMPDEST PUSH1 0x40 MLOAD DUP1 SWAP2 SUB SWAP1 RETURN JUMPDEST PUSH2 0x3B4 PUSH1 0x4 DUP1 CALLDATASIZE SUB DUP2 ADD SWAP1 PUSH2 0x3AF SWAP2 SWAP1 PUSH2 0x32D5 JUMP JUMPDEST PUSH2 0xBB0 JUMP JUMPDEST STOP JUMPDEST CALLVALUE DUP1 ISZERO PUSH2 0x3C2 JUMPI PUSH1 0x0 DUP1 REVERT JUMPDEST POP PUSH2 0x3CB PUSH2 0xBC0 JUMP JUMPDEST PUSH1 0x40 MLOAD PUSH2 0x3D8 SWAP2 SWAP1 PUSH2 0x3324 JUMP JUMPDEST PUSH1 0x40 MLOAD DUP1 SWAP2 SUB SWAP1 RETURN JUMPDEST CALLVALUE DUP1 ISZERO PUSH2 0x3ED JUMPI PUSH1 0x0 DUP1 REVERT JUMPDEST POP PUSH2 0x3F6 PUSH2 0xC0D JUMP JUMPDEST PUSH1 0x40 MLOAD PUSH2 0x403 SWAP2 SWAP1 PUSH2 0x3324 JUMP JUMPDEST PUSH1 0x40 MLOAD DUP1 SWAP2 SUB SWAP1 RETURN JUMPDEST PUSH2 0x426 PUSH1 0x4 DUP1 CALLDATASIZE SUB DUP2 ADD SWAP1 PUSH2 0x421 SWAP2 SWAP1 PUSH2 0x333F JUMP JUMPDEST PUSH2 0xC13 JUMP JUMPDEST STOP JUMPDEST CALLVALUE DUP1 ISZERO PUSH2 0x434 JUMPI PUSH1 0x0 DUP1 REVERT JUMPDEST POP PUSH2 0x44F PUSH1 0x4 DUP1 CALLDATASIZE SUB DUP2 ADD SWAP1 PUSH2 0x44A SWAP2 SWAP1 PUSH2 0x3392 JUMP JUMPDEST PUSH2 0xED4 JUMP JUMPDEST PUSH1 0x40 MLOAD PUSH2 0x45D SWAP3 SWAP2 SWAP1 PUSH2 0x33D2 JUMP JUMPDEST PUSH1 0x40 MLOAD DUP1 SWAP2 SUB SWAP1 RETURN JUMPDEST CALLVALUE DUP1 ISZERO PUSH2 0x472 JUMPI PUSH1 0x0 DUP1 REVERT JUMPDEST POP PUSH2 0x47B PUSH2 0x1004 JUMP JUMPDEST PUSH1 0x40 MLOAD PUSH2 0x488 SWAP2 SWAP1 PUSH2 0x3324 JUMP JUMPDEST PUSH1 0x40 MLOAD DUP1 SWAP2 SUB SWAP1 RETURN JUMPDEST CALLVALUE DUP1 ISZERO PUSH2 0x49D JUMPI PUSH1 0x0 DUP1 REVERT JUMPDEST POP PUSH2 0x4A6 PUSH2 0x100A JUMP JUMPDEST STOP JUMPDEST CALLVALUE DUP1 ISZERO PUSH2 0x4B4 JUMPI PUSH1 0x0 DUP1 REVERT JUMPDEST POP PUSH2 0x4CF PUSH1 0x4 DUP1 CALLDATASIZE SUB DUP2 ADD SWAP1 PUSH2 0x4CA SWAP2 SWAP1 PUSH2 0x33FB JUMP JUMPDEST PUSH2 0x1062 JUMP JUMPDEST PUSH1 0x40 MLOAD PUSH2 0x4DC SWAP2 SWAP1 PUSH2 0x311D JUMP JUMPDEST PUSH1 0x40 MLOAD DUP1 SWAP2 SUB SWAP1 RETURN JUMPDEST PUSH2 0x4FF PUSH1 0x4 DUP1 CALLDATASIZE SUB DUP2 ADD SWAP1 PUSH2 0x4FA SWAP2 SWAP1 PUSH2 0x333F JUMP JUMPDEST PUSH2 0x1082 JUMP JUMPDEST STOP JUMPDEST CALLVALUE DUP1 ISZERO PUSH2 0x50D JUMPI PUSH1 0x0 DUP1 REVERT JUMPDEST POP PUSH2 0x528 PUSH1 0x4 DUP1 CALLDATASIZE SUB DUP2 ADD SWAP1 PUSH2 0x523 SWAP2 SWAP1 PUSH2 0x3570 JUMP JUMPDEST PUSH2 0x10A2 JUMP JUMPDEST STOP JUMPDEST CALLVALUE DUP1 ISZERO PUSH2 0x536 JUMPI PUSH1 0x0 DUP1 REVERT JUMPDEST POP PUSH2 0x551 PUSH1 0x4 DUP1 CALLDATASIZE SUB DUP2 ADD SWAP1 PUSH2 0x54C SWAP2 SWAP1 PUSH2 0x366E JUMP JUMPDEST PUSH2 0x1176 JUMP JUMPDEST STOP JUMPDEST CALLVALUE DUP1 ISZERO PUSH2 0x55F JUMPI PUSH1 0x0 DUP1 REVERT JUMPDEST POP PUSH2 0x57A PUSH1 0x4 DUP1 CALLDATASIZE SUB DUP2 ADD SWAP1 PUSH2 0x575 SWAP2 SWAP1 PUSH2 0x33FB JUMP JUMPDEST PUSH2 0x11C8 JUMP JUMPDEST PUSH1 0x40 MLOAD PUSH2 0x587 SWAP2 SWAP1 PUSH2 0x311D JUMP JUMPDEST PUSH1 0x40 MLOAD DUP1 SWAP2 SUB SWAP1 RETURN JUMPDEST CALLVALUE DUP1 ISZERO PUSH2 0x59C JUMPI PUSH1 0x0 DUP1 REVERT JUMPDEST POP PUSH2 0x5A5 PUSH2 0x11E8 JUMP JUMPDEST PUSH1 0x40 MLOAD PUSH2 0x5B2 SWAP2 SWAP1 PUSH2 0x3324 JUMP JUMPDEST PUSH1 0x40 MLOAD DUP1 SWAP2 SUB SWAP1 RETURN JUMPDEST CALLVALUE DUP1 ISZERO PUSH2 0x5C7 JUMPI PUSH1 0x0 DUP1 REVERT JUMPDEST POP PUSH2 0x5E2 PUSH1 0x4 DUP1 CALLDATASIZE SUB DUP2 ADD SWAP1 PUSH2 0x5DD SWAP2 SWAP1 PUSH2 0x33FB JUMP JUMPDEST PUSH2 0x11EE JUMP JUMPDEST PUSH1 0x40 MLOAD PUSH2 0x5EF SWAP2 SWAP1 PUSH2 0x311D JUMP JUMPDEST PUSH1 0x40 MLOAD DUP1 SWAP2 SUB SWAP1 RETURN JUMPDEST CALLVALUE DUP1 ISZERO PUSH2 0x604 JUMPI PUSH1 0x0 DUP1 REVERT JUMPDEST POP PUSH2 0x61F PUSH1 0x4 DUP1 CALLDATASIZE SUB DUP2 ADD SWAP1 PUSH2 0x61A SWAP2 SWAP1 PUSH2 0x3220 JUMP JUMPDEST PUSH2 0x120E JUMP JUMPDEST PUSH1 0x40 MLOAD PUSH2 0x62C SWAP2 SWAP1 PUSH2 0x328E JUMP JUMPDEST PUSH1 0x40 MLOAD DUP1 SWAP2 SUB SWAP1 RETURN JUMPDEST CALLVALUE DUP1 ISZERO PUSH2 0x641 JUMPI PUSH1 0x0 DUP1 REVERT JUMPDEST POP PUSH2 0x65C PUSH1 0x4 DUP1 CALLDATASIZE SUB DUP2 ADD SWAP1 PUSH2 0x657 SWAP2 SWAP1 PUSH2 0x3570 JUMP JUMPDEST PUSH2 0x1220 JUMP JUMPDEST STOP JUMPDEST CALLVALUE DUP1 ISZERO PUSH2 0x66A JUMPI PUSH1 0x0 DUP1 REVERT JUMPDEST POP PUSH2 0x673 PUSH2 0x12BD JUMP JUMPDEST PUSH1 0x40 MLOAD PUSH2 0x680 SWAP2 SWAP1 PUSH2 0x31C8 JUMP JUMPDEST PUSH1 0x40 MLOAD DUP1 SWAP2 SUB SWAP1 RETURN JUMPDEST CALLVALUE DUP1 ISZERO PUSH2 0x695 JUMPI PUSH1 0x0 DUP1 REVERT JUMPDEST POP PUSH2 0x6B0 PUSH1 0x4 DUP1 CALLDATASIZE SUB DUP2 ADD SWAP1 PUSH2 0x6AB SWAP2 SWAP1 PUSH2 0x36B7 JUMP JUMPDEST PUSH2 0x134B JUMP JUMPDEST STOP JUMPDEST CALLVALUE DUP1 ISZERO PUSH2 0x6BE JUMPI PUSH1 0x0 DUP1 REVERT JUMPDEST POP PUSH2 0x6D9 PUSH1 0x4 DUP1 CALLDATASIZE SUB DUP2 ADD SWAP1 PUSH2 0x6D4 SWAP2 SWAP1 PUSH2 0x33FB JUMP JUMPDEST PUSH2 0x1412 JUMP JUMPDEST PUSH1 0x40 MLOAD PUSH2 0x6E6 SWAP2 SWAP1 PUSH2 0x3324 JUMP JUMPDEST PUSH1 0x40 MLOAD DUP1 SWAP2 SUB SWAP1 RETURN JUMPDEST CALLVALUE DUP1 ISZERO PUSH2 0x6FB JUMPI PUSH1 0x0 DUP1 REVERT JUMPDEST POP PUSH2 0x704 PUSH2 0x14A9 JUMP JUMPDEST STOP JUMPDEST CALLVALUE DUP1 ISZERO PUSH2 0x712 JUMPI PUSH1 0x0 DUP1 REVERT JUMPDEST POP PUSH2 0x72D PUSH1 0x4 DUP1 CALLDATASIZE SUB DUP2 ADD SWAP1 PUSH2 0x728 SWAP2 SWAP1 PUSH2 0x33FB JUMP JUMPDEST PUSH2 0x14BD JUMP JUMPDEST PUSH1 0x40 MLOAD PUSH2 0x73A SWAP2 SWAP1 PUSH2 0x311D JUMP JUMPDEST PUSH1 0x40 MLOAD DUP1 SWAP2 SUB SWAP1 RETURN JUMPDEST PUSH2 0x74B PUSH2 0x14DD JUMP JUMPDEST STOP JUMPDEST CALLVALUE DUP1 ISZERO PUSH2 0x759 JUMPI PUSH1 0x0 DUP1 REVERT JUMPDEST POP PUSH2 0x762 PUSH2 0x171A JUMP JUMPDEST PUSH1 0x40 MLOAD PUSH2 0x76F SWAP2 SWAP1 PUSH2 0x328E JUMP JUMPDEST PUSH1 0x40 MLOAD DUP1 SWAP2 SUB SWAP1 RETURN JUMPDEST CALLVALUE DUP1 ISZERO PUSH2 0x784 JUMPI PUSH1 0x0 DUP1 REVERT JUMPDEST POP PUSH2 0x79F PUSH1 0x4 DUP1 CALLDATASIZE SUB DUP2 ADD SWAP1 PUSH2 0x79A SWAP2 SWAP1 PUSH2 0x33FB JUMP JUMPDEST PUSH2 0x1744 JUMP JUMPDEST STOP JUMPDEST CALLVALUE DUP1 ISZERO PUSH2 0x7AD JUMPI PUSH1 0x0 DUP1 REVERT JUMPDEST POP PUSH2 0x7C8 PUSH1 0x4 DUP1 CALLDATASIZE SUB DUP2 ADD SWAP1 PUSH2 0x7C3 SWAP2 SWAP1 PUSH2 0x374E JUMP JUMPDEST PUSH2 0x1842 JUMP JUMPDEST STOP JUMPDEST CALLVALUE DUP1 ISZERO PUSH2 0x7D6 JUMPI PUSH1 0x0 DUP1 REVERT JUMPDEST POP PUSH2 0x7F1 PUSH1 0x4 DUP1 CALLDATASIZE SUB DUP2 ADD SWAP1 PUSH2 0x7EC SWAP2 SWAP1 PUSH2 0x36B7 JUMP JUMPDEST PUSH2 0x1858 JUMP JUMPDEST STOP JUMPDEST CALLVALUE DUP1 ISZERO PUSH2 0x7FF JUMPI PUSH1 0x0 DUP1 REVERT JUMPDEST POP PUSH2 0x808 PUSH2 0x1902 JUMP JUMPDEST PUSH1 0x40 MLOAD PUSH2 0x815 SWAP2 SWAP1 PUSH2 0x31C8 JUMP JUMPDEST PUSH1 0x40 MLOAD DUP1 SWAP2 SUB SWAP1 RETURN JUMPDEST CALLVALUE DUP1 ISZERO PUSH2 0x82A JUMPI PUSH1 0x0 DUP1 REVERT JUMPDEST POP PUSH2 0x833 PUSH2 0x1994 JUMP JUMPDEST PUSH1 0x40 MLOAD PUSH2 0x840 SWAP2 SWAP1 PUSH2 0x328E JUMP JUMPDEST PUSH1 0x40 MLOAD DUP1 SWAP2 SUB SWAP1 RETURN JUMPDEST CALLVALUE DUP1 ISZERO PUSH2 0x855 JUMPI PUSH1 0x0 DUP1 REVERT JUMPDEST POP PUSH2 0x870 PUSH1 0x4 DUP1 CALLDATASIZE SUB DUP2 ADD SWAP1 PUSH2 0x86B SWAP2 SWAP1 PUSH2 0x37BA JUMP JUMPDEST PUSH2 0x19BA JUMP JUMPDEST STOP JUMPDEST CALLVALUE DUP1 ISZERO PUSH2 0x87E JUMPI PUSH1 0x0 DUP1 REVERT JUMPDEST POP PUSH2 0x899 PUSH1 0x4 DUP1 CALLDATASIZE SUB DUP2 ADD SWAP1 PUSH2 0x894 SWAP2 SWAP1 PUSH2 0x33FB JUMP JUMPDEST PUSH2 0x1AC5 JUMP JUMPDEST PUSH1 0x40 MLOAD PUSH2 0x8A6 SWAP2 SWAP1 PUSH2 0x311D JUMP JUMPDEST PUSH1 0x40 MLOAD DUP1 SWAP2 SUB SWAP1 RETURN JUMPDEST PUSH2 0x8C9 PUSH1 0x4 DUP1 CALLDATASIZE SUB DUP2 ADD SWAP1 PUSH2 0x8C4 SWAP2 SWAP1 PUSH2 0x389B JUMP JUMPDEST PUSH2 0x1AE5 JUMP JUMPDEST STOP JUMPDEST CALLVALUE DUP1 ISZERO PUSH2 0x8D7 JUMPI PUSH1 0x0 DUP1 REVERT JUMPDEST POP PUSH2 0x8E0 PUSH2 0x1B37 JUMP JUMPDEST PUSH1 0x40 MLOAD PUSH2 0x8ED SWAP2 SWAP1 PUSH2 0x3324 JUMP JUMPDEST PUSH1 0x40 MLOAD DUP1 SWAP2 SUB SWAP1 RETURN JUMPDEST CALLVALUE DUP1 ISZERO PUSH2 0x902 JUMPI PUSH1 0x0 DUP1 REVERT JUMPDEST POP PUSH2 0x91D PUSH1 0x4 DUP1 CALLDATASIZE SUB DUP2 ADD SWAP1 PUSH2 0x918 SWAP2 SWAP1 PUSH2 0x3570 JUMP JUMPDEST PUSH2 0x1B3D JUMP JUMPDEST STOP JUMPDEST CALLVALUE DUP1 ISZERO PUSH2 0x92B JUMPI PUSH1 0x0 DUP1 REVERT JUMPDEST POP PUSH2 0x946 PUSH1 0x4 DUP1 CALLDATASIZE SUB DUP2 ADD SWAP1 PUSH2 0x941 SWAP2 SWAP1 PUSH2 0x3220 JUMP JUMPDEST PUSH2 0x1BDA JUMP JUMPDEST PUSH1 0x40 MLOAD PUSH2 0x953 SWAP2 SWAP1 PUSH2 0x31C8 JUMP JUMPDEST PUSH1 0x40 MLOAD DUP1 SWAP2 SUB SWAP1 RETURN JUMPDEST CALLVALUE DUP1 ISZERO PUSH2 0x968 JUMPI PUSH1 0x0 DUP1 REVERT JUMPDEST POP PUSH2 0x971 PUSH2 0x1C56 JUMP JUMPDEST PUSH1 0x40 MLOAD PUSH2 0x97E SWAP2 SWAP1 PUSH2 0x3324 JUMP JUMPDEST PUSH1 0x40 MLOAD DUP1 SWAP2 SUB SWAP1 RETURN JUMPDEST PUSH2 0x98F PUSH2 0x1C5C JUMP JUMPDEST STOP JUMPDEST CALLVALUE DUP1 ISZERO PUSH2 0x99D JUMPI PUSH1 0x0 DUP1 REVERT JUMPDEST POP PUSH2 0x9A6 PUSH2 0x1F69 JUMP JUMPDEST PUSH1 0x40 MLOAD PUSH2 0x9B3 SWAP2 SWAP1 PUSH2 0x3324 JUMP JUMPDEST PUSH1 0x40 MLOAD DUP1 SWAP2 SUB SWAP1 RETURN JUMPDEST CALLVALUE DUP1 ISZERO PUSH2 0x9C8 JUMPI PUSH1 0x0 DUP1 REVERT JUMPDEST POP PUSH2 0x9D1 PUSH2 0x1F6F JUMP JUMPDEST PUSH1 0x40 MLOAD PUSH2 0x9DE SWAP2 SWAP1 PUSH2 0x3324 JUMP JUMPDEST PUSH1 0x40 MLOAD DUP1 SWAP2 SUB SWAP1 RETURN JUMPDEST PUSH2 0x9EF PUSH2 0x1F75 JUMP JUMPDEST STOP JUMPDEST CALLVALUE DUP1 ISZERO PUSH2 0x9FD JUMPI PUSH1 0x0 DUP1 REVERT JUMPDEST POP PUSH2 0xA18 PUSH1 0x4 DUP1 CALLDATASIZE SUB DUP2 ADD SWAP1 PUSH2 0xA13 SWAP2 SWAP1 PUSH2 0x391E JUMP JUMPDEST PUSH2 0x2282 JUMP JUMPDEST PUSH1 0x40 MLOAD PUSH2 0xA25 SWAP2 SWAP1 PUSH2 0x311D JUMP JUMPDEST PUSH1 0x40 MLOAD DUP1 SWAP2 SUB SWAP1 RETURN JUMPDEST CALLVALUE DUP1 ISZERO PUSH2 0xA3A JUMPI PUSH1 0x0 DUP1 REVERT JUMPDEST POP PUSH2 0xA43 PUSH2 0x2316 JUMP JUMPDEST PUSH1 0x40 MLOAD PUSH2 0xA53 SWAP5 SWAP4 SWAP3 SWAP2 SWAP1 PUSH2 0x395E JUMP JUMPDEST PUSH1 0x40 MLOAD DUP1 SWAP2 SUB SWAP1 RETURN JUMPDEST CALLVALUE DUP1 ISZERO PUSH2 0xA68 JUMPI PUSH1 0x0 DUP1 REVERT JUMPDEST POP PUSH2 0xA83 PUSH1 0x4 DUP1 CALLDATASIZE SUB DUP2 ADD SWAP1 PUSH2 0xA7E SWAP2 SWAP1 PUSH2 0x33FB JUMP JUMPDEST PUSH2 0x2334 JUMP JUMPDEST STOP JUMPDEST CALLVALUE DUP1 ISZERO PUSH2 0xA91 JUMPI PUSH1 0x0 DUP1 REVERT JUMPDEST POP PUSH2 0xAAC PUSH1 0x4 DUP1 CALLDATASIZE SUB DUP2 ADD SWAP1 PUSH2 0xAA7 SWAP2 SWAP1 PUSH2 0x3570 JUMP JUMPDEST PUSH2 0x23BA JUMP JUMPDEST STOP JUMPDEST PUSH1 0x0 PUSH2 0xAB9 DUP3 PUSH2 0x248E JUMP JUMPDEST SWAP1 POP SWAP2 SWAP1 POP JUMP JUMPDEST PUSH1 0x60 PUSH1 0x2 DUP1 SLOAD PUSH2 0xACF SWAP1 PUSH2 0x39D2 JUMP JUMPDEST DUP1 PUSH1 0x1F ADD PUSH1 0x20 DUP1 SWAP2 DIV MUL PUSH1 0x20 ADD PUSH1 0x40 MLOAD SWAP1 DUP2 ADD PUSH1 0x40 MSTORE DUP1 SWAP3 SWAP2 SWAP1 DUP2 DUP2 MSTORE PUSH1 0x20 ADD DUP3 DUP1 SLOAD PUSH2 0xAFB SWAP1 PUSH2 0x39D2 JUMP JUMPDEST DUP1 ISZERO PUSH2 0xB48 JUMPI DUP1 PUSH1 0x1F LT PUSH2 0xB1D JUMPI PUSH2 0x100 DUP1 DUP4 SLOAD DIV MUL DUP4 MSTORE SWAP2 PUSH1 0x20 ADD SWAP2 PUSH2 0xB48 JUMP JUMPDEST DUP3 ADD SWAP2 SWAP1 PUSH1 0x0 MSTORE PUSH1 0x20 PUSH1 0x0 KECCAK256 SWAP1 JUMPDEST DUP2 SLOAD DUP2 MSTORE SWAP1 PUSH1 0x1 ADD SWAP1 PUSH1 0x20 ADD DUP1 DUP4 GT PUSH2 0xB2B JUMPI DUP3 SWAP1 SUB PUSH1 0x1F AND DUP3 ADD SWAP2 JUMPDEST POP POP POP POP POP SWAP1 POP SWAP1 JUMP JUMPDEST PUSH1 0x0 PUSH2 0xB5D DUP3 PUSH2 0x2508 JUMP JUMPDEST PUSH2 0xB72 JUMPI PUSH2 0xB71 PUSH4 0xCF4700E4 PUSH1 0xE0 SHL PUSH2 0x25B4 JUMP JUMPDEST JUMPDEST PUSH1 0x6 PUSH1 0x0 DUP4 DUP2 MSTORE PUSH1 0x20 ADD SWAP1 DUP2 MSTORE PUSH1 0x20 ADD PUSH1 0x0 KECCAK256 PUSH1 0x0 ADD PUSH1 0x0 SWAP1 SLOAD SWAP1 PUSH2 0x100 EXP SWAP1 DIV PUSH20 0xFFFFFFFFFFFFFFFFFFFFFFFFFFFFFFFFFFFFFFFF AND SWAP1 POP SWAP2 SWAP1 POP JUMP JUMPDEST PUSH2 0xBBC DUP3 DUP3 PUSH1 0x1 PUSH2 0x25BE JUMP JUMPDEST POP POP JUMP JUMPDEST PUSH1 0x0 PUSH2 0xBCA PUSH2 0x26ED JUMP JUMPDEST PUSH1 0x1 SLOAD PUSH1 0x0 SLOAD SUB SUB SWAP1 POP PUSH32 0xFFFFFFFFFFFFFFFFFFFFFFFFFFFFFFFFFFFFFFFFFFFFFFFFFFFFFFFFFFFFFFFF PUSH2 0xBFD PUSH2 0x26F2 JUMP JUMPDEST EQ PUSH2 0xC0A JUMPI PUSH1 0x8 SLOAD DUP2 ADD SWAP1 POP JUMPDEST SWAP1 JUMP JUMPDEST PUSH1 0x11 SLOAD DUP2 JUMP JUMPDEST PUSH1 0x0 PUSH2 0xC1E DUP3 PUSH2 0x271A JUMP JUMPDEST SWAP1 POP PUSH20 0xFFFFFFFFFFFFFFFFFFFFFFFFFFFFFFFFFFFFFFFF DUP5 PUSH20 0xFFFFFFFFFFFFFFFFFFFFFFFFFFFFFFFFFFFFFFFF AND AND SWAP4 POP DUP4 PUSH20 0xFFFFFFFFFFFFFFFFFFFFFFFFFFFFFFFFFFFFFFFF AND DUP2 PUSH20 0xFFFFFFFFFFFFFFFFFFFFFFFFFFFFFFFFFFFFFFFF AND EQ PUSH2 0xC93 JUMPI PUSH2 0xC92 PUSH4 0xA1148100 PUSH1 0xE0 SHL PUSH2 0x25B4 JUMP JUMPDEST JUMPDEST PUSH1 0x0 DUP1 PUSH2 0xC9F DUP5 PUSH2 0x2833 JUMP JUMPDEST SWAP2 POP SWAP2 POP PUSH2 0xCB5 DUP2 DUP8 PUSH2 0xCB0 PUSH2 0x285A JUMP JUMPDEST PUSH2 0x2862 JUMP JUMPDEST PUSH2 0xCE0 JUMPI PUSH2 0xCCA DUP7 PUSH2 0xCC5 PUSH2 0x285A JUMP JUMPDEST PUSH2 0x2282 JUMP JUMPDEST PUSH2 0xCDF JUMPI PUSH2 0xCDE PUSH4 0x59C896BE PUSH1 0xE0 SHL PUSH2 0x25B4 JUMP JUMPDEST JUMPDEST JUMPDEST PUSH2 0xCED DUP7 DUP7 DUP7 PUSH1 0x1 PUSH2 0x28A6 JUMP JUMPDEST DUP1 ISZERO PUSH2 0xCF8 JUMPI PUSH1 0x0 DUP3 SSTORE JUMPDEST PUSH1 0x5 PUSH1 0x0 DUP8 PUSH20 0xFFFFFFFFFFFFFFFFFFFFFFFFFFFFFFFFFFFFFFFF AND PUSH20 0xFFFFFFFFFFFFFFFFFFFFFFFFFFFFFFFFFFFFFFFF AND DUP2 MSTORE PUSH1 0x20 ADD SWAP1 DUP2 MSTORE PUSH1 0x20 ADD PUSH1 0x0 KECCAK256 PUSH1 0x0 DUP2 SLOAD PUSH1 0x1 SWAP1 SUB SWAP2 SWAP1 POP DUP2 SWAP1 SSTORE POP PUSH1 0x5 PUSH1 0x0 DUP7 PUSH20 0xFFFFFFFFFFFFFFFFFFFFFFFFFFFFFFFFFFFFFFFF AND PUSH20 0xFFFFFFFFFFFFFFFFFFFFFFFFFFFFFFFFFFFFFFFF AND DUP2 MSTORE PUSH1 0x20 ADD SWAP1 DUP2 MSTORE PUSH1 0x20 ADD PUSH1 0x0 KECCAK256 PUSH1 0x0 DUP2 SLOAD PUSH1 0x1 ADD SWAP2 SWAP1 POP DUP2 SWAP1 SSTORE POP PUSH2 0xDC6 DUP6 PUSH2 0xDA2 DUP9 DUP9 DUP8 PUSH2 0x28AC JUMP JUMPDEST PUSH29 0x200000000000000000000000000000000000000000000000000000000 OR PUSH2 0x28D4 JUMP JUMPDEST PUSH1 0x4 PUSH1 0x0 DUP7 DUP2 MSTORE PUSH1 0x20 ADD SWAP1 DUP2 MSTORE PUSH1 0x20 ADD PUSH1 0x0 KECCAK256 DUP2 SWAP1 SSTORE POP PUSH1 0x0 PUSH29 0x200000000000000000000000000000000000000000000000000000000 DUP5 AND SUB PUSH2 0xE4C JUMPI PUSH1 0x0 PUSH1 0x1 DUP6 ADD SWAP1 POP PUSH1 0x0 PUSH1 0x4 PUSH1 0x0 DUP4 DUP2 MSTORE PUSH1 0x20 ADD SWAP1 DUP2 MSTORE PUSH1 0x20 ADD PUSH1 0x0 KECCAK256 SLOAD SUB PUSH2 0xE4A JUMPI PUSH1 0x0 SLOAD DUP2 EQ PUSH2 0xE49 JUMPI DUP4 PUSH1 0x4 PUSH1 0x0 DUP4 DUP2 MSTORE PUSH1 0x20 ADD SWAP1 DUP2 MSTORE PUSH1 0x20 ADD PUSH1 0x0 KECCAK256 DUP2 SWAP1 SSTORE POP JUMPDEST JUMPDEST POP JUMPDEST PUSH1 0x0 PUSH20 0xFFFFFFFFFFFFFFFFFFFFFFFFFFFFFFFFFFFFFFFF DUP7 PUSH20 0xFFFFFFFFFFFFFFFFFFFFFFFFFFFFFFFFFFFFFFFF AND AND SWAP1 POP DUP5 DUP2 DUP9 PUSH32 0xDDF252AD1BE2C89B69C2B068FC378DAA952BA7F163C4A11628F55A4DF523B3EF PUSH1 0x0 DUP1 LOG4 PUSH1 0x0 DUP2 SUB PUSH2 0xEBE JUMPI PUSH2 0xEBD PUSH4 0xEA553B34 PUSH1 0xE0 SHL PUSH2 0x25B4 JUMP JUMPDEST JUMPDEST PUSH2 0xECB DUP8 DUP8 DUP8 PUSH1 0x1 PUSH2 0x28FF JUMP JUMPDEST POP POP POP POP POP POP POP JUMP JUMPDEST PUSH1 0x0 DUP1 PUSH1 0x0 PUSH1 0xA PUSH1 0x0 DUP7 DUP2 MSTORE PUSH1 0x20 ADD SWAP1 DUP2 MSTORE PUSH1 0x20 ADD PUSH1 0x0 KECCAK256 SWAP1 POP PUSH1 0x0 DUP2 PUSH1 0x0 ADD PUSH1 0x0 SWAP1 SLOAD SWAP1 PUSH2 0x100 EXP SWAP1 DIV PUSH20 0xFFFFFFFFFFFFFFFFFFFFFFFFFFFFFFFFFFFFFFFF AND SWAP1 POP PUSH1 0x0 DUP3 PUSH1 0x0 ADD PUSH1 0x14 SWAP1 SLOAD SWAP1 PUSH2 0x100 EXP SWAP1 DIV PUSH12 0xFFFFFFFFFFFFFFFFFFFFFFFF AND SWAP1 POP PUSH1 0x0 PUSH20 0xFFFFFFFFFFFFFFFFFFFFFFFFFFFFFFFFFFFFFFFF AND DUP3 PUSH20 0xFFFFFFFFFFFFFFFFFFFFFFFFFFFFFFFFFFFFFFFF AND SUB PUSH2 0xFB5 JUMPI PUSH1 0x9 PUSH1 0x0 ADD PUSH1 0x0 SWAP1 SLOAD SWAP1 PUSH2 0x100 EXP SWAP1 DIV PUSH20 0xFFFFFFFFFFFFFFFFFFFFFFFFFFFFFFFFFFFFFFFF AND SWAP2 POP PUSH1 0x9 PUSH1 0x0 ADD PUSH1 0x14 SWAP1 SLOAD SWAP1 PUSH2 0x100 EXP SWAP1 DIV PUSH12 0xFFFFFFFFFFFFFFFFFFFFFFFF AND SWAP1 POP JUMPDEST PUSH1 0x0 PUSH2 0xFBF PUSH2 0x2905 JUMP JUMPDEST PUSH12 0xFFFFFFFFFFFFFFFFFFFFFFFF AND DUP3 PUSH12 0xFFFFFFFFFFFFFFFFFFFFFFFF AND DUP9 PUSH2 0xFE7 SWAP2 SWAP1 PUSH2 0x3A32 JUMP JUMPDEST PUSH2 0xFF1 SWAP2 SWAP1 PUSH2 0x3AA3 JUMP JUMPDEST SWAP1 POP DUP3 DUP2 SWAP6 POP SWAP6 POP POP POP POP POP SWAP3 POP SWAP3 SWAP1 POP JUMP JUMPDEST PUSH1 0x10 SLOAD DUP2 JUMP JUMPDEST PUSH2 0x1012 PUSH2 0x290F JUMP JUMPDEST PUSH2 0x101A PUSH2 0x171A JUMP JUMPDEST PUSH20 0xFFFFFFFFFFFFFFFFFFFFFFFFFFFFFFFFFFFFFFFF AND PUSH2 0x8FC SELFBALANCE SWAP1 DUP2 ISZERO MUL SWAP1 PUSH1 0x40 MLOAD PUSH1 0x0 PUSH1 0x40 MLOAD DUP1 DUP4 SUB DUP2 DUP6 DUP9 DUP9 CALL SWAP4 POP POP POP POP ISZERO DUP1 ISZERO PUSH2 0x105F JUMPI RETURNDATASIZE PUSH1 0x0 DUP1 RETURNDATACOPY RETURNDATASIZE PUSH1 0x0 REVERT JUMPDEST POP JUMP JUMPDEST PUSH1 0x14 PUSH1 0x20 MSTORE DUP1 PUSH1 0x0 MSTORE PUSH1 0x40 PUSH1 0x0 KECCAK256 PUSH1 0x0 SWAP2 POP SLOAD SWAP1 PUSH2 0x100 EXP SWAP1 DIV PUSH1 0xFF AND DUP2 JUMP JUMPDEST PUSH2 0x109D DUP4 DUP4 DUP4 PUSH1 0x40 MLOAD DUP1 PUSH1 0x20 ADD PUSH1 0x40 MSTORE DUP1 PUSH1 0x0 DUP2 MSTORE POP PUSH2 0x1AE5 JUMP JUMPDEST POP POP POP JUMP JUMPDEST PUSH2 0x10AA PUSH2 0x290F JUMP JUMPDEST PUSH1 0x0 JUMPDEST DUP2 MLOAD DUP2 LT ISZERO PUSH2 0x113B JUMPI PUSH1 0x1 PUSH1 0x14 PUSH1 0x0 DUP5 DUP5 DUP2 MLOAD DUP2 LT PUSH2 0x10CF JUMPI PUSH2 0x10CE PUSH2 0x3AD4 JUMP JUMPDEST JUMPDEST PUSH1 0x20 MUL PUSH1 0x20 ADD ADD MLOAD PUSH20 0xFFFFFFFFFFFFFFFFFFFFFFFFFFFFFFFFFFFFFFFF AND PUSH20 0xFFFFFFFFFFFFFFFFFFFFFFFFFFFFFFFFFFFFFFFF AND DUP2 MSTORE PUSH1 0x20 ADD SWAP1 DUP2 MSTORE PUSH1 0x20 ADD PUSH1 0x0 KECCAK256 PUSH1 0x0 PUSH2 0x100 EXP DUP2 SLOAD DUP2 PUSH1 0xFF MUL NOT AND SWAP1 DUP4 ISZERO ISZERO MUL OR SWAP1 SSTORE POP DUP1 DUP1 PUSH2 0x1133 SWAP1 PUSH2 0x3B03 JUMP JUMPDEST SWAP2 POP POP PUSH2 0x10AD JUMP JUMPDEST POP PUSH32 0x8E259FE80D79F5CA6D42E35590FD71FC1504C3CD5516DFABA56990D1C9DD66EF DUP2 PUSH1 0x40 MLOAD PUSH2 0x116B SWAP2 SWAP1 PUSH2 0x3C55 JUMP JUMPDEST PUSH1 0x40 MLOAD DUP1 SWAP2 SUB SWAP1 LOG1 POP JUMP JUMPDEST PUSH2 0x117E PUSH2 0x290F JUMP JUMPDEST DUP1 PUSH1 0x13 SWAP1 DUP2 PUSH2 0x118D SWAP2 SWAP1 PUSH2 0x3E36 JUMP JUMPDEST POP PUSH32 0x6741B2FC379FAD678116FE3D4D4B9A1A184AB53BA36B86AD0FA66340B1AB41AD DUP2 PUSH1 0x40 MLOAD PUSH2 0x11BD SWAP2 SWAP1 PUSH2 0x31C8 JUMP JUMPDEST PUSH1 0x40 MLOAD DUP1 SWAP2 SUB SWAP1 LOG1 POP JUMP JUMPDEST PUSH1 0x15 PUSH1 0x20 MSTORE DUP1 PUSH1 0x0 MSTORE PUSH1 0x40 PUSH1 0x0 KECCAK256 PUSH1 0x0 SWAP2 POP SLOAD SWAP1 PUSH2 0x100 EXP SWAP1 DIV PUSH1 0xFF AND DUP2 JUMP JUMPDEST PUSH1 0xE SLOAD DUP2 JUMP JUMPDEST PUSH1 0x18 PUSH1 0x20 MSTORE DUP1 PUSH1 0x0 MSTORE PUSH1 0x40 PUSH1 0x0 KECCAK256 PUSH1 0x0 SWAP2 POP SLOAD SWAP1 PUSH2 0x100 EXP SWAP1 DIV PUSH1 0xFF AND DUP2 JUMP JUMPDEST PUSH1 0x0 PUSH2 0x1219 DUP3 PUSH2 0x271A JUMP JUMPDEST SWAP1 POP SWAP2 SWAP1 POP JUMP JUMPDEST PUSH2 0x1228 PUSH2 0x290F JUMP JUMPDEST PUSH1 0x0 JUMPDEST DUP2 MLOAD DUP2 LT ISZERO PUSH2 0x12B9 JUMPI PUSH1 0x0 PUSH1 0x14 PUSH1 0x0 DUP5 DUP5 DUP2 MLOAD DUP2 LT PUSH2 0x124D JUMPI PUSH2 0x124C PUSH2 0x3AD4 JUMP JUMPDEST JUMPDEST PUSH1 0x20 MUL PUSH1 0x20 ADD ADD MLOAD PUSH20 0xFFFFFFFFFFFFFFFFFFFFFFFFFFFFFFFFFFFFFFFF AND PUSH20 0xFFFFFFFFFFFFFFFFFFFFFFFFFFFFFFFFFFFFFFFF AND DUP2 MSTORE PUSH1 0x20 ADD SWAP1 DUP2 MSTORE PUSH1 0x20 ADD PUSH1 0x0 KECCAK256 PUSH1 0x0 PUSH2 0x100 EXP DUP2 SLOAD DUP2 PUSH1 0xFF MUL NOT AND SWAP1 DUP4 ISZERO ISZERO MUL OR SWAP1 SSTORE POP DUP1 DUP1 PUSH2 0x12B1 SWAP1 PUSH2 0x3B03 JUMP JUMPDEST SWAP2 POP POP PUSH2 0x122B JUMP JUMPDEST POP POP JUMP JUMPDEST PUSH1 0x13 DUP1 SLOAD PUSH2 0x12CA SWAP1 PUSH2 0x39D2 JUMP JUMPDEST DUP1 PUSH1 0x1F ADD PUSH1 0x20 DUP1 SWAP2 DIV MUL PUSH1 0x20 ADD PUSH1 0x40 MLOAD SWAP1 DUP2 ADD PUSH1 0x40 MSTORE DUP1 SWAP3 SWAP2 SWAP1 DUP2 DUP2 MSTORE PUSH1 0x20 ADD DUP3 DUP1 SLOAD PUSH2 0x12F6 SWAP1 PUSH2 0x39D2 JUMP JUMPDEST DUP1 ISZERO PUSH2 0x1343 JUMPI DUP1 PUSH1 0x1F LT PUSH2 0x1318 JUMPI PUSH2 0x100 DUP1 DUP4 SLOAD DIV MUL DUP4 MSTORE SWAP2 PUSH1 0x20 ADD SWAP2 PUSH2 0x1343 JUMP JUMPDEST DUP3 ADD SWAP2 SWAP1 PUSH1 0x0 MSTORE PUSH1 0x20 PUSH1 0x0 KECCAK256 SWAP1 JUMPDEST DUP2 SLOAD DUP2 MSTORE SWAP1 PUSH1 0x1 ADD SWAP1 PUSH1 0x20 ADD DUP1 DUP4 GT PUSH2 0x1326 JUMPI DUP3 SWAP1 SUB PUSH1 0x1F AND DUP3 ADD SWAP2 JUMPDEST POP POP POP POP POP DUP2 JUMP JUMPDEST PUSH2 0x1353 PUSH2 0x290F JUMP JUMPDEST DUP3 PUSH1 0x10 DUP2 SWAP1 SSTORE POP DUP2 PUSH1 0x11 DUP2 SWAP1 SSTORE POP DUP1 PUSH1 0x12 DUP2 SWAP1 SSTORE POP PUSH32 0xADAB82E2607F1ADB1193A8CE2A7901FE8BAC3F788495C712B56F45EF1B0494F0 DUP4 PUSH1 0x40 MLOAD PUSH2 0x1397 SWAP2 SWAP1 PUSH2 0x3F54 JUMP JUMPDEST PUSH1 0x40 MLOAD DUP1 SWAP2 SUB SWAP1 LOG1 PUSH32 0xADAB82E2607F1ADB1193A8CE2A7901FE8BAC3F788495C712B56F45EF1B0494F0 DUP3 PUSH1 0x40 MLOAD PUSH2 0x13CE SWAP2 SWAP1 PUSH2 0x3FCE JUMP JUMPDEST PUSH1 0x40 MLOAD DUP1 SWAP2 SUB SWAP1 LOG1 PUSH32 0xADAB82E2607F1ADB1193A8CE2A7901FE8BAC3F788495C712B56F45EF1B0494F0 DUP2 PUSH1 0x40 MLOAD PUSH2 0x1405 SWAP2 SWAP1 PUSH2 0x4048 JUMP JUMPDEST PUSH1 0x40 MLOAD DUP1 SWAP2 SUB SWAP1 LOG1 POP POP POP JUMP JUMPDEST PUSH1 0x0 DUP1 PUSH20 0xFFFFFFFFFFFFFFFFFFFFFFFFFFFFFFFFFFFFFFFF AND DUP3 PUSH20 0xFFFFFFFFFFFFFFFFFFFFFFFFFFFFFFFFFFFFFFFF AND SUB PUSH2 0x1458 JUMPI PUSH2 0x1457 PUSH4 0x8F4EB604 PUSH1 0xE0 SHL PUSH2 0x25B4 JUMP JUMPDEST JUMPDEST PUSH8 0xFFFFFFFFFFFFFFFF PUSH1 0x5 PUSH1 0x0 DUP5 PUSH20 0xFFFFFFFFFFFFFFFFFFFFFFFFFFFFFFFFFFFFFFFF AND PUSH20 0xFFFFFFFFFFFFFFFFFFFFFFFFFFFFFFFFFFFFFFFF AND DUP2 MSTORE PUSH1 0x20 ADD SWAP1 DUP2 MSTORE PUSH1 0x20 ADD PUSH1 0x0 KECCAK256 SLOAD AND SWAP1 POP SWAP2 SWAP1 POP JUMP JUMPDEST PUSH2 0x14B1 PUSH2 0x290F JUMP JUMPDEST PUSH2 0x14BB PUSH1 0x0 PUSH2 0x2996 JUMP JUMPDEST JUMP JUMPDEST PUSH1 0x17 PUSH1 0x20 MSTORE DUP1 PUSH1 0x0 MSTORE PUSH1 0x40 PUSH1 0x0 KECCAK256 PUSH1 0x0 SWAP2 POP SLOAD SWAP1 PUSH2 0x100 EXP SWAP1 DIV PUSH1 0xFF AND DUP2 JUMP JUMPDEST PUSH1 0xE SLOAD TIMESTAMP LT ISZERO PUSH2 0x1522 JUMPI PUSH1 0x40 MLOAD PUSH32 0x8C379A000000000000000000000000000000000000000000000000000000000 DUP2 MSTORE PUSH1 0x4 ADD PUSH2 0x1519 SWAP1 PUSH2 0x40C2 JUMP JUMPDEST PUSH1 0x40 MLOAD DUP1 SWAP2 SUB SWAP1 REVERT JUMPDEST PUSH1 0x18 PUSH1 0x0 CALLER PUSH20 0xFFFFFFFFFFFFFFFFFFFFFFFFFFFFFFFFFFFFFFFF AND PUSH20 0xFFFFFFFFFFFFFFFFFFFFFFFFFFFFFFFFFFFFFFFF AND DUP2 MSTORE PUSH1 0x20 ADD SWAP1 DUP2 MSTORE PUSH1 0x20 ADD PUSH1 0x0 KECCAK256 PUSH1 0x0 SWAP1 SLOAD SWAP1 PUSH2 0x100 EXP SWAP1 DIV PUSH1 0xFF AND ISZERO PUSH2 0x15AF JUMPI PUSH1 0x40 MLOAD PUSH32 0x8C379A000000000000000000000000000000000000000000000000000000000 DUP2 MSTORE PUSH1 0x4 ADD PUSH2 0x15A6 SWAP1 PUSH2 0x412E JUMP JUMPDEST PUSH1 0x40 MLOAD DUP1 SWAP2 SUB SWAP1 REVERT JUMPDEST PUSH1 0xF SLOAD PUSH1 0x1 PUSH2 0x15BC PUSH2 0xBC0 JUMP JUMPDEST PUSH2 0x15C6 SWAP2 SWAP1 PUSH2 0x414E JUMP JUMPDEST GT ISZERO PUSH2 0x1607 JUMPI PUSH1 0x40 MLOAD PUSH32 0x8C379A000000000000000000000000000000000000000000000000000000000 DUP2 MSTORE PUSH1 0x4 ADD PUSH2 0x15FE SWAP1 PUSH2 0x41CE JUMP JUMPDEST PUSH1 0x40 MLOAD DUP1 SWAP2 SUB SWAP1 REVERT JUMPDEST PUSH1 0x12 SLOAD CALLVALUE LT ISZERO PUSH2 0x164C JUMPI PUSH1 0x40 MLOAD PUSH32 0x8C379A000000000000000000000000000000000000000000000000000000000 DUP2 MSTORE PUSH1 0x4 ADD PUSH2 0x1643 SWAP1 PUSH2 0x423A JUMP JUMPDEST PUSH1 0x40 MLOAD DUP1 SWAP2 SUB SWAP1 REVERT JUMPDEST PUSH1 0x1 PUSH1 0x18 PUSH1 0x0 CALLER PUSH20 0xFFFFFFFFFFFFFFFFFFFFFFFFFFFFFFFFFFFFFFFF AND PUSH20 0xFFFFFFFFFFFFFFFFFFFFFFFFFFFFFFFFFFFFFFFF AND DUP2 MSTORE PUSH1 0x20 ADD SWAP1 DUP2 MSTORE PUSH1 0x20 ADD PUSH1 0x0 KECCAK256 PUSH1 0x0 PUSH2 0x100 EXP DUP2 SLOAD DUP2 PUSH1 0xFF MUL NOT AND SWAP1 DUP4 ISZERO ISZERO MUL OR SWAP1 SSTORE POP PUSH2 0x16AF CALLER PUSH1 0x1 PUSH2 0x2A5C JUMP JUMPDEST PUSH1 0x19 PUSH1 0x0 SWAP1 SLOAD SWAP1 PUSH2 0x100 EXP SWAP1 DIV PUSH20 0xFFFFFFFFFFFFFFFFFFFFFFFFFFFFFFFFFFFFFFFF AND PUSH20 0xFFFFFFFFFFFFFFFFFFFFFFFFFFFFFFFFFFFFFFFF AND PUSH2 0x8FC CALLVALUE SWAP1 DUP2 ISZERO MUL SWAP1 PUSH1 0x40 MLOAD PUSH1 0x0 PUSH1 0x40 MLOAD DUP1 DUP4 SUB DUP2 DUP6 DUP9 DUP9 CALL SWAP4 POP POP POP POP ISZERO DUP1 ISZERO PUSH2 0x1717 JUMPI RETURNDATASIZE PUSH1 0x0 DUP1 RETURNDATACOPY RETURNDATASIZE PUSH1 0x0 REVERT JUMPDEST POP JUMP JUMPDEST PUSH1 0x0 PUSH1 0xB PUSH1 0x0 SWAP1 SLOAD SWAP1 PUSH2 0x100 EXP SWAP1 DIV PUSH20 0xFFFFFFFFFFFFFFFFFFFFFFFFFFFFFFFFFFFFFFFF AND SWAP1 POP SWAP1 JUMP JUMPDEST PUSH2 0x174C PUSH2 0x290F JUMP JUMPDEST PUSH1 0x0 PUSH20 0xFFFFFFFFFFFFFFFFFFFFFFFFFFFFFFFFFFFFFFFF AND DUP2 PUSH20 0xFFFFFFFFFFFFFFFFFFFFFFFFFFFFFFFFFFFFFFFF AND SUB PUSH2 0x17BB JUMPI PUSH1 0x40 MLOAD PUSH32 0x8C379A000000000000000000000000000000000000000000000000000000000 DUP2 MSTORE PUSH1 0x4 ADD PUSH2 0x17B2 SWAP1 PUSH2 0x42A6 JUMP JUMPDEST PUSH1 0x40 MLOAD DUP1 SWAP2 SUB SWAP1 REVERT JUMPDEST DUP1 PUSH1 0x19 PUSH1 0x0 PUSH2 0x100 EXP DUP2 SLOAD DUP2 PUSH20 0xFFFFFFFFFFFFFFFFFFFFFFFFFFFFFFFFFFFFFFFF MUL NOT AND SWAP1 DUP4 PUSH20 0xFFFFFFFFFFFFFFFFFFFFFFFFFFFFFFFFFFFFFFFF AND MUL OR SWAP1 SSTORE POP PUSH2 0x1808 DUP2 PUSH2 0x1F4 PUSH2 0x2A7A JUMP JUMPDEST PUSH32 0xC3696C23BD17454D95C44CB489C7A0DB717D6D809E238813932720CC785AD535 DUP2 PUSH1 0x40 MLOAD PUSH2 0x1837 SWAP2 SWAP1 PUSH2 0x328E JUMP JUMPDEST PUSH1 0x40 MLOAD DUP1 SWAP2 SUB SWAP1 LOG1 POP JUMP JUMPDEST PUSH2 0x184A PUSH2 0x290F JUMP JUMPDEST PUSH2 0x1854 DUP3 DUP3 PUSH2 0x2A7A JUMP JUMPDEST POP POP JUMP JUMPDEST PUSH2 0x1860 PUSH2 0x290F JUMP JUMPDEST DUP2 DUP4 LT DUP1 ISZERO PUSH2 0x186E JUMPI POP DUP1 DUP3 LT JUMPDEST PUSH2 0x18AD JUMPI PUSH1 0x40 MLOAD PUSH32 0x8C379A000000000000000000000000000000000000000000000000000000000 DUP2 MSTORE PUSH1 0x4 ADD PUSH2 0x18A4 SWAP1 PUSH2 0x4312 JUMP JUMPDEST PUSH1 0x40 MLOAD DUP1 SWAP2 SUB SWAP1 REVERT JUMPDEST DUP3 PUSH1 0xC DUP2 SWAP1 SSTORE POP DUP2 PUSH1 0xD DUP2 SWAP1 SSTORE POP DUP1 PUSH1 0xE DUP2 SWAP1 SSTORE POP PUSH32 0x21B7B308C48DE149D4EC3BA2B7CF65C08232F8ACFED6FBE415471E2C793524F DUP4 DUP4 DUP4 PUSH1 0x40 MLOAD PUSH2 0x18F5 SWAP4 SWAP3 SWAP2 SWAP1 PUSH2 0x4332 JUMP JUMPDEST PUSH1 0x40 MLOAD DUP1 SWAP2 SUB SWAP1 LOG1 POP POP POP JUMP JUMPDEST PUSH1 0x60 PUSH1 0x3 DUP1 SLOAD PUSH2 0x1911 SWAP1 PUSH2 0x39D2 JUMP JUMPDEST DUP1 PUSH1 0x1F ADD PUSH1 0x20 DUP1 SWAP2 DIV MUL PUSH1 0x20 ADD PUSH1 0x40 MLOAD SWAP1 DUP2 ADD PUSH1 0x40 MSTORE DUP1 SWAP3 SWAP2 SWAP1 DUP2 DUP2 MSTORE PUSH1 0x20 ADD DUP3 DUP1 SLOAD PUSH2 0x193D SWAP1 PUSH2 0x39D2 JUMP JUMPDEST DUP1 ISZERO PUSH2 0x198A JUMPI DUP1 PUSH1 0x1F LT PUSH2 0x195F JUMPI PUSH2 0x100 DUP1 DUP4 SLOAD DIV MUL DUP4 MSTORE SWAP2 PUSH1 0x20 ADD SWAP2 PUSH2 0x198A JUMP JUMPDEST DUP3 ADD SWAP2 SWAP1 PUSH1 0x0 MSTORE PUSH1 0x20 PUSH1 0x0 KECCAK256 SWAP1 JUMPDEST DUP2 SLOAD DUP2 MSTORE SWAP1 PUSH1 0x1 ADD SWAP1 PUSH1 0x20 ADD DUP1 DUP4 GT PUSH2 0x196D JUMPI DUP3 SWAP1 SUB PUSH1 0x1F AND DUP3 ADD SWAP2 JUMPDEST POP POP POP POP POP SWAP1 POP SWAP1 JUMP JUMPDEST PUSH1 0x19 PUSH1 0x0 SWAP1 SLOAD SWAP1 PUSH2 0x100 EXP SWAP1 DIV PUSH20 0xFFFFFFFFFFFFFFFFFFFFFFFFFFFFFFFFFFFFFFFF AND DUP2 JUMP JUMPDEST DUP1 PUSH1 0x7 PUSH1 0x0 PUSH2 0x19C7 PUSH2 0x285A JUMP JUMPDEST PUSH20 0xFFFFFFFFFFFFFFFFFFFFFFFFFFFFFFFFFFFFFFFF AND PUSH20 0xFFFFFFFFFFFFFFFFFFFFFFFFFFFFFFFFFFFFFFFF AND DUP2 MSTORE PUSH1 0x20 ADD SWAP1 DUP2 MSTORE PUSH1 0x20 ADD PUSH1 0x0 KECCAK256 PUSH1 0x0 DUP5 PUSH20 0xFFFFFFFFFFFFFFFFFFFFFFFFFFFFFFFFFFFFFFFF AND PUSH20 0xFFFFFFFFFFFFFFFFFFFFFFFFFFFFFFFFFFFFFFFF AND DUP2 MSTORE PUSH1 0x20 ADD SWAP1 DUP2 MSTORE PUSH1 0x20 ADD PUSH1 0x0 KECCAK256 PUSH1 0x0 PUSH2 0x100 EXP DUP2 SLOAD DUP2 PUSH1 0xFF MUL NOT AND SWAP1 DUP4 ISZERO ISZERO MUL OR SWAP1 SSTORE POP DUP2 PUSH20 0xFFFFFFFFFFFFFFFFFFFFFFFFFFFFFFFFFFFFFFFF AND PUSH2 0x1A74 PUSH2 0x285A JUMP JUMPDEST PUSH20 0xFFFFFFFFFFFFFFFFFFFFFFFFFFFFFFFFFFFFFFFF AND PUSH32 0x17307EAB39AB6107E8899845AD3D59BD9653F200F220920489CA2B5937696C31 DUP4 PUSH1 0x40 MLOAD PUSH2 0x1AB9 SWAP2 SWAP1 PUSH2 0x311D JUMP JUMPDEST PUSH1 0x40 MLOAD DUP1 SWAP2 SUB SWAP1 LOG3 POP POP JUMP JUMPDEST PUSH1 0x16 PUSH1 0x20 MSTORE DUP1 PUSH1 0x0 MSTORE PUSH1 0x40 PUSH1 0x0 KECCAK256 PUSH1 0x0 SWAP2 POP SLOAD SWAP1 PUSH2 0x100 EXP SWAP1 DIV PUSH1 0xFF AND DUP2 JUMP JUMPDEST PUSH2 0x1AF0 DUP5 DUP5 DUP5 PUSH2 0xC13 JUMP JUMPDEST PUSH1 0x0 DUP4 PUSH20 0xFFFFFFFFFFFFFFFFFFFFFFFFFFFFFFFFFFFFFFFF AND EXTCODESIZE EQ PUSH2 0x1B31 JUMPI PUSH2 0x1B1B DUP5 DUP5 DUP5 DUP5 PUSH2 0x2C1C JUMP JUMPDEST PUSH2 0x1B30 JUMPI PUSH2 0x1B2F PUSH4 0xD1A57ED6 PUSH1 0xE0 SHL PUSH2 0x25B4 JUMP JUMPDEST JUMPDEST JUMPDEST POP POP POP POP JUMP JUMPDEST PUSH1 0xC SLOAD DUP2 JUMP JUMPDEST PUSH2 0x1B45 PUSH2 0x290F JUMP JUMPDEST PUSH1 0x0 JUMPDEST DUP2 MLOAD DUP2 LT ISZERO PUSH2 0x1BD6 JUMPI PUSH1 0x0 PUSH1 0x15 PUSH1 0x0 DUP5 DUP5 DUP2 MLOAD DUP2 LT PUSH2 0x1B6A JUMPI PUSH2 0x1B69 PUSH2 0x3AD4 JUMP JUMPDEST JUMPDEST PUSH1 0x20 MUL PUSH1 0x20 ADD ADD MLOAD PUSH20 0xFFFFFFFFFFFFFFFFFFFFFFFFFFFFFFFFFFFFFFFF AND PUSH20 0xFFFFFFFFFFFFFFFFFFFFFFFFFFFFFFFFFFFFFFFF AND DUP2 MSTORE PUSH1 0x20 ADD SWAP1 DUP2 MSTORE PUSH1 0x20 ADD PUSH1 0x0 KECCAK256 PUSH1 0x0 PUSH2 0x100 EXP DUP2 SLOAD DUP2 PUSH1 0xFF MUL NOT AND SWAP1 DUP4 ISZERO ISZERO MUL OR SWAP1 SSTORE POP DUP1 DUP1 PUSH2 0x1BCE SWAP1 PUSH2 0x3B03 JUMP JUMPDEST SWAP2 POP POP PUSH2 0x1B48 JUMP JUMPDEST POP POP JUMP JUMPDEST PUSH1 0x60 PUSH2 0x1BE5 DUP3 PUSH2 0x2508 JUMP JUMPDEST PUSH2 0x1C24 JUMPI PUSH1 0x40 MLOAD PUSH32 0x8C379A000000000000000000000000000000000000000000000000000000000 DUP2 MSTORE PUSH1 0x4 ADD PUSH2 0x1C1B SWAP1 PUSH2 0x43B5 JUMP JUMPDEST PUSH1 0x40 MLOAD DUP1 SWAP2 SUB SWAP1 REVERT JUMPDEST PUSH1 0x13 PUSH2 0x1C2F DUP4 PUSH2 0x2D4B JUMP JUMPDEST PUSH1 0x40 MLOAD PUSH1 0x20 ADD PUSH2 0x1C40 SWAP3 SWAP2 SWAP1 PUSH2 0x4494 JUMP JUMPDEST PUSH1 0x40 MLOAD PUSH1 0x20 DUP2 DUP4 SUB SUB DUP2 MSTORE SWAP1 PUSH1 0x40 MSTORE SWAP1 POP SWAP2 SWAP1 POP JUMP JUMPDEST PUSH1 0xD SLOAD DUP2 JUMP JUMPDEST PUSH1 0xC SLOAD TIMESTAMP LT ISZERO PUSH2 0x1CA1 JUMPI PUSH1 0x40 MLOAD PUSH32 0x8C379A000000000000000000000000000000000000000000000000000000000 DUP2 MSTORE PUSH1 0x4 ADD PUSH2 0x1C98 SWAP1 PUSH2 0x4504 JUMP JUMPDEST PUSH1 0x40 MLOAD DUP1 SWAP2 SUB SWAP1 REVERT JUMPDEST PUSH1 0xD SLOAD TIMESTAMP LT PUSH2 0x1CE5 JUMPI PUSH1 0x40 MLOAD PUSH32 0x8C379A000000000000000000000000000000000000000000000000000000000 DUP2 MSTORE PUSH1 0x4 ADD PUSH2 0x1CDC SWAP1 PUSH2 0x4570 JUMP JUMPDEST PUSH1 0x40 MLOAD DUP1 SWAP2 SUB SWAP1 REVERT JUMPDEST PUSH1 0x14 PUSH1 0x0 CALLER PUSH20 0xFFFFFFFFFFFFFFFFFFFFFFFFFFFFFFFFFFFFFFFF AND PUSH20 0xFFFFFFFFFFFFFFFFFFFFFFFFFFFFFFFFFFFFFFFF AND DUP2 MSTORE PUSH1 0x20 ADD SWAP1 DUP2 MSTORE PUSH1 0x20 ADD PUSH1 0x0 KECCAK256 PUSH1 0x0 SWAP1 SLOAD SWAP1 PUSH2 0x100 EXP SWAP1 DIV PUSH1 0xFF AND PUSH2 0x1D71 JUMPI PUSH1 0x40 MLOAD PUSH32 0x8C379A000000000000000000000000000000000000000000000000000000000 DUP2 MSTORE PUSH1 0x4 ADD PUSH2 0x1D68 SWAP1 PUSH2 0x45DC JUMP JUMPDEST PUSH1 0x40 MLOAD DUP1 SWAP2 SUB SWAP1 REVERT JUMPDEST PUSH1 0x16 PUSH1 0x0 CALLER PUSH20 0xFFFFFFFFFFFFFFFFFFFFFFFFFFFFFFFFFFFFFFFF AND PUSH20 0xFFFFFFFFFFFFFFFFFFFFFFFFFFFFFFFFFFFFFFFF AND DUP2 MSTORE PUSH1 0x20 ADD SWAP1 DUP2 MSTORE PUSH1 0x20 ADD PUSH1 0x0 KECCAK256 PUSH1 0x0 SWAP1 SLOAD SWAP1 PUSH2 0x100 EXP SWAP1 DIV PUSH1 0xFF AND ISZERO PUSH2 0x1DFE JUMPI PUSH1 0x40 MLOAD PUSH32 0x8C379A000000000000000000000000000000000000000000000000000000000 DUP2 MSTORE PUSH1 0x4 ADD PUSH2 0x1DF5 SWAP1 PUSH2 0x412E JUMP JUMPDEST PUSH1 0x40 MLOAD DUP1 SWAP2 SUB SWAP1 REVERT JUMPDEST PUSH1 0xF SLOAD PUSH1 0x1 PUSH2 0x1E0B PUSH2 0xBC0 JUMP JUMPDEST PUSH2 0x1E15 SWAP2 SWAP1 PUSH2 0x414E JUMP JUMPDEST GT ISZERO PUSH2 0x1E56 JUMPI PUSH1 0x40 MLOAD PUSH32 0x8C379A000000000000000000000000000000000000000000000000000000000 DUP2 MSTORE PUSH1 0x4 ADD PUSH2 0x1E4D SWAP1 PUSH2 0x41CE JUMP JUMPDEST PUSH1 0x40 MLOAD DUP1 SWAP2 SUB SWAP1 REVERT JUMPDEST PUSH1 0x10 SLOAD CALLVALUE LT ISZERO PUSH2 0x1E9B JUMPI PUSH1 0x40 MLOAD PUSH32 0x8C379A000000000000000000000000000000000000000000000000000000000 DUP2 MSTORE PUSH1 0x4 ADD PUSH2 0x1E92 SWAP1 PUSH2 0x423A JUMP JUMPDEST PUSH1 0x40 MLOAD DUP1 SWAP2 SUB SWAP1 REVERT JUMPDEST PUSH1 0x1 PUSH1 0x16 PUSH1 0x0 CALLER PUSH20 0xFFFFFFFFFFFFFFFFFFFFFFFFFFFFFFFFFFFFFFFF AND PUSH20 0xFFFFFFFFFFFFFFFFFFFFFFFFFFFFFFFFFFFFFFFF AND DUP2 MSTORE PUSH1 0x20 ADD SWAP1 DUP2 MSTORE PUSH1 0x20 ADD PUSH1 0x0 KECCAK256 PUSH1 0x0 PUSH2 0x100 EXP DUP2 SLOAD DUP2 PUSH1 0xFF MUL NOT AND SWAP1 DUP4 ISZERO ISZERO MUL OR SWAP1 SSTORE POP PUSH2 0x1EFE CALLER PUSH1 0x1 PUSH2 0x2A5C JUMP JUMPDEST PUSH1 0x19 PUSH1 0x0 SWAP1 SLOAD SWAP1 PUSH2 0x100 EXP SWAP1 DIV PUSH20 0xFFFFFFFFFFFFFFFFFFFFFFFFFFFFFFFFFFFFFFFF AND PUSH20 0xFFFFFFFFFFFFFFFFFFFFFFFFFFFFFFFFFFFFFFFF AND PUSH2 0x8FC CALLVALUE SWAP1 DUP2 ISZERO MUL SWAP1 PUSH1 0x40 MLOAD PUSH1 0x0 PUSH1 0x40 MLOAD DUP1 DUP4 SUB DUP2 DUP6 DUP9 DUP9 CALL SWAP4 POP POP POP POP ISZERO DUP1 ISZERO PUSH2 0x1F66 JUMPI RETURNDATASIZE PUSH1 0x0 DUP1 RETURNDATACOPY RETURNDATASIZE PUSH1 0x0 REVERT JUMPDEST POP JUMP JUMPDEST PUSH1 0xF SLOAD DUP2 JUMP JUMPDEST PUSH1 0x12 SLOAD DUP2 JUMP JUMPDEST PUSH1 0xD SLOAD TIMESTAMP LT ISZERO PUSH2 0x1FBA JUMPI PUSH1 0x40 MLOAD PUSH32 0x8C379A000000000000000000000000000000000000000000000000000000000 DUP2 MSTORE PUSH1 0x4 ADD PUSH2 0x1FB1 SWAP1 PUSH2 0x4648 JUMP JUMPDEST PUSH1 0x40 MLOAD DUP1 SWAP2 SUB SWAP1 REVERT JUMPDEST PUSH1 0xE SLOAD TIMESTAMP LT PUSH2 0x1FFE JUMPI PUSH1 0x40 MLOAD PUSH32 0x8C379A000000000000000000000000000000000000000000000000000000000 DUP2 MSTORE PUSH1 0x4 ADD PUSH2 0x1FF5 SWAP1 PUSH2 0x46B4 JUMP JUMPDEST PUSH1 0x40 MLOAD DUP1 SWAP2 SUB SWAP1 REVERT JUMPDEST PUSH1 0x15 PUSH1 0x0 CALLER PUSH20 0xFFFFFFFFFFFFFFFFFFFFFFFFFFFFFFFFFFFFFFFF AND PUSH20 0xFFFFFFFFFFFFFFFFFFFFFFFFFFFFFFFFFFFFFFFF AND DUP2 MSTORE PUSH1 0x20 ADD SWAP1 DUP2 MSTORE PUSH1 0x20 ADD PUSH1 0x0 KECCAK256 PUSH1 0x0 SWAP1 SLOAD SWAP1 PUSH2 0x100 EXP SWAP1 DIV PUSH1 0xFF AND PUSH2 0x208A JUMPI PUSH1 0x40 MLOAD PUSH32 0x8C379A000000000000000000000000000000000000000000000000000000000 DUP2 MSTORE PUSH1 0x4 ADD PUSH2 0x2081 SWAP1 PUSH2 0x4720 JUMP JUMPDEST PUSH1 0x40 MLOAD DUP1 SWAP2 SUB SWAP1 REVERT JUMPDEST PUSH1 0x17 PUSH1 0x0 CALLER PUSH20 0xFFFFFFFFFFFFFFFFFFFFFFFFFFFFFFFFFFFFFFFF AND PUSH20 0xFFFFFFFFFFFFFFFFFFFFFFFFFFFFFFFFFFFFFFFF AND DUP2 MSTORE PUSH1 0x20 ADD SWAP1 DUP2 MSTORE PUSH1 0x20 ADD PUSH1 0x0 KECCAK256 PUSH1 0x0 SWAP1 SLOAD SWAP1 PUSH2 0x100 EXP SWAP1 DIV PUSH1 0xFF AND ISZERO PUSH2 0x2117 JUMPI PUSH1 0x40 MLOAD PUSH32 0x8C379A000000000000000000000000000000000000000000000000000000000 DUP2 MSTORE PUSH1 0x4 ADD PUSH2 0x210E SWAP1 PUSH2 0x412E JUMP JUMPDEST PUSH1 0x40 MLOAD DUP1 SWAP2 SUB SWAP1 REVERT JUMPDEST PUSH1 0xF SLOAD PUSH1 0x1 PUSH2 0x2124 PUSH2 0xBC0 JUMP JUMPDEST PUSH2 0x212E SWAP2 SWAP1 PUSH2 0x414E JUMP JUMPDEST GT ISZERO PUSH2 0x216F JUMPI PUSH1 0x40 MLOAD PUSH32 0x8C379A000000000000000000000000000000000000000000000000000000000 DUP2 MSTORE PUSH1 0x4 ADD PUSH2 0x2166 SWAP1 PUSH2 0x41CE JUMP JUMPDEST PUSH1 0x40 MLOAD DUP1 SWAP2 SUB SWAP1 REVERT JUMPDEST PUSH1 0x11 SLOAD CALLVALUE LT ISZERO PUSH2 0x21B4 JUMPI PUSH1 0x40 MLOAD PUSH32 0x8C379A000000000000000000000000000000000000000000000000000000000 DUP2 MSTORE PUSH1 0x4 ADD PUSH2 0x21AB SWAP1 PUSH2 0x423A JUMP JUMPDEST PUSH1 0x40 MLOAD DUP1 SWAP2 SUB SWAP1 REVERT JUMPDEST PUSH1 0x1 PUSH1 0x17 PUSH1 0x0 CALLER PUSH20 0xFFFFFFFFFFFFFFFFFFFFFFFFFFFFFFFFFFFFFFFF AND PUSH20 0xFFFFFFFFFFFFFFFFFFFFFFFFFFFFFFFFFFFFFFFF AND DUP2 MSTORE PUSH1 0x20 ADD SWAP1 DUP2 MSTORE PUSH1 0x20 ADD PUSH1 0x0 KECCAK256 PUSH1 0x0 PUSH2 0x100 EXP DUP2 SLOAD DUP2 PUSH1 0xFF MUL NOT AND SWAP1 DUP4 ISZERO ISZERO MUL OR SWAP1 SSTORE POP PUSH2 0x2217 CALLER PUSH1 0x1 PUSH2 0x2A5C JUMP JUMPDEST PUSH1 0x19 PUSH1 0x0 SWAP1 SLOAD SWAP1 PUSH2 0x100 EXP SWAP1 DIV PUSH20 0xFFFFFFFFFFFFFFFFFFFFFFFFFFFFFFFFFFFFFFFF AND PUSH20 0xFFFFFFFFFFFFFFFFFFFFFFFFFFFFFFFFFFFFFFFF AND PUSH2 0x8FC CALLVALUE SWAP1 DUP2 ISZERO MUL SWAP1 PUSH1 0x40 MLOAD PUSH1 0x0 PUSH1 0x40 MLOAD DUP1 DUP4 SUB DUP2 DUP6 DUP9 DUP9 CALL SWAP4 POP POP POP POP ISZERO DUP1 ISZERO PUSH2 0x227F JUMPI RETURNDATASIZE PUSH1 0x0 DUP1 RETURNDATACOPY RETURNDATASIZE PUSH1 0x0 REVERT JUMPDEST POP JUMP JUMPDEST PUSH1 0x0 PUSH1 0x7 PUSH1 0x0 DUP5 PUSH20 0xFFFFFFFFFFFFFFFFFFFFFFFFFFFFFFFFFFFFFFFF AND PUSH20 0xFFFFFFFFFFFFFFFFFFFFFFFFFFFFFFFFFFFFFFFF AND DUP2 MSTORE PUSH1 0x20 ADD SWAP1 DUP2 MSTORE PUSH1 0x20 ADD PUSH1 0x0 KECCAK256 PUSH1 0x0 DUP4 PUSH20 0xFFFFFFFFFFFFFFFFFFFFFFFFFFFFFFFFFFFFFFFF AND PUSH20 0xFFFFFFFFFFFFFFFFFFFFFFFFFFFFFFFFFFFFFFFF AND DUP2 MSTORE PUSH1 0x20 ADD SWAP1 DUP2 MSTORE PUSH1 0x20 ADD PUSH1 0x0 KECCAK256 PUSH1 0x0 SWAP1 SLOAD SWAP1 PUSH2 0x100 EXP SWAP1 DIV PUSH1 0xFF AND SWAP1 POP SWAP3 SWAP2 POP POP JUMP JUMPDEST PUSH1 0x0 DUP1 PUSH1 0x0 DUP1 TIMESTAMP PUSH1 0xC SLOAD PUSH1 0xD SLOAD PUSH1 0xE SLOAD SWAP4 POP SWAP4 POP SWAP4 POP SWAP4 POP SWAP1 SWAP2 SWAP3 SWAP4 JUMP JUMPDEST PUSH2 0x233C PUSH2 0x290F JUMP JUMPDEST PUSH1 0x0 PUSH20 0xFFFFFFFFFFFFFFFFFFFFFFFFFFFFFFFFFFFFFFFF AND DUP2 PUSH20 0xFFFFFFFFFFFFFFFFFFFFFFFFFFFFFFFFFFFFFFFF AND SUB PUSH2 0x23AE JUMPI PUSH1 0x0 PUSH1 0x40 MLOAD PUSH32 0x1E4FBDF700000000000000000000000000000000000000000000000000000000 DUP2 MSTORE PUSH1 0x4 ADD PUSH2 0x23A5 SWAP2 SWAP1 PUSH2 0x328E JUMP JUMPDEST PUSH1 0x40 MLOAD DUP1 SWAP2 SUB SWAP1 REVERT JUMPDEST PUSH2 0x23B7 DUP2 PUSH2 0x2996 JUMP JUMPDEST POP JUMP JUMPDEST PUSH2 0x23C2 PUSH2 0x290F JUMP JUMPDEST PUSH1 0x0 JUMPDEST DUP2 MLOAD DUP2 LT ISZERO PUSH2 0x2453 JUMPI PUSH1 0x1 PUSH1 0x15 PUSH1 0x0 DUP5 DUP5 DUP2 MLOAD DUP2 LT PUSH2 0x23E7 JUMPI PUSH2 0x23E6 PUSH2 0x3AD4 JUMP JUMPDEST JUMPDEST PUSH1 0x20 MUL PUSH1 0x20 ADD ADD MLOAD PUSH20 0xFFFFFFFFFFFFFFFFFFFFFFFFFFFFFFFFFFFFFFFF AND PUSH20 0xFFFFFFFFFFFFFFFFFFFFFFFFFFFFFFFFFFFFFFFF AND DUP2 MSTORE PUSH1 0x20 ADD SWAP1 DUP2 MSTORE PUSH1 0x20 ADD PUSH1 0x0 KECCAK256 PUSH1 0x0 PUSH2 0x100 EXP DUP2 SLOAD DUP2 PUSH1 0xFF MUL NOT AND SWAP1 DUP4 ISZERO ISZERO MUL OR SWAP1 SSTORE POP DUP1 DUP1 PUSH2 0x244B SWAP1 PUSH2 0x3B03 JUMP JUMPDEST SWAP2 POP POP PUSH2 0x23C5 JUMP JUMPDEST POP PUSH32 0x8E259FE80D79F5CA6D42E35590FD71FC1504C3CD5516DFABA56990D1C9DD66EF DUP2 PUSH1 0x40 MLOAD PUSH2 0x2483 SWAP2 SWAP1 PUSH2 0x478C JUMP JUMPDEST PUSH1 0x40 MLOAD DUP1 SWAP2 SUB SWAP1 LOG1 POP JUMP JUMPDEST PUSH1 0x0 PUSH32 0x2A55205A00000000000000000000000000000000000000000000000000000000 PUSH28 0xFFFFFFFFFFFFFFFFFFFFFFFFFFFFFFFFFFFFFFFFFFFFFFFFFFFFFFFF NOT AND DUP3 PUSH28 0xFFFFFFFFFFFFFFFFFFFFFFFFFFFFFFFFFFFFFFFFFFFFFFFFFFFFFFFF NOT AND EQ DUP1 PUSH2 0x2501 JUMPI POP PUSH2 0x2500 DUP3 PUSH2 0x2D9B JUMP JUMPDEST JUMPDEST SWAP1 POP SWAP2 SWAP1 POP JUMP JUMPDEST PUSH1 0x0 DUP2 PUSH2 0x2513 PUSH2 0x26ED JUMP JUMPDEST GT PUSH2 0x25AE JUMPI PUSH2 0x2520 PUSH2 0x26F2 JUMP JUMPDEST DUP3 GT ISZERO PUSH2 0x254A JUMPI PUSH2 0x2543 PUSH1 0x4 PUSH1 0x0 DUP5 DUP2 MSTORE PUSH1 0x20 ADD SWAP1 DUP2 MSTORE PUSH1 0x20 ADD PUSH1 0x0 KECCAK256 SLOAD PUSH2 0x2E05 JUMP JUMPDEST SWAP1 POP PUSH2 0x25AF JUMP JUMPDEST PUSH1 0x0 SLOAD DUP3 LT ISZERO PUSH2 0x25AD JUMPI PUSH1 0x0 JUMPDEST PUSH1 0x0 PUSH1 0x4 PUSH1 0x0 DUP6 DUP2 MSTORE PUSH1 0x20 ADD SWAP1 DUP2 MSTORE PUSH1 0x20 ADD PUSH1 0x0 KECCAK256 SLOAD SWAP2 POP DUP2 SUB PUSH2 0x2586 JUMPI DUP3 PUSH2 0x257F SWAP1 PUSH2 0x47C1 JUMP JUMPDEST SWAP3 POP PUSH2 0x2557 JUMP JUMPDEST PUSH1 0x0 PUSH29 0x100000000000000000000000000000000000000000000000000000000 DUP3 AND EQ SWAP2 POP POP JUMPDEST JUMPDEST JUMPDEST SWAP2 SWAP1 POP JUMP JUMPDEST DUP1 PUSH1 0x0 MSTORE PUSH1 0x4 PUSH1 0x0 REVERT JUMPDEST PUSH1 0x0 PUSH2 0x25C9 DUP4 PUSH2 0x120E JUMP JUMPDEST SWAP1 POP DUP2 DUP1 ISZERO PUSH2 0x260B JUMPI POP DUP1 PUSH20 0xFFFFFFFFFFFFFFFFFFFFFFFFFFFFFFFFFFFFFFFF AND PUSH2 0x25F2 PUSH2 0x285A JUMP JUMPDEST PUSH20 0xFFFFFFFFFFFFFFFFFFFFFFFFFFFFFFFFFFFFFFFF AND EQ ISZERO JUMPDEST ISZERO PUSH2 0x2637 JUMPI PUSH2 0x2621 DUP2 PUSH2 0x261C PUSH2 0x285A JUMP JUMPDEST PUSH2 0x2282 JUMP JUMPDEST PUSH2 0x2636 JUMPI PUSH2 0x2635 PUSH4 0xCFB3B942 PUSH1 0xE0 SHL PUSH2 0x25B4 JUMP JUMPDEST JUMPDEST JUMPDEST DUP4 PUSH1 0x6 PUSH1 0x0 DUP6 DUP2 MSTORE PUSH1 0x20 ADD SWAP1 DUP2 MSTORE PUSH1 0x20 ADD PUSH1 0x0 KECCAK256 PUSH1 0x0 ADD PUSH1 0x0 PUSH2 0x100 EXP DUP2 SLOAD DUP2 PUSH20 0xFFFFFFFFFFFFFFFFFFFFFFFFFFFFFFFFFFFFFFFF MUL NOT AND SWAP1 DUP4 PUSH20 0xFFFFFFFFFFFFFFFFFFFFFFFFFFFFFFFFFFFFFFFF AND MUL OR SWAP1 SSTORE POP DUP3 DUP5 PUSH20 0xFFFFFFFFFFFFFFFFFFFFFFFFFFFFFFFFFFFFFFFF AND DUP3 PUSH20 0xFFFFFFFFFFFFFFFFFFFFFFFFFFFFFFFFFFFFFFFF AND PUSH32 0x8C5BE1E5EBEC7D5BD14F71427D1E84F3DD0314C0F7B2291E5B200AC8C7C3B925 PUSH1 0x40 MLOAD PUSH1 0x40 MLOAD DUP1 SWAP2 SUB SWAP1 LOG4 POP POP POP POP JUMP JUMPDEST PUSH1 0x0 SWAP1 JUMP JUMPDEST PUSH1 0x0 PUSH32 0xFFFFFFFFFFFFFFFFFFFFFFFFFFFFFFFFFFFFFFFFFFFFFFFFFFFFFFFFFFFFFFFF SWAP1 POP SWAP1 JUMP JUMPDEST PUSH1 0x0 DUP2 PUSH2 0x2725 PUSH2 0x26ED JUMP JUMPDEST GT PUSH2 0x281D JUMPI PUSH1 0x4 PUSH1 0x0 DUP4 DUP2 MSTORE PUSH1 0x20 ADD SWAP1 DUP2 MSTORE PUSH1 0x20 ADD PUSH1 0x0 KECCAK256 SLOAD SWAP1 POP PUSH2 0x2748 PUSH2 0x26F2 JUMP JUMPDEST DUP3 GT ISZERO PUSH2 0x276D JUMPI PUSH2 0x2758 DUP2 PUSH2 0x2E05 JUMP JUMPDEST PUSH2 0x282E JUMPI PUSH2 0x276C PUSH4 0xDF2D9B42 PUSH1 0xE0 SHL PUSH2 0x25B4 JUMP JUMPDEST JUMPDEST PUSH1 0x0 DUP2 SUB PUSH2 0x27F4 JUMPI PUSH1 0x0 SLOAD DUP3 LT PUSH2 0x278F JUMPI PUSH2 0x278E PUSH4 0xDF2D9B42 PUSH1 0xE0 SHL PUSH2 0x25B4 JUMP JUMPDEST JUMPDEST JUMPDEST PUSH1 0x4 PUSH1 0x0 DUP4 PUSH1 0x1 SWAP1 SUB SWAP4 POP DUP4 DUP2 MSTORE PUSH1 0x20 ADD SWAP1 DUP2 MSTORE PUSH1 0x20 ADD PUSH1 0x0 KECCAK256 SLOAD SWAP1 POP PUSH1 0x0 DUP2 SUB ISZERO PUSH2 0x27EF JUMPI PUSH1 0x0 PUSH29 0x100000000000000000000000000000000000000000000000000000000 DUP3 AND SUB ISZERO PUSH2 0x282E JUMPI PUSH2 0x27EE PUSH4 0xDF2D9B42 PUSH1 0xE0 SHL PUSH2 0x25B4 JUMP JUMPDEST JUMPDEST PUSH2 0x2790 JUMP JUMPDEST PUSH1 0x0 PUSH29 0x100000000000000000000000000000000000000000000000000000000 DUP3 AND SUB ISZERO PUSH2 0x282E JUMPI JUMPDEST PUSH2 0x282D PUSH4 0xDF2D9B42 PUSH1 0xE0 SHL PUSH2 0x25B4 JUMP JUMPDEST JUMPDEST SWAP2 SWAP1 POP JUMP JUMPDEST PUSH1 0x0 DUP1 PUSH1 0x0 PUSH1 0x6 PUSH1 0x0 DUP6 DUP2 MSTORE PUSH1 0x20 ADD SWAP1 DUP2 MSTORE PUSH1 0x20 ADD PUSH1 0x0 KECCAK256 SWAP1 POP DUP1 SWAP3 POP DUP3 SLOAD SWAP2 POP POP SWAP2 POP SWAP2 JUMP JUMPDEST PUSH1 0x0 CALLER SWAP1 POP SWAP1 JUMP JUMPDEST PUSH1 0x0 PUSH20 0xFFFFFFFFFFFFFFFFFFFFFFFFFFFFFFFFFFFFFFFF DUP4 AND SWAP3 POP PUSH20 0xFFFFFFFFFFFFFFFFFFFFFFFFFFFFFFFFFFFFFFFF DUP3 AND SWAP2 POP DUP4 DUP3 EQ DUP4 DUP4 EQ OR SWAP1 POP SWAP4 SWAP3 POP POP POP JUMP JUMPDEST POP POP POP POP JUMP JUMPDEST PUSH1 0x0 DUP1 PUSH1 0xE8 DUP4 SWAP1 SHR SWAP1 POP PUSH1 0xE8 PUSH2 0x28C3 DUP7 DUP7 DUP5 PUSH2 0x2E46 JUMP JUMPDEST PUSH3 0xFFFFFF AND SWAP1 SHL SWAP2 POP POP SWAP4 SWAP3 POP POP POP JUMP JUMPDEST PUSH1 0x0 PUSH20 0xFFFFFFFFFFFFFFFFFFFFFFFFFFFFFFFFFFFFFFFF DUP4 AND SWAP3 POP DUP2 TIMESTAMP PUSH1 0xA0 SHL OR DUP4 OR SWAP1 POP SWAP3 SWAP2 POP POP JUMP JUMPDEST POP POP POP POP JUMP JUMPDEST PUSH1 0x0 PUSH2 0x2710 SWAP1 POP SWAP1 JUMP JUMPDEST PUSH2 0x2917 PUSH2 0x2E4F JUMP JUMPDEST PUSH20 0xFFFFFFFFFFFFFFFFFFFFFFFFFFFFFFFFFFFFFFFF AND PUSH2 0x2935 PUSH2 0x171A JUMP JUMPDEST PUSH20 0xFFFFFFFFFFFFFFFFFFFFFFFFFFFFFFFFFFFFFFFF AND EQ PUSH2 0x2994 JUMPI PUSH2 0x2958 PUSH2 0x2E4F JUMP JUMPDEST PUSH1 0x40 MLOAD PUSH32 0x118CDAA700000000000000000000000000000000000000000000000000000000 DUP2 MSTORE PUSH1 0x4 ADD PUSH2 0x298B SWAP2 SWAP1 PUSH2 0x328E JUMP JUMPDEST PUSH1 0x40 MLOAD DUP1 SWAP2 SUB SWAP1 REVERT JUMPDEST JUMP JUMPDEST PUSH1 0x0 PUSH1 0xB PUSH1 0x0 SWAP1 SLOAD SWAP1 PUSH2 0x100 EXP SWAP1 DIV PUSH20 0xFFFFFFFFFFFFFFFFFFFFFFFFFFFFFFFFFFFFFFFF AND SWAP1 POP DUP2 PUSH1 0xB PUSH1 0x0 PUSH2 0x100 EXP DUP2 SLOAD DUP2 PUSH20 0xFFFFFFFFFFFFFFFFFFFFFFFFFFFFFFFFFFFFFFFF MUL NOT AND SWAP1 DUP4 PUSH20 0xFFFFFFFFFFFFFFFFFFFFFFFFFFFFFFFFFFFFFFFF AND MUL OR SWAP1 SSTORE POP DUP2 PUSH20 0xFFFFFFFFFFFFFFFFFFFFFFFFFFFFFFFFFFFFFFFF AND DUP2 PUSH20 0xFFFFFFFFFFFFFFFFFFFFFFFFFFFFFFFFFFFFFFFF AND PUSH32 0x8BE0079C531659141344CD1FD0A4F28419497F9722A3DAAFE3B4186F6B6457E0 PUSH1 0x40 MLOAD PUSH1 0x40 MLOAD DUP1 SWAP2 SUB SWAP1 LOG3 POP POP JUMP JUMPDEST PUSH2 0x2A76 DUP3 DUP3 PUSH1 0x40 MLOAD DUP1 PUSH1 0x20 ADD PUSH1 0x40 MSTORE DUP1 PUSH1 0x0 DUP2 MSTORE POP PUSH2 0x2E57 JUMP JUMPDEST POP POP JUMP JUMPDEST PUSH1 0x0 PUSH2 0x2A84 PUSH2 0x2905 JUMP JUMPDEST PUSH12 0xFFFFFFFFFFFFFFFFFFFFFFFF AND SWAP1 POP DUP1 DUP3 PUSH12 0xFFFFFFFFFFFFFFFFFFFFFFFF AND GT ISZERO PUSH2 0x2AE9 JUMPI DUP2 DUP2 PUSH1 0x40 MLOAD PUSH32 0x6F483D0900000000000000000000000000000000000000000000000000000000 DUP2 MSTORE PUSH1 0x4 ADD PUSH2 0x2AE0 SWAP3 SWAP2 SWAP1 PUSH2 0x481B JUMP JUMPDEST PUSH1 0x40 MLOAD DUP1 SWAP2 SUB SWAP1 REVERT JUMPDEST PUSH1 0x0 PUSH20 0xFFFFFFFFFFFFFFFFFFFFFFFFFFFFFFFFFFFFFFFF AND DUP4 PUSH20 0xFFFFFFFFFFFFFFFFFFFFFFFFFFFFFFFFFFFFFFFF AND SUB PUSH2 0x2B5B JUMPI PUSH1 0x0 PUSH1 0x40 MLOAD PUSH32 0xB6D9900A00000000000000000000000000000000000000000000000000000000 DUP2 MSTORE PUSH1 0x4 ADD PUSH2 0x2B52 SWAP2 SWAP1 PUSH2 0x328E JUMP JUMPDEST PUSH1 0x40 MLOAD DUP1 SWAP2 SUB SWAP1 REVERT JUMPDEST PUSH1 0x40 MLOAD DUP1 PUSH1 0x40 ADD PUSH1 0x40 MSTORE DUP1 DUP5 PUSH20 0xFFFFFFFFFFFFFFFFFFFFFFFFFFFFFFFFFFFFFFFF AND DUP2 MSTORE PUSH1 0x20 ADD DUP4 PUSH12 0xFFFFFFFFFFFFFFFFFFFFFFFF AND DUP2 MSTORE POP PUSH1 0x9 PUSH1 0x0 DUP3 ADD MLOAD DUP2 PUSH1 0x0 ADD PUSH1 0x0 PUSH2 0x100 EXP DUP2 SLOAD DUP2 PUSH20 0xFFFFFFFFFFFFFFFFFFFFFFFFFFFFFFFFFFFFFFFF MUL NOT AND SWAP1 DUP4 PUSH20 0xFFFFFFFFFFFFFFFFFFFFFFFFFFFFFFFFFFFFFFFF AND MUL OR SWAP1 SSTORE POP PUSH1 0x20 DUP3 ADD MLOAD DUP2 PUSH1 0x0 ADD PUSH1 0x14 PUSH2 0x100 EXP DUP2 SLOAD DUP2 PUSH12 0xFFFFFFFFFFFFFFFFFFFFFFFF MUL NOT AND SWAP1 DUP4 PUSH12 0xFFFFFFFFFFFFFFFFFFFFFFFF AND MUL OR SWAP1 SSTORE POP SWAP1 POP POP POP POP POP JUMP JUMPDEST PUSH1 0x0 DUP4 PUSH20 0xFFFFFFFFFFFFFFFFFFFFFFFFFFFFFFFFFFFFFFFF AND PUSH4 0x150B7A02 PUSH2 0x2C42 PUSH2 0x285A JUMP JUMPDEST DUP8 DUP7 DUP7 PUSH1 0x40 MLOAD DUP6 PUSH4 0xFFFFFFFF AND PUSH1 0xE0 SHL DUP2 MSTORE PUSH1 0x4 ADD PUSH2 0x2C64 SWAP5 SWAP4 SWAP3 SWAP2 SWAP1 PUSH2 0x4899 JUMP JUMPDEST PUSH1 0x20 PUSH1 0x40 MLOAD DUP1 DUP4 SUB DUP2 PUSH1 0x0 DUP8 GAS CALL SWAP3 POP POP POP DUP1 ISZERO PUSH2 0x2CA0 JUMPI POP PUSH1 0x40 MLOAD RETURNDATASIZE PUSH1 0x1F NOT PUSH1 0x1F DUP3 ADD AND DUP3 ADD DUP1 PUSH1 0x40 MSTORE POP DUP2 ADD SWAP1 PUSH2 0x2C9D SWAP2 SWAP1 PUSH2 0x48FA JUMP JUMPDEST PUSH1 0x1 JUMPDEST PUSH2 0x2CF8 JUMPI RETURNDATASIZE DUP1 PUSH1 0x0 DUP2 EQ PUSH2 0x2CD0 JUMPI PUSH1 0x40 MLOAD SWAP2 POP PUSH1 0x1F NOT PUSH1 0x3F RETURNDATASIZE ADD AND DUP3 ADD PUSH1 0x40 MSTORE RETURNDATASIZE DUP3 MSTORE RETURNDATASIZE PUSH1 0x0 PUSH1 0x20 DUP5 ADD RETURNDATACOPY PUSH2 0x2CD5 JUMP JUMPDEST PUSH1 0x60 SWAP2 POP JUMPDEST POP PUSH1 0x0 DUP2 MLOAD SUB PUSH2 0x2CF0 JUMPI PUSH2 0x2CEF PUSH4 0xD1A57ED6 PUSH1 0xE0 SHL PUSH2 0x25B4 JUMP JUMPDEST JUMPDEST DUP1 MLOAD DUP2 PUSH1 0x20 ADD REVERT JUMPDEST PUSH4 0x150B7A02 PUSH1 0xE0 SHL PUSH28 0xFFFFFFFFFFFFFFFFFFFFFFFFFFFFFFFFFFFFFFFFFFFFFFFFFFFFFFFF NOT AND DUP2 PUSH28 0xFFFFFFFFFFFFFFFFFFFFFFFFFFFFFFFFFFFFFFFFFFFFFFFFFFFFFFFF NOT AND EQ SWAP2 POP POP SWAP5 SWAP4 POP POP POP POP JUMP JUMPDEST PUSH1 0x60 PUSH1 0xA0 PUSH1 0x40 MLOAD ADD DUP1 PUSH1 0x40 MSTORE PUSH1 0x20 DUP2 SUB SWAP2 POP PUSH1 0x0 DUP3 MSTORE DUP2 DUP4 JUMPDEST PUSH1 0x1 ISZERO PUSH2 0x2D86 JUMPI PUSH1 0x1 DUP5 SUB SWAP4 POP PUSH1 0xA DUP2 MOD PUSH1 0x30 ADD DUP5 MSTORE8 PUSH1 0xA DUP2 DIV SWAP1 POP DUP1 PUSH2 0x2D64 JUMPI JUMPDEST POP DUP3 DUP2 SUB PUSH1 0x20 DUP5 SUB SWAP4 POP DUP1 DUP5 MSTORE POP POP POP SWAP2 SWAP1 POP JUMP JUMPDEST PUSH1 0x0 PUSH32 0x1FFC9A700000000000000000000000000000000000000000000000000000000 PUSH28 0xFFFFFFFFFFFFFFFFFFFFFFFFFFFFFFFFFFFFFFFFFFFFFFFFFFFFFFFF NOT AND DUP3 PUSH28 0xFFFFFFFFFFFFFFFFFFFFFFFFFFFFFFFFFFFFFFFFFFFFFFFFFFFFFFFF NOT AND EQ SWAP1 POP SWAP2 SWAP1 POP JUMP JUMPDEST PUSH1 0x0 PUSH29 0x100000000000000000000000000000000000000000000000000000000 DUP3 AND PUSH20 0xFFFFFFFFFFFFFFFFFFFFFFFFFFFFFFFFFFFFFFFF DUP4 AND GT SWAP1 POP SWAP2 SWAP1 POP JUMP JUMPDEST PUSH1 0x0 SWAP4 SWAP3 POP POP POP JUMP JUMPDEST PUSH1 0x0 CALLER SWAP1 POP SWAP1 JUMP JUMPDEST PUSH2 0x2E61 DUP4 DUP4 PUSH2 0x2ED3 JUMP JUMPDEST PUSH1 0x0 DUP4 PUSH20 0xFFFFFFFFFFFFFFFFFFFFFFFFFFFFFFFFFFFFFFFF AND EXTCODESIZE EQ PUSH2 0x2ECE JUMPI PUSH1 0x0 DUP1 SLOAD SWAP1 POP PUSH1 0x0 DUP4 DUP3 SUB SWAP1 POP JUMPDEST PUSH2 0x2EA1 PUSH1 0x0 DUP7 DUP4 DUP1 PUSH1 0x1 ADD SWAP5 POP DUP7 PUSH2 0x2C1C JUMP JUMPDEST PUSH2 0x2EB6 JUMPI PUSH2 0x2EB5 PUSH4 0xD1A57ED6 PUSH1 0xE0 SHL PUSH2 0x25B4 JUMP JUMPDEST JUMPDEST DUP2 DUP2 LT PUSH2 0x2E8E JUMPI DUP2 PUSH1 0x0 SLOAD EQ PUSH2 0x2ECB JUMPI PUSH1 0x0 DUP1 REVERT JUMPDEST POP POP JUMPDEST POP POP POP JUMP JUMPDEST PUSH1 0x0 DUP1 SLOAD SWAP1 POP PUSH1 0x0 DUP3 SUB PUSH2 0x2EF2 JUMPI PUSH2 0x2EF1 PUSH4 0xB562E8DD PUSH1 0xE0 SHL PUSH2 0x25B4 JUMP JUMPDEST JUMPDEST PUSH2 0x2EFF PUSH1 0x0 DUP5 DUP4 DUP6 PUSH2 0x28A6 JUMP JUMPDEST PUSH2 0x2F1F DUP4 PUSH2 0x2F10 PUSH1 0x0 DUP7 PUSH1 0x0 PUSH2 0x28AC JUMP JUMPDEST PUSH2 0x2F19 DUP6 PUSH2 0x3059 JUMP JUMPDEST OR PUSH2 0x28D4 JUMP JUMPDEST PUSH1 0x4 PUSH1 0x0 DUP4 DUP2 MSTORE PUSH1 0x20 ADD SWAP1 DUP2 MSTORE PUSH1 0x20 ADD PUSH1 0x0 KECCAK256 DUP2 SWAP1 SSTORE POP PUSH1 0x1 PUSH1 0x40 PUSH1 0x1 SWAP1 SHL OR DUP3 MUL PUSH1 0x5 PUSH1 0x0 DUP6 PUSH20 0xFFFFFFFFFFFFFFFFFFFFFFFFFFFFFFFFFFFFFFFF AND PUSH20 0xFFFFFFFFFFFFFFFFFFFFFFFFFFFFFFFFFFFFFFFF AND DUP2 MSTORE PUSH1 0x20 ADD SWAP1 DUP2 MSTORE PUSH1 0x20 ADD PUSH1 0x0 KECCAK256 PUSH1 0x0 DUP3 DUP3 SLOAD ADD SWAP3 POP POP DUP2 SWAP1 SSTORE POP PUSH1 0x0 PUSH20 0xFFFFFFFFFFFFFFFFFFFFFFFFFFFFFFFFFFFFFFFF DUP5 PUSH20 0xFFFFFFFFFFFFFFFFFFFFFFFFFFFFFFFFFFFFFFFF AND AND SWAP1 POP PUSH1 0x0 DUP2 SUB PUSH2 0x2FD7 JUMPI PUSH2 0x2FD6 PUSH4 0x2E076300 PUSH1 0xE0 SHL PUSH2 0x25B4 JUMP JUMPDEST JUMPDEST PUSH1 0x0 DUP4 DUP4 ADD SWAP1 POP PUSH1 0x0 DUP4 SWAP1 POP PUSH2 0x2FEB PUSH2 0x26F2 JUMP JUMPDEST PUSH1 0x1 DUP4 SUB GT ISZERO PUSH2 0x3006 JUMPI PUSH2 0x3005 PUSH4 0x81647E3A PUSH1 0xE0 SHL PUSH2 0x25B4 JUMP JUMPDEST JUMPDEST JUMPDEST DUP1 DUP4 PUSH1 0x0 PUSH32 0xDDF252AD1BE2C89B69C2B068FC378DAA952BA7F163C4A11628F55A4DF523B3EF PUSH1 0x0 DUP1 LOG4 DUP2 DUP2 PUSH1 0x1 ADD SWAP2 POP DUP2 SUB PUSH2 0x3007 JUMPI DUP2 PUSH1 0x0 DUP2 SWAP1 SSTORE POP POP POP POP PUSH2 0x3054 PUSH1 0x0 DUP5 DUP4 DUP6 PUSH2 0x28FF JUMP JUMPDEST POP POP POP JUMP JUMPDEST PUSH1 0x0 PUSH1 0x1 DUP3 EQ PUSH1 0xE1 SHL SWAP1 POP SWAP2 SWAP1 POP JUMP JUMPDEST PUSH1 0x0 PUSH1 0x40 MLOAD SWAP1 POP SWAP1 JUMP JUMPDEST PUSH1 0x0 DUP1 REVERT JUMPDEST PUSH1 0x0 DUP1 REVERT JUMPDEST PUSH1 0x0 PUSH32 0xFFFFFFFF00000000000000000000000000000000000000000000000000000000 DUP3 AND SWAP1 POP SWAP2 SWAP1 POP JUMP JUMPDEST PUSH2 0x30B2 DUP2 PUSH2 0x307D JUMP JUMPDEST DUP2 EQ PUSH2 0x30BD JUMPI PUSH1 0x0 DUP1 REVERT JUMPDEST POP JUMP JUMPDEST PUSH1 0x0 DUP2 CALLDATALOAD SWAP1 POP PUSH2 0x30CF DUP2 PUSH2 0x30A9 JUMP JUMPDEST SWAP3 SWAP2 POP POP JUMP JUMPDEST PUSH1 0x0 PUSH1 0x20 DUP3 DUP5 SUB SLT ISZERO PUSH2 0x30EB JUMPI PUSH2 0x30EA PUSH2 0x3073 JUMP JUMPDEST JUMPDEST PUSH1 0x0 PUSH2 0x30F9 DUP5 DUP3 DUP6 ADD PUSH2 0x30C0 JUMP JUMPDEST SWAP2 POP POP SWAP3 SWAP2 POP POP JUMP JUMPDEST PUSH1 0x0 DUP2 ISZERO ISZERO SWAP1 POP SWAP2 SWAP1 POP JUMP JUMPDEST PUSH2 0x3117 DUP2 PUSH2 0x3102 JUMP JUMPDEST DUP3 MSTORE POP POP JUMP JUMPDEST PUSH1 0x0 PUSH1 0x20 DUP3 ADD SWAP1 POP PUSH2 0x3132 PUSH1 0x0 DUP4 ADD DUP5 PUSH2 0x310E JUMP JUMPDEST SWAP3 SWAP2 POP POP JUMP JUMPDEST PUSH1 0x0 DUP2 MLOAD SWAP1 POP SWAP2 SWAP1 POP JUMP JUMPDEST PUSH1 0x0 DUP3 DUP3 MSTORE PUSH1 0x20 DUP3 ADD SWAP1 POP SWAP3 SWAP2 POP POP JUMP JUMPDEST PUSH1 0x0 JUMPDEST DUP4 DUP2 LT ISZERO PUSH2 0x3172 JUMPI DUP1 DUP3 ADD MLOAD DUP2 DUP5 ADD MSTORE PUSH1 0x20 DUP2 ADD SWAP1 POP PUSH2 0x3157 JUMP JUMPDEST PUSH1 0x0 DUP5 DUP5 ADD MSTORE POP POP POP POP JUMP JUMPDEST PUSH1 0x0 PUSH1 0x1F NOT PUSH1 0x1F DUP4 ADD AND SWAP1 POP SWAP2 SWAP1 POP JUMP JUMPDEST PUSH1 0x0 PUSH2 0x319A DUP3 PUSH2 0x3138 JUMP JUMPDEST PUSH2 0x31A4 DUP2 DUP6 PUSH2 0x3143 JUMP JUMPDEST SWAP4 POP PUSH2 0x31B4 DUP2 DUP6 PUSH1 0x20 DUP7 ADD PUSH2 0x3154 JUMP JUMPDEST PUSH2 0x31BD DUP2 PUSH2 0x317E JUMP JUMPDEST DUP5 ADD SWAP2 POP POP SWAP3 SWAP2 POP POP JUMP JUMPDEST PUSH1 0x0 PUSH1 0x20 DUP3 ADD SWAP1 POP DUP2 DUP2 SUB PUSH1 0x0 DUP4 ADD MSTORE PUSH2 0x31E2 DUP2 DUP5 PUSH2 0x318F JUMP JUMPDEST SWAP1 POP SWAP3 SWAP2 POP POP JUMP JUMPDEST PUSH1 0x0 DUP2 SWAP1 POP SWAP2 SWAP1 POP JUMP JUMPDEST PUSH2 0x31FD DUP2 PUSH2 0x31EA JUMP JUMPDEST DUP2 EQ PUSH2 0x3208 JUMPI PUSH1 0x0 DUP1 REVERT JUMPDEST POP JUMP JUMPDEST PUSH1 0x0 DUP2 CALLDATALOAD SWAP1 POP PUSH2 0x321A DUP2 PUSH2 0x31F4 JUMP JUMPDEST SWAP3 SWAP2 POP POP JUMP JUMPDEST PUSH1 0x0 PUSH1 0x20 DUP3 DUP5 SUB SLT ISZERO PUSH2 0x3236 JUMPI PUSH2 0x3235 PUSH2 0x3073 JUMP JUMPDEST JUMPDEST PUSH1 0x0 PUSH2 0x3244 DUP5 DUP3 DUP6 ADD PUSH2 0x320B JUMP JUMPDEST SWAP2 POP POP SWAP3 SWAP2 POP POP JUMP JUMPDEST PUSH1 0x0 PUSH20 0xFFFFFFFFFFFFFFFFFFFFFFFFFFFFFFFFFFFFFFFF DUP3 AND SWAP1 POP SWAP2 SWAP1 POP JUMP JUMPDEST PUSH1 0x0 PUSH2 0x3278 DUP3 PUSH2 0x324D JUMP JUMPDEST SWAP1 POP SWAP2 SWAP1 POP JUMP JUMPDEST PUSH2 0x3288 DUP2 PUSH2 0x326D JUMP JUMPDEST DUP3 MSTORE POP POP JUMP JUMPDEST PUSH1 0x0 PUSH1 0x20 DUP3 ADD SWAP1 POP PUSH2 0x32A3 PUSH1 0x0 DUP4 ADD DUP5 PUSH2 0x327F JUMP JUMPDEST SWAP3 SWAP2 POP POP JUMP JUMPDEST PUSH2 0x32B2 DUP2 PUSH2 0x326D JUMP JUMPDEST DUP2 EQ PUSH2 0x32BD JUMPI PUSH1 0x0 DUP1 REVERT JUMPDEST POP JUMP JUMPDEST PUSH1 0x0 DUP2 CALLDATALOAD SWAP1 POP PUSH2 0x32CF DUP2 PUSH2 0x32A9 JUMP JUMPDEST SWAP3 SWAP2 POP POP JUMP JUMPDEST PUSH1 0x0 DUP1 PUSH1 0x40 DUP4 DUP6 SUB SLT ISZERO PUSH2 0x32EC JUMPI PUSH2 0x32EB PUSH2 0x3073 JUMP JUMPDEST JUMPDEST PUSH1 0x0 PUSH2 0x32FA DUP6 DUP3 DUP7 ADD PUSH2 0x32C0 JUMP JUMPDEST SWAP3 POP POP PUSH1 0x20 PUSH2 0x330B DUP6 DUP3 DUP7 ADD PUSH2 0x320B JUMP JUMPDEST SWAP2 POP POP SWAP3 POP SWAP3 SWAP1 POP JUMP JUMPDEST PUSH2 0x331E DUP2 PUSH2 0x31EA JUMP JUMPDEST DUP3 MSTORE POP POP JUMP JUMPDEST PUSH1 0x0 PUSH1 0x20 DUP3 ADD SWAP1 POP PUSH2 0x3339 PUSH1 0x0 DUP4 ADD DUP5 PUSH2 0x3315 JUMP JUMPDEST SWAP3 SWAP2 POP POP JUMP JUMPDEST PUSH1 0x0 DUP1 PUSH1 0x0 PUSH1 0x60 DUP5 DUP7 SUB SLT ISZERO PUSH2 0x3358 JUMPI PUSH2 0x3357 PUSH2 0x3073 JUMP JUMPDEST JUMPDEST PUSH1 0x0 PUSH2 0x3366 DUP7 DUP3 DUP8 ADD PUSH2 0x32C0 JUMP JUMPDEST SWAP4 POP POP PUSH1 0x20 PUSH2 0x3377 DUP7 DUP3 DUP8 ADD PUSH2 0x32C0 JUMP JUMPDEST SWAP3 POP POP PUSH1 0x40 PUSH2 0x3388 DUP7 DUP3 DUP8 ADD PUSH2 0x320B JUMP JUMPDEST SWAP2 POP POP SWAP3 POP SWAP3 POP SWAP3 JUMP JUMPDEST PUSH1 0x0 DUP1 PUSH1 0x40 DUP4 DUP6 SUB SLT ISZERO PUSH2 0x33A9 JUMPI PUSH2 0x33A8 PUSH2 0x3073 JUMP JUMPDEST JUMPDEST PUSH1 0x0 PUSH2 0x33B7 DUP6 DUP3 DUP7 ADD PUSH2 0x320B JUMP JUMPDEST SWAP3 POP POP PUSH1 0x20 PUSH2 0x33C8 DUP6 DUP3 DUP7 ADD PUSH2 0x320B JUMP JUMPDEST SWAP2 POP POP SWAP3 POP SWAP3 SWAP1 POP JUMP JUMPDEST PUSH1 0x0 PUSH1 0x40 DUP3 ADD SWAP1 POP PUSH2 0x33E7 PUSH1 0x0 DUP4 ADD DUP6 PUSH2 0x327F JUMP JUMPDEST PUSH2 0x33F4 PUSH1 0x20 DUP4 ADD DUP5 PUSH2 0x3315 JUMP JUMPDEST SWAP4 SWAP3 POP POP POP JUMP JUMPDEST PUSH1 0x0 PUSH1 0x20 DUP3 DUP5 SUB SLT ISZERO PUSH2 0x3411 JUMPI PUSH2 0x3410 PUSH2 0x3073 JUMP JUMPDEST JUMPDEST PUSH1 0x0 PUSH2 0x341F DUP5 DUP3 DUP6 ADD PUSH2 0x32C0 JUMP JUMPDEST SWAP2 POP POP SWAP3 SWAP2 POP POP JUMP JUMPDEST PUSH1 0x0 DUP1 REVERT JUMPDEST PUSH32 0x4E487B7100000000000000000000000000000000000000000000000000000000 PUSH1 0x0 MSTORE PUSH1 0x41 PUSH1 0x4 MSTORE PUSH1 0x24 PUSH1 0x0 REVERT JUMPDEST PUSH2 0x3465 DUP3 PUSH2 0x317E JUMP JUMPDEST DUP2 ADD DUP2 DUP2 LT PUSH8 0xFFFFFFFFFFFFFFFF DUP3 GT OR ISZERO PUSH2 0x3484 JUMPI PUSH2 0x3483 PUSH2 0x342D JUMP JUMPDEST JUMPDEST DUP1 PUSH1 0x40 MSTORE POP POP POP JUMP JUMPDEST PUSH1 0x0 PUSH2 0x3497 PUSH2 0x3069 JUMP JUMPDEST SWAP1 POP PUSH2 0x34A3 DUP3 DUP3 PUSH2 0x345C JUMP JUMPDEST SWAP2 SWAP1 POP JUMP JUMPDEST PUSH1 0x0 PUSH8 0xFFFFFFFFFFFFFFFF DUP3 GT ISZERO PUSH2 0x34C3 JUMPI PUSH2 0x34C2 PUSH2 0x342D JUMP JUMPDEST JUMPDEST PUSH1 0x20 DUP3 MUL SWAP1 POP PUSH1 0x20 DUP2 ADD SWAP1 POP SWAP2 SWAP1 POP JUMP JUMPDEST PUSH1 0x0 DUP1 REVERT JUMPDEST PUSH1 0x0 PUSH2 0x34EC PUSH2 0x34E7 DUP5 PUSH2 0x34A8 JUMP JUMPDEST PUSH2 0x348D JUMP JUMPDEST SWAP1 POP DUP1 DUP4 DUP3 MSTORE PUSH1 0x20 DUP3 ADD SWAP1 POP PUSH1 0x20 DUP5 MUL DUP4 ADD DUP6 DUP2 GT ISZERO PUSH2 0x350F JUMPI PUSH2 0x350E PUSH2 0x34D4 JUMP JUMPDEST JUMPDEST DUP4 JUMPDEST DUP2 DUP2 LT ISZERO PUSH2 0x3538 JUMPI DUP1 PUSH2 0x3524 DUP9 DUP3 PUSH2 0x32C0 JUMP JUMPDEST DUP5 MSTORE PUSH1 0x20 DUP5 ADD SWAP4 POP POP PUSH1 0x20 DUP2 ADD SWAP1 POP PUSH2 0x3511 JUMP JUMPDEST POP POP POP SWAP4 SWAP3 POP POP POP JUMP JUMPDEST PUSH1 0x0 DUP3 PUSH1 0x1F DUP4 ADD SLT PUSH2 0x3557 JUMPI PUSH2 0x3556 PUSH2 0x3428 JUMP JUMPDEST JUMPDEST DUP2 CALLDATALOAD PUSH2 0x3567 DUP5 DUP3 PUSH1 0x20 DUP7 ADD PUSH2 0x34D9 JUMP JUMPDEST SWAP2 POP POP SWAP3 SWAP2 POP POP JUMP JUMPDEST PUSH1 0x0 PUSH1 0x20 DUP3 DUP5 SUB SLT ISZERO PUSH2 0x3586 JUMPI PUSH2 0x3585 PUSH2 0x3073 JUMP JUMPDEST JUMPDEST PUSH1 0x0 DUP3 ADD CALLDATALOAD PUSH8 0xFFFFFFFFFFFFFFFF DUP2 GT ISZERO PUSH2 0x35A4 JUMPI PUSH2 0x35A3 PUSH2 0x3078 JUMP JUMPDEST JUMPDEST PUSH2 0x35B0 DUP5 DUP3 DUP6 ADD PUSH2 0x3542 JUMP JUMPDEST SWAP2 POP POP SWAP3 SWAP2 POP POP JUMP JUMPDEST PUSH1 0x0 DUP1 REVERT JUMPDEST PUSH1 0x0 PUSH8 0xFFFFFFFFFFFFFFFF DUP3 GT ISZERO PUSH2 0x35D9 JUMPI PUSH2 0x35D8 PUSH2 0x342D JUMP JUMPDEST JUMPDEST PUSH2 0x35E2 DUP3 PUSH2 0x317E JUMP JUMPDEST SWAP1 POP PUSH1 0x20 DUP2 ADD SWAP1 POP SWAP2 SWAP1 POP JUMP JUMPDEST DUP3 DUP2 DUP4 CALLDATACOPY PUSH1 0x0 DUP4 DUP4 ADD MSTORE POP POP POP JUMP JUMPDEST PUSH1 0x0 PUSH2 0x3611 PUSH2 0x360C DUP5 PUSH2 0x35BE JUMP JUMPDEST PUSH2 0x348D JUMP JUMPDEST SWAP1 POP DUP3 DUP2 MSTORE PUSH1 0x20 DUP2 ADD DUP5 DUP5 DUP5 ADD GT ISZERO PUSH2 0x362D JUMPI PUSH2 0x362C PUSH2 0x35B9 JUMP JUMPDEST JUMPDEST PUSH2 0x3638 DUP5 DUP3 DUP6 PUSH2 0x35EF JUMP JUMPDEST POP SWAP4 SWAP3 POP POP POP JUMP JUMPDEST PUSH1 0x0 DUP3 PUSH1 0x1F DUP4 ADD SLT PUSH2 0x3655 JUMPI PUSH2 0x3654 PUSH2 0x3428 JUMP JUMPDEST JUMPDEST DUP2 CALLDATALOAD PUSH2 0x3665 DUP5 DUP3 PUSH1 0x20 DUP7 ADD PUSH2 0x35FE JUMP JUMPDEST SWAP2 POP POP SWAP3 SWAP2 POP POP JUMP JUMPDEST PUSH1 0x0 PUSH1 0x20 DUP3 DUP5 SUB SLT ISZERO PUSH2 0x3684 JUMPI PUSH2 0x3683 PUSH2 0x3073 JUMP JUMPDEST JUMPDEST PUSH1 0x0 DUP3 ADD CALLDATALOAD PUSH8 0xFFFFFFFFFFFFFFFF DUP2 GT ISZERO PUSH2 0x36A2 JUMPI PUSH2 0x36A1 PUSH2 0x3078 JUMP JUMPDEST JUMPDEST PUSH2 0x36AE DUP5 DUP3 DUP6 ADD PUSH2 0x3640 JUMP JUMPDEST SWAP2 POP POP SWAP3 SWAP2 POP POP JUMP JUMPDEST PUSH1 0x0 DUP1 PUSH1 0x0 PUSH1 0x60 DUP5 DUP7 SUB SLT ISZERO PUSH2 0x36D0 JUMPI PUSH2 0x36CF PUSH2 0x3073 JUMP JUMPDEST JUMPDEST PUSH1 0x0 PUSH2 0x36DE DUP7 DUP3 DUP8 ADD PUSH2 0x320B JUMP JUMPDEST SWAP4 POP POP PUSH1 0x20 PUSH2 0x36EF DUP7 DUP3 DUP8 ADD PUSH2 0x320B JUMP JUMPDEST SWAP3 POP POP PUSH1 0x40 PUSH2 0x3700 DUP7 DUP3 DUP8 ADD PUSH2 0x320B JUMP JUMPDEST SWAP2 POP POP SWAP3 POP SWAP3 POP SWAP3 JUMP JUMPDEST PUSH1 0x0 PUSH12 0xFFFFFFFFFFFFFFFFFFFFFFFF DUP3 AND SWAP1 POP SWAP2 SWAP1 POP JUMP JUMPDEST PUSH2 0x372B DUP2 PUSH2 0x370A JUMP JUMPDEST DUP2 EQ PUSH2 0x3736 JUMPI PUSH1 0x0 DUP1 REVERT JUMPDEST POP JUMP JUMPDEST PUSH1 0x0 DUP2 CALLDATALOAD SWAP1 POP PUSH2 0x3748 DUP2 PUSH2 0x3722 JUMP JUMPDEST SWAP3 SWAP2 POP POP JUMP JUMPDEST PUSH1 0x0 DUP1 PUSH1 0x40 DUP4 DUP6 SUB SLT ISZERO PUSH2 0x3765 JUMPI PUSH2 0x3764 PUSH2 0x3073 JUMP JUMPDEST JUMPDEST PUSH1 0x0 PUSH2 0x3773 DUP6 DUP3 DUP7 ADD PUSH2 0x32C0 JUMP JUMPDEST SWAP3 POP POP PUSH1 0x20 PUSH2 0x3784 DUP6 DUP3 DUP7 ADD PUSH2 0x3739 JUMP JUMPDEST SWAP2 POP POP SWAP3 POP SWAP3 SWAP1 POP JUMP JUMPDEST PUSH2 0x3797 DUP2 PUSH2 0x3102 JUMP JUMPDEST DUP2 EQ PUSH2 0x37A2 JUMPI PUSH1 0x0 DUP1 REVERT JUMPDEST POP JUMP JUMPDEST PUSH1 0x0 DUP2 CALLDATALOAD SWAP1 POP PUSH2 0x37B4 DUP2 PUSH2 0x378E JUMP JUMPDEST SWAP3 SWAP2 POP POP JUMP JUMPDEST PUSH1 0x0 DUP1 PUSH1 0x40 DUP4 DUP6 SUB SLT ISZERO PUSH2 0x37D1 JUMPI PUSH2 0x37D0 PUSH2 0x3073 JUMP JUMPDEST JUMPDEST PUSH1 0x0 PUSH2 0x37DF DUP6 DUP3 DUP7 ADD PUSH2 0x32C0 JUMP JUMPDEST SWAP3 POP POP PUSH1 0x20 PUSH2 0x37F0 DUP6 DUP3 DUP7 ADD PUSH2 0x37A5 JUMP JUMPDEST SWAP2 POP POP SWAP3 POP SWAP3 SWAP1 POP JUMP JUMPDEST PUSH1 0x0 PUSH8 0xFFFFFFFFFFFFFFFF DUP3 GT ISZERO PUSH2 0x3815 JUMPI PUSH2 0x3814 PUSH2 0x342D JUMP JUMPDEST JUMPDEST PUSH2 0x381E DUP3 PUSH2 0x317E JUMP JUMPDEST SWAP1 POP PUSH1 0x20 DUP2 ADD SWAP1 POP SWAP2 SWAP1 POP JUMP JUMPDEST PUSH1 0x0 PUSH2 0x383E PUSH2 0x3839 DUP5 PUSH2 0x37FA JUMP JUMPDEST PUSH2 0x348D JUMP JUMPDEST SWAP1 POP DUP3 DUP2 MSTORE PUSH1 0x20 DUP2 ADD DUP5 DUP5 DUP5 ADD GT ISZERO PUSH2 0x385A JUMPI PUSH2 0x3859 PUSH2 0x35B9 JUMP JUMPDEST JUMPDEST PUSH2 0x3865 DUP5 DUP3 DUP6 PUSH2 0x35EF JUMP JUMPDEST POP SWAP4 SWAP3 POP POP POP JUMP JUMPDEST PUSH1 0x0 DUP3 PUSH1 0x1F DUP4 ADD SLT PUSH2 0x3882 JUMPI PUSH2 0x3881 PUSH2 0x3428 JUMP JUMPDEST JUMPDEST DUP2 CALLDATALOAD PUSH2 0x3892 DUP5 DUP3 PUSH1 0x20 DUP7 ADD PUSH2 0x382B JUMP JUMPDEST SWAP2 POP POP SWAP3 SWAP2 POP POP JUMP JUMPDEST PUSH1 0x0 DUP1 PUSH1 0x0 DUP1 PUSH1 0x80 DUP6 DUP8 SUB SLT ISZERO PUSH2 0x38B5 JUMPI PUSH2 0x38B4 PUSH2 0x3073 JUMP JUMPDEST JUMPDEST PUSH1 0x0 PUSH2 0x38C3 DUP8 DUP3 DUP9 ADD PUSH2 0x32C0 JUMP JUMPDEST SWAP5 POP POP PUSH1 0x20 PUSH2 0x38D4 DUP8 DUP3 DUP9 ADD PUSH2 0x32C0 JUMP JUMPDEST SWAP4 POP POP PUSH1 0x40 PUSH2 0x38E5 DUP8 DUP3 DUP9 ADD PUSH2 0x320B JUMP JUMPDEST SWAP3 POP POP PUSH1 0x60 DUP6 ADD CALLDATALOAD PUSH8 0xFFFFFFFFFFFFFFFF DUP2 GT ISZERO PUSH2 0x3906 JUMPI PUSH2 0x3905 PUSH2 0x3078 JUMP JUMPDEST JUMPDEST PUSH2 0x3912 DUP8 DUP3 DUP9 ADD PUSH2 0x386D JUMP JUMPDEST SWAP2 POP POP SWAP3 SWAP6 SWAP2 SWAP5 POP SWAP3 POP JUMP JUMPDEST PUSH1 0x0 DUP1 PUSH1 0x40 DUP4 DUP6 SUB SLT ISZERO PUSH2 0x3935 JUMPI PUSH2 0x3934 PUSH2 0x3073 JUMP JUMPDEST JUMPDEST PUSH1 0x0 PUSH2 0x3943 DUP6 DUP3 DUP7 ADD PUSH2 0x32C0 JUMP JUMPDEST SWAP3 POP POP PUSH1 0x20 PUSH2 0x3954 DUP6 DUP3 DUP7 ADD PUSH2 0x32C0 JUMP JUMPDEST SWAP2 POP POP SWAP3 POP SWAP3 SWAP1 POP JUMP JUMPDEST PUSH1 0x0 PUSH1 0x80 DUP3 ADD SWAP1 POP PUSH2 0x3973 PUSH1 0x0 DUP4 ADD DUP8 PUSH2 0x3315 JUMP JUMPDEST PUSH2 0x3980 PUSH1 0x20 DUP4 ADD DUP7 PUSH2 0x3315 JUMP JUMPDEST PUSH2 0x398D PUSH1 0x40 DUP4 ADD DUP6 PUSH2 0x3315 JUMP JUMPDEST PUSH2 0x399A PUSH1 0x60 DUP4 ADD DUP5 PUSH2 0x3315 JUMP JUMPDEST SWAP6 SWAP5 POP POP POP POP POP JUMP JUMPDEST PUSH32 0x4E487B7100000000000000000000000000000000000000000000000000000000 PUSH1 0x0 MSTORE PUSH1 0x22 PUSH1 0x4 MSTORE PUSH1 0x24 PUSH1 0x0 REVERT JUMPDEST PUSH1 0x0 PUSH1 0x2 DUP3 DIV SWAP1 POP PUSH1 0x1 DUP3 AND DUP1 PUSH2 0x39EA JUMPI PUSH1 0x7F DUP3 AND SWAP2 POP JUMPDEST PUSH1 0x20 DUP3 LT DUP2 SUB PUSH2 0x39FD JUMPI PUSH2 0x39FC PUSH2 0x39A3 JUMP JUMPDEST JUMPDEST POP SWAP2 SWAP1 POP JUMP JUMPDEST PUSH32 0x4E487B7100000000000000000000000000000000000000000000000000000000 PUSH1 0x0 MSTORE PUSH1 0x11 PUSH1 0x4 MSTORE PUSH1 0x24 PUSH1 0x0 REVERT JUMPDEST PUSH1 0x0 PUSH2 0x3A3D DUP3 PUSH2 0x31EA JUMP JUMPDEST SWAP2 POP PUSH2 0x3A48 DUP4 PUSH2 0x31EA JUMP JUMPDEST SWAP3 POP DUP3 DUP3 MUL PUSH2 0x3A56 DUP2 PUSH2 0x31EA JUMP JUMPDEST SWAP2 POP DUP3 DUP3 DIV DUP5 EQ DUP4 ISZERO OR PUSH2 0x3A6D JUMPI PUSH2 0x3A6C PUSH2 0x3A03 JUMP JUMPDEST JUMPDEST POP SWAP3 SWAP2 POP POP JUMP JUMPDEST PUSH32 0x4E487B7100000000000000000000000000000000000000000000000000000000 PUSH1 0x0 MSTORE PUSH1 0x12 PUSH1 0x4 MSTORE PUSH1 0x24 PUSH1 0x0 REVERT JUMPDEST PUSH1 0x0 PUSH2 0x3AAE DUP3 PUSH2 0x31EA JUMP JUMPDEST SWAP2 POP PUSH2 0x3AB9 DUP4 PUSH2 0x31EA JUMP JUMPDEST SWAP3 POP DUP3 PUSH2 0x3AC9 JUMPI PUSH2 0x3AC8 PUSH2 0x3A74 JUMP JUMPDEST JUMPDEST DUP3 DUP3 DIV SWAP1 POP SWAP3 SWAP2 POP POP JUMP JUMPDEST PUSH32 0x4E487B7100000000000000000000000000000000000000000000000000000000 PUSH1 0x0 MSTORE PUSH1 0x32 PUSH1 0x4 MSTORE PUSH1 0x24 PUSH1 0x0 REVERT JUMPDEST PUSH1 0x0 PUSH2 0x3B0E DUP3 PUSH2 0x31EA JUMP JUMPDEST SWAP2 POP PUSH32 0xFFFFFFFFFFFFFFFFFFFFFFFFFFFFFFFFFFFFFFFFFFFFFFFFFFFFFFFFFFFFFFFF DUP3 SUB PUSH2 0x3B40 JUMPI PUSH2 0x3B3F PUSH2 0x3A03 JUMP JUMPDEST JUMPDEST PUSH1 0x1 DUP3 ADD SWAP1 POP SWAP2 SWAP1 POP JUMP JUMPDEST PUSH32 0x574C310000000000000000000000000000000000000000000000000000000000 PUSH1 0x0 DUP3 ADD MSTORE POP JUMP JUMPDEST PUSH1 0x0 PUSH2 0x3B81 PUSH1 0x3 DUP4 PUSH2 0x3143 JUMP JUMPDEST SWAP2 POP PUSH2 0x3B8C DUP3 PUSH2 0x3B4B JUMP JUMPDEST PUSH1 0x20 DUP3 ADD SWAP1 POP SWAP2 SWAP1 POP JUMP JUMPDEST PUSH1 0x0 DUP2 MLOAD SWAP1 POP SWAP2 SWAP1 POP JUMP JUMPDEST PUSH1 0x0 DUP3 DUP3 MSTORE PUSH1 0x20 DUP3 ADD SWAP1 POP SWAP3 SWAP2 POP POP JUMP JUMPDEST PUSH1 0x0 DUP2 SWAP1 POP PUSH1 0x20 DUP3 ADD SWAP1 POP SWAP2 SWAP1 POP JUMP JUMPDEST PUSH2 0x3BCC DUP2 PUSH2 0x326D JUMP JUMPDEST DUP3 MSTORE POP POP JUMP JUMPDEST PUSH1 0x0 PUSH2 0x3BDE DUP4 DUP4 PUSH2 0x3BC3 JUMP JUMPDEST PUSH1 0x20 DUP4 ADD SWAP1 POP SWAP3 SWAP2 POP POP JUMP JUMPDEST PUSH1 0x0 PUSH1 0x20 DUP3 ADD SWAP1 POP SWAP2 SWAP1 POP JUMP JUMPDEST PUSH1 0x0 PUSH2 0x3C02 DUP3 PUSH2 0x3B97 JUMP JUMPDEST PUSH2 0x3C0C DUP2 DUP6 PUSH2 0x3BA2 JUMP JUMPDEST SWAP4 POP PUSH2 0x3C17 DUP4 PUSH2 0x3BB3 JUMP JUMPDEST DUP1 PUSH1 0x0 JUMPDEST DUP4 DUP2 LT ISZERO PUSH2 0x3C48 JUMPI DUP2 MLOAD PUSH2 0x3C2F DUP9 DUP3 PUSH2 0x3BD2 JUMP JUMPDEST SWAP8 POP PUSH2 0x3C3A DUP4 PUSH2 0x3BEA JUMP JUMPDEST SWAP3 POP POP PUSH1 0x1 DUP2 ADD SWAP1 POP PUSH2 0x3C1B JUMP JUMPDEST POP DUP6 SWAP4 POP POP POP POP SWAP3 SWAP2 POP POP JUMP JUMPDEST PUSH1 0x0 PUSH1 0x40 DUP3 ADD SWAP1 POP DUP2 DUP2 SUB PUSH1 0x0 DUP4 ADD MSTORE PUSH2 0x3C6E DUP2 PUSH2 0x3B74 JUMP JUMPDEST SWAP1 POP DUP2 DUP2 SUB PUSH1 0x20 DUP4 ADD MSTORE PUSH2 0x3C82 DUP2 DUP5 PUSH2 0x3BF7 JUMP JUMPDEST SWAP1 POP SWAP3 SWAP2 POP POP JUMP JUMPDEST PUSH1 0x0 DUP2 SWAP1 POP DUP2 PUSH1 0x0 MSTORE PUSH1 0x20 PUSH1 0x0 KECCAK256 SWAP1 POP SWAP2 SWAP1 POP JUMP JUMPDEST PUSH1 0x0 PUSH1 0x20 PUSH1 0x1F DUP4 ADD DIV SWAP1 POP SWAP2 SWAP1 POP JUMP JUMPDEST PUSH1 0x0 DUP3 DUP3 SHL SWAP1 POP SWAP3 SWAP2 POP POP JUMP JUMPDEST PUSH1 0x0 PUSH1 0x8 DUP4 MUL PUSH2 0x3CEC PUSH32 0xFFFFFFFFFFFFFFFFFFFFFFFFFFFFFFFFFFFFFFFFFFFFFFFFFFFFFFFFFFFFFFFF DUP3 PUSH2 0x3CAF JUMP JUMPDEST PUSH2 0x3CF6 DUP7 DUP4 PUSH2 0x3CAF JUMP JUMPDEST SWAP6 POP DUP1 NOT DUP5 AND SWAP4 POP DUP1 DUP7 AND DUP5 OR SWAP3 POP POP POP SWAP4 SWAP3 POP POP POP JUMP JUMPDEST PUSH1 0x0 DUP2 SWAP1 POP SWAP2 SWAP1 POP JUMP JUMPDEST PUSH1 0x0 PUSH2 0x3D33 PUSH2 0x3D2E PUSH2 0x3D29 DUP5 PUSH2 0x31EA JUMP JUMPDEST PUSH2 0x3D0E JUMP JUMPDEST PUSH2 0x31EA JUMP JUMPDEST SWAP1 POP SWAP2 SWAP1 POP JUMP JUMPDEST PUSH1 0x0 DUP2 SWAP1 POP SWAP2 SWAP1 POP JUMP JUMPDEST PUSH2 0x3D4D DUP4 PUSH2 0x3D18 JUMP JUMPDEST PUSH2 0x3D61 PUSH2 0x3D59 DUP3 PUSH2 0x3D3A JUMP JUMPDEST DUP5 DUP5 SLOAD PUSH2 0x3CBC JUMP JUMPDEST DUP3 SSTORE POP POP POP POP JUMP JUMPDEST PUSH1 0x0 SWAP1 JUMP JUMPDEST PUSH2 0x3D76 PUSH2 0x3D69 JUMP JUMPDEST PUSH2 0x3D81 DUP2 DUP5 DUP5 PUSH2 0x3D44 JUMP JUMPDEST POP POP POP JUMP JUMPDEST JUMPDEST DUP2 DUP2 LT ISZERO PUSH2 0x3DA5 JUMPI PUSH2 0x3D9A PUSH1 0x0 DUP3 PUSH2 0x3D6E JUMP JUMPDEST PUSH1 0x1 DUP2 ADD SWAP1 POP PUSH2 0x3D87 JUMP JUMPDEST POP POP JUMP JUMPDEST PUSH1 0x1F DUP3 GT ISZERO PUSH2 0x3DEA JUMPI PUSH2 0x3DBB DUP2 PUSH2 0x3C8A JUMP JUMPDEST PUSH2 0x3DC4 DUP5 PUSH2 0x3C9F JUMP JUMPDEST DUP2 ADD PUSH1 0x20 DUP6 LT ISZERO PUSH2 0x3DD3 JUMPI DUP2 SWAP1 POP JUMPDEST PUSH2 0x3DE7 PUSH2 0x3DDF DUP6 PUSH2 0x3C9F JUMP JUMPDEST DUP4 ADD DUP3 PUSH2 0x3D86 JUMP JUMPDEST POP POP JUMPDEST POP POP POP JUMP JUMPDEST PUSH1 0x0 DUP3 DUP3 SHR SWAP1 POP SWAP3 SWAP2 POP POP JUMP JUMPDEST PUSH1 0x0 PUSH2 0x3E0D PUSH1 0x0 NOT DUP5 PUSH1 0x8 MUL PUSH2 0x3DEF JUMP JUMPDEST NOT DUP1 DUP4 AND SWAP2 POP POP SWAP3 SWAP2 POP POP JUMP JUMPDEST PUSH1 0x0 PUSH2 0x3E26 DUP4 DUP4 PUSH2 0x3DFC JUMP JUMPDEST SWAP2 POP DUP3 PUSH1 0x2 MUL DUP3 OR SWAP1 POP SWAP3 SWAP2 POP POP JUMP JUMPDEST PUSH2 0x3E3F DUP3 PUSH2 0x3138 JUMP JUMPDEST PUSH8 0xFFFFFFFFFFFFFFFF DUP2 GT ISZERO PUSH2 0x3E58 JUMPI PUSH2 0x3E57 PUSH2 0x342D JUMP JUMPDEST JUMPDEST PUSH2 0x3E62 DUP3 SLOAD PUSH2 0x39D2 JUMP JUMPDEST PUSH2 0x3E6D DUP3 DUP3 DUP6 PUSH2 0x3DA9 JUMP JUMPDEST PUSH1 0x0 PUSH1 0x20 SWAP1 POP PUSH1 0x1F DUP4 GT PUSH1 0x1 DUP2 EQ PUSH2 0x3EA0 JUMPI PUSH1 0x0 DUP5 ISZERO PUSH2 0x3E8E JUMPI DUP3 DUP8 ADD MLOAD SWAP1 POP JUMPDEST PUSH2 0x3E98 DUP6 DUP3 PUSH2 0x3E1A JUMP JUMPDEST DUP7 SSTORE POP PUSH2 0x3F00 JUMP JUMPDEST PUSH1 0x1F NOT DUP5 AND PUSH2 0x3EAE DUP7 PUSH2 0x3C8A JUMP JUMPDEST PUSH1 0x0 JUMPDEST DUP3 DUP2 LT ISZERO PUSH2 0x3ED6 JUMPI DUP5 DUP10 ADD MLOAD DUP3 SSTORE PUSH1 0x1 DUP3 ADD SWAP2 POP PUSH1 0x20 DUP6 ADD SWAP5 POP PUSH1 0x20 DUP2 ADD SWAP1 POP PUSH2 0x3EB1 JUMP JUMPDEST DUP7 DUP4 LT ISZERO PUSH2 0x3EF3 JUMPI DUP5 DUP10 ADD MLOAD PUSH2 0x3EEF PUSH1 0x1F DUP10 AND DUP3 PUSH2 0x3DFC JUMP JUMPDEST DUP4 SSTORE POP JUMPDEST PUSH1 0x1 PUSH1 0x2 DUP9 MUL ADD DUP9 SSTORE POP POP POP JUMPDEST POP POP POP POP POP POP JUMP JUMPDEST PUSH32 0x574C000000000000000000000000000000000000000000000000000000000000 PUSH1 0x0 DUP3 ADD MSTORE POP JUMP JUMPDEST PUSH1 0x0 PUSH2 0x3F3E PUSH1 0x2 DUP4 PUSH2 0x3143 JUMP JUMPDEST SWAP2 POP PUSH2 0x3F49 DUP3 PUSH2 0x3F08 JUMP JUMPDEST PUSH1 0x20 DUP3 ADD SWAP1 POP SWAP2 SWAP1 POP JUMP JUMPDEST PUSH1 0x0 PUSH1 0x40 DUP3 ADD SWAP1 POP PUSH2 0x3F69 PUSH1 0x0 DUP4 ADD DUP5 PUSH2 0x3315 JUMP JUMPDEST DUP2 DUP2 SUB PUSH1 0x20 DUP4 ADD MSTORE PUSH2 0x3F7A DUP2 PUSH2 0x3F31 JUMP JUMPDEST SWAP1 POP SWAP3 SWAP2 POP POP JUMP JUMPDEST PUSH32 0x4643465300000000000000000000000000000000000000000000000000000000 PUSH1 0x0 DUP3 ADD MSTORE POP JUMP JUMPDEST PUSH1 0x0 PUSH2 0x3FB8 PUSH1 0x4 DUP4 PUSH2 0x3143 JUMP JUMPDEST SWAP2 POP PUSH2 0x3FC3 DUP3 PUSH2 0x3F82 JUMP JUMPDEST PUSH1 0x20 DUP3 ADD SWAP1 POP SWAP2 SWAP1 POP JUMP JUMPDEST PUSH1 0x0 PUSH1 0x40 DUP3 ADD SWAP1 POP PUSH2 0x3FE3 PUSH1 0x0 DUP4 ADD DUP5 PUSH2 0x3315 JUMP JUMPDEST DUP2 DUP2 SUB PUSH1 0x20 DUP4 ADD MSTORE PUSH2 0x3FF4 DUP2 PUSH2 0x3FAB JUMP JUMPDEST SWAP1 POP SWAP3 SWAP2 POP POP JUMP JUMPDEST PUSH32 0x5075626C69630000000000000000000000000000000000000000000000000000 PUSH1 0x0 DUP3 ADD MSTORE POP JUMP JUMPDEST PUSH1 0x0 PUSH2 0x4032 PUSH1 0x6 DUP4 PUSH2 0x3143 JUMP JUMPDEST SWAP2 POP PUSH2 0x403D DUP3 PUSH2 0x3FFC JUMP JUMPDEST PUSH1 0x20 DUP3 ADD SWAP1 POP SWAP2 SWAP1 POP JUMP JUMPDEST PUSH1 0x0 PUSH1 0x40 DUP3 ADD SWAP1 POP PUSH2 0x405D PUSH1 0x0 DUP4 ADD DUP5 PUSH2 0x3315 JUMP JUMPDEST DUP2 DUP2 SUB PUSH1 0x20 DUP4 ADD MSTORE PUSH2 0x406E DUP2 PUSH2 0x4025 JUMP JUMPDEST SWAP1 POP SWAP3 SWAP2 POP POP JUMP JUMPDEST PUSH32 0x5075626C6963206D696E742068656E757A206261736C616D6164690000000000 PUSH1 0x0 DUP3 ADD MSTORE POP JUMP JUMPDEST PUSH1 0x0 PUSH2 0x40AC PUSH1 0x1B DUP4 PUSH2 0x3143 JUMP JUMPDEST SWAP2 POP PUSH2 0x40B7 DUP3 PUSH2 0x4076 JUMP JUMPDEST PUSH1 0x20 DUP3 ADD SWAP1 POP SWAP2 SWAP1 POP JUMP JUMPDEST PUSH1 0x0 PUSH1 0x20 DUP3 ADD SWAP1 POP DUP2 DUP2 SUB PUSH1 0x0 DUP4 ADD MSTORE PUSH2 0x40DB DUP2 PUSH2 0x409F JUMP JUMPDEST SWAP1 POP SWAP2 SWAP1 POP JUMP JUMPDEST PUSH32 0x5A6174656E206D696E74206564696C6469000000000000000000000000000000 PUSH1 0x0 DUP3 ADD MSTORE POP JUMP JUMPDEST PUSH1 0x0 PUSH2 0x4118 PUSH1 0x11 DUP4 PUSH2 0x3143 JUMP JUMPDEST SWAP2 POP PUSH2 0x4123 DUP3 PUSH2 0x40E2 JUMP JUMPDEST PUSH1 0x20 DUP3 ADD SWAP1 POP SWAP2 SWAP1 POP JUMP JUMPDEST PUSH1 0x0 PUSH1 0x20 DUP3 ADD SWAP1 POP DUP2 DUP2 SUB PUSH1 0x0 DUP4 ADD MSTORE PUSH2 0x4147 DUP2 PUSH2 0x410B JUMP JUMPDEST SWAP1 POP SWAP2 SWAP1 POP JUMP JUMPDEST PUSH1 0x0 PUSH2 0x4159 DUP3 PUSH2 0x31EA JUMP JUMPDEST SWAP2 POP PUSH2 0x4164 DUP4 PUSH2 0x31EA JUMP JUMPDEST SWAP3 POP DUP3 DUP3 ADD SWAP1 POP DUP1 DUP3 GT ISZERO PUSH2 0x417C JUMPI PUSH2 0x417B PUSH2 0x3A03 JUMP JUMPDEST JUMPDEST SWAP3 SWAP2 POP POP JUMP JUMPDEST PUSH32 0x4D617820737570706C79206173696C6469000000000000000000000000000000 PUSH1 0x0 DUP3 ADD MSTORE POP JUMP JUMPDEST PUSH1 0x0 PUSH2 0x41B8 PUSH1 0x11 DUP4 PUSH2 0x3143 JUMP JUMPDEST SWAP2 POP PUSH2 0x41C3 DUP3 PUSH2 0x4182 JUMP JUMPDEST PUSH1 0x20 DUP3 ADD SWAP1 POP SWAP2 SWAP1 POP JUMP JUMPDEST PUSH1 0x0 PUSH1 0x20 DUP3 ADD SWAP1 POP DUP2 DUP2 SUB PUSH1 0x0 DUP4 ADD MSTORE PUSH2 0x41E7 DUP2 PUSH2 0x41AB JUMP JUMPDEST SWAP1 POP SWAP2 SWAP1 POP JUMP JUMPDEST PUSH32 0x596574657273697A204D4F4E0000000000000000000000000000000000000000 PUSH1 0x0 DUP3 ADD MSTORE POP JUMP JUMPDEST PUSH1 0x0 PUSH2 0x4224 PUSH1 0xC DUP4 PUSH2 0x3143 JUMP JUMPDEST SWAP2 POP PUSH2 0x422F DUP3 PUSH2 0x41EE JUMP JUMPDEST PUSH1 0x20 DUP3 ADD SWAP1 POP SWAP2 SWAP1 POP JUMP JUMPDEST PUSH1 0x0 PUSH1 0x20 DUP3 ADD SWAP1 POP DUP2 DUP2 SUB PUSH1 0x0 DUP4 ADD MSTORE PUSH2 0x4253 DUP2 PUSH2 0x4217 JUMP JUMPDEST SWAP1 POP SWAP2 SWAP1 POP JUMP JUMPDEST PUSH32 0x476563657273697A206164726573000000000000000000000000000000000000 PUSH1 0x0 DUP3 ADD MSTORE POP JUMP JUMPDEST PUSH1 0x0 PUSH2 0x4290 PUSH1 0xE DUP4 PUSH2 0x3143 JUMP JUMPDEST SWAP2 POP PUSH2 0x429B DUP3 PUSH2 0x425A JUMP JUMPDEST PUSH1 0x20 DUP3 ADD SWAP1 POP SWAP2 SWAP1 POP JUMP JUMPDEST PUSH1 0x0 PUSH1 0x20 DUP3 ADD SWAP1 POP DUP2 DUP2 SUB PUSH1 0x0 DUP4 ADD MSTORE PUSH2 0x42BF DUP2 PUSH2 0x4283 JUMP JUMPDEST SWAP1 POP SWAP2 SWAP1 POP JUMP JUMPDEST PUSH32 0x4765C3A7657273697A207A616D616E2073C4B172616C616D6173C4B100000000 PUSH1 0x0 DUP3 ADD MSTORE POP JUMP JUMPDEST PUSH1 0x0 PUSH2 0x42FC PUSH1 0x1C DUP4 PUSH2 0x3143 JUMP JUMPDEST SWAP2 POP PUSH2 0x4307 DUP3 PUSH2 0x42C6 JUMP JUMPDEST PUSH1 0x20 DUP3 ADD SWAP1 POP SWAP2 SWAP1 POP JUMP JUMPDEST PUSH1 0x0 PUSH1 0x20 DUP3 ADD SWAP1 POP DUP2 DUP2 SUB PUSH1 0x0 DUP4 ADD MSTORE PUSH2 0x432B DUP2 PUSH2 0x42EF JUMP JUMPDEST SWAP1 POP SWAP2 SWAP1 POP JUMP JUMPDEST PUSH1 0x0 PUSH1 0x60 DUP3 ADD SWAP1 POP PUSH2 0x4347 PUSH1 0x0 DUP4 ADD DUP7 PUSH2 0x3315 JUMP JUMPDEST PUSH2 0x4354 PUSH1 0x20 DUP4 ADD DUP6 PUSH2 0x3315 JUMP JUMPDEST PUSH2 0x4361 PUSH1 0x40 DUP4 ADD DUP5 PUSH2 0x3315 JUMP JUMPDEST SWAP5 SWAP4 POP POP POP POP JUMP JUMPDEST PUSH32 0x55524920717565727920666F72206E6F6E6578697374656E7420746F6B656E00 PUSH1 0x0 DUP3 ADD MSTORE POP JUMP JUMPDEST PUSH1 0x0 PUSH2 0x439F PUSH1 0x1F DUP4 PUSH2 0x3143 JUMP JUMPDEST SWAP2 POP PUSH2 0x43AA DUP3 PUSH2 0x4369 JUMP JUMPDEST PUSH1 0x20 DUP3 ADD SWAP1 POP SWAP2 SWAP1 POP JUMP JUMPDEST PUSH1 0x0 PUSH1 0x20 DUP3 ADD SWAP1 POP DUP2 DUP2 SUB PUSH1 0x0 DUP4 ADD MSTORE PUSH2 0x43CE DUP2 PUSH2 0x4392 JUMP JUMPDEST SWAP1 POP SWAP2 SWAP1 POP JUMP JUMPDEST PUSH1 0x0 DUP2 SWAP1 POP SWAP3 SWAP2 POP POP JUMP JUMPDEST PUSH1 0x0 DUP2 SLOAD PUSH2 0x43ED DUP2 PUSH2 0x39D2 JUMP JUMPDEST PUSH2 0x43F7 DUP2 DUP7 PUSH2 0x43D5 JUMP JUMPDEST SWAP5 POP PUSH1 0x1 DUP3 AND PUSH1 0x0 DUP2 EQ PUSH2 0x4412 JUMPI PUSH1 0x1 DUP2 EQ PUSH2 0x4427 JUMPI PUSH2 0x445A JUMP JUMPDEST PUSH1 0xFF NOT DUP4 AND DUP7 MSTORE DUP2 ISZERO ISZERO DUP3 MUL DUP7 ADD SWAP4 POP PUSH2 0x445A JUMP JUMPDEST PUSH2 0x4430 DUP6 PUSH2 0x3C8A JUMP JUMPDEST PUSH1 0x0 JUMPDEST DUP4 DUP2 LT ISZERO PUSH2 0x4452 JUMPI DUP2 SLOAD DUP2 DUP10 ADD MSTORE PUSH1 0x1 DUP3 ADD SWAP2 POP PUSH1 0x20 DUP2 ADD SWAP1 POP PUSH2 0x4433 JUMP JUMPDEST DUP4 DUP9 ADD SWAP6 POP POP POP JUMPDEST POP POP POP SWAP3 SWAP2 POP POP JUMP JUMPDEST PUSH1 0x0 PUSH2 0x446E DUP3 PUSH2 0x3138 JUMP JUMPDEST PUSH2 0x4478 DUP2 DUP6 PUSH2 0x43D5 JUMP JUMPDEST SWAP4 POP PUSH2 0x4488 DUP2 DUP6 PUSH1 0x20 DUP7 ADD PUSH2 0x3154 JUMP JUMPDEST DUP1 DUP5 ADD SWAP2 POP POP SWAP3 SWAP2 POP POP JUMP JUMPDEST PUSH1 0x0 PUSH2 0x44A0 DUP3 DUP6 PUSH2 0x43E0 JUMP JUMPDEST SWAP2 POP PUSH2 0x44AC DUP3 DUP5 PUSH2 0x4463 JUMP JUMPDEST SWAP2 POP DUP2 SWAP1 POP SWAP4 SWAP3 POP POP POP JUMP JUMPDEST PUSH32 0x574C206D696E742068656E757A206261736C616D616469000000000000000000 PUSH1 0x0 DUP3 ADD MSTORE POP JUMP JUMPDEST PUSH1 0x0 PUSH2 0x44EE PUSH1 0x17 DUP4 PUSH2 0x3143 JUMP JUMPDEST SWAP2 POP PUSH2 0x44F9 DUP3 PUSH2 0x44B8 JUMP JUMPDEST PUSH1 0x20 DUP3 ADD SWAP1 POP SWAP2 SWAP1 POP JUMP JUMPDEST PUSH1 0x0 PUSH1 0x20 DUP3 ADD SWAP1 POP DUP2 DUP2 SUB PUSH1 0x0 DUP4 ADD MSTORE PUSH2 0x451D DUP2 PUSH2 0x44E1 JUMP JUMPDEST SWAP1 POP SWAP2 SWAP1 POP JUMP JUMPDEST PUSH32 0x574C206D696E7420736F6E612065726469000000000000000000000000000000 PUSH1 0x0 DUP3 ADD MSTORE POP JUMP JUMPDEST PUSH1 0x0 PUSH2 0x455A PUSH1 0x11 DUP4 PUSH2 0x3143 JUMP JUMPDEST SWAP2 POP PUSH2 0x4565 DUP3 PUSH2 0x4524 JUMP JUMPDEST PUSH1 0x20 DUP3 ADD SWAP1 POP SWAP2 SWAP1 POP JUMP JUMPDEST PUSH1 0x0 PUSH1 0x20 DUP3 ADD SWAP1 POP DUP2 DUP2 SUB PUSH1 0x0 DUP4 ADD MSTORE PUSH2 0x4589 DUP2 PUSH2 0x454D JUMP JUMPDEST SWAP1 POP SWAP2 SWAP1 POP JUMP JUMPDEST PUSH32 0x57686974656C697374203127646520796F6B73756E2100000000000000000000 PUSH1 0x0 DUP3 ADD MSTORE POP JUMP JUMPDEST PUSH1 0x0 PUSH2 0x45C6 PUSH1 0x16 DUP4 PUSH2 0x3143 JUMP JUMPDEST SWAP2 POP PUSH2 0x45D1 DUP3 PUSH2 0x4590 JUMP JUMPDEST PUSH1 0x20 DUP3 ADD SWAP1 POP SWAP2 SWAP1 POP JUMP JUMPDEST PUSH1 0x0 PUSH1 0x20 DUP3 ADD SWAP1 POP DUP2 DUP2 SUB PUSH1 0x0 DUP4 ADD MSTORE PUSH2 0x45F5 DUP2 PUSH2 0x45B9 JUMP JUMPDEST SWAP1 POP SWAP2 SWAP1 POP JUMP JUMPDEST PUSH32 0x46434653206D696E742068656E757A206261736C616D61646900000000000000 PUSH1 0x0 DUP3 ADD MSTORE POP JUMP JUMPDEST PUSH1 0x0 PUSH2 0x4632 PUSH1 0x19 DUP4 PUSH2 0x3143 JUMP JUMPDEST SWAP2 POP PUSH2 0x463D DUP3 PUSH2 0x45FC JUMP JUMPDEST PUSH1 0x20 DUP3 ADD SWAP1 POP SWAP2 SWAP1 POP JUMP JUMPDEST PUSH1 0x0 PUSH1 0x20 DUP3 ADD SWAP1 POP DUP2 DUP2 SUB PUSH1 0x0 DUP4 ADD MSTORE PUSH2 0x4661 DUP2 PUSH2 0x4625 JUMP JUMPDEST SWAP1 POP SWAP2 SWAP1 POP JUMP JUMPDEST PUSH32 0x46434653206D696E7420736F6E61206572646900000000000000000000000000 PUSH1 0x0 DUP3 ADD MSTORE POP JUMP JUMPDEST PUSH1 0x0 PUSH2 0x469E PUSH1 0x13 DUP4 PUSH2 0x3143 JUMP JUMPDEST SWAP2 POP PUSH2 0x46A9 DUP3 PUSH2 0x4668 JUMP JUMPDEST PUSH1 0x20 DUP3 ADD SWAP1 POP SWAP2 SWAP1 POP JUMP JUMPDEST PUSH1 0x0 PUSH1 0x20 DUP3 ADD SWAP1 POP DUP2 DUP2 SUB PUSH1 0x0 DUP4 ADD MSTORE PUSH2 0x46CD DUP2 PUSH2 0x4691 JUMP JUMPDEST SWAP1 POP SWAP2 SWAP1 POP JUMP JUMPDEST PUSH32 0x57686974656C697374203227646520796F6B73756E2100000000000000000000 PUSH1 0x0 DUP3 ADD MSTORE POP JUMP JUMPDEST PUSH1 0x0 PUSH2 0x470A PUSH1 0x16 DUP4 PUSH2 0x3143 JUMP JUMPDEST SWAP2 POP PUSH2 0x4715 DUP3 PUSH2 0x46D4 JUMP JUMPDEST PUSH1 0x20 DUP3 ADD SWAP1 POP SWAP2 SWAP1 POP JUMP JUMPDEST PUSH1 0x0 PUSH1 0x20 DUP3 ADD SWAP1 POP DUP2 DUP2 SUB PUSH1 0x0 DUP4 ADD MSTORE PUSH2 0x4739 DUP2 PUSH2 0x46FD JUMP JUMPDEST SWAP1 POP SWAP2 SWAP1 POP JUMP JUMPDEST PUSH32 0x574C320000000000000000000000000000000000000000000000000000000000 PUSH1 0x0 DUP3 ADD MSTORE POP JUMP JUMPDEST PUSH1 0x0 PUSH2 0x4776 PUSH1 0x3 DUP4 PUSH2 0x3143 JUMP JUMPDEST SWAP2 POP PUSH2 0x4781 DUP3 PUSH2 0x4740 JUMP JUMPDEST PUSH1 0x20 DUP3 ADD SWAP1 POP SWAP2 SWAP1 POP JUMP JUMPDEST PUSH1 0x0 PUSH1 0x40 DUP3 ADD SWAP1 POP DUP2 DUP2 SUB PUSH1 0x0 DUP4 ADD MSTORE PUSH2 0x47A5 DUP2 PUSH2 0x4769 JUMP JUMPDEST SWAP1 POP DUP2 DUP2 SUB PUSH1 0x20 DUP4 ADD MSTORE PUSH2 0x47B9 DUP2 DUP5 PUSH2 0x3BF7 JUMP JUMPDEST SWAP1 POP SWAP3 SWAP2 POP POP JUMP JUMPDEST PUSH1 0x0 PUSH2 0x47CC DUP3 PUSH2 0x31EA JUMP JUMPDEST SWAP2 POP PUSH1 0x0 DUP3 SUB PUSH2 0x47DF JUMPI PUSH2 0x47DE PUSH2 0x3A03 JUMP JUMPDEST JUMPDEST PUSH1 0x1 DUP3 SUB SWAP1 POP SWAP2 SWAP1 POP JUMP JUMPDEST PUSH1 0x0 PUSH2 0x4805 PUSH2 0x4800 PUSH2 0x47FB DUP5 PUSH2 0x370A JUMP JUMPDEST PUSH2 0x3D0E JUMP JUMPDEST PUSH2 0x31EA JUMP JUMPDEST SWAP1 POP SWAP2 SWAP1 POP JUMP JUMPDEST PUSH2 0x4815 DUP2 PUSH2 0x47EA JUMP JUMPDEST DUP3 MSTORE POP POP JUMP JUMPDEST PUSH1 0x0 PUSH1 0x40 DUP3 ADD SWAP1 POP PUSH2 0x4830 PUSH1 0x0 DUP4 ADD DUP6 PUSH2 0x480C JUMP JUMPDEST PUSH2 0x483D PUSH1 0x20 DUP4 ADD DUP5 PUSH2 0x3315 JUMP JUMPDEST SWAP4 SWAP3 POP POP POP JUMP JUMPDEST PUSH1 0x0 DUP2 MLOAD SWAP1 POP SWAP2 SWAP1 POP JUMP JUMPDEST PUSH1 0x0 DUP3 DUP3 MSTORE PUSH1 0x20 DUP3 ADD SWAP1 POP SWAP3 SWAP2 POP POP JUMP JUMPDEST PUSH1 0x0 PUSH2 0x486B DUP3 PUSH2 0x4844 JUMP JUMPDEST PUSH2 0x4875 DUP2 DUP6 PUSH2 0x484F JUMP JUMPDEST SWAP4 POP PUSH2 0x4885 DUP2 DUP6 PUSH1 0x20 DUP7 ADD PUSH2 0x3154 JUMP JUMPDEST PUSH2 0x488E DUP2 PUSH2 0x317E JUMP JUMPDEST DUP5 ADD SWAP2 POP POP SWAP3 SWAP2 POP POP JUMP JUMPDEST PUSH1 0x0 PUSH1 0x80 DUP3 ADD SWAP1 POP PUSH2 0x48AE PUSH1 0x0 DUP4 ADD DUP8 PUSH2 0x327F JUMP JUMPDEST PUSH2 0x48BB PUSH1 0x20 DUP4 ADD DUP7 PUSH2 0x327F JUMP JUMPDEST PUSH2 0x48C8 PUSH1 0x40 DUP4 ADD DUP6 PUSH2 0x3315 JUMP JUMPDEST DUP2 DUP2 SUB PUSH1 0x60 DUP4 ADD MSTORE PUSH2 0x48DA DUP2 DUP5 PUSH2 0x4860 JUMP JUMPDEST SWAP1 POP SWAP6 SWAP5 POP POP POP POP POP JUMP JUMPDEST PUSH1 0x0 DUP2 MLOAD SWAP1 POP PUSH2 0x48F4 DUP2 PUSH2 0x30A9 JUMP JUMPDEST SWAP3 SWAP2 POP POP JUMP JUMPDEST PUSH1 0x0 PUSH1 0x20 DUP3 DUP5 SUB SLT ISZERO PUSH2 0x4910 JUMPI PUSH2 0x490F PUSH2 0x3073 JUMP JUMPDEST JUMPDEST PUSH1 0x0 PUSH2 0x491E DUP5 DUP3 DUP6 ADD PUSH2 0x48E5 JUMP JUMPDEST SWAP2 POP POP SWAP3 SWAP2 POP POP JUMP INVALID LOG2 PUSH5 0x6970667358 0x22 SLT KECCAK256 PUSH8 0xDCB4E5320F530508 COINBASE BASEFEE 0x4F PUSH24 0x6C9F562D81B32A73FAEFA67128E29D10BB2FD864736F6C63 NUMBER STOP ADDMOD EQ STOP CALLER "},"methodIdentifiers":{"approve(address,uint256)":"095ea7b3","balanceOf(address)":"70a08231","baseURI()":"6c0360eb","fcfsMintPrice()":"1cfacec4","fcfsStartTime()":"c989d075","getApproved(uint256)":"081812fc","getTimes()":"e9ab77e5","hasMintedFCFS(address)":"82cf3ce2","hasMintedPublic(address)":"612e9314","hasMintedWL(address)":"a490a56e","isApprovedForAll(address,address)":"e985e9c5","isWhitelist1(address)":"3f5aef12","isWhitelist2(address)":"56070e79","maxSupply()":"d5abeb01","mintFCFS()":"e66db9d3","mintPublic()":"8c874ebd","mintWL()":"cecd6700","name()":"06fdde03","owner()":"8da5cb5b","ownerOf(uint256)":"6352211e","publicMintPrice()":"dc53fd92","publicStartTime()":"5fd1bbc4","removeFromWhitelist1(address[])":"63da6964","removeFromWhitelist2(address[])":"c1c5d839","renounceOwnership()":"715018a6","royaltyInfo(uint256,uint256)":"2a55205a","royaltyReceiver()":"9fbc8713","safeTransferFrom(address,address,uint256)":"42842e0e","safeTransferFrom(address,address,uint256,bytes)":"b88d4fde","setApprovalForAll(address,bool)":"a22cb465","setBaseURI(string)":"55f804b3","setMintPrices(uint256,uint256,uint256)":"6fb081a4","setRoyalty(address,uint96)":"8f2fc60b","setRoyaltyReceiver(address)":"8dc251e3","setTimes(uint256,uint256,uint256)":"8f704aec","setWhitelist1(address[])":"43fb1ef4","setWhitelist2(address[])":"ff6fe345","supportsInterface(bytes4)":"01ffc9a7","symbol()":"95d89b41","tokenURI(uint256)":"c87b56dd","totalSupply()":"18160ddd","transferFrom(address,address,uint256)":"23b872dd","transferOwnership(address)":"f2fde38b","withdraw()":"3ccfd60b","wlMintPrice()":"2c4e9fc6","wlStartTime()":"be9feb30"}}}}}